{
	"Users/chris/Documents/GitHub/AirlineRewards/contracts/users/UserPreferences.sol": {
		"UserPreferences": {
			"abi": [
				{
					"anonymous": false,
					"inputs": [
						{
							"indexed": true,
							"internalType": "address",
							"name": "previousOwner",
							"type": "address"
						},
						{
							"indexed": true,
							"internalType": "address",
							"name": "newOwner",
							"type": "address"
						}
					],
					"name": "OwnershipTransferred",
					"type": "event"
				},
				{
					"anonymous": false,
					"inputs": [
						{
							"indexed": true,
							"internalType": "address",
							"name": "user",
							"type": "address"
						},
						{
							"indexed": false,
							"internalType": "bool",
							"name": "receiveEmails",
							"type": "bool"
						},
						{
							"indexed": false,
							"internalType": "bool",
							"name": "receivePromotions",
							"type": "bool"
						},
						{
							"indexed": false,
							"internalType": "bool",
							"name": "receiveNotifications",
							"type": "bool"
						}
					],
					"name": "PreferencesUpdated",
					"type": "event"
				},
				{
					"inputs": [],
					"name": "owner",
					"outputs": [
						{
							"internalType": "address",
							"name": "",
							"type": "address"
						}
					],
					"stateMutability": "view",
					"type": "function"
				},
				{
					"inputs": [],
					"name": "renounceOwnership",
					"outputs": [],
					"stateMutability": "nonpayable",
					"type": "function"
				},
				{
					"inputs": [
						{
							"internalType": "address",
							"name": "newOwner",
							"type": "address"
						}
					],
					"name": "transferOwnership",
					"outputs": [],
					"stateMutability": "nonpayable",
					"type": "function"
				},
				{
					"inputs": [
						{
							"internalType": "address",
							"name": "_user",
							"type": "address"
						},
						{
							"internalType": "bool",
							"name": "_receiveEmails",
							"type": "bool"
						},
						{
							"internalType": "bool",
							"name": "_receivePromotions",
							"type": "bool"
						},
						{
							"internalType": "bool",
							"name": "_receiveNotifications",
							"type": "bool"
						}
					],
					"name": "updateUserPreferences",
					"outputs": [],
					"stateMutability": "nonpayable",
					"type": "function"
				},
				{
					"inputs": [
						{
							"internalType": "address",
							"name": "",
							"type": "address"
						}
					],
					"name": "userPreferences",
					"outputs": [
						{
							"internalType": "bool",
							"name": "receiveEmails",
							"type": "bool"
						},
						{
							"internalType": "bool",
							"name": "receivePromotions",
							"type": "bool"
						},
						{
							"internalType": "bool",
							"name": "receiveNotifications",
							"type": "bool"
						}
					],
					"stateMutability": "view",
					"type": "function"
				}
			],
			"devdoc": {
				"kind": "dev",
				"methods": {
					"owner()": {
						"details": "Returns the address of the current owner."
					},
					"renounceOwnership()": {
						"details": "Leaves the contract without owner. It will not be possible to call `onlyOwner` functions anymore. Can only be called by the current owner. NOTE: Renouncing ownership will leave the contract without an owner, thereby removing any functionality that is only available to the owner."
					},
					"transferOwnership(address)": {
						"details": "Transfers ownership of the contract to a new account (`newOwner`). Can only be called by the current owner."
					},
					"updateUserPreferences(address,bool,bool,bool)": {
						"details": "Update the preferences for the given user's wallet address.",
						"params": {
							"_receiveEmails": "The updated preference for receiving emails.",
							"_receiveNotifications": "The updated preference for receiving notifications.",
							"_receivePromotions": "The updated preference for receiving promotions.",
							"_user": "The wallet address of the user."
						}
					}
				},
				"version": 1
			},
			"evm": {
				"assembly": "    /* \"Users/chris/Documents/GitHub/AirlineRewards/contracts/users/UserPreferences.sol\":79:1667  contract UserPreferences is Ownable {... */\n  mstore(0x40, 0x80)\n  callvalue\n  dup1\n  iszero\n  tag_1\n  jumpi\n  0x00\n  dup1\n  revert\ntag_1:\n  pop\n    /* \"@openzeppelin/contracts/access/Ownable.sol\":936:968  _transferOwnership(_msgSender()) */\n  tag_4\n    /* \"@openzeppelin/contracts/access/Ownable.sol\":955:967  _msgSender() */\n  tag_5\n    /* \"@openzeppelin/contracts/access/Ownable.sol\":955:965  _msgSender */\n  shl(0x20, tag_6)\n    /* \"@openzeppelin/contracts/access/Ownable.sol\":955:967  _msgSender() */\n  0x20\n  shr\n  jump\t// in\ntag_5:\n    /* \"@openzeppelin/contracts/access/Ownable.sol\":936:954  _transferOwnership */\n  shl(0x20, tag_7)\n    /* \"@openzeppelin/contracts/access/Ownable.sol\":936:968  _transferOwnership(_msgSender()) */\n  0x20\n  shr\n  jump\t// in\ntag_4:\n    /* \"Users/chris/Documents/GitHub/AirlineRewards/contracts/users/UserPreferences.sol\":79:1667  contract UserPreferences is Ownable {... */\n  jump(tag_8)\n    /* \"@openzeppelin/contracts/utils/Context.sol\":640:736  function _msgSender() internal view virtual returns (address) {... */\ntag_6:\n    /* \"@openzeppelin/contracts/utils/Context.sol\":693:700  address */\n  0x00\n    /* \"@openzeppelin/contracts/utils/Context.sol\":719:729  msg.sender */\n  caller\n    /* \"@openzeppelin/contracts/utils/Context.sol\":712:729  return msg.sender */\n  swap1\n  pop\n    /* \"@openzeppelin/contracts/utils/Context.sol\":640:736  function _msgSender() internal view virtual returns (address) {... */\n  swap1\n  jump\t// out\n    /* \"@openzeppelin/contracts/access/Ownable.sol\":2433:2620  function _transferOwnership(address newOwner) internal virtual {... */\ntag_7:\n    /* \"@openzeppelin/contracts/access/Ownable.sol\":2506:2522  address oldOwner */\n  0x00\n    /* \"@openzeppelin/contracts/access/Ownable.sol\":2525:2531  _owner */\n  dup1\n  0x00\n  swap1\n  sload\n  swap1\n  0x0100\n  exp\n  swap1\n  div\n  0xffffffffffffffffffffffffffffffffffffffff\n  and\n    /* \"@openzeppelin/contracts/access/Ownable.sol\":2506:2531  address oldOwner = _owner */\n  swap1\n  pop\n    /* \"@openzeppelin/contracts/access/Ownable.sol\":2550:2558  newOwner */\n  dup2\n    /* \"@openzeppelin/contracts/access/Ownable.sol\":2541:2547  _owner */\n  0x00\n  dup1\n    /* \"@openzeppelin/contracts/access/Ownable.sol\":2541:2558  _owner = newOwner */\n  0x0100\n  exp\n  dup2\n  sload\n  dup2\n  0xffffffffffffffffffffffffffffffffffffffff\n  mul\n  not\n  and\n  swap1\n  dup4\n  0xffffffffffffffffffffffffffffffffffffffff\n  and\n  mul\n  or\n  swap1\n  sstore\n  pop\n    /* \"@openzeppelin/contracts/access/Ownable.sol\":2604:2612  newOwner */\n  dup2\n    /* \"@openzeppelin/contracts/access/Ownable.sol\":2573:2613  OwnershipTransferred(oldOwner, newOwner) */\n  0xffffffffffffffffffffffffffffffffffffffff\n  and\n    /* \"@openzeppelin/contracts/access/Ownable.sol\":2594:2602  oldOwner */\n  dup2\n    /* \"@openzeppelin/contracts/access/Ownable.sol\":2573:2613  OwnershipTransferred(oldOwner, newOwner) */\n  0xffffffffffffffffffffffffffffffffffffffff\n  and\n  0x8be0079c531659141344cd1fd0a4f28419497f9722a3daafe3b4186f6b6457e0\n  mload(0x40)\n  mload(0x40)\n  dup1\n  swap2\n  sub\n  swap1\n  log3\n    /* \"@openzeppelin/contracts/access/Ownable.sol\":2496:2620  {... */\n  pop\n    /* \"@openzeppelin/contracts/access/Ownable.sol\":2433:2620  function _transferOwnership(address newOwner) internal virtual {... */\n  pop\n  jump\t// out\n    /* \"Users/chris/Documents/GitHub/AirlineRewards/contracts/users/UserPreferences.sol\":79:1667  contract UserPreferences is Ownable {... */\ntag_8:\n  dataSize(sub_0)\n  dup1\n  dataOffset(sub_0)\n  0x00\n  codecopy\n  0x00\n  return\nstop\n\nsub_0: assembly {\n        /* \"Users/chris/Documents/GitHub/AirlineRewards/contracts/users/UserPreferences.sol\":79:1667  contract UserPreferences is Ownable {... */\n      mstore(0x40, 0x80)\n      callvalue\n      dup1\n      iszero\n      tag_1\n      jumpi\n      0x00\n      dup1\n      revert\n    tag_1:\n      pop\n      jumpi(tag_2, lt(calldatasize, 0x04))\n      shr(0xe0, calldataload(0x00))\n      dup1\n      0x6793bcbf\n      eq\n      tag_3\n      jumpi\n      dup1\n      0x715018a6\n      eq\n      tag_4\n      jumpi\n      dup1\n      0x8da5cb5b\n      eq\n      tag_5\n      jumpi\n      dup1\n      0x98fee9e7\n      eq\n      tag_6\n      jumpi\n      dup1\n      0xf2fde38b\n      eq\n      tag_7\n      jumpi\n    tag_2:\n      0x00\n      dup1\n      revert\n        /* \"Users/chris/Documents/GitHub/AirlineRewards/contracts/users/UserPreferences.sol\":312:366  mapping(address => Preferences) public userPreferences */\n    tag_3:\n      tag_8\n      0x04\n      dup1\n      calldatasize\n      sub\n      dup2\n      add\n      swap1\n      tag_9\n      swap2\n      swap1\n      tag_10\n      jump\t// in\n    tag_9:\n      tag_11\n      jump\t// in\n    tag_8:\n      mload(0x40)\n      tag_12\n      swap4\n      swap3\n      swap2\n      swap1\n      tag_13\n      jump\t// in\n    tag_12:\n      mload(0x40)\n      dup1\n      swap2\n      sub\n      swap1\n      return\n        /* \"@openzeppelin/contracts/access/Ownable.sol\":1831:1932  function renounceOwnership() public virtual onlyOwner {... */\n    tag_4:\n      tag_14\n      tag_15\n      jump\t// in\n    tag_14:\n      stop\n        /* \"@openzeppelin/contracts/access/Ownable.sol\":1201:1286  function owner() public view virtual returns (address) {... */\n    tag_5:\n      tag_16\n      tag_17\n      jump\t// in\n    tag_16:\n      mload(0x40)\n      tag_18\n      swap2\n      swap1\n      tag_19\n      jump\t// in\n    tag_18:\n      mload(0x40)\n      dup1\n      swap2\n      sub\n      swap1\n      return\n        /* \"Users/chris/Documents/GitHub/AirlineRewards/contracts/users/UserPreferences.sol\":940:1665  function updateUserPreferences(... */\n    tag_6:\n      tag_20\n      0x04\n      dup1\n      calldatasize\n      sub\n      dup2\n      add\n      swap1\n      tag_21\n      swap2\n      swap1\n      tag_22\n      jump\t// in\n    tag_21:\n      tag_23\n      jump\t// in\n    tag_20:\n      stop\n        /* \"@openzeppelin/contracts/access/Ownable.sol\":2081:2279  function transferOwnership(address newOwner) public virtual onlyOwner {... */\n    tag_7:\n      tag_24\n      0x04\n      dup1\n      calldatasize\n      sub\n      dup2\n      add\n      swap1\n      tag_25\n      swap2\n      swap1\n      tag_10\n      jump\t// in\n    tag_25:\n      tag_26\n      jump\t// in\n    tag_24:\n      stop\n        /* \"Users/chris/Documents/GitHub/AirlineRewards/contracts/users/UserPreferences.sol\":312:366  mapping(address => Preferences) public userPreferences */\n    tag_11:\n      mstore(0x20, 0x01)\n      dup1\n      0x00\n      mstore\n      keccak256(0x00, 0x40)\n      0x00\n      swap2\n      pop\n      swap1\n      pop\n      dup1\n      0x00\n      add\n      0x00\n      swap1\n      sload\n      swap1\n      0x0100\n      exp\n      swap1\n      div\n      0xff\n      and\n      swap1\n      dup1\n      0x00\n      add\n      0x01\n      swap1\n      sload\n      swap1\n      0x0100\n      exp\n      swap1\n      div\n      0xff\n      and\n      swap1\n      dup1\n      0x00\n      add\n      0x02\n      swap1\n      sload\n      swap1\n      0x0100\n      exp\n      swap1\n      div\n      0xff\n      and\n      swap1\n      pop\n      dup4\n      jump\t// out\n        /* \"@openzeppelin/contracts/access/Ownable.sol\":1831:1932  function renounceOwnership() public virtual onlyOwner {... */\n    tag_15:\n        /* \"@openzeppelin/contracts/access/Ownable.sol\":1094:1107  _checkOwner() */\n      tag_28\n        /* \"@openzeppelin/contracts/access/Ownable.sol\":1094:1105  _checkOwner */\n      tag_29\n        /* \"@openzeppelin/contracts/access/Ownable.sol\":1094:1107  _checkOwner() */\n      jump\t// in\n    tag_28:\n        /* \"@openzeppelin/contracts/access/Ownable.sol\":1895:1925  _transferOwnership(address(0)) */\n      tag_31\n        /* \"@openzeppelin/contracts/access/Ownable.sol\":1922:1923  0 */\n      0x00\n        /* \"@openzeppelin/contracts/access/Ownable.sol\":1895:1913  _transferOwnership */\n      tag_32\n        /* \"@openzeppelin/contracts/access/Ownable.sol\":1895:1925  _transferOwnership(address(0)) */\n      jump\t// in\n    tag_31:\n        /* \"@openzeppelin/contracts/access/Ownable.sol\":1831:1932  function renounceOwnership() public virtual onlyOwner {... */\n      jump\t// out\n        /* \"@openzeppelin/contracts/access/Ownable.sol\":1201:1286  function owner() public view virtual returns (address) {... */\n    tag_17:\n        /* \"@openzeppelin/contracts/access/Ownable.sol\":1247:1254  address */\n      0x00\n        /* \"@openzeppelin/contracts/access/Ownable.sol\":1273:1279  _owner */\n      dup1\n      0x00\n      swap1\n      sload\n      swap1\n      0x0100\n      exp\n      swap1\n      div\n      0xffffffffffffffffffffffffffffffffffffffff\n      and\n        /* \"@openzeppelin/contracts/access/Ownable.sol\":1266:1279  return _owner */\n      swap1\n      pop\n        /* \"@openzeppelin/contracts/access/Ownable.sol\":1201:1286  function owner() public view virtual returns (address) {... */\n      swap1\n      jump\t// out\n        /* \"Users/chris/Documents/GitHub/AirlineRewards/contracts/users/UserPreferences.sol\":940:1665  function updateUserPreferences(... */\n    tag_23:\n        /* \"Users/chris/Documents/GitHub/AirlineRewards/contracts/users/UserPreferences.sol\":1142:1143  0 */\n      0x00\n        /* \"Users/chris/Documents/GitHub/AirlineRewards/contracts/users/UserPreferences.sol\":1125:1144  _user != address(0) */\n      0xffffffffffffffffffffffffffffffffffffffff\n      and\n        /* \"Users/chris/Documents/GitHub/AirlineRewards/contracts/users/UserPreferences.sol\":1125:1130  _user */\n      dup5\n        /* \"Users/chris/Documents/GitHub/AirlineRewards/contracts/users/UserPreferences.sol\":1125:1144  _user != address(0) */\n      0xffffffffffffffffffffffffffffffffffffffff\n      and\n      sub\n        /* \"Users/chris/Documents/GitHub/AirlineRewards/contracts/users/UserPreferences.sol\":1117:1169  require(_user != address(0), \"Invalid user address\") */\n      tag_35\n      jumpi\n      mload(0x40)\n      0x08c379a000000000000000000000000000000000000000000000000000000000\n      dup2\n      mstore\n      0x04\n      add\n      tag_36\n      swap1\n      tag_37\n      jump\t// in\n    tag_36:\n      mload(0x40)\n      dup1\n      swap2\n      sub\n      swap1\n      revert\n    tag_35:\n        /* \"Users/chris/Documents/GitHub/AirlineRewards/contracts/users/UserPreferences.sol\":1196:1206  msg.sender */\n      caller\n        /* \"Users/chris/Documents/GitHub/AirlineRewards/contracts/users/UserPreferences.sol\":1187:1206  _user == msg.sender */\n      0xffffffffffffffffffffffffffffffffffffffff\n      and\n        /* \"Users/chris/Documents/GitHub/AirlineRewards/contracts/users/UserPreferences.sol\":1187:1192  _user */\n      dup5\n        /* \"Users/chris/Documents/GitHub/AirlineRewards/contracts/users/UserPreferences.sol\":1187:1206  _user == msg.sender */\n      0xffffffffffffffffffffffffffffffffffffffff\n      and\n      eq\n        /* \"Users/chris/Documents/GitHub/AirlineRewards/contracts/users/UserPreferences.sol\":1187:1231  _user == msg.sender || owner() == msg.sender */\n      dup1\n      tag_38\n      jumpi\n      pop\n        /* \"Users/chris/Documents/GitHub/AirlineRewards/contracts/users/UserPreferences.sol\":1221:1231  msg.sender */\n      caller\n        /* \"Users/chris/Documents/GitHub/AirlineRewards/contracts/users/UserPreferences.sol\":1210:1231  owner() == msg.sender */\n      0xffffffffffffffffffffffffffffffffffffffff\n      and\n        /* \"Users/chris/Documents/GitHub/AirlineRewards/contracts/users/UserPreferences.sol\":1210:1217  owner() */\n      tag_39\n        /* \"Users/chris/Documents/GitHub/AirlineRewards/contracts/users/UserPreferences.sol\":1210:1215  owner */\n      tag_17\n        /* \"Users/chris/Documents/GitHub/AirlineRewards/contracts/users/UserPreferences.sol\":1210:1217  owner() */\n      jump\t// in\n    tag_39:\n        /* \"Users/chris/Documents/GitHub/AirlineRewards/contracts/users/UserPreferences.sol\":1210:1231  owner() == msg.sender */\n      0xffffffffffffffffffffffffffffffffffffffff\n      and\n      eq\n        /* \"Users/chris/Documents/GitHub/AirlineRewards/contracts/users/UserPreferences.sol\":1187:1231  _user == msg.sender || owner() == msg.sender */\n    tag_38:\n        /* \"Users/chris/Documents/GitHub/AirlineRewards/contracts/users/UserPreferences.sol\":1179:1272  require(_user == msg.sender || owner() == msg.sender, \"Not authorized to update preferences\") */\n      tag_40\n      jumpi\n      mload(0x40)\n      0x08c379a000000000000000000000000000000000000000000000000000000000\n      dup2\n      mstore\n      0x04\n      add\n      tag_41\n      swap1\n      tag_42\n      jump\t// in\n    tag_41:\n      mload(0x40)\n      dup1\n      swap2\n      sub\n      swap1\n      revert\n    tag_40:\n        /* \"Users/chris/Documents/GitHub/AirlineRewards/contracts/users/UserPreferences.sol\":1324:1355  Preferences storage preferences */\n      0x00\n        /* \"Users/chris/Documents/GitHub/AirlineRewards/contracts/users/UserPreferences.sol\":1358:1373  userPreferences */\n      0x01\n        /* \"Users/chris/Documents/GitHub/AirlineRewards/contracts/users/UserPreferences.sol\":1358:1380  userPreferences[_user] */\n      0x00\n        /* \"Users/chris/Documents/GitHub/AirlineRewards/contracts/users/UserPreferences.sol\":1374:1379  _user */\n      dup7\n        /* \"Users/chris/Documents/GitHub/AirlineRewards/contracts/users/UserPreferences.sol\":1358:1380  userPreferences[_user] */\n      0xffffffffffffffffffffffffffffffffffffffff\n      and\n      0xffffffffffffffffffffffffffffffffffffffff\n      and\n      dup2\n      mstore\n      0x20\n      add\n      swap1\n      dup2\n      mstore\n      0x20\n      add\n      0x00\n      keccak256\n        /* \"Users/chris/Documents/GitHub/AirlineRewards/contracts/users/UserPreferences.sol\":1324:1380  Preferences storage preferences = userPreferences[_user] */\n      swap1\n      pop\n        /* \"Users/chris/Documents/GitHub/AirlineRewards/contracts/users/UserPreferences.sol\":1418:1432  _receiveEmails */\n      dup4\n        /* \"Users/chris/Documents/GitHub/AirlineRewards/contracts/users/UserPreferences.sol\":1390:1401  preferences */\n      dup2\n        /* \"Users/chris/Documents/GitHub/AirlineRewards/contracts/users/UserPreferences.sol\":1390:1415  preferences.receiveEmails */\n      0x00\n      add\n      0x00\n        /* \"Users/chris/Documents/GitHub/AirlineRewards/contracts/users/UserPreferences.sol\":1390:1432  preferences.receiveEmails = _receiveEmails */\n      0x0100\n      exp\n      dup2\n      sload\n      dup2\n      0xff\n      mul\n      not\n      and\n      swap1\n      dup4\n      iszero\n      iszero\n      mul\n      or\n      swap1\n      sstore\n      pop\n        /* \"Users/chris/Documents/GitHub/AirlineRewards/contracts/users/UserPreferences.sol\":1474:1492  _receivePromotions */\n      dup3\n        /* \"Users/chris/Documents/GitHub/AirlineRewards/contracts/users/UserPreferences.sol\":1442:1453  preferences */\n      dup2\n        /* \"Users/chris/Documents/GitHub/AirlineRewards/contracts/users/UserPreferences.sol\":1442:1471  preferences.receivePromotions */\n      0x00\n      add\n      0x01\n        /* \"Users/chris/Documents/GitHub/AirlineRewards/contracts/users/UserPreferences.sol\":1442:1492  preferences.receivePromotions = _receivePromotions */\n      0x0100\n      exp\n      dup2\n      sload\n      dup2\n      0xff\n      mul\n      not\n      and\n      swap1\n      dup4\n      iszero\n      iszero\n      mul\n      or\n      swap1\n      sstore\n      pop\n        /* \"Users/chris/Documents/GitHub/AirlineRewards/contracts/users/UserPreferences.sol\":1537:1558  _receiveNotifications */\n      dup2\n        /* \"Users/chris/Documents/GitHub/AirlineRewards/contracts/users/UserPreferences.sol\":1502:1513  preferences */\n      dup2\n        /* \"Users/chris/Documents/GitHub/AirlineRewards/contracts/users/UserPreferences.sol\":1502:1534  preferences.receiveNotifications */\n      0x00\n      add\n      0x02\n        /* \"Users/chris/Documents/GitHub/AirlineRewards/contracts/users/UserPreferences.sol\":1502:1558  preferences.receiveNotifications = _receiveNotifications */\n      0x0100\n      exp\n      dup2\n      sload\n      dup2\n      0xff\n      mul\n      not\n      and\n      swap1\n      dup4\n      iszero\n      iszero\n      mul\n      or\n      swap1\n      sstore\n      pop\n        /* \"Users/chris/Documents/GitHub/AirlineRewards/contracts/users/UserPreferences.sol\":1593:1598  _user */\n      dup5\n        /* \"Users/chris/Documents/GitHub/AirlineRewards/contracts/users/UserPreferences.sol\":1574:1658  PreferencesUpdated(_user, _receiveEmails, _receivePromotions, _receiveNotifications) */\n      0xffffffffffffffffffffffffffffffffffffffff\n      and\n      0xed8061f1990190dd9963303e214a9b419a90920405d0908a7535d84651a488f6\n        /* \"Users/chris/Documents/GitHub/AirlineRewards/contracts/users/UserPreferences.sol\":1600:1614  _receiveEmails */\n      dup6\n        /* \"Users/chris/Documents/GitHub/AirlineRewards/contracts/users/UserPreferences.sol\":1616:1634  _receivePromotions */\n      dup6\n        /* \"Users/chris/Documents/GitHub/AirlineRewards/contracts/users/UserPreferences.sol\":1636:1657  _receiveNotifications */\n      dup6\n        /* \"Users/chris/Documents/GitHub/AirlineRewards/contracts/users/UserPreferences.sol\":1574:1658  PreferencesUpdated(_user, _receiveEmails, _receivePromotions, _receiveNotifications) */\n      mload(0x40)\n      tag_43\n      swap4\n      swap3\n      swap2\n      swap1\n      tag_13\n      jump\t// in\n    tag_43:\n      mload(0x40)\n      dup1\n      swap2\n      sub\n      swap1\n      log2\n        /* \"Users/chris/Documents/GitHub/AirlineRewards/contracts/users/UserPreferences.sol\":1107:1665  {... */\n      pop\n        /* \"Users/chris/Documents/GitHub/AirlineRewards/contracts/users/UserPreferences.sol\":940:1665  function updateUserPreferences(... */\n      pop\n      pop\n      pop\n      pop\n      jump\t// out\n        /* \"@openzeppelin/contracts/access/Ownable.sol\":2081:2279  function transferOwnership(address newOwner) public virtual onlyOwner {... */\n    tag_26:\n        /* \"@openzeppelin/contracts/access/Ownable.sol\":1094:1107  _checkOwner() */\n      tag_45\n        /* \"@openzeppelin/contracts/access/Ownable.sol\":1094:1105  _checkOwner */\n      tag_29\n        /* \"@openzeppelin/contracts/access/Ownable.sol\":1094:1107  _checkOwner() */\n      jump\t// in\n    tag_45:\n        /* \"@openzeppelin/contracts/access/Ownable.sol\":2189:2190  0 */\n      0x00\n        /* \"@openzeppelin/contracts/access/Ownable.sol\":2169:2191  newOwner != address(0) */\n      0xffffffffffffffffffffffffffffffffffffffff\n      and\n        /* \"@openzeppelin/contracts/access/Ownable.sol\":2169:2177  newOwner */\n      dup2\n        /* \"@openzeppelin/contracts/access/Ownable.sol\":2169:2191  newOwner != address(0) */\n      0xffffffffffffffffffffffffffffffffffffffff\n      and\n      sub\n        /* \"@openzeppelin/contracts/access/Ownable.sol\":2161:2234  require(newOwner != address(0), \"Ownable: new owner is the zero address\") */\n      tag_47\n      jumpi\n      mload(0x40)\n      0x08c379a000000000000000000000000000000000000000000000000000000000\n      dup2\n      mstore\n      0x04\n      add\n      tag_48\n      swap1\n      tag_49\n      jump\t// in\n    tag_48:\n      mload(0x40)\n      dup1\n      swap2\n      sub\n      swap1\n      revert\n    tag_47:\n        /* \"@openzeppelin/contracts/access/Ownable.sol\":2244:2272  _transferOwnership(newOwner) */\n      tag_50\n        /* \"@openzeppelin/contracts/access/Ownable.sol\":2263:2271  newOwner */\n      dup2\n        /* \"@openzeppelin/contracts/access/Ownable.sol\":2244:2262  _transferOwnership */\n      tag_32\n        /* \"@openzeppelin/contracts/access/Ownable.sol\":2244:2272  _transferOwnership(newOwner) */\n      jump\t// in\n    tag_50:\n        /* \"@openzeppelin/contracts/access/Ownable.sol\":2081:2279  function transferOwnership(address newOwner) public virtual onlyOwner {... */\n      pop\n      jump\t// out\n        /* \"@openzeppelin/contracts/access/Ownable.sol\":1359:1489  function _checkOwner() internal view virtual {... */\n    tag_29:\n        /* \"@openzeppelin/contracts/access/Ownable.sol\":1433:1445  _msgSender() */\n      tag_52\n        /* \"@openzeppelin/contracts/access/Ownable.sol\":1433:1443  _msgSender */\n      tag_53\n        /* \"@openzeppelin/contracts/access/Ownable.sol\":1433:1445  _msgSender() */\n      jump\t// in\n    tag_52:\n        /* \"@openzeppelin/contracts/access/Ownable.sol\":1422:1445  owner() == _msgSender() */\n      0xffffffffffffffffffffffffffffffffffffffff\n      and\n        /* \"@openzeppelin/contracts/access/Ownable.sol\":1422:1429  owner() */\n      tag_54\n        /* \"@openzeppelin/contracts/access/Ownable.sol\":1422:1427  owner */\n      tag_17\n        /* \"@openzeppelin/contracts/access/Ownable.sol\":1422:1429  owner() */\n      jump\t// in\n    tag_54:\n        /* \"@openzeppelin/contracts/access/Ownable.sol\":1422:1445  owner() == _msgSender() */\n      0xffffffffffffffffffffffffffffffffffffffff\n      and\n      eq\n        /* \"@openzeppelin/contracts/access/Ownable.sol\":1414:1482  require(owner() == _msgSender(), \"Ownable: caller is not the owner\") */\n      tag_55\n      jumpi\n      mload(0x40)\n      0x08c379a000000000000000000000000000000000000000000000000000000000\n      dup2\n      mstore\n      0x04\n      add\n      tag_56\n      swap1\n      tag_57\n      jump\t// in\n    tag_56:\n      mload(0x40)\n      dup1\n      swap2\n      sub\n      swap1\n      revert\n    tag_55:\n        /* \"@openzeppelin/contracts/access/Ownable.sol\":1359:1489  function _checkOwner() internal view virtual {... */\n      jump\t// out\n        /* \"@openzeppelin/contracts/access/Ownable.sol\":2433:2620  function _transferOwnership(address newOwner) internal virtual {... */\n    tag_32:\n        /* \"@openzeppelin/contracts/access/Ownable.sol\":2506:2522  address oldOwner */\n      0x00\n        /* \"@openzeppelin/contracts/access/Ownable.sol\":2525:2531  _owner */\n      dup1\n      0x00\n      swap1\n      sload\n      swap1\n      0x0100\n      exp\n      swap1\n      div\n      0xffffffffffffffffffffffffffffffffffffffff\n      and\n        /* \"@openzeppelin/contracts/access/Ownable.sol\":2506:2531  address oldOwner = _owner */\n      swap1\n      pop\n        /* \"@openzeppelin/contracts/access/Ownable.sol\":2550:2558  newOwner */\n      dup2\n        /* \"@openzeppelin/contracts/access/Ownable.sol\":2541:2547  _owner */\n      0x00\n      dup1\n        /* \"@openzeppelin/contracts/access/Ownable.sol\":2541:2558  _owner = newOwner */\n      0x0100\n      exp\n      dup2\n      sload\n      dup2\n      0xffffffffffffffffffffffffffffffffffffffff\n      mul\n      not\n      and\n      swap1\n      dup4\n      0xffffffffffffffffffffffffffffffffffffffff\n      and\n      mul\n      or\n      swap1\n      sstore\n      pop\n        /* \"@openzeppelin/contracts/access/Ownable.sol\":2604:2612  newOwner */\n      dup2\n        /* \"@openzeppelin/contracts/access/Ownable.sol\":2573:2613  OwnershipTransferred(oldOwner, newOwner) */\n      0xffffffffffffffffffffffffffffffffffffffff\n      and\n        /* \"@openzeppelin/contracts/access/Ownable.sol\":2594:2602  oldOwner */\n      dup2\n        /* \"@openzeppelin/contracts/access/Ownable.sol\":2573:2613  OwnershipTransferred(oldOwner, newOwner) */\n      0xffffffffffffffffffffffffffffffffffffffff\n      and\n      0x8be0079c531659141344cd1fd0a4f28419497f9722a3daafe3b4186f6b6457e0\n      mload(0x40)\n      mload(0x40)\n      dup1\n      swap2\n      sub\n      swap1\n      log3\n        /* \"@openzeppelin/contracts/access/Ownable.sol\":2496:2620  {... */\n      pop\n        /* \"@openzeppelin/contracts/access/Ownable.sol\":2433:2620  function _transferOwnership(address newOwner) internal virtual {... */\n      pop\n      jump\t// out\n        /* \"@openzeppelin/contracts/utils/Context.sol\":640:736  function _msgSender() internal view virtual returns (address) {... */\n    tag_53:\n        /* \"@openzeppelin/contracts/utils/Context.sol\":693:700  address */\n      0x00\n        /* \"@openzeppelin/contracts/utils/Context.sol\":719:729  msg.sender */\n      caller\n        /* \"@openzeppelin/contracts/utils/Context.sol\":712:729  return msg.sender */\n      swap1\n      pop\n        /* \"@openzeppelin/contracts/utils/Context.sol\":640:736  function _msgSender() internal view virtual returns (address) {... */\n      swap1\n      jump\t// out\n        /* \"#utility.yul\":88:205   */\n    tag_61:\n        /* \"#utility.yul\":197:198   */\n      0x00\n        /* \"#utility.yul\":194:195   */\n      dup1\n        /* \"#utility.yul\":187:199   */\n      revert\n        /* \"#utility.yul\":334:460   */\n    tag_63:\n        /* \"#utility.yul\":371:378   */\n      0x00\n        /* \"#utility.yul\":411:453   */\n      0xffffffffffffffffffffffffffffffffffffffff\n        /* \"#utility.yul\":404:409   */\n      dup3\n        /* \"#utility.yul\":400:454   */\n      and\n        /* \"#utility.yul\":389:454   */\n      swap1\n      pop\n        /* \"#utility.yul\":334:460   */\n      swap2\n      swap1\n      pop\n      jump\t// out\n        /* \"#utility.yul\":466:562   */\n    tag_64:\n        /* \"#utility.yul\":503:510   */\n      0x00\n        /* \"#utility.yul\":532:556   */\n      tag_87\n        /* \"#utility.yul\":550:555   */\n      dup3\n        /* \"#utility.yul\":532:556   */\n      tag_63\n      jump\t// in\n    tag_87:\n        /* \"#utility.yul\":521:556   */\n      swap1\n      pop\n        /* \"#utility.yul\":466:562   */\n      swap2\n      swap1\n      pop\n      jump\t// out\n        /* \"#utility.yul\":568:690   */\n    tag_65:\n        /* \"#utility.yul\":641:665   */\n      tag_89\n        /* \"#utility.yul\":659:664   */\n      dup2\n        /* \"#utility.yul\":641:665   */\n      tag_64\n      jump\t// in\n    tag_89:\n        /* \"#utility.yul\":634:639   */\n      dup2\n        /* \"#utility.yul\":631:666   */\n      eq\n        /* \"#utility.yul\":621:684   */\n      tag_90\n      jumpi\n        /* \"#utility.yul\":680:681   */\n      0x00\n        /* \"#utility.yul\":677:678   */\n      dup1\n        /* \"#utility.yul\":670:682   */\n      revert\n        /* \"#utility.yul\":621:684   */\n    tag_90:\n        /* \"#utility.yul\":568:690   */\n      pop\n      jump\t// out\n        /* \"#utility.yul\":696:835   */\n    tag_66:\n        /* \"#utility.yul\":742:747   */\n      0x00\n        /* \"#utility.yul\":780:786   */\n      dup2\n        /* \"#utility.yul\":767:787   */\n      calldataload\n        /* \"#utility.yul\":758:787   */\n      swap1\n      pop\n        /* \"#utility.yul\":796:829   */\n      tag_92\n        /* \"#utility.yul\":823:828   */\n      dup2\n        /* \"#utility.yul\":796:829   */\n      tag_65\n      jump\t// in\n    tag_92:\n        /* \"#utility.yul\":696:835   */\n      swap3\n      swap2\n      pop\n      pop\n      jump\t// out\n        /* \"#utility.yul\":841:1170   */\n    tag_10:\n        /* \"#utility.yul\":900:906   */\n      0x00\n        /* \"#utility.yul\":949:951   */\n      0x20\n        /* \"#utility.yul\":937:946   */\n      dup3\n        /* \"#utility.yul\":928:935   */\n      dup5\n        /* \"#utility.yul\":924:947   */\n      sub\n        /* \"#utility.yul\":920:952   */\n      slt\n        /* \"#utility.yul\":917:1036   */\n      iszero\n      tag_94\n      jumpi\n        /* \"#utility.yul\":955:1034   */\n      tag_95\n      tag_61\n      jump\t// in\n    tag_95:\n        /* \"#utility.yul\":917:1036   */\n    tag_94:\n        /* \"#utility.yul\":1075:1076   */\n      0x00\n        /* \"#utility.yul\":1100:1153   */\n      tag_96\n        /* \"#utility.yul\":1145:1152   */\n      dup5\n        /* \"#utility.yul\":1136:1142   */\n      dup3\n        /* \"#utility.yul\":1125:1134   */\n      dup6\n        /* \"#utility.yul\":1121:1143   */\n      add\n        /* \"#utility.yul\":1100:1153   */\n      tag_66\n      jump\t// in\n    tag_96:\n        /* \"#utility.yul\":1090:1153   */\n      swap2\n      pop\n        /* \"#utility.yul\":1046:1163   */\n      pop\n        /* \"#utility.yul\":841:1170   */\n      swap3\n      swap2\n      pop\n      pop\n      jump\t// out\n        /* \"#utility.yul\":1176:1266   */\n    tag_67:\n        /* \"#utility.yul\":1210:1217   */\n      0x00\n        /* \"#utility.yul\":1253:1258   */\n      dup2\n        /* \"#utility.yul\":1246:1259   */\n      iszero\n        /* \"#utility.yul\":1239:1260   */\n      iszero\n        /* \"#utility.yul\":1228:1260   */\n      swap1\n      pop\n        /* \"#utility.yul\":1176:1266   */\n      swap2\n      swap1\n      pop\n      jump\t// out\n        /* \"#utility.yul\":1272:1381   */\n    tag_68:\n        /* \"#utility.yul\":1353:1374   */\n      tag_99\n        /* \"#utility.yul\":1368:1373   */\n      dup2\n        /* \"#utility.yul\":1353:1374   */\n      tag_67\n      jump\t// in\n    tag_99:\n        /* \"#utility.yul\":1348:1351   */\n      dup3\n        /* \"#utility.yul\":1341:1375   */\n      mstore\n        /* \"#utility.yul\":1272:1381   */\n      pop\n      pop\n      jump\t// out\n        /* \"#utility.yul\":1387:1793   */\n    tag_13:\n        /* \"#utility.yul\":1518:1522   */\n      0x00\n        /* \"#utility.yul\":1556:1558   */\n      0x60\n        /* \"#utility.yul\":1545:1554   */\n      dup3\n        /* \"#utility.yul\":1541:1559   */\n      add\n        /* \"#utility.yul\":1533:1559   */\n      swap1\n      pop\n        /* \"#utility.yul\":1569:1634   */\n      tag_101\n        /* \"#utility.yul\":1631:1632   */\n      0x00\n        /* \"#utility.yul\":1620:1629   */\n      dup4\n        /* \"#utility.yul\":1616:1633   */\n      add\n        /* \"#utility.yul\":1607:1613   */\n      dup7\n        /* \"#utility.yul\":1569:1634   */\n      tag_68\n      jump\t// in\n    tag_101:\n        /* \"#utility.yul\":1644:1710   */\n      tag_102\n        /* \"#utility.yul\":1706:1708   */\n      0x20\n        /* \"#utility.yul\":1695:1704   */\n      dup4\n        /* \"#utility.yul\":1691:1709   */\n      add\n        /* \"#utility.yul\":1682:1688   */\n      dup6\n        /* \"#utility.yul\":1644:1710   */\n      tag_68\n      jump\t// in\n    tag_102:\n        /* \"#utility.yul\":1720:1786   */\n      tag_103\n        /* \"#utility.yul\":1782:1784   */\n      0x40\n        /* \"#utility.yul\":1771:1780   */\n      dup4\n        /* \"#utility.yul\":1767:1785   */\n      add\n        /* \"#utility.yul\":1758:1764   */\n      dup5\n        /* \"#utility.yul\":1720:1786   */\n      tag_68\n      jump\t// in\n    tag_103:\n        /* \"#utility.yul\":1387:1793   */\n      swap5\n      swap4\n      pop\n      pop\n      pop\n      pop\n      jump\t// out\n        /* \"#utility.yul\":1799:1917   */\n    tag_69:\n        /* \"#utility.yul\":1886:1910   */\n      tag_105\n        /* \"#utility.yul\":1904:1909   */\n      dup2\n        /* \"#utility.yul\":1886:1910   */\n      tag_64\n      jump\t// in\n    tag_105:\n        /* \"#utility.yul\":1881:1884   */\n      dup3\n        /* \"#utility.yul\":1874:1911   */\n      mstore\n        /* \"#utility.yul\":1799:1917   */\n      pop\n      pop\n      jump\t// out\n        /* \"#utility.yul\":1923:2145   */\n    tag_19:\n        /* \"#utility.yul\":2016:2020   */\n      0x00\n        /* \"#utility.yul\":2054:2056   */\n      0x20\n        /* \"#utility.yul\":2043:2052   */\n      dup3\n        /* \"#utility.yul\":2039:2057   */\n      add\n        /* \"#utility.yul\":2031:2057   */\n      swap1\n      pop\n        /* \"#utility.yul\":2067:2138   */\n      tag_107\n        /* \"#utility.yul\":2135:2136   */\n      0x00\n        /* \"#utility.yul\":2124:2133   */\n      dup4\n        /* \"#utility.yul\":2120:2137   */\n      add\n        /* \"#utility.yul\":2111:2117   */\n      dup5\n        /* \"#utility.yul\":2067:2138   */\n      tag_69\n      jump\t// in\n    tag_107:\n        /* \"#utility.yul\":1923:2145   */\n      swap3\n      swap2\n      pop\n      pop\n      jump\t// out\n        /* \"#utility.yul\":2151:2267   */\n    tag_70:\n        /* \"#utility.yul\":2221:2242   */\n      tag_109\n        /* \"#utility.yul\":2236:2241   */\n      dup2\n        /* \"#utility.yul\":2221:2242   */\n      tag_67\n      jump\t// in\n    tag_109:\n        /* \"#utility.yul\":2214:2219   */\n      dup2\n        /* \"#utility.yul\":2211:2243   */\n      eq\n        /* \"#utility.yul\":2201:2261   */\n      tag_110\n      jumpi\n        /* \"#utility.yul\":2257:2258   */\n      0x00\n        /* \"#utility.yul\":2254:2255   */\n      dup1\n        /* \"#utility.yul\":2247:2259   */\n      revert\n        /* \"#utility.yul\":2201:2261   */\n    tag_110:\n        /* \"#utility.yul\":2151:2267   */\n      pop\n      jump\t// out\n        /* \"#utility.yul\":2273:2406   */\n    tag_71:\n        /* \"#utility.yul\":2316:2321   */\n      0x00\n        /* \"#utility.yul\":2354:2360   */\n      dup2\n        /* \"#utility.yul\":2341:2361   */\n      calldataload\n        /* \"#utility.yul\":2332:2361   */\n      swap1\n      pop\n        /* \"#utility.yul\":2370:2400   */\n      tag_112\n        /* \"#utility.yul\":2394:2399   */\n      dup2\n        /* \"#utility.yul\":2370:2400   */\n      tag_70\n      jump\t// in\n    tag_112:\n        /* \"#utility.yul\":2273:2406   */\n      swap3\n      swap2\n      pop\n      pop\n      jump\t// out\n        /* \"#utility.yul\":2412:3159   */\n    tag_22:\n        /* \"#utility.yul\":2489:2495   */\n      0x00\n        /* \"#utility.yul\":2497:2503   */\n      dup1\n        /* \"#utility.yul\":2505:2511   */\n      0x00\n        /* \"#utility.yul\":2513:2519   */\n      dup1\n        /* \"#utility.yul\":2562:2565   */\n      0x80\n        /* \"#utility.yul\":2550:2559   */\n      dup6\n        /* \"#utility.yul\":2541:2548   */\n      dup8\n        /* \"#utility.yul\":2537:2560   */\n      sub\n        /* \"#utility.yul\":2533:2566   */\n      slt\n        /* \"#utility.yul\":2530:2650   */\n      iszero\n      tag_114\n      jumpi\n        /* \"#utility.yul\":2569:2648   */\n      tag_115\n      tag_61\n      jump\t// in\n    tag_115:\n        /* \"#utility.yul\":2530:2650   */\n    tag_114:\n        /* \"#utility.yul\":2689:2690   */\n      0x00\n        /* \"#utility.yul\":2714:2767   */\n      tag_116\n        /* \"#utility.yul\":2759:2766   */\n      dup8\n        /* \"#utility.yul\":2750:2756   */\n      dup3\n        /* \"#utility.yul\":2739:2748   */\n      dup9\n        /* \"#utility.yul\":2735:2757   */\n      add\n        /* \"#utility.yul\":2714:2767   */\n      tag_66\n      jump\t// in\n    tag_116:\n        /* \"#utility.yul\":2704:2767   */\n      swap5\n      pop\n        /* \"#utility.yul\":2660:2777   */\n      pop\n        /* \"#utility.yul\":2816:2818   */\n      0x20\n        /* \"#utility.yul\":2842:2892   */\n      tag_117\n        /* \"#utility.yul\":2884:2891   */\n      dup8\n        /* \"#utility.yul\":2875:2881   */\n      dup3\n        /* \"#utility.yul\":2864:2873   */\n      dup9\n        /* \"#utility.yul\":2860:2882   */\n      add\n        /* \"#utility.yul\":2842:2892   */\n      tag_71\n      jump\t// in\n    tag_117:\n        /* \"#utility.yul\":2832:2892   */\n      swap4\n      pop\n        /* \"#utility.yul\":2787:2902   */\n      pop\n        /* \"#utility.yul\":2941:2943   */\n      0x40\n        /* \"#utility.yul\":2967:3017   */\n      tag_118\n        /* \"#utility.yul\":3009:3016   */\n      dup8\n        /* \"#utility.yul\":3000:3006   */\n      dup3\n        /* \"#utility.yul\":2989:2998   */\n      dup9\n        /* \"#utility.yul\":2985:3007   */\n      add\n        /* \"#utility.yul\":2967:3017   */\n      tag_71\n      jump\t// in\n    tag_118:\n        /* \"#utility.yul\":2957:3017   */\n      swap3\n      pop\n        /* \"#utility.yul\":2912:3027   */\n      pop\n        /* \"#utility.yul\":3066:3068   */\n      0x60\n        /* \"#utility.yul\":3092:3142   */\n      tag_119\n        /* \"#utility.yul\":3134:3141   */\n      dup8\n        /* \"#utility.yul\":3125:3131   */\n      dup3\n        /* \"#utility.yul\":3114:3123   */\n      dup9\n        /* \"#utility.yul\":3110:3132   */\n      add\n        /* \"#utility.yul\":3092:3142   */\n      tag_71\n      jump\t// in\n    tag_119:\n        /* \"#utility.yul\":3082:3142   */\n      swap2\n      pop\n        /* \"#utility.yul\":3037:3152   */\n      pop\n        /* \"#utility.yul\":2412:3159   */\n      swap3\n      swap6\n      swap2\n      swap5\n      pop\n      swap3\n      pop\n      jump\t// out\n        /* \"#utility.yul\":3165:3334   */\n    tag_72:\n        /* \"#utility.yul\":3249:3260   */\n      0x00\n        /* \"#utility.yul\":3283:3289   */\n      dup3\n        /* \"#utility.yul\":3278:3281   */\n      dup3\n        /* \"#utility.yul\":3271:3290   */\n      mstore\n        /* \"#utility.yul\":3323:3327   */\n      0x20\n        /* \"#utility.yul\":3318:3321   */\n      dup3\n        /* \"#utility.yul\":3314:3328   */\n      add\n        /* \"#utility.yul\":3299:3328   */\n      swap1\n      pop\n        /* \"#utility.yul\":3165:3334   */\n      swap3\n      swap2\n      pop\n      pop\n      jump\t// out\n        /* \"#utility.yul\":3340:3510   */\n    tag_73:\n        /* \"#utility.yul\":3480:3502   */\n      0x496e76616c696420757365722061646472657373000000000000000000000000\n        /* \"#utility.yul\":3476:3477   */\n      0x00\n        /* \"#utility.yul\":3468:3474   */\n      dup3\n        /* \"#utility.yul\":3464:3478   */\n      add\n        /* \"#utility.yul\":3457:3503   */\n      mstore\n        /* \"#utility.yul\":3340:3510   */\n      pop\n      jump\t// out\n        /* \"#utility.yul\":3516:3882   */\n    tag_74:\n        /* \"#utility.yul\":3658:3661   */\n      0x00\n        /* \"#utility.yul\":3679:3746   */\n      tag_123\n        /* \"#utility.yul\":3743:3745   */\n      0x14\n        /* \"#utility.yul\":3738:3741   */\n      dup4\n        /* \"#utility.yul\":3679:3746   */\n      tag_72\n      jump\t// in\n    tag_123:\n        /* \"#utility.yul\":3672:3746   */\n      swap2\n      pop\n        /* \"#utility.yul\":3755:3848   */\n      tag_124\n        /* \"#utility.yul\":3844:3847   */\n      dup3\n        /* \"#utility.yul\":3755:3848   */\n      tag_73\n      jump\t// in\n    tag_124:\n        /* \"#utility.yul\":3873:3875   */\n      0x20\n        /* \"#utility.yul\":3868:3871   */\n      dup3\n        /* \"#utility.yul\":3864:3876   */\n      add\n        /* \"#utility.yul\":3857:3876   */\n      swap1\n      pop\n        /* \"#utility.yul\":3516:3882   */\n      swap2\n      swap1\n      pop\n      jump\t// out\n        /* \"#utility.yul\":3888:4307   */\n    tag_37:\n        /* \"#utility.yul\":4054:4058   */\n      0x00\n        /* \"#utility.yul\":4092:4094   */\n      0x20\n        /* \"#utility.yul\":4081:4090   */\n      dup3\n        /* \"#utility.yul\":4077:4095   */\n      add\n        /* \"#utility.yul\":4069:4095   */\n      swap1\n      pop\n        /* \"#utility.yul\":4141:4150   */\n      dup2\n        /* \"#utility.yul\":4135:4139   */\n      dup2\n        /* \"#utility.yul\":4131:4151   */\n      sub\n        /* \"#utility.yul\":4127:4128   */\n      0x00\n        /* \"#utility.yul\":4116:4125   */\n      dup4\n        /* \"#utility.yul\":4112:4129   */\n      add\n        /* \"#utility.yul\":4105:4152   */\n      mstore\n        /* \"#utility.yul\":4169:4300   */\n      tag_126\n        /* \"#utility.yul\":4295:4299   */\n      dup2\n        /* \"#utility.yul\":4169:4300   */\n      tag_74\n      jump\t// in\n    tag_126:\n        /* \"#utility.yul\":4161:4300   */\n      swap1\n      pop\n        /* \"#utility.yul\":3888:4307   */\n      swap2\n      swap1\n      pop\n      jump\t// out\n        /* \"#utility.yul\":4313:4536   */\n    tag_75:\n        /* \"#utility.yul\":4453:4487   */\n      0x4e6f7420617574686f72697a656420746f207570646174652070726566657265\n        /* \"#utility.yul\":4449:4450   */\n      0x00\n        /* \"#utility.yul\":4441:4447   */\n      dup3\n        /* \"#utility.yul\":4437:4451   */\n      add\n        /* \"#utility.yul\":4430:4488   */\n      mstore\n        /* \"#utility.yul\":4522:4528   */\n      0x6e63657300000000000000000000000000000000000000000000000000000000\n        /* \"#utility.yul\":4517:4519   */\n      0x20\n        /* \"#utility.yul\":4509:4515   */\n      dup3\n        /* \"#utility.yul\":4505:4520   */\n      add\n        /* \"#utility.yul\":4498:4529   */\n      mstore\n        /* \"#utility.yul\":4313:4536   */\n      pop\n      jump\t// out\n        /* \"#utility.yul\":4542:4908   */\n    tag_76:\n        /* \"#utility.yul\":4684:4687   */\n      0x00\n        /* \"#utility.yul\":4705:4772   */\n      tag_129\n        /* \"#utility.yul\":4769:4771   */\n      0x24\n        /* \"#utility.yul\":4764:4767   */\n      dup4\n        /* \"#utility.yul\":4705:4772   */\n      tag_72\n      jump\t// in\n    tag_129:\n        /* \"#utility.yul\":4698:4772   */\n      swap2\n      pop\n        /* \"#utility.yul\":4781:4874   */\n      tag_130\n        /* \"#utility.yul\":4870:4873   */\n      dup3\n        /* \"#utility.yul\":4781:4874   */\n      tag_75\n      jump\t// in\n    tag_130:\n        /* \"#utility.yul\":4899:4901   */\n      0x40\n        /* \"#utility.yul\":4894:4897   */\n      dup3\n        /* \"#utility.yul\":4890:4902   */\n      add\n        /* \"#utility.yul\":4883:4902   */\n      swap1\n      pop\n        /* \"#utility.yul\":4542:4908   */\n      swap2\n      swap1\n      pop\n      jump\t// out\n        /* \"#utility.yul\":4914:5333   */\n    tag_42:\n        /* \"#utility.yul\":5080:5084   */\n      0x00\n        /* \"#utility.yul\":5118:5120   */\n      0x20\n        /* \"#utility.yul\":5107:5116   */\n      dup3\n        /* \"#utility.yul\":5103:5121   */\n      add\n        /* \"#utility.yul\":5095:5121   */\n      swap1\n      pop\n        /* \"#utility.yul\":5167:5176   */\n      dup2\n        /* \"#utility.yul\":5161:5165   */\n      dup2\n        /* \"#utility.yul\":5157:5177   */\n      sub\n        /* \"#utility.yul\":5153:5154   */\n      0x00\n        /* \"#utility.yul\":5142:5151   */\n      dup4\n        /* \"#utility.yul\":5138:5155   */\n      add\n        /* \"#utility.yul\":5131:5178   */\n      mstore\n        /* \"#utility.yul\":5195:5326   */\n      tag_132\n        /* \"#utility.yul\":5321:5325   */\n      dup2\n        /* \"#utility.yul\":5195:5326   */\n      tag_76\n      jump\t// in\n    tag_132:\n        /* \"#utility.yul\":5187:5326   */\n      swap1\n      pop\n        /* \"#utility.yul\":4914:5333   */\n      swap2\n      swap1\n      pop\n      jump\t// out\n        /* \"#utility.yul\":5339:5564   */\n    tag_77:\n        /* \"#utility.yul\":5479:5513   */\n      0x4f776e61626c653a206e6577206f776e657220697320746865207a65726f2061\n        /* \"#utility.yul\":5475:5476   */\n      0x00\n        /* \"#utility.yul\":5467:5473   */\n      dup3\n        /* \"#utility.yul\":5463:5477   */\n      add\n        /* \"#utility.yul\":5456:5514   */\n      mstore\n        /* \"#utility.yul\":5548:5556   */\n      0x6464726573730000000000000000000000000000000000000000000000000000\n        /* \"#utility.yul\":5543:5545   */\n      0x20\n        /* \"#utility.yul\":5535:5541   */\n      dup3\n        /* \"#utility.yul\":5531:5546   */\n      add\n        /* \"#utility.yul\":5524:5557   */\n      mstore\n        /* \"#utility.yul\":5339:5564   */\n      pop\n      jump\t// out\n        /* \"#utility.yul\":5570:5936   */\n    tag_78:\n        /* \"#utility.yul\":5712:5715   */\n      0x00\n        /* \"#utility.yul\":5733:5800   */\n      tag_135\n        /* \"#utility.yul\":5797:5799   */\n      0x26\n        /* \"#utility.yul\":5792:5795   */\n      dup4\n        /* \"#utility.yul\":5733:5800   */\n      tag_72\n      jump\t// in\n    tag_135:\n        /* \"#utility.yul\":5726:5800   */\n      swap2\n      pop\n        /* \"#utility.yul\":5809:5902   */\n      tag_136\n        /* \"#utility.yul\":5898:5901   */\n      dup3\n        /* \"#utility.yul\":5809:5902   */\n      tag_77\n      jump\t// in\n    tag_136:\n        /* \"#utility.yul\":5927:5929   */\n      0x40\n        /* \"#utility.yul\":5922:5925   */\n      dup3\n        /* \"#utility.yul\":5918:5930   */\n      add\n        /* \"#utility.yul\":5911:5930   */\n      swap1\n      pop\n        /* \"#utility.yul\":5570:5936   */\n      swap2\n      swap1\n      pop\n      jump\t// out\n        /* \"#utility.yul\":5942:6361   */\n    tag_49:\n        /* \"#utility.yul\":6108:6112   */\n      0x00\n        /* \"#utility.yul\":6146:6148   */\n      0x20\n        /* \"#utility.yul\":6135:6144   */\n      dup3\n        /* \"#utility.yul\":6131:6149   */\n      add\n        /* \"#utility.yul\":6123:6149   */\n      swap1\n      pop\n        /* \"#utility.yul\":6195:6204   */\n      dup2\n        /* \"#utility.yul\":6189:6193   */\n      dup2\n        /* \"#utility.yul\":6185:6205   */\n      sub\n        /* \"#utility.yul\":6181:6182   */\n      0x00\n        /* \"#utility.yul\":6170:6179   */\n      dup4\n        /* \"#utility.yul\":6166:6183   */\n      add\n        /* \"#utility.yul\":6159:6206   */\n      mstore\n        /* \"#utility.yul\":6223:6354   */\n      tag_138\n        /* \"#utility.yul\":6349:6353   */\n      dup2\n        /* \"#utility.yul\":6223:6354   */\n      tag_78\n      jump\t// in\n    tag_138:\n        /* \"#utility.yul\":6215:6354   */\n      swap1\n      pop\n        /* \"#utility.yul\":5942:6361   */\n      swap2\n      swap1\n      pop\n      jump\t// out\n        /* \"#utility.yul\":6367:6549   */\n    tag_79:\n        /* \"#utility.yul\":6507:6541   */\n      0x4f776e61626c653a2063616c6c6572206973206e6f7420746865206f776e6572\n        /* \"#utility.yul\":6503:6504   */\n      0x00\n        /* \"#utility.yul\":6495:6501   */\n      dup3\n        /* \"#utility.yul\":6491:6505   */\n      add\n        /* \"#utility.yul\":6484:6542   */\n      mstore\n        /* \"#utility.yul\":6367:6549   */\n      pop\n      jump\t// out\n        /* \"#utility.yul\":6555:6921   */\n    tag_80:\n        /* \"#utility.yul\":6697:6700   */\n      0x00\n        /* \"#utility.yul\":6718:6785   */\n      tag_141\n        /* \"#utility.yul\":6782:6784   */\n      0x20\n        /* \"#utility.yul\":6777:6780   */\n      dup4\n        /* \"#utility.yul\":6718:6785   */\n      tag_72\n      jump\t// in\n    tag_141:\n        /* \"#utility.yul\":6711:6785   */\n      swap2\n      pop\n        /* \"#utility.yul\":6794:6887   */\n      tag_142\n        /* \"#utility.yul\":6883:6886   */\n      dup3\n        /* \"#utility.yul\":6794:6887   */\n      tag_79\n      jump\t// in\n    tag_142:\n        /* \"#utility.yul\":6912:6914   */\n      0x20\n        /* \"#utility.yul\":6907:6910   */\n      dup3\n        /* \"#utility.yul\":6903:6915   */\n      add\n        /* \"#utility.yul\":6896:6915   */\n      swap1\n      pop\n        /* \"#utility.yul\":6555:6921   */\n      swap2\n      swap1\n      pop\n      jump\t// out\n        /* \"#utility.yul\":6927:7346   */\n    tag_57:\n        /* \"#utility.yul\":7093:7097   */\n      0x00\n        /* \"#utility.yul\":7131:7133   */\n      0x20\n        /* \"#utility.yul\":7120:7129   */\n      dup3\n        /* \"#utility.yul\":7116:7134   */\n      add\n        /* \"#utility.yul\":7108:7134   */\n      swap1\n      pop\n        /* \"#utility.yul\":7180:7189   */\n      dup2\n        /* \"#utility.yul\":7174:7178   */\n      dup2\n        /* \"#utility.yul\":7170:7190   */\n      sub\n        /* \"#utility.yul\":7166:7167   */\n      0x00\n        /* \"#utility.yul\":7155:7164   */\n      dup4\n        /* \"#utility.yul\":7151:7168   */\n      add\n        /* \"#utility.yul\":7144:7191   */\n      mstore\n        /* \"#utility.yul\":7208:7339   */\n      tag_144\n        /* \"#utility.yul\":7334:7338   */\n      dup2\n        /* \"#utility.yul\":7208:7339   */\n      tag_80\n      jump\t// in\n    tag_144:\n        /* \"#utility.yul\":7200:7339   */\n      swap1\n      pop\n        /* \"#utility.yul\":6927:7346   */\n      swap2\n      swap1\n      pop\n      jump\t// out\n\n    auxdata: 0xa26469706673582212209cacf44b87ea3dec4a0c2287269adcbde041da1a0c25b7b45c7ac9e2b40caa2664736f6c63430008120033\n}\n",
				"bytecode": {
					"linkReferences": {},
					"object": "608060405234801561001057600080fd5b5061002d61002261003260201b60201c565b61003a60201b60201c565b6100fe565b600033905090565b60008060009054906101000a900473ffffffffffffffffffffffffffffffffffffffff169050816000806101000a81548173ffffffffffffffffffffffffffffffffffffffff021916908373ffffffffffffffffffffffffffffffffffffffff1602179055508173ffffffffffffffffffffffffffffffffffffffff168173ffffffffffffffffffffffffffffffffffffffff167f8be0079c531659141344cd1fd0a4f28419497f9722a3daafe3b4186f6b6457e060405160405180910390a35050565b6109358061010d6000396000f3fe608060405234801561001057600080fd5b50600436106100575760003560e01c80636793bcbf1461005c578063715018a61461008e5780638da5cb5b1461009857806398fee9e7146100b6578063f2fde38b146100d2575b600080fd5b610076600480360381019061007191906105b6565b6100ee565b604051610085939291906105fe565b60405180910390f35b61009661013f565b005b6100a0610153565b6040516100ad9190610644565b60405180910390f35b6100d060048036038101906100cb919061068b565b61017c565b005b6100ec60048036038101906100e791906105b6565b610386565b005b60016020528060005260406000206000915090508060000160009054906101000a900460ff16908060000160019054906101000a900460ff16908060000160029054906101000a900460ff16905083565b610147610409565b6101516000610487565b565b60008060009054906101000a900473ffffffffffffffffffffffffffffffffffffffff16905090565b600073ffffffffffffffffffffffffffffffffffffffff168473ffffffffffffffffffffffffffffffffffffffff16036101eb576040517f08c379a00000000000000000000000000000000000000000000000000000000081526004016101e29061074f565b60405180910390fd5b3373ffffffffffffffffffffffffffffffffffffffff168473ffffffffffffffffffffffffffffffffffffffff16148061025757503373ffffffffffffffffffffffffffffffffffffffff1661023f610153565b73ffffffffffffffffffffffffffffffffffffffff16145b610296576040517f08c379a000000000000000000000000000000000000000000000000000000000815260040161028d906107e1565b60405180910390fd5b6000600160008673ffffffffffffffffffffffffffffffffffffffff1673ffffffffffffffffffffffffffffffffffffffff1681526020019081526020016000209050838160000160006101000a81548160ff021916908315150217905550828160000160016101000a81548160ff021916908315150217905550818160000160026101000a81548160ff0219169083151502179055508473ffffffffffffffffffffffffffffffffffffffff167fed8061f1990190dd9963303e214a9b419a90920405d0908a7535d84651a488f6858585604051610377939291906105fe565b60405180910390a25050505050565b61038e610409565b600073ffffffffffffffffffffffffffffffffffffffff168173ffffffffffffffffffffffffffffffffffffffff16036103fd576040517f08c379a00000000000000000000000000000000000000000000000000000000081526004016103f490610873565b60405180910390fd5b61040681610487565b50565b61041161054b565b73ffffffffffffffffffffffffffffffffffffffff1661042f610153565b73ffffffffffffffffffffffffffffffffffffffff1614610485576040517f08c379a000000000000000000000000000000000000000000000000000000000815260040161047c906108df565b60405180910390fd5b565b60008060009054906101000a900473ffffffffffffffffffffffffffffffffffffffff169050816000806101000a81548173ffffffffffffffffffffffffffffffffffffffff021916908373ffffffffffffffffffffffffffffffffffffffff1602179055508173ffffffffffffffffffffffffffffffffffffffff168173ffffffffffffffffffffffffffffffffffffffff167f8be0079c531659141344cd1fd0a4f28419497f9722a3daafe3b4186f6b6457e060405160405180910390a35050565b600033905090565b600080fd5b600073ffffffffffffffffffffffffffffffffffffffff82169050919050565b600061058382610558565b9050919050565b61059381610578565b811461059e57600080fd5b50565b6000813590506105b08161058a565b92915050565b6000602082840312156105cc576105cb610553565b5b60006105da848285016105a1565b91505092915050565b60008115159050919050565b6105f8816105e3565b82525050565b600060608201905061061360008301866105ef565b61062060208301856105ef565b61062d60408301846105ef565b949350505050565b61063e81610578565b82525050565b60006020820190506106596000830184610635565b92915050565b610668816105e3565b811461067357600080fd5b50565b6000813590506106858161065f565b92915050565b600080600080608085870312156106a5576106a4610553565b5b60006106b3878288016105a1565b94505060206106c487828801610676565b93505060406106d587828801610676565b92505060606106e687828801610676565b91505092959194509250565b600082825260208201905092915050565b7f496e76616c696420757365722061646472657373000000000000000000000000600082015250565b60006107396014836106f2565b915061074482610703565b602082019050919050565b600060208201905081810360008301526107688161072c565b9050919050565b7f4e6f7420617574686f72697a656420746f20757064617465207072656665726560008201527f6e63657300000000000000000000000000000000000000000000000000000000602082015250565b60006107cb6024836106f2565b91506107d68261076f565b604082019050919050565b600060208201905081810360008301526107fa816107be565b9050919050565b7f4f776e61626c653a206e6577206f776e657220697320746865207a65726f206160008201527f6464726573730000000000000000000000000000000000000000000000000000602082015250565b600061085d6026836106f2565b915061086882610801565b604082019050919050565b6000602082019050818103600083015261088c81610850565b9050919050565b7f4f776e61626c653a2063616c6c6572206973206e6f7420746865206f776e6572600082015250565b60006108c96020836106f2565b91506108d482610893565b602082019050919050565b600060208201905081810360008301526108f8816108bc565b905091905056fea26469706673582212209cacf44b87ea3dec4a0c2287269adcbde041da1a0c25b7b45c7ac9e2b40caa2664736f6c63430008120033",
					"opcodes": "PUSH1 0x80 PUSH1 0x40 MSTORE CALLVALUE DUP1 ISZERO PUSH2 0x10 JUMPI PUSH1 0x0 DUP1 REVERT JUMPDEST POP PUSH2 0x2D PUSH2 0x22 PUSH2 0x32 PUSH1 0x20 SHL PUSH1 0x20 SHR JUMP JUMPDEST PUSH2 0x3A PUSH1 0x20 SHL PUSH1 0x20 SHR JUMP JUMPDEST PUSH2 0xFE JUMP JUMPDEST PUSH1 0x0 CALLER SWAP1 POP SWAP1 JUMP JUMPDEST PUSH1 0x0 DUP1 PUSH1 0x0 SWAP1 SLOAD SWAP1 PUSH2 0x100 EXP SWAP1 DIV PUSH20 0xFFFFFFFFFFFFFFFFFFFFFFFFFFFFFFFFFFFFFFFF AND SWAP1 POP DUP2 PUSH1 0x0 DUP1 PUSH2 0x100 EXP DUP2 SLOAD DUP2 PUSH20 0xFFFFFFFFFFFFFFFFFFFFFFFFFFFFFFFFFFFFFFFF MUL NOT AND SWAP1 DUP4 PUSH20 0xFFFFFFFFFFFFFFFFFFFFFFFFFFFFFFFFFFFFFFFF AND MUL OR SWAP1 SSTORE POP DUP2 PUSH20 0xFFFFFFFFFFFFFFFFFFFFFFFFFFFFFFFFFFFFFFFF AND DUP2 PUSH20 0xFFFFFFFFFFFFFFFFFFFFFFFFFFFFFFFFFFFFFFFF AND PUSH32 0x8BE0079C531659141344CD1FD0A4F28419497F9722A3DAAFE3B4186F6B6457E0 PUSH1 0x40 MLOAD PUSH1 0x40 MLOAD DUP1 SWAP2 SUB SWAP1 LOG3 POP POP JUMP JUMPDEST PUSH2 0x935 DUP1 PUSH2 0x10D PUSH1 0x0 CODECOPY PUSH1 0x0 RETURN INVALID PUSH1 0x80 PUSH1 0x40 MSTORE CALLVALUE DUP1 ISZERO PUSH2 0x10 JUMPI PUSH1 0x0 DUP1 REVERT JUMPDEST POP PUSH1 0x4 CALLDATASIZE LT PUSH2 0x57 JUMPI PUSH1 0x0 CALLDATALOAD PUSH1 0xE0 SHR DUP1 PUSH4 0x6793BCBF EQ PUSH2 0x5C JUMPI DUP1 PUSH4 0x715018A6 EQ PUSH2 0x8E JUMPI DUP1 PUSH4 0x8DA5CB5B EQ PUSH2 0x98 JUMPI DUP1 PUSH4 0x98FEE9E7 EQ PUSH2 0xB6 JUMPI DUP1 PUSH4 0xF2FDE38B EQ PUSH2 0xD2 JUMPI JUMPDEST PUSH1 0x0 DUP1 REVERT JUMPDEST PUSH2 0x76 PUSH1 0x4 DUP1 CALLDATASIZE SUB DUP2 ADD SWAP1 PUSH2 0x71 SWAP2 SWAP1 PUSH2 0x5B6 JUMP JUMPDEST PUSH2 0xEE JUMP JUMPDEST PUSH1 0x40 MLOAD PUSH2 0x85 SWAP4 SWAP3 SWAP2 SWAP1 PUSH2 0x5FE JUMP JUMPDEST PUSH1 0x40 MLOAD DUP1 SWAP2 SUB SWAP1 RETURN JUMPDEST PUSH2 0x96 PUSH2 0x13F JUMP JUMPDEST STOP JUMPDEST PUSH2 0xA0 PUSH2 0x153 JUMP JUMPDEST PUSH1 0x40 MLOAD PUSH2 0xAD SWAP2 SWAP1 PUSH2 0x644 JUMP JUMPDEST PUSH1 0x40 MLOAD DUP1 SWAP2 SUB SWAP1 RETURN JUMPDEST PUSH2 0xD0 PUSH1 0x4 DUP1 CALLDATASIZE SUB DUP2 ADD SWAP1 PUSH2 0xCB SWAP2 SWAP1 PUSH2 0x68B JUMP JUMPDEST PUSH2 0x17C JUMP JUMPDEST STOP JUMPDEST PUSH2 0xEC PUSH1 0x4 DUP1 CALLDATASIZE SUB DUP2 ADD SWAP1 PUSH2 0xE7 SWAP2 SWAP1 PUSH2 0x5B6 JUMP JUMPDEST PUSH2 0x386 JUMP JUMPDEST STOP JUMPDEST PUSH1 0x1 PUSH1 0x20 MSTORE DUP1 PUSH1 0x0 MSTORE PUSH1 0x40 PUSH1 0x0 KECCAK256 PUSH1 0x0 SWAP2 POP SWAP1 POP DUP1 PUSH1 0x0 ADD PUSH1 0x0 SWAP1 SLOAD SWAP1 PUSH2 0x100 EXP SWAP1 DIV PUSH1 0xFF AND SWAP1 DUP1 PUSH1 0x0 ADD PUSH1 0x1 SWAP1 SLOAD SWAP1 PUSH2 0x100 EXP SWAP1 DIV PUSH1 0xFF AND SWAP1 DUP1 PUSH1 0x0 ADD PUSH1 0x2 SWAP1 SLOAD SWAP1 PUSH2 0x100 EXP SWAP1 DIV PUSH1 0xFF AND SWAP1 POP DUP4 JUMP JUMPDEST PUSH2 0x147 PUSH2 0x409 JUMP JUMPDEST PUSH2 0x151 PUSH1 0x0 PUSH2 0x487 JUMP JUMPDEST JUMP JUMPDEST PUSH1 0x0 DUP1 PUSH1 0x0 SWAP1 SLOAD SWAP1 PUSH2 0x100 EXP SWAP1 DIV PUSH20 0xFFFFFFFFFFFFFFFFFFFFFFFFFFFFFFFFFFFFFFFF AND SWAP1 POP SWAP1 JUMP JUMPDEST PUSH1 0x0 PUSH20 0xFFFFFFFFFFFFFFFFFFFFFFFFFFFFFFFFFFFFFFFF AND DUP5 PUSH20 0xFFFFFFFFFFFFFFFFFFFFFFFFFFFFFFFFFFFFFFFF AND SUB PUSH2 0x1EB JUMPI PUSH1 0x40 MLOAD PUSH32 0x8C379A000000000000000000000000000000000000000000000000000000000 DUP2 MSTORE PUSH1 0x4 ADD PUSH2 0x1E2 SWAP1 PUSH2 0x74F JUMP JUMPDEST PUSH1 0x40 MLOAD DUP1 SWAP2 SUB SWAP1 REVERT JUMPDEST CALLER PUSH20 0xFFFFFFFFFFFFFFFFFFFFFFFFFFFFFFFFFFFFFFFF AND DUP5 PUSH20 0xFFFFFFFFFFFFFFFFFFFFFFFFFFFFFFFFFFFFFFFF AND EQ DUP1 PUSH2 0x257 JUMPI POP CALLER PUSH20 0xFFFFFFFFFFFFFFFFFFFFFFFFFFFFFFFFFFFFFFFF AND PUSH2 0x23F PUSH2 0x153 JUMP JUMPDEST PUSH20 0xFFFFFFFFFFFFFFFFFFFFFFFFFFFFFFFFFFFFFFFF AND EQ JUMPDEST PUSH2 0x296 JUMPI PUSH1 0x40 MLOAD PUSH32 0x8C379A000000000000000000000000000000000000000000000000000000000 DUP2 MSTORE PUSH1 0x4 ADD PUSH2 0x28D SWAP1 PUSH2 0x7E1 JUMP JUMPDEST PUSH1 0x40 MLOAD DUP1 SWAP2 SUB SWAP1 REVERT JUMPDEST PUSH1 0x0 PUSH1 0x1 PUSH1 0x0 DUP7 PUSH20 0xFFFFFFFFFFFFFFFFFFFFFFFFFFFFFFFFFFFFFFFF AND PUSH20 0xFFFFFFFFFFFFFFFFFFFFFFFFFFFFFFFFFFFFFFFF AND DUP2 MSTORE PUSH1 0x20 ADD SWAP1 DUP2 MSTORE PUSH1 0x20 ADD PUSH1 0x0 KECCAK256 SWAP1 POP DUP4 DUP2 PUSH1 0x0 ADD PUSH1 0x0 PUSH2 0x100 EXP DUP2 SLOAD DUP2 PUSH1 0xFF MUL NOT AND SWAP1 DUP4 ISZERO ISZERO MUL OR SWAP1 SSTORE POP DUP3 DUP2 PUSH1 0x0 ADD PUSH1 0x1 PUSH2 0x100 EXP DUP2 SLOAD DUP2 PUSH1 0xFF MUL NOT AND SWAP1 DUP4 ISZERO ISZERO MUL OR SWAP1 SSTORE POP DUP2 DUP2 PUSH1 0x0 ADD PUSH1 0x2 PUSH2 0x100 EXP DUP2 SLOAD DUP2 PUSH1 0xFF MUL NOT AND SWAP1 DUP4 ISZERO ISZERO MUL OR SWAP1 SSTORE POP DUP5 PUSH20 0xFFFFFFFFFFFFFFFFFFFFFFFFFFFFFFFFFFFFFFFF AND PUSH32 0xED8061F1990190DD9963303E214A9B419A90920405D0908A7535D84651A488F6 DUP6 DUP6 DUP6 PUSH1 0x40 MLOAD PUSH2 0x377 SWAP4 SWAP3 SWAP2 SWAP1 PUSH2 0x5FE JUMP JUMPDEST PUSH1 0x40 MLOAD DUP1 SWAP2 SUB SWAP1 LOG2 POP POP POP POP POP JUMP JUMPDEST PUSH2 0x38E PUSH2 0x409 JUMP JUMPDEST PUSH1 0x0 PUSH20 0xFFFFFFFFFFFFFFFFFFFFFFFFFFFFFFFFFFFFFFFF AND DUP2 PUSH20 0xFFFFFFFFFFFFFFFFFFFFFFFFFFFFFFFFFFFFFFFF AND SUB PUSH2 0x3FD JUMPI PUSH1 0x40 MLOAD PUSH32 0x8C379A000000000000000000000000000000000000000000000000000000000 DUP2 MSTORE PUSH1 0x4 ADD PUSH2 0x3F4 SWAP1 PUSH2 0x873 JUMP JUMPDEST PUSH1 0x40 MLOAD DUP1 SWAP2 SUB SWAP1 REVERT JUMPDEST PUSH2 0x406 DUP2 PUSH2 0x487 JUMP JUMPDEST POP JUMP JUMPDEST PUSH2 0x411 PUSH2 0x54B JUMP JUMPDEST PUSH20 0xFFFFFFFFFFFFFFFFFFFFFFFFFFFFFFFFFFFFFFFF AND PUSH2 0x42F PUSH2 0x153 JUMP JUMPDEST PUSH20 0xFFFFFFFFFFFFFFFFFFFFFFFFFFFFFFFFFFFFFFFF AND EQ PUSH2 0x485 JUMPI PUSH1 0x40 MLOAD PUSH32 0x8C379A000000000000000000000000000000000000000000000000000000000 DUP2 MSTORE PUSH1 0x4 ADD PUSH2 0x47C SWAP1 PUSH2 0x8DF JUMP JUMPDEST PUSH1 0x40 MLOAD DUP1 SWAP2 SUB SWAP1 REVERT JUMPDEST JUMP JUMPDEST PUSH1 0x0 DUP1 PUSH1 0x0 SWAP1 SLOAD SWAP1 PUSH2 0x100 EXP SWAP1 DIV PUSH20 0xFFFFFFFFFFFFFFFFFFFFFFFFFFFFFFFFFFFFFFFF AND SWAP1 POP DUP2 PUSH1 0x0 DUP1 PUSH2 0x100 EXP DUP2 SLOAD DUP2 PUSH20 0xFFFFFFFFFFFFFFFFFFFFFFFFFFFFFFFFFFFFFFFF MUL NOT AND SWAP1 DUP4 PUSH20 0xFFFFFFFFFFFFFFFFFFFFFFFFFFFFFFFFFFFFFFFF AND MUL OR SWAP1 SSTORE POP DUP2 PUSH20 0xFFFFFFFFFFFFFFFFFFFFFFFFFFFFFFFFFFFFFFFF AND DUP2 PUSH20 0xFFFFFFFFFFFFFFFFFFFFFFFFFFFFFFFFFFFFFFFF AND PUSH32 0x8BE0079C531659141344CD1FD0A4F28419497F9722A3DAAFE3B4186F6B6457E0 PUSH1 0x40 MLOAD PUSH1 0x40 MLOAD DUP1 SWAP2 SUB SWAP1 LOG3 POP POP JUMP JUMPDEST PUSH1 0x0 CALLER SWAP1 POP SWAP1 JUMP JUMPDEST PUSH1 0x0 DUP1 REVERT JUMPDEST PUSH1 0x0 PUSH20 0xFFFFFFFFFFFFFFFFFFFFFFFFFFFFFFFFFFFFFFFF DUP3 AND SWAP1 POP SWAP2 SWAP1 POP JUMP JUMPDEST PUSH1 0x0 PUSH2 0x583 DUP3 PUSH2 0x558 JUMP JUMPDEST SWAP1 POP SWAP2 SWAP1 POP JUMP JUMPDEST PUSH2 0x593 DUP2 PUSH2 0x578 JUMP JUMPDEST DUP2 EQ PUSH2 0x59E JUMPI PUSH1 0x0 DUP1 REVERT JUMPDEST POP JUMP JUMPDEST PUSH1 0x0 DUP2 CALLDATALOAD SWAP1 POP PUSH2 0x5B0 DUP2 PUSH2 0x58A JUMP JUMPDEST SWAP3 SWAP2 POP POP JUMP JUMPDEST PUSH1 0x0 PUSH1 0x20 DUP3 DUP5 SUB SLT ISZERO PUSH2 0x5CC JUMPI PUSH2 0x5CB PUSH2 0x553 JUMP JUMPDEST JUMPDEST PUSH1 0x0 PUSH2 0x5DA DUP5 DUP3 DUP6 ADD PUSH2 0x5A1 JUMP JUMPDEST SWAP2 POP POP SWAP3 SWAP2 POP POP JUMP JUMPDEST PUSH1 0x0 DUP2 ISZERO ISZERO SWAP1 POP SWAP2 SWAP1 POP JUMP JUMPDEST PUSH2 0x5F8 DUP2 PUSH2 0x5E3 JUMP JUMPDEST DUP3 MSTORE POP POP JUMP JUMPDEST PUSH1 0x0 PUSH1 0x60 DUP3 ADD SWAP1 POP PUSH2 0x613 PUSH1 0x0 DUP4 ADD DUP7 PUSH2 0x5EF JUMP JUMPDEST PUSH2 0x620 PUSH1 0x20 DUP4 ADD DUP6 PUSH2 0x5EF JUMP JUMPDEST PUSH2 0x62D PUSH1 0x40 DUP4 ADD DUP5 PUSH2 0x5EF JUMP JUMPDEST SWAP5 SWAP4 POP POP POP POP JUMP JUMPDEST PUSH2 0x63E DUP2 PUSH2 0x578 JUMP JUMPDEST DUP3 MSTORE POP POP JUMP JUMPDEST PUSH1 0x0 PUSH1 0x20 DUP3 ADD SWAP1 POP PUSH2 0x659 PUSH1 0x0 DUP4 ADD DUP5 PUSH2 0x635 JUMP JUMPDEST SWAP3 SWAP2 POP POP JUMP JUMPDEST PUSH2 0x668 DUP2 PUSH2 0x5E3 JUMP JUMPDEST DUP2 EQ PUSH2 0x673 JUMPI PUSH1 0x0 DUP1 REVERT JUMPDEST POP JUMP JUMPDEST PUSH1 0x0 DUP2 CALLDATALOAD SWAP1 POP PUSH2 0x685 DUP2 PUSH2 0x65F JUMP JUMPDEST SWAP3 SWAP2 POP POP JUMP JUMPDEST PUSH1 0x0 DUP1 PUSH1 0x0 DUP1 PUSH1 0x80 DUP6 DUP8 SUB SLT ISZERO PUSH2 0x6A5 JUMPI PUSH2 0x6A4 PUSH2 0x553 JUMP JUMPDEST JUMPDEST PUSH1 0x0 PUSH2 0x6B3 DUP8 DUP3 DUP9 ADD PUSH2 0x5A1 JUMP JUMPDEST SWAP5 POP POP PUSH1 0x20 PUSH2 0x6C4 DUP8 DUP3 DUP9 ADD PUSH2 0x676 JUMP JUMPDEST SWAP4 POP POP PUSH1 0x40 PUSH2 0x6D5 DUP8 DUP3 DUP9 ADD PUSH2 0x676 JUMP JUMPDEST SWAP3 POP POP PUSH1 0x60 PUSH2 0x6E6 DUP8 DUP3 DUP9 ADD PUSH2 0x676 JUMP JUMPDEST SWAP2 POP POP SWAP3 SWAP6 SWAP2 SWAP5 POP SWAP3 POP JUMP JUMPDEST PUSH1 0x0 DUP3 DUP3 MSTORE PUSH1 0x20 DUP3 ADD SWAP1 POP SWAP3 SWAP2 POP POP JUMP JUMPDEST PUSH32 0x496E76616C696420757365722061646472657373000000000000000000000000 PUSH1 0x0 DUP3 ADD MSTORE POP JUMP JUMPDEST PUSH1 0x0 PUSH2 0x739 PUSH1 0x14 DUP4 PUSH2 0x6F2 JUMP JUMPDEST SWAP2 POP PUSH2 0x744 DUP3 PUSH2 0x703 JUMP JUMPDEST PUSH1 0x20 DUP3 ADD SWAP1 POP SWAP2 SWAP1 POP JUMP JUMPDEST PUSH1 0x0 PUSH1 0x20 DUP3 ADD SWAP1 POP DUP2 DUP2 SUB PUSH1 0x0 DUP4 ADD MSTORE PUSH2 0x768 DUP2 PUSH2 0x72C JUMP JUMPDEST SWAP1 POP SWAP2 SWAP1 POP JUMP JUMPDEST PUSH32 0x4E6F7420617574686F72697A656420746F207570646174652070726566657265 PUSH1 0x0 DUP3 ADD MSTORE PUSH32 0x6E63657300000000000000000000000000000000000000000000000000000000 PUSH1 0x20 DUP3 ADD MSTORE POP JUMP JUMPDEST PUSH1 0x0 PUSH2 0x7CB PUSH1 0x24 DUP4 PUSH2 0x6F2 JUMP JUMPDEST SWAP2 POP PUSH2 0x7D6 DUP3 PUSH2 0x76F JUMP JUMPDEST PUSH1 0x40 DUP3 ADD SWAP1 POP SWAP2 SWAP1 POP JUMP JUMPDEST PUSH1 0x0 PUSH1 0x20 DUP3 ADD SWAP1 POP DUP2 DUP2 SUB PUSH1 0x0 DUP4 ADD MSTORE PUSH2 0x7FA DUP2 PUSH2 0x7BE JUMP JUMPDEST SWAP1 POP SWAP2 SWAP1 POP JUMP JUMPDEST PUSH32 0x4F776E61626C653A206E6577206F776E657220697320746865207A65726F2061 PUSH1 0x0 DUP3 ADD MSTORE PUSH32 0x6464726573730000000000000000000000000000000000000000000000000000 PUSH1 0x20 DUP3 ADD MSTORE POP JUMP JUMPDEST PUSH1 0x0 PUSH2 0x85D PUSH1 0x26 DUP4 PUSH2 0x6F2 JUMP JUMPDEST SWAP2 POP PUSH2 0x868 DUP3 PUSH2 0x801 JUMP JUMPDEST PUSH1 0x40 DUP3 ADD SWAP1 POP SWAP2 SWAP1 POP JUMP JUMPDEST PUSH1 0x0 PUSH1 0x20 DUP3 ADD SWAP1 POP DUP2 DUP2 SUB PUSH1 0x0 DUP4 ADD MSTORE PUSH2 0x88C DUP2 PUSH2 0x850 JUMP JUMPDEST SWAP1 POP SWAP2 SWAP1 POP JUMP JUMPDEST PUSH32 0x4F776E61626C653A2063616C6C6572206973206E6F7420746865206F776E6572 PUSH1 0x0 DUP3 ADD MSTORE POP JUMP JUMPDEST PUSH1 0x0 PUSH2 0x8C9 PUSH1 0x20 DUP4 PUSH2 0x6F2 JUMP JUMPDEST SWAP2 POP PUSH2 0x8D4 DUP3 PUSH2 0x893 JUMP JUMPDEST PUSH1 0x20 DUP3 ADD SWAP1 POP SWAP2 SWAP1 POP JUMP JUMPDEST PUSH1 0x0 PUSH1 0x20 DUP3 ADD SWAP1 POP DUP2 DUP2 SUB PUSH1 0x0 DUP4 ADD MSTORE PUSH2 0x8F8 DUP2 PUSH2 0x8BC JUMP JUMPDEST SWAP1 POP SWAP2 SWAP1 POP JUMP INVALID LOG2 PUSH5 0x6970667358 0x22 SLT KECCAK256 SWAP13 0xAC DELEGATECALL 0x4B DUP8 0xEA RETURNDATASIZE 0xEC 0x4A 0xC 0x22 DUP8 0x26 SWAP11 0xDC 0xBD 0xE0 COINBASE 0xDA BYTE 0xC 0x25 0xB7 0xB4 0x5C PUSH27 0xC9E2B40CAA2664736F6C6343000812003300000000000000000000 "
				},
				"gasEstimates": {
					"creation": {
						"codeDepositCost": "471400",
						"executionCost": "infinite",
						"totalCost": "infinite"
					},
					"external": {
						"owner()": "2544",
						"renounceOwnership()": "30398",
						"transferOwnership(address)": "30810",
						"updateUserPreferences(address,bool,bool,bool)": "infinite",
						"userPreferences(address)": "infinite"
					}
				},
				"methodIdentifiers": {
					"owner()": "8da5cb5b",
					"renounceOwnership()": "715018a6",
					"transferOwnership(address)": "f2fde38b",
					"updateUserPreferences(address,bool,bool,bool)": "98fee9e7",
					"userPreferences(address)": "6793bcbf"
				}
			},
			"storageLayout": {
				"storage": [
					{
						"astId": 7,
						"contract": "Users/chris/Documents/GitHub/AirlineRewards/contracts/users/UserPreferences.sol:UserPreferences",
						"label": "_owner",
						"offset": 0,
						"slot": "0",
						"type": "t_address"
					},
					{
						"astId": 151,
						"contract": "Users/chris/Documents/GitHub/AirlineRewards/contracts/users/UserPreferences.sol:UserPreferences",
						"label": "userPreferences",
						"offset": 0,
						"slot": "1",
						"type": "t_mapping(t_address,t_struct(Preferences)146_storage)"
					}
				],
				"types": {
					"t_address": {
						"encoding": "inplace",
						"label": "address",
						"numberOfBytes": "20"
					},
					"t_bool": {
						"encoding": "inplace",
						"label": "bool",
						"numberOfBytes": "1"
					},
					"t_mapping(t_address,t_struct(Preferences)146_storage)": {
						"encoding": "mapping",
						"key": "t_address",
						"label": "mapping(address => struct UserPreferences.Preferences)",
						"numberOfBytes": "32",
						"value": "t_struct(Preferences)146_storage"
					},
					"t_struct(Preferences)146_storage": {
						"encoding": "inplace",
						"label": "struct UserPreferences.Preferences",
						"members": [
							{
								"astId": 141,
								"contract": "Users/chris/Documents/GitHub/AirlineRewards/contracts/users/UserPreferences.sol:UserPreferences",
								"label": "receiveEmails",
								"offset": 0,
								"slot": "0",
								"type": "t_bool"
							},
							{
								"astId": 143,
								"contract": "Users/chris/Documents/GitHub/AirlineRewards/contracts/users/UserPreferences.sol:UserPreferences",
								"label": "receivePromotions",
								"offset": 1,
								"slot": "0",
								"type": "t_bool"
							},
							{
								"astId": 145,
								"contract": "Users/chris/Documents/GitHub/AirlineRewards/contracts/users/UserPreferences.sol:UserPreferences",
								"label": "receiveNotifications",
								"offset": 2,
								"slot": "0",
								"type": "t_bool"
							}
						],
						"numberOfBytes": "32"
					}
				}
			},
			"userdoc": {
				"kind": "user",
				"methods": {},
				"version": 1
			}
		}
	}
}