{
	"Users/chris/Documents/GitHub/AirlineRewards/contracts/users/UserRegistration.sol": {
		"UserRegistration": {
			"abi": [
				{
					"anonymous": false,
					"inputs": [
						{
							"indexed": true,
							"internalType": "address",
							"name": "previousOwner",
							"type": "address"
						},
						{
							"indexed": true,
							"internalType": "address",
							"name": "newOwner",
							"type": "address"
						}
					],
					"name": "OwnershipTransferred",
					"type": "event"
				},
				{
					"anonymous": false,
					"inputs": [
						{
							"indexed": true,
							"internalType": "uint256",
							"name": "userId",
							"type": "uint256"
						},
						{
							"indexed": false,
							"internalType": "string",
							"name": "fullName",
							"type": "string"
						},
						{
							"indexed": false,
							"internalType": "string",
							"name": "email",
							"type": "string"
						},
						{
							"indexed": false,
							"internalType": "address",
							"name": "wallet",
							"type": "address"
						}
					],
					"name": "UserRegistered",
					"type": "event"
				},
				{
					"inputs": [],
					"name": "owner",
					"outputs": [
						{
							"internalType": "address",
							"name": "",
							"type": "address"
						}
					],
					"stateMutability": "view",
					"type": "function"
				},
				{
					"inputs": [
						{
							"internalType": "string",
							"name": "_fullName",
							"type": "string"
						},
						{
							"internalType": "string",
							"name": "_email",
							"type": "string"
						},
						{
							"internalType": "address",
							"name": "_wallet",
							"type": "address"
						}
					],
					"name": "registerUser",
					"outputs": [],
					"stateMutability": "nonpayable",
					"type": "function"
				},
				{
					"inputs": [],
					"name": "renounceOwnership",
					"outputs": [],
					"stateMutability": "nonpayable",
					"type": "function"
				},
				{
					"inputs": [
						{
							"internalType": "address",
							"name": "newOwner",
							"type": "address"
						}
					],
					"name": "transferOwnership",
					"outputs": [],
					"stateMutability": "nonpayable",
					"type": "function"
				},
				{
					"inputs": [
						{
							"internalType": "uint256",
							"name": "_userId",
							"type": "uint256"
						},
						{
							"internalType": "bool",
							"name": "_isActive",
							"type": "bool"
						}
					],
					"name": "updateUserStatus",
					"outputs": [],
					"stateMutability": "nonpayable",
					"type": "function"
				},
				{
					"inputs": [
						{
							"internalType": "address",
							"name": "",
							"type": "address"
						}
					],
					"name": "userIds",
					"outputs": [
						{
							"internalType": "uint256",
							"name": "",
							"type": "uint256"
						}
					],
					"stateMutability": "view",
					"type": "function"
				},
				{
					"inputs": [
						{
							"internalType": "uint256",
							"name": "",
							"type": "uint256"
						}
					],
					"name": "users",
					"outputs": [
						{
							"internalType": "uint256",
							"name": "id",
							"type": "uint256"
						},
						{
							"internalType": "string",
							"name": "fullName",
							"type": "string"
						},
						{
							"internalType": "string",
							"name": "email",
							"type": "string"
						},
						{
							"internalType": "address",
							"name": "wallet",
							"type": "address"
						},
						{
							"internalType": "bool",
							"name": "isActive",
							"type": "bool"
						}
					],
					"stateMutability": "view",
					"type": "function"
				}
			],
			"devdoc": {
				"kind": "dev",
				"methods": {
					"owner()": {
						"details": "Returns the address of the current owner."
					},
					"registerUser(string,string,address)": {
						"details": "Register a new user with their full name, email, and wallet address.",
						"params": {
							"_email": "The email address of the user.",
							"_fullName": "The full name of the user.",
							"_wallet": "The wallet address of the user."
						}
					},
					"renounceOwnership()": {
						"details": "Leaves the contract without owner. It will not be possible to call `onlyOwner` functions anymore. Can only be called by the current owner. NOTE: Renouncing ownership will leave the contract without an owner, thereby removing any functionality that is only available to the owner."
					},
					"transferOwnership(address)": {
						"details": "Transfers ownership of the contract to a new account (`newOwner`). Can only be called by the current owner."
					},
					"updateUserStatus(uint256,bool)": {
						"details": "Update a user's active status.",
						"params": {
							"_isActive": "The new active status for the user.",
							"_userId": "The ID of the user."
						}
					}
				},
				"version": 1
			},
			"evm": {
				"assembly": "    /* \"Users/chris/Documents/GitHub/AirlineRewards/contracts/users/UserRegistration.sol\":132:2105  contract UserRegistration is Ownable {... */\n  mstore(0x40, 0x80)\n  callvalue\n  dup1\n  iszero\n  tag_1\n  jumpi\n  0x00\n  dup1\n  revert\ntag_1:\n  pop\n    /* \"@openzeppelin/contracts/access/Ownable.sol\":936:968  _transferOwnership(_msgSender()) */\n  tag_4\n    /* \"@openzeppelin/contracts/access/Ownable.sol\":955:967  _msgSender() */\n  tag_5\n    /* \"@openzeppelin/contracts/access/Ownable.sol\":955:965  _msgSender */\n  shl(0x20, tag_6)\n    /* \"@openzeppelin/contracts/access/Ownable.sol\":955:967  _msgSender() */\n  0x20\n  shr\n  jump\t// in\ntag_5:\n    /* \"@openzeppelin/contracts/access/Ownable.sol\":936:954  _transferOwnership */\n  shl(0x20, tag_7)\n    /* \"@openzeppelin/contracts/access/Ownable.sol\":936:968  _transferOwnership(_msgSender()) */\n  0x20\n  shr\n  jump\t// in\ntag_4:\n    /* \"Users/chris/Documents/GitHub/AirlineRewards/contracts/users/UserRegistration.sol\":132:2105  contract UserRegistration is Ownable {... */\n  jump(tag_8)\n    /* \"@openzeppelin/contracts/utils/Context.sol\":640:736  function _msgSender() internal view virtual returns (address) {... */\ntag_6:\n    /* \"@openzeppelin/contracts/utils/Context.sol\":693:700  address */\n  0x00\n    /* \"@openzeppelin/contracts/utils/Context.sol\":719:729  msg.sender */\n  caller\n    /* \"@openzeppelin/contracts/utils/Context.sol\":712:729  return msg.sender */\n  swap1\n  pop\n    /* \"@openzeppelin/contracts/utils/Context.sol\":640:736  function _msgSender() internal view virtual returns (address) {... */\n  swap1\n  jump\t// out\n    /* \"@openzeppelin/contracts/access/Ownable.sol\":2433:2620  function _transferOwnership(address newOwner) internal virtual {... */\ntag_7:\n    /* \"@openzeppelin/contracts/access/Ownable.sol\":2506:2522  address oldOwner */\n  0x00\n    /* \"@openzeppelin/contracts/access/Ownable.sol\":2525:2531  _owner */\n  dup1\n  0x00\n  swap1\n  sload\n  swap1\n  0x0100\n  exp\n  swap1\n  div\n  0xffffffffffffffffffffffffffffffffffffffff\n  and\n    /* \"@openzeppelin/contracts/access/Ownable.sol\":2506:2531  address oldOwner = _owner */\n  swap1\n  pop\n    /* \"@openzeppelin/contracts/access/Ownable.sol\":2550:2558  newOwner */\n  dup2\n    /* \"@openzeppelin/contracts/access/Ownable.sol\":2541:2547  _owner */\n  0x00\n  dup1\n    /* \"@openzeppelin/contracts/access/Ownable.sol\":2541:2558  _owner = newOwner */\n  0x0100\n  exp\n  dup2\n  sload\n  dup2\n  0xffffffffffffffffffffffffffffffffffffffff\n  mul\n  not\n  and\n  swap1\n  dup4\n  0xffffffffffffffffffffffffffffffffffffffff\n  and\n  mul\n  or\n  swap1\n  sstore\n  pop\n    /* \"@openzeppelin/contracts/access/Ownable.sol\":2604:2612  newOwner */\n  dup2\n    /* \"@openzeppelin/contracts/access/Ownable.sol\":2573:2613  OwnershipTransferred(oldOwner, newOwner) */\n  0xffffffffffffffffffffffffffffffffffffffff\n  and\n    /* \"@openzeppelin/contracts/access/Ownable.sol\":2594:2602  oldOwner */\n  dup2\n    /* \"@openzeppelin/contracts/access/Ownable.sol\":2573:2613  OwnershipTransferred(oldOwner, newOwner) */\n  0xffffffffffffffffffffffffffffffffffffffff\n  and\n  0x8be0079c531659141344cd1fd0a4f28419497f9722a3daafe3b4186f6b6457e0\n  mload(0x40)\n  mload(0x40)\n  dup1\n  swap2\n  sub\n  swap1\n  log3\n    /* \"@openzeppelin/contracts/access/Ownable.sol\":2496:2620  {... */\n  pop\n    /* \"@openzeppelin/contracts/access/Ownable.sol\":2433:2620  function _transferOwnership(address newOwner) internal virtual {... */\n  pop\n  jump\t// out\n    /* \"Users/chris/Documents/GitHub/AirlineRewards/contracts/users/UserRegistration.sol\":132:2105  contract UserRegistration is Ownable {... */\ntag_8:\n  dataSize(sub_0)\n  dup1\n  dataOffset(sub_0)\n  0x00\n  codecopy\n  0x00\n  return\nstop\n\nsub_0: assembly {\n        /* \"Users/chris/Documents/GitHub/AirlineRewards/contracts/users/UserRegistration.sol\":132:2105  contract UserRegistration is Ownable {... */\n      mstore(0x40, 0x80)\n      callvalue\n      dup1\n      iszero\n      tag_1\n      jumpi\n      0x00\n      dup1\n      revert\n    tag_1:\n      pop\n      jumpi(tag_2, lt(calldatasize, 0x04))\n      shr(0xe0, calldataload(0x00))\n      dup1\n      0x715018a6\n      gt\n      tag_10\n      jumpi\n      dup1\n      0x715018a6\n      eq\n      tag_6\n      jumpi\n      dup1\n      0x88557b07\n      eq\n      tag_7\n      jumpi\n      dup1\n      0x8da5cb5b\n      eq\n      tag_8\n      jumpi\n      dup1\n      0xf2fde38b\n      eq\n      tag_9\n      jumpi\n      jump(tag_2)\n    tag_10:\n      dup1\n      0x365b98b2\n      eq\n      tag_3\n      jumpi\n      dup1\n      0x3953527a\n      eq\n      tag_4\n      jumpi\n      dup1\n      0x4081db51\n      eq\n      tag_5\n      jumpi\n    tag_2:\n      0x00\n      dup1\n      revert\n        /* \"Users/chris/Documents/GitHub/AirlineRewards/contracts/users/UserRegistration.sol\":638:675  mapping(uint256 => User) public users */\n    tag_3:\n      tag_11\n      0x04\n      dup1\n      calldatasize\n      sub\n      dup2\n      add\n      swap1\n      tag_12\n      swap2\n      swap1\n      tag_13\n      jump\t// in\n    tag_12:\n      tag_14\n      jump\t// in\n    tag_11:\n      mload(0x40)\n      tag_15\n      swap6\n      swap5\n      swap4\n      swap3\n      swap2\n      swap1\n      tag_16\n      jump\t// in\n    tag_15:\n      mload(0x40)\n      dup1\n      swap2\n      sub\n      swap1\n      return\n        /* \"Users/chris/Documents/GitHub/AirlineRewards/contracts/users/UserRegistration.sol\":1900:2103  function updateUserStatus(uint256 _userId, bool _isActive) external onlyOwner {... */\n    tag_4:\n      tag_17\n      0x04\n      dup1\n      calldatasize\n      sub\n      dup2\n      add\n      swap1\n      tag_18\n      swap2\n      swap1\n      tag_19\n      jump\t// in\n    tag_18:\n      tag_20\n      jump\t// in\n    tag_17:\n      stop\n        /* \"Users/chris/Documents/GitHub/AirlineRewards/contracts/users/UserRegistration.sol\":539:581  mapping(address => uint256) public userIds */\n    tag_5:\n      tag_21\n      0x04\n      dup1\n      calldatasize\n      sub\n      dup2\n      add\n      swap1\n      tag_22\n      swap2\n      swap1\n      tag_23\n      jump\t// in\n    tag_22:\n      tag_24\n      jump\t// in\n    tag_21:\n      mload(0x40)\n      tag_25\n      swap2\n      swap1\n      tag_26\n      jump\t// in\n    tag_25:\n      mload(0x40)\n      dup1\n      swap2\n      sub\n      swap1\n      return\n        /* \"@openzeppelin/contracts/access/Ownable.sol\":1831:1932  function renounceOwnership() public virtual onlyOwner {... */\n    tag_6:\n      tag_27\n      tag_28\n      jump\t// in\n    tag_27:\n      stop\n        /* \"Users/chris/Documents/GitHub/AirlineRewards/contracts/users/UserRegistration.sol\":1081:1733  function registerUser(string memory _fullName, string memory _email, address _wallet) external onlyOwner {... */\n    tag_7:\n      tag_29\n      0x04\n      dup1\n      calldatasize\n      sub\n      dup2\n      add\n      swap1\n      tag_30\n      swap2\n      swap1\n      tag_31\n      jump\t// in\n    tag_30:\n      tag_32\n      jump\t// in\n    tag_29:\n      stop\n        /* \"@openzeppelin/contracts/access/Ownable.sol\":1201:1286  function owner() public view virtual returns (address) {... */\n    tag_8:\n      tag_33\n      tag_34\n      jump\t// in\n    tag_33:\n      mload(0x40)\n      tag_35\n      swap2\n      swap1\n      tag_36\n      jump\t// in\n    tag_35:\n      mload(0x40)\n      dup1\n      swap2\n      sub\n      swap1\n      return\n        /* \"@openzeppelin/contracts/access/Ownable.sol\":2081:2279  function transferOwnership(address newOwner) public virtual onlyOwner {... */\n    tag_9:\n      tag_37\n      0x04\n      dup1\n      calldatasize\n      sub\n      dup2\n      add\n      swap1\n      tag_38\n      swap2\n      swap1\n      tag_23\n      jump\t// in\n    tag_38:\n      tag_39\n      jump\t// in\n    tag_37:\n      stop\n        /* \"Users/chris/Documents/GitHub/AirlineRewards/contracts/users/UserRegistration.sol\":638:675  mapping(uint256 => User) public users */\n    tag_14:\n      mstore(0x20, 0x03)\n      dup1\n      0x00\n      mstore\n      keccak256(0x00, 0x40)\n      0x00\n      swap2\n      pop\n      swap1\n      pop\n      dup1\n      0x00\n      add\n      sload\n      swap1\n      dup1\n      0x01\n      add\n      dup1\n      sload\n      tag_40\n      swap1\n      tag_41\n      jump\t// in\n    tag_40:\n      dup1\n      0x1f\n      add\n      0x20\n      dup1\n      swap2\n      div\n      mul\n      0x20\n      add\n      mload(0x40)\n      swap1\n      dup2\n      add\n      0x40\n      mstore\n      dup1\n      swap3\n      swap2\n      swap1\n      dup2\n      dup2\n      mstore\n      0x20\n      add\n      dup3\n      dup1\n      sload\n      tag_42\n      swap1\n      tag_41\n      jump\t// in\n    tag_42:\n      dup1\n      iszero\n      tag_43\n      jumpi\n      dup1\n      0x1f\n      lt\n      tag_44\n      jumpi\n      0x0100\n      dup1\n      dup4\n      sload\n      div\n      mul\n      dup4\n      mstore\n      swap2\n      0x20\n      add\n      swap2\n      jump(tag_43)\n    tag_44:\n      dup3\n      add\n      swap2\n      swap1\n      0x00\n      mstore\n      keccak256(0x00, 0x20)\n      swap1\n    tag_45:\n      dup2\n      sload\n      dup2\n      mstore\n      swap1\n      0x01\n      add\n      swap1\n      0x20\n      add\n      dup1\n      dup4\n      gt\n      tag_45\n      jumpi\n      dup3\n      swap1\n      sub\n      0x1f\n      and\n      dup3\n      add\n      swap2\n    tag_43:\n      pop\n      pop\n      pop\n      pop\n      pop\n      swap1\n      dup1\n      0x02\n      add\n      dup1\n      sload\n      tag_46\n      swap1\n      tag_41\n      jump\t// in\n    tag_46:\n      dup1\n      0x1f\n      add\n      0x20\n      dup1\n      swap2\n      div\n      mul\n      0x20\n      add\n      mload(0x40)\n      swap1\n      dup2\n      add\n      0x40\n      mstore\n      dup1\n      swap3\n      swap2\n      swap1\n      dup2\n      dup2\n      mstore\n      0x20\n      add\n      dup3\n      dup1\n      sload\n      tag_47\n      swap1\n      tag_41\n      jump\t// in\n    tag_47:\n      dup1\n      iszero\n      tag_48\n      jumpi\n      dup1\n      0x1f\n      lt\n      tag_49\n      jumpi\n      0x0100\n      dup1\n      dup4\n      sload\n      div\n      mul\n      dup4\n      mstore\n      swap2\n      0x20\n      add\n      swap2\n      jump(tag_48)\n    tag_49:\n      dup3\n      add\n      swap2\n      swap1\n      0x00\n      mstore\n      keccak256(0x00, 0x20)\n      swap1\n    tag_50:\n      dup2\n      sload\n      dup2\n      mstore\n      swap1\n      0x01\n      add\n      swap1\n      0x20\n      add\n      dup1\n      dup4\n      gt\n      tag_50\n      jumpi\n      dup3\n      swap1\n      sub\n      0x1f\n      and\n      dup3\n      add\n      swap2\n    tag_48:\n      pop\n      pop\n      pop\n      pop\n      pop\n      swap1\n      dup1\n      0x03\n      add\n      0x00\n      swap1\n      sload\n      swap1\n      0x0100\n      exp\n      swap1\n      div\n      0xffffffffffffffffffffffffffffffffffffffff\n      and\n      swap1\n      dup1\n      0x03\n      add\n      0x14\n      swap1\n      sload\n      swap1\n      0x0100\n      exp\n      swap1\n      div\n      0xff\n      and\n      swap1\n      pop\n      dup6\n      jump\t// out\n        /* \"Users/chris/Documents/GitHub/AirlineRewards/contracts/users/UserRegistration.sol\":1900:2103  function updateUserStatus(uint256 _userId, bool _isActive) external onlyOwner {... */\n    tag_20:\n        /* \"@openzeppelin/contracts/access/Ownable.sol\":1094:1107  _checkOwner() */\n      tag_52\n        /* \"@openzeppelin/contracts/access/Ownable.sol\":1094:1105  _checkOwner */\n      tag_53\n        /* \"@openzeppelin/contracts/access/Ownable.sol\":1094:1107  _checkOwner() */\n      jump\t// in\n    tag_52:\n        /* \"Users/chris/Documents/GitHub/AirlineRewards/contracts/users/UserRegistration.sol\":2017:2018  0 */\n      0x00\n        /* \"Users/chris/Documents/GitHub/AirlineRewards/contracts/users/UserRegistration.sol\":1996:2001  users */\n      0x03\n        /* \"Users/chris/Documents/GitHub/AirlineRewards/contracts/users/UserRegistration.sol\":1996:2010  users[_userId] */\n      0x00\n        /* \"Users/chris/Documents/GitHub/AirlineRewards/contracts/users/UserRegistration.sol\":2002:2009  _userId */\n      dup5\n        /* \"Users/chris/Documents/GitHub/AirlineRewards/contracts/users/UserRegistration.sol\":1996:2010  users[_userId] */\n      dup2\n      mstore\n      0x20\n      add\n      swap1\n      dup2\n      mstore\n      0x20\n      add\n      0x00\n      keccak256\n        /* \"Users/chris/Documents/GitHub/AirlineRewards/contracts/users/UserRegistration.sol\":1996:2013  users[_userId].id */\n      0x00\n      add\n      sload\n        /* \"Users/chris/Documents/GitHub/AirlineRewards/contracts/users/UserRegistration.sol\":1996:2018  users[_userId].id != 0 */\n      sub\n        /* \"Users/chris/Documents/GitHub/AirlineRewards/contracts/users/UserRegistration.sol\":1988:2042  require(users[_userId].id != 0, \"User does not exist\") */\n      tag_55\n      jumpi\n      mload(0x40)\n      0x08c379a000000000000000000000000000000000000000000000000000000000\n      dup2\n      mstore\n      0x04\n      add\n      tag_56\n      swap1\n      tag_57\n      jump\t// in\n    tag_56:\n      mload(0x40)\n      dup1\n      swap2\n      sub\n      swap1\n      revert\n    tag_55:\n        /* \"Users/chris/Documents/GitHub/AirlineRewards/contracts/users/UserRegistration.sol\":2087:2096  _isActive */\n      dup1\n        /* \"Users/chris/Documents/GitHub/AirlineRewards/contracts/users/UserRegistration.sol\":2061:2066  users */\n      0x03\n        /* \"Users/chris/Documents/GitHub/AirlineRewards/contracts/users/UserRegistration.sol\":2061:2075  users[_userId] */\n      0x00\n        /* \"Users/chris/Documents/GitHub/AirlineRewards/contracts/users/UserRegistration.sol\":2067:2074  _userId */\n      dup5\n        /* \"Users/chris/Documents/GitHub/AirlineRewards/contracts/users/UserRegistration.sol\":2061:2075  users[_userId] */\n      dup2\n      mstore\n      0x20\n      add\n      swap1\n      dup2\n      mstore\n      0x20\n      add\n      0x00\n      keccak256\n        /* \"Users/chris/Documents/GitHub/AirlineRewards/contracts/users/UserRegistration.sol\":2061:2084  users[_userId].isActive */\n      0x03\n      add\n      0x14\n        /* \"Users/chris/Documents/GitHub/AirlineRewards/contracts/users/UserRegistration.sol\":2061:2096  users[_userId].isActive = _isActive */\n      0x0100\n      exp\n      dup2\n      sload\n      dup2\n      0xff\n      mul\n      not\n      and\n      swap1\n      dup4\n      iszero\n      iszero\n      mul\n      or\n      swap1\n      sstore\n      pop\n        /* \"Users/chris/Documents/GitHub/AirlineRewards/contracts/users/UserRegistration.sol\":1900:2103  function updateUserStatus(uint256 _userId, bool _isActive) external onlyOwner {... */\n      pop\n      pop\n      jump\t// out\n        /* \"Users/chris/Documents/GitHub/AirlineRewards/contracts/users/UserRegistration.sol\":539:581  mapping(address => uint256) public userIds */\n    tag_24:\n      mstore(0x20, 0x02)\n      dup1\n      0x00\n      mstore\n      keccak256(0x00, 0x40)\n      0x00\n      swap2\n      pop\n      swap1\n      pop\n      sload\n      dup2\n      jump\t// out\n        /* \"@openzeppelin/contracts/access/Ownable.sol\":1831:1932  function renounceOwnership() public virtual onlyOwner {... */\n    tag_28:\n        /* \"@openzeppelin/contracts/access/Ownable.sol\":1094:1107  _checkOwner() */\n      tag_59\n        /* \"@openzeppelin/contracts/access/Ownable.sol\":1094:1105  _checkOwner */\n      tag_53\n        /* \"@openzeppelin/contracts/access/Ownable.sol\":1094:1107  _checkOwner() */\n      jump\t// in\n    tag_59:\n        /* \"@openzeppelin/contracts/access/Ownable.sol\":1895:1925  _transferOwnership(address(0)) */\n      tag_61\n        /* \"@openzeppelin/contracts/access/Ownable.sol\":1922:1923  0 */\n      0x00\n        /* \"@openzeppelin/contracts/access/Ownable.sol\":1895:1913  _transferOwnership */\n      tag_62\n        /* \"@openzeppelin/contracts/access/Ownable.sol\":1895:1925  _transferOwnership(address(0)) */\n      jump\t// in\n    tag_61:\n        /* \"@openzeppelin/contracts/access/Ownable.sol\":1831:1932  function renounceOwnership() public virtual onlyOwner {... */\n      jump\t// out\n        /* \"Users/chris/Documents/GitHub/AirlineRewards/contracts/users/UserRegistration.sol\":1081:1733  function registerUser(string memory _fullName, string memory _email, address _wallet) external onlyOwner {... */\n    tag_32:\n        /* \"@openzeppelin/contracts/access/Ownable.sol\":1094:1107  _checkOwner() */\n      tag_64\n        /* \"@openzeppelin/contracts/access/Ownable.sol\":1094:1105  _checkOwner */\n      tag_53\n        /* \"@openzeppelin/contracts/access/Ownable.sol\":1094:1107  _checkOwner() */\n      jump\t// in\n    tag_64:\n        /* \"Users/chris/Documents/GitHub/AirlineRewards/contracts/users/UserRegistration.sol\":1223:1224  0 */\n      0x00\n        /* \"Users/chris/Documents/GitHub/AirlineRewards/contracts/users/UserRegistration.sol\":1204:1225  _wallet != address(0) */\n      0xffffffffffffffffffffffffffffffffffffffff\n      and\n        /* \"Users/chris/Documents/GitHub/AirlineRewards/contracts/users/UserRegistration.sol\":1204:1211  _wallet */\n      dup2\n        /* \"Users/chris/Documents/GitHub/AirlineRewards/contracts/users/UserRegistration.sol\":1204:1225  _wallet != address(0) */\n      0xffffffffffffffffffffffffffffffffffffffff\n      and\n      sub\n        /* \"Users/chris/Documents/GitHub/AirlineRewards/contracts/users/UserRegistration.sol\":1196:1252  require(_wallet != address(0), \"Invalid wallet address\") */\n      tag_66\n      jumpi\n      mload(0x40)\n      0x08c379a000000000000000000000000000000000000000000000000000000000\n      dup2\n      mstore\n      0x04\n      add\n      tag_67\n      swap1\n      tag_68\n      jump\t// in\n    tag_67:\n      mload(0x40)\n      dup1\n      swap2\n      sub\n      swap1\n      revert\n    tag_66:\n        /* \"Users/chris/Documents/GitHub/AirlineRewards/contracts/users/UserRegistration.sol\":1290:1291  0 */\n      0x00\n        /* \"Users/chris/Documents/GitHub/AirlineRewards/contracts/users/UserRegistration.sol\":1270:1277  userIds */\n      0x02\n        /* \"Users/chris/Documents/GitHub/AirlineRewards/contracts/users/UserRegistration.sol\":1270:1286  userIds[_wallet] */\n      0x00\n        /* \"Users/chris/Documents/GitHub/AirlineRewards/contracts/users/UserRegistration.sol\":1278:1285  _wallet */\n      dup4\n        /* \"Users/chris/Documents/GitHub/AirlineRewards/contracts/users/UserRegistration.sol\":1270:1286  userIds[_wallet] */\n      0xffffffffffffffffffffffffffffffffffffffff\n      and\n      0xffffffffffffffffffffffffffffffffffffffff\n      and\n      dup2\n      mstore\n      0x20\n      add\n      swap1\n      dup2\n      mstore\n      0x20\n      add\n      0x00\n      keccak256\n      sload\n        /* \"Users/chris/Documents/GitHub/AirlineRewards/contracts/users/UserRegistration.sol\":1270:1291  userIds[_wallet] == 0 */\n      eq\n        /* \"Users/chris/Documents/GitHub/AirlineRewards/contracts/users/UserRegistration.sol\":1262:1319  require(userIds[_wallet] == 0, \"User already registered\") */\n      tag_69\n      jumpi\n      mload(0x40)\n      0x08c379a000000000000000000000000000000000000000000000000000000000\n      dup2\n      mstore\n      0x04\n      add\n      tag_70\n      swap1\n      tag_71\n      jump\t// in\n    tag_70:\n      mload(0x40)\n      dup1\n      swap2\n      sub\n      swap1\n      revert\n    tag_69:\n        /* \"Users/chris/Documents/GitHub/AirlineRewards/contracts/users/UserRegistration.sol\":1376:1396  _userIds.increment() */\n      tag_72\n        /* \"Users/chris/Documents/GitHub/AirlineRewards/contracts/users/UserRegistration.sol\":1376:1384  _userIds */\n      0x01\n        /* \"Users/chris/Documents/GitHub/AirlineRewards/contracts/users/UserRegistration.sol\":1376:1394  _userIds.increment */\n      tag_73\n        /* \"Users/chris/Documents/GitHub/AirlineRewards/contracts/users/UserRegistration.sol\":1376:1396  _userIds.increment() */\n      jump\t// in\n    tag_72:\n        /* \"Users/chris/Documents/GitHub/AirlineRewards/contracts/users/UserRegistration.sol\":1406:1423  uint256 newUserId */\n      0x00\n        /* \"Users/chris/Documents/GitHub/AirlineRewards/contracts/users/UserRegistration.sol\":1426:1444  _userIds.current() */\n      tag_74\n        /* \"Users/chris/Documents/GitHub/AirlineRewards/contracts/users/UserRegistration.sol\":1426:1434  _userIds */\n      0x01\n        /* \"Users/chris/Documents/GitHub/AirlineRewards/contracts/users/UserRegistration.sol\":1426:1442  _userIds.current */\n      tag_75\n        /* \"Users/chris/Documents/GitHub/AirlineRewards/contracts/users/UserRegistration.sol\":1426:1444  _userIds.current() */\n      jump\t// in\n    tag_74:\n        /* \"Users/chris/Documents/GitHub/AirlineRewards/contracts/users/UserRegistration.sol\":1406:1444  uint256 newUserId = _userIds.current() */\n      swap1\n      pop\n        /* \"Users/chris/Documents/GitHub/AirlineRewards/contracts/users/UserRegistration.sol\":1484:1503  User memory newUser */\n      0x00\n        /* \"Users/chris/Documents/GitHub/AirlineRewards/contracts/users/UserRegistration.sol\":1506:1555  User(newUserId, _fullName, _email, _wallet, true) */\n      mload(0x40)\n      dup1\n      0xa0\n      add\n      0x40\n      mstore\n      dup1\n        /* \"Users/chris/Documents/GitHub/AirlineRewards/contracts/users/UserRegistration.sol\":1511:1520  newUserId */\n      dup4\n        /* \"Users/chris/Documents/GitHub/AirlineRewards/contracts/users/UserRegistration.sol\":1506:1555  User(newUserId, _fullName, _email, _wallet, true) */\n      dup2\n      mstore\n      0x20\n      add\n        /* \"Users/chris/Documents/GitHub/AirlineRewards/contracts/users/UserRegistration.sol\":1522:1531  _fullName */\n      dup7\n        /* \"Users/chris/Documents/GitHub/AirlineRewards/contracts/users/UserRegistration.sol\":1506:1555  User(newUserId, _fullName, _email, _wallet, true) */\n      dup2\n      mstore\n      0x20\n      add\n        /* \"Users/chris/Documents/GitHub/AirlineRewards/contracts/users/UserRegistration.sol\":1533:1539  _email */\n      dup6\n        /* \"Users/chris/Documents/GitHub/AirlineRewards/contracts/users/UserRegistration.sol\":1506:1555  User(newUserId, _fullName, _email, _wallet, true) */\n      dup2\n      mstore\n      0x20\n      add\n        /* \"Users/chris/Documents/GitHub/AirlineRewards/contracts/users/UserRegistration.sol\":1541:1548  _wallet */\n      dup5\n        /* \"Users/chris/Documents/GitHub/AirlineRewards/contracts/users/UserRegistration.sol\":1506:1555  User(newUserId, _fullName, _email, _wallet, true) */\n      0xffffffffffffffffffffffffffffffffffffffff\n      and\n      dup2\n      mstore\n      0x20\n      add\n        /* \"Users/chris/Documents/GitHub/AirlineRewards/contracts/users/UserRegistration.sol\":1550:1554  true */\n      0x01\n        /* \"Users/chris/Documents/GitHub/AirlineRewards/contracts/users/UserRegistration.sol\":1506:1555  User(newUserId, _fullName, _email, _wallet, true) */\n      iszero\n      iszero\n      dup2\n      mstore\n      pop\n        /* \"Users/chris/Documents/GitHub/AirlineRewards/contracts/users/UserRegistration.sol\":1484:1555  User memory newUser = User(newUserId, _fullName, _email, _wallet, true) */\n      swap1\n      pop\n        /* \"Users/chris/Documents/GitHub/AirlineRewards/contracts/users/UserRegistration.sol\":1612:1621  newUserId */\n      dup2\n        /* \"Users/chris/Documents/GitHub/AirlineRewards/contracts/users/UserRegistration.sol\":1593:1600  userIds */\n      0x02\n        /* \"Users/chris/Documents/GitHub/AirlineRewards/contracts/users/UserRegistration.sol\":1593:1609  userIds[_wallet] */\n      0x00\n        /* \"Users/chris/Documents/GitHub/AirlineRewards/contracts/users/UserRegistration.sol\":1601:1608  _wallet */\n      dup6\n        /* \"Users/chris/Documents/GitHub/AirlineRewards/contracts/users/UserRegistration.sol\":1593:1609  userIds[_wallet] */\n      0xffffffffffffffffffffffffffffffffffffffff\n      and\n      0xffffffffffffffffffffffffffffffffffffffff\n      and\n      dup2\n      mstore\n      0x20\n      add\n      swap1\n      dup2\n      mstore\n      0x20\n      add\n      0x00\n      keccak256\n        /* \"Users/chris/Documents/GitHub/AirlineRewards/contracts/users/UserRegistration.sol\":1593:1621  userIds[_wallet] = newUserId */\n      dup2\n      swap1\n      sstore\n      pop\n        /* \"Users/chris/Documents/GitHub/AirlineRewards/contracts/users/UserRegistration.sol\":1650:1657  newUser */\n      dup1\n        /* \"Users/chris/Documents/GitHub/AirlineRewards/contracts/users/UserRegistration.sol\":1631:1636  users */\n      0x03\n        /* \"Users/chris/Documents/GitHub/AirlineRewards/contracts/users/UserRegistration.sol\":1631:1647  users[newUserId] */\n      0x00\n        /* \"Users/chris/Documents/GitHub/AirlineRewards/contracts/users/UserRegistration.sol\":1637:1646  newUserId */\n      dup5\n        /* \"Users/chris/Documents/GitHub/AirlineRewards/contracts/users/UserRegistration.sol\":1631:1647  users[newUserId] */\n      dup2\n      mstore\n      0x20\n      add\n      swap1\n      dup2\n      mstore\n      0x20\n      add\n      0x00\n      keccak256\n        /* \"Users/chris/Documents/GitHub/AirlineRewards/contracts/users/UserRegistration.sol\":1631:1657  users[newUserId] = newUser */\n      0x00\n      dup3\n      add\n      mload\n      dup2\n      0x00\n      add\n      sstore\n      0x20\n      dup3\n      add\n      mload\n      dup2\n      0x01\n      add\n      swap1\n      dup2\n      tag_76\n      swap2\n      swap1\n      tag_77\n      jump\t// in\n    tag_76:\n      pop\n      0x40\n      dup3\n      add\n      mload\n      dup2\n      0x02\n      add\n      swap1\n      dup2\n      tag_78\n      swap2\n      swap1\n      tag_77\n      jump\t// in\n    tag_78:\n      pop\n      0x60\n      dup3\n      add\n      mload\n      dup2\n      0x03\n      add\n      exp(0x0100, 0x00)\n      dup2\n      sload\n      dup2\n      0xffffffffffffffffffffffffffffffffffffffff\n      mul\n      not\n      and\n      swap1\n      dup4\n      0xffffffffffffffffffffffffffffffffffffffff\n      and\n      mul\n      or\n      swap1\n      sstore\n      pop\n      0x80\n      dup3\n      add\n      mload\n      dup2\n      0x03\n      add\n      exp(0x0100, 0x14)\n      dup2\n      sload\n      dup2\n      0xff\n      mul\n      not\n      and\n      swap1\n      dup4\n      iszero\n      iszero\n      mul\n      or\n      swap1\n      sstore\n      pop\n      swap1\n      pop\n      pop\n        /* \"Users/chris/Documents/GitHub/AirlineRewards/contracts/users/UserRegistration.sol\":1688:1697  newUserId */\n      dup2\n        /* \"Users/chris/Documents/GitHub/AirlineRewards/contracts/users/UserRegistration.sol\":1673:1726  UserRegistered(newUserId, _fullName, _email, _wallet) */\n      0x40338c70a446f0ba365fc0489113a2f74ba912dae0f24fb8f8568f446e6f0c80\n        /* \"Users/chris/Documents/GitHub/AirlineRewards/contracts/users/UserRegistration.sol\":1699:1708  _fullName */\n      dup7\n        /* \"Users/chris/Documents/GitHub/AirlineRewards/contracts/users/UserRegistration.sol\":1710:1716  _email */\n      dup7\n        /* \"Users/chris/Documents/GitHub/AirlineRewards/contracts/users/UserRegistration.sol\":1718:1725  _wallet */\n      dup7\n        /* \"Users/chris/Documents/GitHub/AirlineRewards/contracts/users/UserRegistration.sol\":1673:1726  UserRegistered(newUserId, _fullName, _email, _wallet) */\n      mload(0x40)\n      tag_79\n      swap4\n      swap3\n      swap2\n      swap1\n      tag_80\n      jump\t// in\n    tag_79:\n      mload(0x40)\n      dup1\n      swap2\n      sub\n      swap1\n      log2\n        /* \"Users/chris/Documents/GitHub/AirlineRewards/contracts/users/UserRegistration.sol\":1186:1733  {... */\n      pop\n      pop\n        /* \"Users/chris/Documents/GitHub/AirlineRewards/contracts/users/UserRegistration.sol\":1081:1733  function registerUser(string memory _fullName, string memory _email, address _wallet) external onlyOwner {... */\n      pop\n      pop\n      pop\n      jump\t// out\n        /* \"@openzeppelin/contracts/access/Ownable.sol\":1201:1286  function owner() public view virtual returns (address) {... */\n    tag_34:\n        /* \"@openzeppelin/contracts/access/Ownable.sol\":1247:1254  address */\n      0x00\n        /* \"@openzeppelin/contracts/access/Ownable.sol\":1273:1279  _owner */\n      dup1\n      0x00\n      swap1\n      sload\n      swap1\n      0x0100\n      exp\n      swap1\n      div\n      0xffffffffffffffffffffffffffffffffffffffff\n      and\n        /* \"@openzeppelin/contracts/access/Ownable.sol\":1266:1279  return _owner */\n      swap1\n      pop\n        /* \"@openzeppelin/contracts/access/Ownable.sol\":1201:1286  function owner() public view virtual returns (address) {... */\n      swap1\n      jump\t// out\n        /* \"@openzeppelin/contracts/access/Ownable.sol\":2081:2279  function transferOwnership(address newOwner) public virtual onlyOwner {... */\n    tag_39:\n        /* \"@openzeppelin/contracts/access/Ownable.sol\":1094:1107  _checkOwner() */\n      tag_83\n        /* \"@openzeppelin/contracts/access/Ownable.sol\":1094:1105  _checkOwner */\n      tag_53\n        /* \"@openzeppelin/contracts/access/Ownable.sol\":1094:1107  _checkOwner() */\n      jump\t// in\n    tag_83:\n        /* \"@openzeppelin/contracts/access/Ownable.sol\":2189:2190  0 */\n      0x00\n        /* \"@openzeppelin/contracts/access/Ownable.sol\":2169:2191  newOwner != address(0) */\n      0xffffffffffffffffffffffffffffffffffffffff\n      and\n        /* \"@openzeppelin/contracts/access/Ownable.sol\":2169:2177  newOwner */\n      dup2\n        /* \"@openzeppelin/contracts/access/Ownable.sol\":2169:2191  newOwner != address(0) */\n      0xffffffffffffffffffffffffffffffffffffffff\n      and\n      sub\n        /* \"@openzeppelin/contracts/access/Ownable.sol\":2161:2234  require(newOwner != address(0), \"Ownable: new owner is the zero address\") */\n      tag_85\n      jumpi\n      mload(0x40)\n      0x08c379a000000000000000000000000000000000000000000000000000000000\n      dup2\n      mstore\n      0x04\n      add\n      tag_86\n      swap1\n      tag_87\n      jump\t// in\n    tag_86:\n      mload(0x40)\n      dup1\n      swap2\n      sub\n      swap1\n      revert\n    tag_85:\n        /* \"@openzeppelin/contracts/access/Ownable.sol\":2244:2272  _transferOwnership(newOwner) */\n      tag_88\n        /* \"@openzeppelin/contracts/access/Ownable.sol\":2263:2271  newOwner */\n      dup2\n        /* \"@openzeppelin/contracts/access/Ownable.sol\":2244:2262  _transferOwnership */\n      tag_62\n        /* \"@openzeppelin/contracts/access/Ownable.sol\":2244:2272  _transferOwnership(newOwner) */\n      jump\t// in\n    tag_88:\n        /* \"@openzeppelin/contracts/access/Ownable.sol\":2081:2279  function transferOwnership(address newOwner) public virtual onlyOwner {... */\n      pop\n      jump\t// out\n        /* \"@openzeppelin/contracts/access/Ownable.sol\":1359:1489  function _checkOwner() internal view virtual {... */\n    tag_53:\n        /* \"@openzeppelin/contracts/access/Ownable.sol\":1433:1445  _msgSender() */\n      tag_90\n        /* \"@openzeppelin/contracts/access/Ownable.sol\":1433:1443  _msgSender */\n      tag_91\n        /* \"@openzeppelin/contracts/access/Ownable.sol\":1433:1445  _msgSender() */\n      jump\t// in\n    tag_90:\n        /* \"@openzeppelin/contracts/access/Ownable.sol\":1422:1445  owner() == _msgSender() */\n      0xffffffffffffffffffffffffffffffffffffffff\n      and\n        /* \"@openzeppelin/contracts/access/Ownable.sol\":1422:1429  owner() */\n      tag_92\n        /* \"@openzeppelin/contracts/access/Ownable.sol\":1422:1427  owner */\n      tag_34\n        /* \"@openzeppelin/contracts/access/Ownable.sol\":1422:1429  owner() */\n      jump\t// in\n    tag_92:\n        /* \"@openzeppelin/contracts/access/Ownable.sol\":1422:1445  owner() == _msgSender() */\n      0xffffffffffffffffffffffffffffffffffffffff\n      and\n      eq\n        /* \"@openzeppelin/contracts/access/Ownable.sol\":1414:1482  require(owner() == _msgSender(), \"Ownable: caller is not the owner\") */\n      tag_93\n      jumpi\n      mload(0x40)\n      0x08c379a000000000000000000000000000000000000000000000000000000000\n      dup2\n      mstore\n      0x04\n      add\n      tag_94\n      swap1\n      tag_95\n      jump\t// in\n    tag_94:\n      mload(0x40)\n      dup1\n      swap2\n      sub\n      swap1\n      revert\n    tag_93:\n        /* \"@openzeppelin/contracts/access/Ownable.sol\":1359:1489  function _checkOwner() internal view virtual {... */\n      jump\t// out\n        /* \"@openzeppelin/contracts/access/Ownable.sol\":2433:2620  function _transferOwnership(address newOwner) internal virtual {... */\n    tag_62:\n        /* \"@openzeppelin/contracts/access/Ownable.sol\":2506:2522  address oldOwner */\n      0x00\n        /* \"@openzeppelin/contracts/access/Ownable.sol\":2525:2531  _owner */\n      dup1\n      0x00\n      swap1\n      sload\n      swap1\n      0x0100\n      exp\n      swap1\n      div\n      0xffffffffffffffffffffffffffffffffffffffff\n      and\n        /* \"@openzeppelin/contracts/access/Ownable.sol\":2506:2531  address oldOwner = _owner */\n      swap1\n      pop\n        /* \"@openzeppelin/contracts/access/Ownable.sol\":2550:2558  newOwner */\n      dup2\n        /* \"@openzeppelin/contracts/access/Ownable.sol\":2541:2547  _owner */\n      0x00\n      dup1\n        /* \"@openzeppelin/contracts/access/Ownable.sol\":2541:2558  _owner = newOwner */\n      0x0100\n      exp\n      dup2\n      sload\n      dup2\n      0xffffffffffffffffffffffffffffffffffffffff\n      mul\n      not\n      and\n      swap1\n      dup4\n      0xffffffffffffffffffffffffffffffffffffffff\n      and\n      mul\n      or\n      swap1\n      sstore\n      pop\n        /* \"@openzeppelin/contracts/access/Ownable.sol\":2604:2612  newOwner */\n      dup2\n        /* \"@openzeppelin/contracts/access/Ownable.sol\":2573:2613  OwnershipTransferred(oldOwner, newOwner) */\n      0xffffffffffffffffffffffffffffffffffffffff\n      and\n        /* \"@openzeppelin/contracts/access/Ownable.sol\":2594:2602  oldOwner */\n      dup2\n        /* \"@openzeppelin/contracts/access/Ownable.sol\":2573:2613  OwnershipTransferred(oldOwner, newOwner) */\n      0xffffffffffffffffffffffffffffffffffffffff\n      and\n      0x8be0079c531659141344cd1fd0a4f28419497f9722a3daafe3b4186f6b6457e0\n      mload(0x40)\n      mload(0x40)\n      dup1\n      swap2\n      sub\n      swap1\n      log3\n        /* \"@openzeppelin/contracts/access/Ownable.sol\":2496:2620  {... */\n      pop\n        /* \"@openzeppelin/contracts/access/Ownable.sol\":2433:2620  function _transferOwnership(address newOwner) internal virtual {... */\n      pop\n      jump\t// out\n        /* \"@openzeppelin/contracts/utils/Counters.sol\":945:1068  function increment(Counter storage counter) internal {... */\n    tag_73:\n        /* \"@openzeppelin/contracts/utils/Counters.sol\":1050:1051  1 */\n      0x01\n        /* \"@openzeppelin/contracts/utils/Counters.sol\":1032:1039  counter */\n      dup2\n        /* \"@openzeppelin/contracts/utils/Counters.sol\":1032:1046  counter._value */\n      0x00\n      add\n      0x00\n        /* \"@openzeppelin/contracts/utils/Counters.sol\":1032:1051  counter._value += 1 */\n      dup3\n      dup3\n      sload\n      add\n      swap3\n      pop\n      pop\n      dup2\n      swap1\n      sstore\n      pop\n        /* \"@openzeppelin/contracts/utils/Counters.sol\":945:1068  function increment(Counter storage counter) internal {... */\n      pop\n      jump\t// out\n        /* \"@openzeppelin/contracts/utils/Counters.sol\":827:939  function current(Counter storage counter) internal view returns (uint256) {... */\n    tag_75:\n        /* \"@openzeppelin/contracts/utils/Counters.sol\":892:899  uint256 */\n      0x00\n        /* \"@openzeppelin/contracts/utils/Counters.sol\":918:925  counter */\n      dup2\n        /* \"@openzeppelin/contracts/utils/Counters.sol\":918:932  counter._value */\n      0x00\n      add\n      sload\n        /* \"@openzeppelin/contracts/utils/Counters.sol\":911:932  return counter._value */\n      swap1\n      pop\n        /* \"@openzeppelin/contracts/utils/Counters.sol\":827:939  function current(Counter storage counter) internal view returns (uint256) {... */\n      swap2\n      swap1\n      pop\n      jump\t// out\n        /* \"@openzeppelin/contracts/utils/Context.sol\":640:736  function _msgSender() internal view virtual returns (address) {... */\n    tag_91:\n        /* \"@openzeppelin/contracts/utils/Context.sol\":693:700  address */\n      0x00\n        /* \"@openzeppelin/contracts/utils/Context.sol\":719:729  msg.sender */\n      caller\n        /* \"@openzeppelin/contracts/utils/Context.sol\":712:729  return msg.sender */\n      swap1\n      pop\n        /* \"@openzeppelin/contracts/utils/Context.sol\":640:736  function _msgSender() internal view virtual returns (address) {... */\n      swap1\n      jump\t// out\n        /* \"#utility.yul\":7:82   */\n    tag_100:\n        /* \"#utility.yul\":40:46   */\n      0x00\n        /* \"#utility.yul\":73:75   */\n      0x40\n        /* \"#utility.yul\":67:76   */\n      mload\n        /* \"#utility.yul\":57:76   */\n      swap1\n      pop\n        /* \"#utility.yul\":7:82   */\n      swap1\n      jump\t// out\n        /* \"#utility.yul\":88:205   */\n    tag_101:\n        /* \"#utility.yul\":197:198   */\n      0x00\n        /* \"#utility.yul\":194:195   */\n      dup1\n        /* \"#utility.yul\":187:199   */\n      revert\n        /* \"#utility.yul\":211:328   */\n    tag_102:\n        /* \"#utility.yul\":320:321   */\n      0x00\n        /* \"#utility.yul\":317:318   */\n      dup1\n        /* \"#utility.yul\":310:322   */\n      revert\n        /* \"#utility.yul\":334:411   */\n    tag_103:\n        /* \"#utility.yul\":371:378   */\n      0x00\n        /* \"#utility.yul\":400:405   */\n      dup2\n        /* \"#utility.yul\":389:405   */\n      swap1\n      pop\n        /* \"#utility.yul\":334:411   */\n      swap2\n      swap1\n      pop\n      jump\t// out\n        /* \"#utility.yul\":417:539   */\n    tag_104:\n        /* \"#utility.yul\":490:514   */\n      tag_162\n        /* \"#utility.yul\":508:513   */\n      dup2\n        /* \"#utility.yul\":490:514   */\n      tag_103\n      jump\t// in\n    tag_162:\n        /* \"#utility.yul\":483:488   */\n      dup2\n        /* \"#utility.yul\":480:515   */\n      eq\n        /* \"#utility.yul\":470:533   */\n      tag_163\n      jumpi\n        /* \"#utility.yul\":529:530   */\n      0x00\n        /* \"#utility.yul\":526:527   */\n      dup1\n        /* \"#utility.yul\":519:531   */\n      revert\n        /* \"#utility.yul\":470:533   */\n    tag_163:\n        /* \"#utility.yul\":417:539   */\n      pop\n      jump\t// out\n        /* \"#utility.yul\":545:684   */\n    tag_105:\n        /* \"#utility.yul\":591:596   */\n      0x00\n        /* \"#utility.yul\":629:635   */\n      dup2\n        /* \"#utility.yul\":616:636   */\n      calldataload\n        /* \"#utility.yul\":607:636   */\n      swap1\n      pop\n        /* \"#utility.yul\":645:678   */\n      tag_165\n        /* \"#utility.yul\":672:677   */\n      dup2\n        /* \"#utility.yul\":645:678   */\n      tag_104\n      jump\t// in\n    tag_165:\n        /* \"#utility.yul\":545:684   */\n      swap3\n      swap2\n      pop\n      pop\n      jump\t// out\n        /* \"#utility.yul\":690:1019   */\n    tag_13:\n        /* \"#utility.yul\":749:755   */\n      0x00\n        /* \"#utility.yul\":798:800   */\n      0x20\n        /* \"#utility.yul\":786:795   */\n      dup3\n        /* \"#utility.yul\":777:784   */\n      dup5\n        /* \"#utility.yul\":773:796   */\n      sub\n        /* \"#utility.yul\":769:801   */\n      slt\n        /* \"#utility.yul\":766:885   */\n      iszero\n      tag_167\n      jumpi\n        /* \"#utility.yul\":804:883   */\n      tag_168\n      tag_101\n      jump\t// in\n    tag_168:\n        /* \"#utility.yul\":766:885   */\n    tag_167:\n        /* \"#utility.yul\":924:925   */\n      0x00\n        /* \"#utility.yul\":949:1002   */\n      tag_169\n        /* \"#utility.yul\":994:1001   */\n      dup5\n        /* \"#utility.yul\":985:991   */\n      dup3\n        /* \"#utility.yul\":974:983   */\n      dup6\n        /* \"#utility.yul\":970:992   */\n      add\n        /* \"#utility.yul\":949:1002   */\n      tag_105\n      jump\t// in\n    tag_169:\n        /* \"#utility.yul\":939:1002   */\n      swap2\n      pop\n        /* \"#utility.yul\":895:1012   */\n      pop\n        /* \"#utility.yul\":690:1019   */\n      swap3\n      swap2\n      pop\n      pop\n      jump\t// out\n        /* \"#utility.yul\":1025:1143   */\n    tag_106:\n        /* \"#utility.yul\":1112:1136   */\n      tag_171\n        /* \"#utility.yul\":1130:1135   */\n      dup2\n        /* \"#utility.yul\":1112:1136   */\n      tag_103\n      jump\t// in\n    tag_171:\n        /* \"#utility.yul\":1107:1110   */\n      dup3\n        /* \"#utility.yul\":1100:1137   */\n      mstore\n        /* \"#utility.yul\":1025:1143   */\n      pop\n      pop\n      jump\t// out\n        /* \"#utility.yul\":1149:1248   */\n    tag_107:\n        /* \"#utility.yul\":1201:1207   */\n      0x00\n        /* \"#utility.yul\":1235:1240   */\n      dup2\n        /* \"#utility.yul\":1229:1241   */\n      mload\n        /* \"#utility.yul\":1219:1241   */\n      swap1\n      pop\n        /* \"#utility.yul\":1149:1248   */\n      swap2\n      swap1\n      pop\n      jump\t// out\n        /* \"#utility.yul\":1254:1423   */\n    tag_108:\n        /* \"#utility.yul\":1338:1349   */\n      0x00\n        /* \"#utility.yul\":1372:1378   */\n      dup3\n        /* \"#utility.yul\":1367:1370   */\n      dup3\n        /* \"#utility.yul\":1360:1379   */\n      mstore\n        /* \"#utility.yul\":1412:1416   */\n      0x20\n        /* \"#utility.yul\":1407:1410   */\n      dup3\n        /* \"#utility.yul\":1403:1417   */\n      add\n        /* \"#utility.yul\":1388:1417   */\n      swap1\n      pop\n        /* \"#utility.yul\":1254:1423   */\n      swap3\n      swap2\n      pop\n      pop\n      jump\t// out\n        /* \"#utility.yul\":1429:1675   */\n    tag_109:\n        /* \"#utility.yul\":1510:1511   */\n      0x00\n        /* \"#utility.yul\":1520:1633   */\n    tag_175:\n        /* \"#utility.yul\":1534:1540   */\n      dup4\n        /* \"#utility.yul\":1531:1532   */\n      dup2\n        /* \"#utility.yul\":1528:1541   */\n      lt\n        /* \"#utility.yul\":1520:1633   */\n      iszero\n      tag_177\n      jumpi\n        /* \"#utility.yul\":1619:1620   */\n      dup1\n        /* \"#utility.yul\":1614:1617   */\n      dup3\n        /* \"#utility.yul\":1610:1621   */\n      add\n        /* \"#utility.yul\":1604:1622   */\n      mload\n        /* \"#utility.yul\":1600:1601   */\n      dup2\n        /* \"#utility.yul\":1595:1598   */\n      dup5\n        /* \"#utility.yul\":1591:1602   */\n      add\n        /* \"#utility.yul\":1584:1623   */\n      mstore\n        /* \"#utility.yul\":1556:1558   */\n      0x20\n        /* \"#utility.yul\":1553:1554   */\n      dup2\n        /* \"#utility.yul\":1549:1559   */\n      add\n        /* \"#utility.yul\":1544:1559   */\n      swap1\n      pop\n        /* \"#utility.yul\":1520:1633   */\n      jump(tag_175)\n    tag_177:\n        /* \"#utility.yul\":1667:1668   */\n      0x00\n        /* \"#utility.yul\":1658:1664   */\n      dup5\n        /* \"#utility.yul\":1653:1656   */\n      dup5\n        /* \"#utility.yul\":1649:1665   */\n      add\n        /* \"#utility.yul\":1642:1669   */\n      mstore\n        /* \"#utility.yul\":1491:1675   */\n      pop\n        /* \"#utility.yul\":1429:1675   */\n      pop\n      pop\n      pop\n      jump\t// out\n        /* \"#utility.yul\":1681:1783   */\n    tag_110:\n        /* \"#utility.yul\":1722:1728   */\n      0x00\n        /* \"#utility.yul\":1773:1775   */\n      0x1f\n        /* \"#utility.yul\":1769:1776   */\n      not\n        /* \"#utility.yul\":1764:1766   */\n      0x1f\n        /* \"#utility.yul\":1757:1762   */\n      dup4\n        /* \"#utility.yul\":1753:1767   */\n      add\n        /* \"#utility.yul\":1749:1777   */\n      and\n        /* \"#utility.yul\":1739:1777   */\n      swap1\n      pop\n        /* \"#utility.yul\":1681:1783   */\n      swap2\n      swap1\n      pop\n      jump\t// out\n        /* \"#utility.yul\":1789:2166   */\n    tag_111:\n        /* \"#utility.yul\":1877:1880   */\n      0x00\n        /* \"#utility.yul\":1905:1944   */\n      tag_180\n        /* \"#utility.yul\":1938:1943   */\n      dup3\n        /* \"#utility.yul\":1905:1944   */\n      tag_107\n      jump\t// in\n    tag_180:\n        /* \"#utility.yul\":1960:2031   */\n      tag_181\n        /* \"#utility.yul\":2024:2030   */\n      dup2\n        /* \"#utility.yul\":2019:2022   */\n      dup6\n        /* \"#utility.yul\":1960:2031   */\n      tag_108\n      jump\t// in\n    tag_181:\n        /* \"#utility.yul\":1953:2031   */\n      swap4\n      pop\n        /* \"#utility.yul\":2040:2105   */\n      tag_182\n        /* \"#utility.yul\":2098:2104   */\n      dup2\n        /* \"#utility.yul\":2093:2096   */\n      dup6\n        /* \"#utility.yul\":2086:2090   */\n      0x20\n        /* \"#utility.yul\":2079:2084   */\n      dup7\n        /* \"#utility.yul\":2075:2091   */\n      add\n        /* \"#utility.yul\":2040:2105   */\n      tag_109\n      jump\t// in\n    tag_182:\n        /* \"#utility.yul\":2130:2159   */\n      tag_183\n        /* \"#utility.yul\":2152:2158   */\n      dup2\n        /* \"#utility.yul\":2130:2159   */\n      tag_110\n      jump\t// in\n    tag_183:\n        /* \"#utility.yul\":2125:2128   */\n      dup5\n        /* \"#utility.yul\":2121:2160   */\n      add\n        /* \"#utility.yul\":2114:2160   */\n      swap2\n      pop\n        /* \"#utility.yul\":1881:2166   */\n      pop\n        /* \"#utility.yul\":1789:2166   */\n      swap3\n      swap2\n      pop\n      pop\n      jump\t// out\n        /* \"#utility.yul\":2172:2298   */\n    tag_112:\n        /* \"#utility.yul\":2209:2216   */\n      0x00\n        /* \"#utility.yul\":2249:2291   */\n      0xffffffffffffffffffffffffffffffffffffffff\n        /* \"#utility.yul\":2242:2247   */\n      dup3\n        /* \"#utility.yul\":2238:2292   */\n      and\n        /* \"#utility.yul\":2227:2292   */\n      swap1\n      pop\n        /* \"#utility.yul\":2172:2298   */\n      swap2\n      swap1\n      pop\n      jump\t// out\n        /* \"#utility.yul\":2304:2400   */\n    tag_113:\n        /* \"#utility.yul\":2341:2348   */\n      0x00\n        /* \"#utility.yul\":2370:2394   */\n      tag_186\n        /* \"#utility.yul\":2388:2393   */\n      dup3\n        /* \"#utility.yul\":2370:2394   */\n      tag_112\n      jump\t// in\n    tag_186:\n        /* \"#utility.yul\":2359:2394   */\n      swap1\n      pop\n        /* \"#utility.yul\":2304:2400   */\n      swap2\n      swap1\n      pop\n      jump\t// out\n        /* \"#utility.yul\":2406:2524   */\n    tag_114:\n        /* \"#utility.yul\":2493:2517   */\n      tag_188\n        /* \"#utility.yul\":2511:2516   */\n      dup2\n        /* \"#utility.yul\":2493:2517   */\n      tag_113\n      jump\t// in\n    tag_188:\n        /* \"#utility.yul\":2488:2491   */\n      dup3\n        /* \"#utility.yul\":2481:2518   */\n      mstore\n        /* \"#utility.yul\":2406:2524   */\n      pop\n      pop\n      jump\t// out\n        /* \"#utility.yul\":2530:2620   */\n    tag_115:\n        /* \"#utility.yul\":2564:2571   */\n      0x00\n        /* \"#utility.yul\":2607:2612   */\n      dup2\n        /* \"#utility.yul\":2600:2613   */\n      iszero\n        /* \"#utility.yul\":2593:2614   */\n      iszero\n        /* \"#utility.yul\":2582:2614   */\n      swap1\n      pop\n        /* \"#utility.yul\":2530:2620   */\n      swap2\n      swap1\n      pop\n      jump\t// out\n        /* \"#utility.yul\":2626:2735   */\n    tag_116:\n        /* \"#utility.yul\":2707:2728   */\n      tag_191\n        /* \"#utility.yul\":2722:2727   */\n      dup2\n        /* \"#utility.yul\":2707:2728   */\n      tag_115\n      jump\t// in\n    tag_191:\n        /* \"#utility.yul\":2702:2705   */\n      dup3\n        /* \"#utility.yul\":2695:2729   */\n      mstore\n        /* \"#utility.yul\":2626:2735   */\n      pop\n      pop\n      jump\t// out\n        /* \"#utility.yul\":2741:3575   */\n    tag_16:\n        /* \"#utility.yul\":2980:2984   */\n      0x00\n        /* \"#utility.yul\":3018:3021   */\n      0xa0\n        /* \"#utility.yul\":3007:3016   */\n      dup3\n        /* \"#utility.yul\":3003:3022   */\n      add\n        /* \"#utility.yul\":2995:3022   */\n      swap1\n      pop\n        /* \"#utility.yul\":3032:3103   */\n      tag_193\n        /* \"#utility.yul\":3100:3101   */\n      0x00\n        /* \"#utility.yul\":3089:3098   */\n      dup4\n        /* \"#utility.yul\":3085:3102   */\n      add\n        /* \"#utility.yul\":3076:3082   */\n      dup9\n        /* \"#utility.yul\":3032:3103   */\n      tag_106\n      jump\t// in\n    tag_193:\n        /* \"#utility.yul\":3150:3159   */\n      dup2\n        /* \"#utility.yul\":3144:3148   */\n      dup2\n        /* \"#utility.yul\":3140:3160   */\n      sub\n        /* \"#utility.yul\":3135:3137   */\n      0x20\n        /* \"#utility.yul\":3124:3133   */\n      dup4\n        /* \"#utility.yul\":3120:3138   */\n      add\n        /* \"#utility.yul\":3113:3161   */\n      mstore\n        /* \"#utility.yul\":3178:3256   */\n      tag_194\n        /* \"#utility.yul\":3251:3255   */\n      dup2\n        /* \"#utility.yul\":3242:3248   */\n      dup8\n        /* \"#utility.yul\":3178:3256   */\n      tag_111\n      jump\t// in\n    tag_194:\n        /* \"#utility.yul\":3170:3256   */\n      swap1\n      pop\n        /* \"#utility.yul\":3303:3312   */\n      dup2\n        /* \"#utility.yul\":3297:3301   */\n      dup2\n        /* \"#utility.yul\":3293:3313   */\n      sub\n        /* \"#utility.yul\":3288:3290   */\n      0x40\n        /* \"#utility.yul\":3277:3286   */\n      dup4\n        /* \"#utility.yul\":3273:3291   */\n      add\n        /* \"#utility.yul\":3266:3314   */\n      mstore\n        /* \"#utility.yul\":3331:3409   */\n      tag_195\n        /* \"#utility.yul\":3404:3408   */\n      dup2\n        /* \"#utility.yul\":3395:3401   */\n      dup7\n        /* \"#utility.yul\":3331:3409   */\n      tag_111\n      jump\t// in\n    tag_195:\n        /* \"#utility.yul\":3323:3409   */\n      swap1\n      pop\n        /* \"#utility.yul\":3419:3491   */\n      tag_196\n        /* \"#utility.yul\":3487:3489   */\n      0x60\n        /* \"#utility.yul\":3476:3485   */\n      dup4\n        /* \"#utility.yul\":3472:3490   */\n      add\n        /* \"#utility.yul\":3463:3469   */\n      dup6\n        /* \"#utility.yul\":3419:3491   */\n      tag_114\n      jump\t// in\n    tag_196:\n        /* \"#utility.yul\":3501:3568   */\n      tag_197\n        /* \"#utility.yul\":3563:3566   */\n      0x80\n        /* \"#utility.yul\":3552:3561   */\n      dup4\n        /* \"#utility.yul\":3548:3567   */\n      add\n        /* \"#utility.yul\":3539:3545   */\n      dup5\n        /* \"#utility.yul\":3501:3568   */\n      tag_116\n      jump\t// in\n    tag_197:\n        /* \"#utility.yul\":2741:3575   */\n      swap7\n      swap6\n      pop\n      pop\n      pop\n      pop\n      pop\n      pop\n      jump\t// out\n        /* \"#utility.yul\":3581:3697   */\n    tag_117:\n        /* \"#utility.yul\":3651:3672   */\n      tag_199\n        /* \"#utility.yul\":3666:3671   */\n      dup2\n        /* \"#utility.yul\":3651:3672   */\n      tag_115\n      jump\t// in\n    tag_199:\n        /* \"#utility.yul\":3644:3649   */\n      dup2\n        /* \"#utility.yul\":3641:3673   */\n      eq\n        /* \"#utility.yul\":3631:3691   */\n      tag_200\n      jumpi\n        /* \"#utility.yul\":3687:3688   */\n      0x00\n        /* \"#utility.yul\":3684:3685   */\n      dup1\n        /* \"#utility.yul\":3677:3689   */\n      revert\n        /* \"#utility.yul\":3631:3691   */\n    tag_200:\n        /* \"#utility.yul\":3581:3697   */\n      pop\n      jump\t// out\n        /* \"#utility.yul\":3703:3836   */\n    tag_118:\n        /* \"#utility.yul\":3746:3751   */\n      0x00\n        /* \"#utility.yul\":3784:3790   */\n      dup2\n        /* \"#utility.yul\":3771:3791   */\n      calldataload\n        /* \"#utility.yul\":3762:3791   */\n      swap1\n      pop\n        /* \"#utility.yul\":3800:3830   */\n      tag_202\n        /* \"#utility.yul\":3824:3829   */\n      dup2\n        /* \"#utility.yul\":3800:3830   */\n      tag_117\n      jump\t// in\n    tag_202:\n        /* \"#utility.yul\":3703:3836   */\n      swap3\n      swap2\n      pop\n      pop\n      jump\t// out\n        /* \"#utility.yul\":3842:4310   */\n    tag_19:\n        /* \"#utility.yul\":3907:3913   */\n      0x00\n        /* \"#utility.yul\":3915:3921   */\n      dup1\n        /* \"#utility.yul\":3964:3966   */\n      0x40\n        /* \"#utility.yul\":3952:3961   */\n      dup4\n        /* \"#utility.yul\":3943:3950   */\n      dup6\n        /* \"#utility.yul\":3939:3962   */\n      sub\n        /* \"#utility.yul\":3935:3967   */\n      slt\n        /* \"#utility.yul\":3932:4051   */\n      iszero\n      tag_204\n      jumpi\n        /* \"#utility.yul\":3970:4049   */\n      tag_205\n      tag_101\n      jump\t// in\n    tag_205:\n        /* \"#utility.yul\":3932:4051   */\n    tag_204:\n        /* \"#utility.yul\":4090:4091   */\n      0x00\n        /* \"#utility.yul\":4115:4168   */\n      tag_206\n        /* \"#utility.yul\":4160:4167   */\n      dup6\n        /* \"#utility.yul\":4151:4157   */\n      dup3\n        /* \"#utility.yul\":4140:4149   */\n      dup7\n        /* \"#utility.yul\":4136:4158   */\n      add\n        /* \"#utility.yul\":4115:4168   */\n      tag_105\n      jump\t// in\n    tag_206:\n        /* \"#utility.yul\":4105:4168   */\n      swap3\n      pop\n        /* \"#utility.yul\":4061:4178   */\n      pop\n        /* \"#utility.yul\":4217:4219   */\n      0x20\n        /* \"#utility.yul\":4243:4293   */\n      tag_207\n        /* \"#utility.yul\":4285:4292   */\n      dup6\n        /* \"#utility.yul\":4276:4282   */\n      dup3\n        /* \"#utility.yul\":4265:4274   */\n      dup7\n        /* \"#utility.yul\":4261:4283   */\n      add\n        /* \"#utility.yul\":4243:4293   */\n      tag_118\n      jump\t// in\n    tag_207:\n        /* \"#utility.yul\":4233:4293   */\n      swap2\n      pop\n        /* \"#utility.yul\":4188:4303   */\n      pop\n        /* \"#utility.yul\":3842:4310   */\n      swap3\n      pop\n      swap3\n      swap1\n      pop\n      jump\t// out\n        /* \"#utility.yul\":4316:4438   */\n    tag_119:\n        /* \"#utility.yul\":4389:4413   */\n      tag_209\n        /* \"#utility.yul\":4407:4412   */\n      dup2\n        /* \"#utility.yul\":4389:4413   */\n      tag_113\n      jump\t// in\n    tag_209:\n        /* \"#utility.yul\":4382:4387   */\n      dup2\n        /* \"#utility.yul\":4379:4414   */\n      eq\n        /* \"#utility.yul\":4369:4432   */\n      tag_210\n      jumpi\n        /* \"#utility.yul\":4428:4429   */\n      0x00\n        /* \"#utility.yul\":4425:4426   */\n      dup1\n        /* \"#utility.yul\":4418:4430   */\n      revert\n        /* \"#utility.yul\":4369:4432   */\n    tag_210:\n        /* \"#utility.yul\":4316:4438   */\n      pop\n      jump\t// out\n        /* \"#utility.yul\":4444:4583   */\n    tag_120:\n        /* \"#utility.yul\":4490:4495   */\n      0x00\n        /* \"#utility.yul\":4528:4534   */\n      dup2\n        /* \"#utility.yul\":4515:4535   */\n      calldataload\n        /* \"#utility.yul\":4506:4535   */\n      swap1\n      pop\n        /* \"#utility.yul\":4544:4577   */\n      tag_212\n        /* \"#utility.yul\":4571:4576   */\n      dup2\n        /* \"#utility.yul\":4544:4577   */\n      tag_119\n      jump\t// in\n    tag_212:\n        /* \"#utility.yul\":4444:4583   */\n      swap3\n      swap2\n      pop\n      pop\n      jump\t// out\n        /* \"#utility.yul\":4589:4918   */\n    tag_23:\n        /* \"#utility.yul\":4648:4654   */\n      0x00\n        /* \"#utility.yul\":4697:4699   */\n      0x20\n        /* \"#utility.yul\":4685:4694   */\n      dup3\n        /* \"#utility.yul\":4676:4683   */\n      dup5\n        /* \"#utility.yul\":4672:4695   */\n      sub\n        /* \"#utility.yul\":4668:4700   */\n      slt\n        /* \"#utility.yul\":4665:4784   */\n      iszero\n      tag_214\n      jumpi\n        /* \"#utility.yul\":4703:4782   */\n      tag_215\n      tag_101\n      jump\t// in\n    tag_215:\n        /* \"#utility.yul\":4665:4784   */\n    tag_214:\n        /* \"#utility.yul\":4823:4824   */\n      0x00\n        /* \"#utility.yul\":4848:4901   */\n      tag_216\n        /* \"#utility.yul\":4893:4900   */\n      dup5\n        /* \"#utility.yul\":4884:4890   */\n      dup3\n        /* \"#utility.yul\":4873:4882   */\n      dup6\n        /* \"#utility.yul\":4869:4891   */\n      add\n        /* \"#utility.yul\":4848:4901   */\n      tag_120\n      jump\t// in\n    tag_216:\n        /* \"#utility.yul\":4838:4901   */\n      swap2\n      pop\n        /* \"#utility.yul\":4794:4911   */\n      pop\n        /* \"#utility.yul\":4589:4918   */\n      swap3\n      swap2\n      pop\n      pop\n      jump\t// out\n        /* \"#utility.yul\":4924:5146   */\n    tag_26:\n        /* \"#utility.yul\":5017:5021   */\n      0x00\n        /* \"#utility.yul\":5055:5057   */\n      0x20\n        /* \"#utility.yul\":5044:5053   */\n      dup3\n        /* \"#utility.yul\":5040:5058   */\n      add\n        /* \"#utility.yul\":5032:5058   */\n      swap1\n      pop\n        /* \"#utility.yul\":5068:5139   */\n      tag_218\n        /* \"#utility.yul\":5136:5137   */\n      0x00\n        /* \"#utility.yul\":5125:5134   */\n      dup4\n        /* \"#utility.yul\":5121:5138   */\n      add\n        /* \"#utility.yul\":5112:5118   */\n      dup5\n        /* \"#utility.yul\":5068:5139   */\n      tag_106\n      jump\t// in\n    tag_218:\n        /* \"#utility.yul\":4924:5146   */\n      swap3\n      swap2\n      pop\n      pop\n      jump\t// out\n        /* \"#utility.yul\":5152:5269   */\n    tag_121:\n        /* \"#utility.yul\":5261:5262   */\n      0x00\n        /* \"#utility.yul\":5258:5259   */\n      dup1\n        /* \"#utility.yul\":5251:5263   */\n      revert\n        /* \"#utility.yul\":5275:5392   */\n    tag_122:\n        /* \"#utility.yul\":5384:5385   */\n      0x00\n        /* \"#utility.yul\":5381:5382   */\n      dup1\n        /* \"#utility.yul\":5374:5386   */\n      revert\n        /* \"#utility.yul\":5398:5578   */\n    tag_123:\n        /* \"#utility.yul\":5446:5523   */\n      0x4e487b7100000000000000000000000000000000000000000000000000000000\n        /* \"#utility.yul\":5443:5444   */\n      0x00\n        /* \"#utility.yul\":5436:5524   */\n      mstore\n        /* \"#utility.yul\":5543:5547   */\n      0x41\n        /* \"#utility.yul\":5540:5541   */\n      0x04\n        /* \"#utility.yul\":5533:5548   */\n      mstore\n        /* \"#utility.yul\":5567:5571   */\n      0x24\n        /* \"#utility.yul\":5564:5565   */\n      0x00\n        /* \"#utility.yul\":5557:5572   */\n      revert\n        /* \"#utility.yul\":5584:5865   */\n    tag_124:\n        /* \"#utility.yul\":5667:5694   */\n      tag_223\n        /* \"#utility.yul\":5689:5693   */\n      dup3\n        /* \"#utility.yul\":5667:5694   */\n      tag_110\n      jump\t// in\n    tag_223:\n        /* \"#utility.yul\":5659:5665   */\n      dup2\n        /* \"#utility.yul\":5655:5695   */\n      add\n        /* \"#utility.yul\":5797:5803   */\n      dup2\n        /* \"#utility.yul\":5785:5795   */\n      dup2\n        /* \"#utility.yul\":5782:5804   */\n      lt\n        /* \"#utility.yul\":5761:5779   */\n      0xffffffffffffffff\n        /* \"#utility.yul\":5749:5759   */\n      dup3\n        /* \"#utility.yul\":5746:5780   */\n      gt\n        /* \"#utility.yul\":5743:5805   */\n      or\n        /* \"#utility.yul\":5740:5828   */\n      iszero\n      tag_224\n      jumpi\n        /* \"#utility.yul\":5808:5826   */\n      tag_225\n      tag_123\n      jump\t// in\n    tag_225:\n        /* \"#utility.yul\":5740:5828   */\n    tag_224:\n        /* \"#utility.yul\":5848:5858   */\n      dup1\n        /* \"#utility.yul\":5844:5846   */\n      0x40\n        /* \"#utility.yul\":5837:5859   */\n      mstore\n        /* \"#utility.yul\":5627:5865   */\n      pop\n        /* \"#utility.yul\":5584:5865   */\n      pop\n      pop\n      jump\t// out\n        /* \"#utility.yul\":5871:6000   */\n    tag_125:\n        /* \"#utility.yul\":5905:5911   */\n      0x00\n        /* \"#utility.yul\":5932:5952   */\n      tag_227\n      tag_100\n      jump\t// in\n    tag_227:\n        /* \"#utility.yul\":5922:5952   */\n      swap1\n      pop\n        /* \"#utility.yul\":5961:5994   */\n      tag_228\n        /* \"#utility.yul\":5989:5993   */\n      dup3\n        /* \"#utility.yul\":5981:5987   */\n      dup3\n        /* \"#utility.yul\":5961:5994   */\n      tag_124\n      jump\t// in\n    tag_228:\n        /* \"#utility.yul\":5871:6000   */\n      swap2\n      swap1\n      pop\n      jump\t// out\n        /* \"#utility.yul\":6006:6314   */\n    tag_126:\n        /* \"#utility.yul\":6068:6072   */\n      0x00\n        /* \"#utility.yul\":6158:6176   */\n      0xffffffffffffffff\n        /* \"#utility.yul\":6150:6156   */\n      dup3\n        /* \"#utility.yul\":6147:6177   */\n      gt\n        /* \"#utility.yul\":6144:6200   */\n      iszero\n      tag_230\n      jumpi\n        /* \"#utility.yul\":6180:6198   */\n      tag_231\n      tag_123\n      jump\t// in\n    tag_231:\n        /* \"#utility.yul\":6144:6200   */\n    tag_230:\n        /* \"#utility.yul\":6218:6247   */\n      tag_232\n        /* \"#utility.yul\":6240:6246   */\n      dup3\n        /* \"#utility.yul\":6218:6247   */\n      tag_110\n      jump\t// in\n    tag_232:\n        /* \"#utility.yul\":6210:6247   */\n      swap1\n      pop\n        /* \"#utility.yul\":6302:6306   */\n      0x20\n        /* \"#utility.yul\":6296:6300   */\n      dup2\n        /* \"#utility.yul\":6292:6307   */\n      add\n        /* \"#utility.yul\":6284:6307   */\n      swap1\n      pop\n        /* \"#utility.yul\":6006:6314   */\n      swap2\n      swap1\n      pop\n      jump\t// out\n        /* \"#utility.yul\":6320:6466   */\n    tag_127:\n        /* \"#utility.yul\":6417:6423   */\n      dup3\n        /* \"#utility.yul\":6412:6415   */\n      dup2\n        /* \"#utility.yul\":6407:6410   */\n      dup4\n        /* \"#utility.yul\":6394:6424   */\n      calldatacopy\n        /* \"#utility.yul\":6458:6459   */\n      0x00\n        /* \"#utility.yul\":6449:6455   */\n      dup4\n        /* \"#utility.yul\":6444:6447   */\n      dup4\n        /* \"#utility.yul\":6440:6456   */\n      add\n        /* \"#utility.yul\":6433:6460   */\n      mstore\n        /* \"#utility.yul\":6320:6466   */\n      pop\n      pop\n      pop\n      jump\t// out\n        /* \"#utility.yul\":6472:6897   */\n    tag_128:\n        /* \"#utility.yul\":6550:6555   */\n      0x00\n        /* \"#utility.yul\":6575:6641   */\n      tag_235\n        /* \"#utility.yul\":6591:6640   */\n      tag_236\n        /* \"#utility.yul\":6633:6639   */\n      dup5\n        /* \"#utility.yul\":6591:6640   */\n      tag_126\n      jump\t// in\n    tag_236:\n        /* \"#utility.yul\":6575:6641   */\n      tag_125\n      jump\t// in\n    tag_235:\n        /* \"#utility.yul\":6566:6641   */\n      swap1\n      pop\n        /* \"#utility.yul\":6664:6670   */\n      dup3\n        /* \"#utility.yul\":6657:6662   */\n      dup2\n        /* \"#utility.yul\":6650:6671   */\n      mstore\n        /* \"#utility.yul\":6702:6706   */\n      0x20\n        /* \"#utility.yul\":6695:6700   */\n      dup2\n        /* \"#utility.yul\":6691:6707   */\n      add\n        /* \"#utility.yul\":6740:6743   */\n      dup5\n        /* \"#utility.yul\":6731:6737   */\n      dup5\n        /* \"#utility.yul\":6726:6729   */\n      dup5\n        /* \"#utility.yul\":6722:6738   */\n      add\n        /* \"#utility.yul\":6719:6744   */\n      gt\n        /* \"#utility.yul\":6716:6828   */\n      iszero\n      tag_237\n      jumpi\n        /* \"#utility.yul\":6747:6826   */\n      tag_238\n      tag_122\n      jump\t// in\n    tag_238:\n        /* \"#utility.yul\":6716:6828   */\n    tag_237:\n        /* \"#utility.yul\":6837:6891   */\n      tag_239\n        /* \"#utility.yul\":6884:6890   */\n      dup5\n        /* \"#utility.yul\":6879:6882   */\n      dup3\n        /* \"#utility.yul\":6874:6877   */\n      dup6\n        /* \"#utility.yul\":6837:6891   */\n      tag_127\n      jump\t// in\n    tag_239:\n        /* \"#utility.yul\":6556:6897   */\n      pop\n        /* \"#utility.yul\":6472:6897   */\n      swap4\n      swap3\n      pop\n      pop\n      pop\n      jump\t// out\n        /* \"#utility.yul\":6917:7257   */\n    tag_129:\n        /* \"#utility.yul\":6973:6978   */\n      0x00\n        /* \"#utility.yul\":7022:7025   */\n      dup3\n        /* \"#utility.yul\":7015:7019   */\n      0x1f\n        /* \"#utility.yul\":7007:7013   */\n      dup4\n        /* \"#utility.yul\":7003:7020   */\n      add\n        /* \"#utility.yul\":6999:7026   */\n      slt\n        /* \"#utility.yul\":6989:7111   */\n      tag_241\n      jumpi\n        /* \"#utility.yul\":7030:7109   */\n      tag_242\n      tag_121\n      jump\t// in\n    tag_242:\n        /* \"#utility.yul\":6989:7111   */\n    tag_241:\n        /* \"#utility.yul\":7147:7153   */\n      dup2\n        /* \"#utility.yul\":7134:7154   */\n      calldataload\n        /* \"#utility.yul\":7172:7251   */\n      tag_243\n        /* \"#utility.yul\":7247:7250   */\n      dup5\n        /* \"#utility.yul\":7239:7245   */\n      dup3\n        /* \"#utility.yul\":7232:7236   */\n      0x20\n        /* \"#utility.yul\":7224:7230   */\n      dup7\n        /* \"#utility.yul\":7220:7237   */\n      add\n        /* \"#utility.yul\":7172:7251   */\n      tag_128\n      jump\t// in\n    tag_243:\n        /* \"#utility.yul\":7163:7251   */\n      swap2\n      pop\n        /* \"#utility.yul\":6979:7257   */\n      pop\n        /* \"#utility.yul\":6917:7257   */\n      swap3\n      swap2\n      pop\n      pop\n      jump\t// out\n        /* \"#utility.yul\":7263:8242   */\n    tag_31:\n        /* \"#utility.yul\":7360:7366   */\n      0x00\n        /* \"#utility.yul\":7368:7374   */\n      dup1\n        /* \"#utility.yul\":7376:7382   */\n      0x00\n        /* \"#utility.yul\":7425:7427   */\n      0x60\n        /* \"#utility.yul\":7413:7422   */\n      dup5\n        /* \"#utility.yul\":7404:7411   */\n      dup7\n        /* \"#utility.yul\":7400:7423   */\n      sub\n        /* \"#utility.yul\":7396:7428   */\n      slt\n        /* \"#utility.yul\":7393:7512   */\n      iszero\n      tag_245\n      jumpi\n        /* \"#utility.yul\":7431:7510   */\n      tag_246\n      tag_101\n      jump\t// in\n    tag_246:\n        /* \"#utility.yul\":7393:7512   */\n    tag_245:\n        /* \"#utility.yul\":7579:7580   */\n      0x00\n        /* \"#utility.yul\":7568:7577   */\n      dup5\n        /* \"#utility.yul\":7564:7581   */\n      add\n        /* \"#utility.yul\":7551:7582   */\n      calldataload\n        /* \"#utility.yul\":7609:7627   */\n      0xffffffffffffffff\n        /* \"#utility.yul\":7601:7607   */\n      dup2\n        /* \"#utility.yul\":7598:7628   */\n      gt\n        /* \"#utility.yul\":7595:7712   */\n      iszero\n      tag_247\n      jumpi\n        /* \"#utility.yul\":7631:7710   */\n      tag_248\n      tag_102\n      jump\t// in\n    tag_248:\n        /* \"#utility.yul\":7595:7712   */\n    tag_247:\n        /* \"#utility.yul\":7736:7799   */\n      tag_249\n        /* \"#utility.yul\":7791:7798   */\n      dup7\n        /* \"#utility.yul\":7782:7788   */\n      dup3\n        /* \"#utility.yul\":7771:7780   */\n      dup8\n        /* \"#utility.yul\":7767:7789   */\n      add\n        /* \"#utility.yul\":7736:7799   */\n      tag_129\n      jump\t// in\n    tag_249:\n        /* \"#utility.yul\":7726:7799   */\n      swap4\n      pop\n        /* \"#utility.yul\":7522:7809   */\n      pop\n        /* \"#utility.yul\":7876:7878   */\n      0x20\n        /* \"#utility.yul\":7865:7874   */\n      dup5\n        /* \"#utility.yul\":7861:7879   */\n      add\n        /* \"#utility.yul\":7848:7880   */\n      calldataload\n        /* \"#utility.yul\":7907:7925   */\n      0xffffffffffffffff\n        /* \"#utility.yul\":7899:7905   */\n      dup2\n        /* \"#utility.yul\":7896:7926   */\n      gt\n        /* \"#utility.yul\":7893:8010   */\n      iszero\n      tag_250\n      jumpi\n        /* \"#utility.yul\":7929:8008   */\n      tag_251\n      tag_102\n      jump\t// in\n    tag_251:\n        /* \"#utility.yul\":7893:8010   */\n    tag_250:\n        /* \"#utility.yul\":8034:8097   */\n      tag_252\n        /* \"#utility.yul\":8089:8096   */\n      dup7\n        /* \"#utility.yul\":8080:8086   */\n      dup3\n        /* \"#utility.yul\":8069:8078   */\n      dup8\n        /* \"#utility.yul\":8065:8087   */\n      add\n        /* \"#utility.yul\":8034:8097   */\n      tag_129\n      jump\t// in\n    tag_252:\n        /* \"#utility.yul\":8024:8097   */\n      swap3\n      pop\n        /* \"#utility.yul\":7819:8107   */\n      pop\n        /* \"#utility.yul\":8146:8148   */\n      0x40\n        /* \"#utility.yul\":8172:8225   */\n      tag_253\n        /* \"#utility.yul\":8217:8224   */\n      dup7\n        /* \"#utility.yul\":8208:8214   */\n      dup3\n        /* \"#utility.yul\":8197:8206   */\n      dup8\n        /* \"#utility.yul\":8193:8215   */\n      add\n        /* \"#utility.yul\":8172:8225   */\n      tag_120\n      jump\t// in\n    tag_253:\n        /* \"#utility.yul\":8162:8225   */\n      swap2\n      pop\n        /* \"#utility.yul\":8117:8235   */\n      pop\n        /* \"#utility.yul\":7263:8242   */\n      swap3\n      pop\n      swap3\n      pop\n      swap3\n      jump\t// out\n        /* \"#utility.yul\":8248:8470   */\n    tag_36:\n        /* \"#utility.yul\":8341:8345   */\n      0x00\n        /* \"#utility.yul\":8379:8381   */\n      0x20\n        /* \"#utility.yul\":8368:8377   */\n      dup3\n        /* \"#utility.yul\":8364:8382   */\n      add\n        /* \"#utility.yul\":8356:8382   */\n      swap1\n      pop\n        /* \"#utility.yul\":8392:8463   */\n      tag_255\n        /* \"#utility.yul\":8460:8461   */\n      0x00\n        /* \"#utility.yul\":8449:8458   */\n      dup4\n        /* \"#utility.yul\":8445:8462   */\n      add\n        /* \"#utility.yul\":8436:8442   */\n      dup5\n        /* \"#utility.yul\":8392:8463   */\n      tag_114\n      jump\t// in\n    tag_255:\n        /* \"#utility.yul\":8248:8470   */\n      swap3\n      swap2\n      pop\n      pop\n      jump\t// out\n        /* \"#utility.yul\":8476:8656   */\n    tag_130:\n        /* \"#utility.yul\":8524:8601   */\n      0x4e487b7100000000000000000000000000000000000000000000000000000000\n        /* \"#utility.yul\":8521:8522   */\n      0x00\n        /* \"#utility.yul\":8514:8602   */\n      mstore\n        /* \"#utility.yul\":8621:8625   */\n      0x22\n        /* \"#utility.yul\":8618:8619   */\n      0x04\n        /* \"#utility.yul\":8611:8626   */\n      mstore\n        /* \"#utility.yul\":8645:8649   */\n      0x24\n        /* \"#utility.yul\":8642:8643   */\n      0x00\n        /* \"#utility.yul\":8635:8650   */\n      revert\n        /* \"#utility.yul\":8662:8982   */\n    tag_41:\n        /* \"#utility.yul\":8706:8712   */\n      0x00\n        /* \"#utility.yul\":8743:8744   */\n      0x02\n        /* \"#utility.yul\":8737:8741   */\n      dup3\n        /* \"#utility.yul\":8733:8745   */\n      div\n        /* \"#utility.yul\":8723:8745   */\n      swap1\n      pop\n        /* \"#utility.yul\":8790:8791   */\n      0x01\n        /* \"#utility.yul\":8784:8788   */\n      dup3\n        /* \"#utility.yul\":8780:8792   */\n      and\n        /* \"#utility.yul\":8811:8829   */\n      dup1\n        /* \"#utility.yul\":8801:8882   */\n      tag_258\n      jumpi\n        /* \"#utility.yul\":8867:8871   */\n      0x7f\n        /* \"#utility.yul\":8859:8865   */\n      dup3\n        /* \"#utility.yul\":8855:8872   */\n      and\n        /* \"#utility.yul\":8845:8872   */\n      swap2\n      pop\n        /* \"#utility.yul\":8801:8882   */\n    tag_258:\n        /* \"#utility.yul\":8929:8931   */\n      0x20\n        /* \"#utility.yul\":8921:8927   */\n      dup3\n        /* \"#utility.yul\":8918:8932   */\n      lt\n        /* \"#utility.yul\":8898:8916   */\n      dup2\n        /* \"#utility.yul\":8895:8933   */\n      sub\n        /* \"#utility.yul\":8892:8976   */\n      tag_259\n      jumpi\n        /* \"#utility.yul\":8948:8966   */\n      tag_260\n      tag_130\n      jump\t// in\n    tag_260:\n        /* \"#utility.yul\":8892:8976   */\n    tag_259:\n        /* \"#utility.yul\":8713:8982   */\n      pop\n        /* \"#utility.yul\":8662:8982   */\n      swap2\n      swap1\n      pop\n      jump\t// out\n        /* \"#utility.yul\":8988:9157   */\n    tag_131:\n        /* \"#utility.yul\":9128:9149   */\n      0x5573657220646f6573206e6f7420657869737400000000000000000000000000\n        /* \"#utility.yul\":9124:9125   */\n      0x00\n        /* \"#utility.yul\":9116:9122   */\n      dup3\n        /* \"#utility.yul\":9112:9126   */\n      add\n        /* \"#utility.yul\":9105:9150   */\n      mstore\n        /* \"#utility.yul\":8988:9157   */\n      pop\n      jump\t// out\n        /* \"#utility.yul\":9163:9529   */\n    tag_132:\n        /* \"#utility.yul\":9305:9308   */\n      0x00\n        /* \"#utility.yul\":9326:9393   */\n      tag_263\n        /* \"#utility.yul\":9390:9392   */\n      0x13\n        /* \"#utility.yul\":9385:9388   */\n      dup4\n        /* \"#utility.yul\":9326:9393   */\n      tag_108\n      jump\t// in\n    tag_263:\n        /* \"#utility.yul\":9319:9393   */\n      swap2\n      pop\n        /* \"#utility.yul\":9402:9495   */\n      tag_264\n        /* \"#utility.yul\":9491:9494   */\n      dup3\n        /* \"#utility.yul\":9402:9495   */\n      tag_131\n      jump\t// in\n    tag_264:\n        /* \"#utility.yul\":9520:9522   */\n      0x20\n        /* \"#utility.yul\":9515:9518   */\n      dup3\n        /* \"#utility.yul\":9511:9523   */\n      add\n        /* \"#utility.yul\":9504:9523   */\n      swap1\n      pop\n        /* \"#utility.yul\":9163:9529   */\n      swap2\n      swap1\n      pop\n      jump\t// out\n        /* \"#utility.yul\":9535:9954   */\n    tag_57:\n        /* \"#utility.yul\":9701:9705   */\n      0x00\n        /* \"#utility.yul\":9739:9741   */\n      0x20\n        /* \"#utility.yul\":9728:9737   */\n      dup3\n        /* \"#utility.yul\":9724:9742   */\n      add\n        /* \"#utility.yul\":9716:9742   */\n      swap1\n      pop\n        /* \"#utility.yul\":9788:9797   */\n      dup2\n        /* \"#utility.yul\":9782:9786   */\n      dup2\n        /* \"#utility.yul\":9778:9798   */\n      sub\n        /* \"#utility.yul\":9774:9775   */\n      0x00\n        /* \"#utility.yul\":9763:9772   */\n      dup4\n        /* \"#utility.yul\":9759:9776   */\n      add\n        /* \"#utility.yul\":9752:9799   */\n      mstore\n        /* \"#utility.yul\":9816:9947   */\n      tag_266\n        /* \"#utility.yul\":9942:9946   */\n      dup2\n        /* \"#utility.yul\":9816:9947   */\n      tag_132\n      jump\t// in\n    tag_266:\n        /* \"#utility.yul\":9808:9947   */\n      swap1\n      pop\n        /* \"#utility.yul\":9535:9954   */\n      swap2\n      swap1\n      pop\n      jump\t// out\n        /* \"#utility.yul\":9960:10132   */\n    tag_133:\n        /* \"#utility.yul\":10100:10124   */\n      0x496e76616c69642077616c6c6574206164647265737300000000000000000000\n        /* \"#utility.yul\":10096:10097   */\n      0x00\n        /* \"#utility.yul\":10088:10094   */\n      dup3\n        /* \"#utility.yul\":10084:10098   */\n      add\n        /* \"#utility.yul\":10077:10125   */\n      mstore\n        /* \"#utility.yul\":9960:10132   */\n      pop\n      jump\t// out\n        /* \"#utility.yul\":10138:10504   */\n    tag_134:\n        /* \"#utility.yul\":10280:10283   */\n      0x00\n        /* \"#utility.yul\":10301:10368   */\n      tag_269\n        /* \"#utility.yul\":10365:10367   */\n      0x16\n        /* \"#utility.yul\":10360:10363   */\n      dup4\n        /* \"#utility.yul\":10301:10368   */\n      tag_108\n      jump\t// in\n    tag_269:\n        /* \"#utility.yul\":10294:10368   */\n      swap2\n      pop\n        /* \"#utility.yul\":10377:10470   */\n      tag_270\n        /* \"#utility.yul\":10466:10469   */\n      dup3\n        /* \"#utility.yul\":10377:10470   */\n      tag_133\n      jump\t// in\n    tag_270:\n        /* \"#utility.yul\":10495:10497   */\n      0x20\n        /* \"#utility.yul\":10490:10493   */\n      dup3\n        /* \"#utility.yul\":10486:10498   */\n      add\n        /* \"#utility.yul\":10479:10498   */\n      swap1\n      pop\n        /* \"#utility.yul\":10138:10504   */\n      swap2\n      swap1\n      pop\n      jump\t// out\n        /* \"#utility.yul\":10510:10929   */\n    tag_68:\n        /* \"#utility.yul\":10676:10680   */\n      0x00\n        /* \"#utility.yul\":10714:10716   */\n      0x20\n        /* \"#utility.yul\":10703:10712   */\n      dup3\n        /* \"#utility.yul\":10699:10717   */\n      add\n        /* \"#utility.yul\":10691:10717   */\n      swap1\n      pop\n        /* \"#utility.yul\":10763:10772   */\n      dup2\n        /* \"#utility.yul\":10757:10761   */\n      dup2\n        /* \"#utility.yul\":10753:10773   */\n      sub\n        /* \"#utility.yul\":10749:10750   */\n      0x00\n        /* \"#utility.yul\":10738:10747   */\n      dup4\n        /* \"#utility.yul\":10734:10751   */\n      add\n        /* \"#utility.yul\":10727:10774   */\n      mstore\n        /* \"#utility.yul\":10791:10922   */\n      tag_272\n        /* \"#utility.yul\":10917:10921   */\n      dup2\n        /* \"#utility.yul\":10791:10922   */\n      tag_134\n      jump\t// in\n    tag_272:\n        /* \"#utility.yul\":10783:10922   */\n      swap1\n      pop\n        /* \"#utility.yul\":10510:10929   */\n      swap2\n      swap1\n      pop\n      jump\t// out\n        /* \"#utility.yul\":10935:11108   */\n    tag_135:\n        /* \"#utility.yul\":11075:11100   */\n      0x5573657220616c72656164792072656769737465726564000000000000000000\n        /* \"#utility.yul\":11071:11072   */\n      0x00\n        /* \"#utility.yul\":11063:11069   */\n      dup3\n        /* \"#utility.yul\":11059:11073   */\n      add\n        /* \"#utility.yul\":11052:11101   */\n      mstore\n        /* \"#utility.yul\":10935:11108   */\n      pop\n      jump\t// out\n        /* \"#utility.yul\":11114:11480   */\n    tag_136:\n        /* \"#utility.yul\":11256:11259   */\n      0x00\n        /* \"#utility.yul\":11277:11344   */\n      tag_275\n        /* \"#utility.yul\":11341:11343   */\n      0x17\n        /* \"#utility.yul\":11336:11339   */\n      dup4\n        /* \"#utility.yul\":11277:11344   */\n      tag_108\n      jump\t// in\n    tag_275:\n        /* \"#utility.yul\":11270:11344   */\n      swap2\n      pop\n        /* \"#utility.yul\":11353:11446   */\n      tag_276\n        /* \"#utility.yul\":11442:11445   */\n      dup3\n        /* \"#utility.yul\":11353:11446   */\n      tag_135\n      jump\t// in\n    tag_276:\n        /* \"#utility.yul\":11471:11473   */\n      0x20\n        /* \"#utility.yul\":11466:11469   */\n      dup3\n        /* \"#utility.yul\":11462:11474   */\n      add\n        /* \"#utility.yul\":11455:11474   */\n      swap1\n      pop\n        /* \"#utility.yul\":11114:11480   */\n      swap2\n      swap1\n      pop\n      jump\t// out\n        /* \"#utility.yul\":11486:11905   */\n    tag_71:\n        /* \"#utility.yul\":11652:11656   */\n      0x00\n        /* \"#utility.yul\":11690:11692   */\n      0x20\n        /* \"#utility.yul\":11679:11688   */\n      dup3\n        /* \"#utility.yul\":11675:11693   */\n      add\n        /* \"#utility.yul\":11667:11693   */\n      swap1\n      pop\n        /* \"#utility.yul\":11739:11748   */\n      dup2\n        /* \"#utility.yul\":11733:11737   */\n      dup2\n        /* \"#utility.yul\":11729:11749   */\n      sub\n        /* \"#utility.yul\":11725:11726   */\n      0x00\n        /* \"#utility.yul\":11714:11723   */\n      dup4\n        /* \"#utility.yul\":11710:11727   */\n      add\n        /* \"#utility.yul\":11703:11750   */\n      mstore\n        /* \"#utility.yul\":11767:11898   */\n      tag_278\n        /* \"#utility.yul\":11893:11897   */\n      dup2\n        /* \"#utility.yul\":11767:11898   */\n      tag_136\n      jump\t// in\n    tag_278:\n        /* \"#utility.yul\":11759:11898   */\n      swap1\n      pop\n        /* \"#utility.yul\":11486:11905   */\n      swap2\n      swap1\n      pop\n      jump\t// out\n        /* \"#utility.yul\":11911:12052   */\n    tag_137:\n        /* \"#utility.yul\":11960:11964   */\n      0x00\n        /* \"#utility.yul\":11983:11986   */\n      dup2\n        /* \"#utility.yul\":11975:11986   */\n      swap1\n      pop\n        /* \"#utility.yul\":12006:12009   */\n      dup2\n        /* \"#utility.yul\":12003:12004   */\n      0x00\n        /* \"#utility.yul\":11996:12010   */\n      mstore\n        /* \"#utility.yul\":12040:12044   */\n      0x20\n        /* \"#utility.yul\":12037:12038   */\n      0x00\n        /* \"#utility.yul\":12027:12045   */\n      keccak256\n        /* \"#utility.yul\":12019:12045   */\n      swap1\n      pop\n        /* \"#utility.yul\":11911:12052   */\n      swap2\n      swap1\n      pop\n      jump\t// out\n        /* \"#utility.yul\":12058:12151   */\n    tag_138:\n        /* \"#utility.yul\":12095:12101   */\n      0x00\n        /* \"#utility.yul\":12142:12144   */\n      0x20\n        /* \"#utility.yul\":12137:12139   */\n      0x1f\n        /* \"#utility.yul\":12130:12135   */\n      dup4\n        /* \"#utility.yul\":12126:12140   */\n      add\n        /* \"#utility.yul\":12122:12145   */\n      div\n        /* \"#utility.yul\":12112:12145   */\n      swap1\n      pop\n        /* \"#utility.yul\":12058:12151   */\n      swap2\n      swap1\n      pop\n      jump\t// out\n        /* \"#utility.yul\":12157:12264   */\n    tag_139:\n        /* \"#utility.yul\":12201:12209   */\n      0x00\n        /* \"#utility.yul\":12251:12256   */\n      dup3\n        /* \"#utility.yul\":12245:12249   */\n      dup3\n        /* \"#utility.yul\":12241:12257   */\n      shl\n        /* \"#utility.yul\":12220:12257   */\n      swap1\n      pop\n        /* \"#utility.yul\":12157:12264   */\n      swap3\n      swap2\n      pop\n      pop\n      jump\t// out\n        /* \"#utility.yul\":12270:12663   */\n    tag_140:\n        /* \"#utility.yul\":12339:12345   */\n      0x00\n        /* \"#utility.yul\":12389:12390   */\n      0x08\n        /* \"#utility.yul\":12377:12387   */\n      dup4\n        /* \"#utility.yul\":12373:12391   */\n      mul\n        /* \"#utility.yul\":12412:12509   */\n      tag_283\n        /* \"#utility.yul\":12442:12508   */\n      0xffffffffffffffffffffffffffffffffffffffffffffffffffffffffffffffff\n        /* \"#utility.yul\":12431:12440   */\n      dup3\n        /* \"#utility.yul\":12412:12509   */\n      tag_139\n      jump\t// in\n    tag_283:\n        /* \"#utility.yul\":12530:12569   */\n      tag_284\n        /* \"#utility.yul\":12560:12568   */\n      dup7\n        /* \"#utility.yul\":12549:12558   */\n      dup4\n        /* \"#utility.yul\":12530:12569   */\n      tag_139\n      jump\t// in\n    tag_284:\n        /* \"#utility.yul\":12518:12569   */\n      swap6\n      pop\n        /* \"#utility.yul\":12602:12606   */\n      dup1\n        /* \"#utility.yul\":12598:12607   */\n      not\n        /* \"#utility.yul\":12591:12596   */\n      dup5\n        /* \"#utility.yul\":12587:12608   */\n      and\n        /* \"#utility.yul\":12578:12608   */\n      swap4\n      pop\n        /* \"#utility.yul\":12651:12655   */\n      dup1\n        /* \"#utility.yul\":12641:12649   */\n      dup7\n        /* \"#utility.yul\":12637:12656   */\n      and\n        /* \"#utility.yul\":12630:12635   */\n      dup5\n        /* \"#utility.yul\":12627:12657   */\n      or\n        /* \"#utility.yul\":12617:12657   */\n      swap3\n      pop\n        /* \"#utility.yul\":12346:12663   */\n      pop\n      pop\n        /* \"#utility.yul\":12270:12663   */\n      swap4\n      swap3\n      pop\n      pop\n      pop\n      jump\t// out\n        /* \"#utility.yul\":12669:12729   */\n    tag_141:\n        /* \"#utility.yul\":12697:12700   */\n      0x00\n        /* \"#utility.yul\":12718:12723   */\n      dup2\n        /* \"#utility.yul\":12711:12723   */\n      swap1\n      pop\n        /* \"#utility.yul\":12669:12729   */\n      swap2\n      swap1\n      pop\n      jump\t// out\n        /* \"#utility.yul\":12735:12877   */\n    tag_142:\n        /* \"#utility.yul\":12785:12794   */\n      0x00\n        /* \"#utility.yul\":12818:12871   */\n      tag_287\n        /* \"#utility.yul\":12836:12870   */\n      tag_288\n        /* \"#utility.yul\":12845:12869   */\n      tag_289\n        /* \"#utility.yul\":12863:12868   */\n      dup5\n        /* \"#utility.yul\":12845:12869   */\n      tag_103\n      jump\t// in\n    tag_289:\n        /* \"#utility.yul\":12836:12870   */\n      tag_141\n      jump\t// in\n    tag_288:\n        /* \"#utility.yul\":12818:12871   */\n      tag_103\n      jump\t// in\n    tag_287:\n        /* \"#utility.yul\":12805:12871   */\n      swap1\n      pop\n        /* \"#utility.yul\":12735:12877   */\n      swap2\n      swap1\n      pop\n      jump\t// out\n        /* \"#utility.yul\":12883:12958   */\n    tag_143:\n        /* \"#utility.yul\":12926:12929   */\n      0x00\n        /* \"#utility.yul\":12947:12952   */\n      dup2\n        /* \"#utility.yul\":12940:12952   */\n      swap1\n      pop\n        /* \"#utility.yul\":12883:12958   */\n      swap2\n      swap1\n      pop\n      jump\t// out\n        /* \"#utility.yul\":12964:13233   */\n    tag_144:\n        /* \"#utility.yul\":13074:13113   */\n      tag_292\n        /* \"#utility.yul\":13105:13112   */\n      dup4\n        /* \"#utility.yul\":13074:13113   */\n      tag_142\n      jump\t// in\n    tag_292:\n        /* \"#utility.yul\":13135:13226   */\n      tag_293\n        /* \"#utility.yul\":13184:13225   */\n      tag_294\n        /* \"#utility.yul\":13208:13224   */\n      dup3\n        /* \"#utility.yul\":13184:13225   */\n      tag_143\n      jump\t// in\n    tag_294:\n        /* \"#utility.yul\":13176:13182   */\n      dup5\n        /* \"#utility.yul\":13169:13173   */\n      dup5\n        /* \"#utility.yul\":13163:13174   */\n      sload\n        /* \"#utility.yul\":13135:13226   */\n      tag_140\n      jump\t// in\n    tag_293:\n        /* \"#utility.yul\":13129:13133   */\n      dup3\n        /* \"#utility.yul\":13122:13227   */\n      sstore\n        /* \"#utility.yul\":13040:13233   */\n      pop\n        /* \"#utility.yul\":12964:13233   */\n      pop\n      pop\n      pop\n      jump\t// out\n        /* \"#utility.yul\":13239:13312   */\n    tag_145:\n        /* \"#utility.yul\":13284:13287   */\n      0x00\n        /* \"#utility.yul\":13239:13312   */\n      swap1\n      jump\t// out\n        /* \"#utility.yul\":13318:13507   */\n    tag_146:\n        /* \"#utility.yul\":13395:13427   */\n      tag_297\n      tag_145\n      jump\t// in\n    tag_297:\n        /* \"#utility.yul\":13436:13501   */\n      tag_298\n        /* \"#utility.yul\":13494:13500   */\n      dup2\n        /* \"#utility.yul\":13486:13492   */\n      dup5\n        /* \"#utility.yul\":13480:13484   */\n      dup5\n        /* \"#utility.yul\":13436:13501   */\n      tag_144\n      jump\t// in\n    tag_298:\n        /* \"#utility.yul\":13371:13507   */\n      pop\n        /* \"#utility.yul\":13318:13507   */\n      pop\n      pop\n      jump\t// out\n        /* \"#utility.yul\":13513:13699   */\n    tag_147:\n        /* \"#utility.yul\":13573:13693   */\n    tag_300:\n        /* \"#utility.yul\":13590:13593   */\n      dup2\n        /* \"#utility.yul\":13583:13588   */\n      dup2\n        /* \"#utility.yul\":13580:13594   */\n      lt\n        /* \"#utility.yul\":13573:13693   */\n      iszero\n      tag_302\n      jumpi\n        /* \"#utility.yul\":13644:13683   */\n      tag_303\n        /* \"#utility.yul\":13681:13682   */\n      0x00\n        /* \"#utility.yul\":13674:13679   */\n      dup3\n        /* \"#utility.yul\":13644:13683   */\n      tag_146\n      jump\t// in\n    tag_303:\n        /* \"#utility.yul\":13617:13618   */\n      0x01\n        /* \"#utility.yul\":13610:13615   */\n      dup2\n        /* \"#utility.yul\":13606:13619   */\n      add\n        /* \"#utility.yul\":13597:13619   */\n      swap1\n      pop\n        /* \"#utility.yul\":13573:13693   */\n      jump(tag_300)\n    tag_302:\n        /* \"#utility.yul\":13513:13699   */\n      pop\n      pop\n      jump\t// out\n        /* \"#utility.yul\":13705:14248   */\n    tag_148:\n        /* \"#utility.yul\":13806:13808   */\n      0x1f\n        /* \"#utility.yul\":13801:13804   */\n      dup3\n        /* \"#utility.yul\":13798:13809   */\n      gt\n        /* \"#utility.yul\":13795:14241   */\n      iszero\n      tag_305\n      jumpi\n        /* \"#utility.yul\":13840:13878   */\n      tag_306\n        /* \"#utility.yul\":13872:13877   */\n      dup2\n        /* \"#utility.yul\":13840:13878   */\n      tag_137\n      jump\t// in\n    tag_306:\n        /* \"#utility.yul\":13924:13953   */\n      tag_307\n        /* \"#utility.yul\":13942:13952   */\n      dup5\n        /* \"#utility.yul\":13924:13953   */\n      tag_138\n      jump\t// in\n    tag_307:\n        /* \"#utility.yul\":13914:13922   */\n      dup2\n        /* \"#utility.yul\":13910:13954   */\n      add\n        /* \"#utility.yul\":14107:14109   */\n      0x20\n        /* \"#utility.yul\":14095:14105   */\n      dup6\n        /* \"#utility.yul\":14092:14110   */\n      lt\n        /* \"#utility.yul\":14089:14138   */\n      iszero\n      tag_308\n      jumpi\n        /* \"#utility.yul\":14128:14136   */\n      dup2\n        /* \"#utility.yul\":14113:14136   */\n      swap1\n      pop\n        /* \"#utility.yul\":14089:14138   */\n    tag_308:\n        /* \"#utility.yul\":14151:14231   */\n      tag_309\n        /* \"#utility.yul\":14207:14229   */\n      tag_310\n        /* \"#utility.yul\":14225:14228   */\n      dup6\n        /* \"#utility.yul\":14207:14229   */\n      tag_138\n      jump\t// in\n    tag_310:\n        /* \"#utility.yul\":14197:14205   */\n      dup4\n        /* \"#utility.yul\":14193:14230   */\n      add\n        /* \"#utility.yul\":14180:14191   */\n      dup3\n        /* \"#utility.yul\":14151:14231   */\n      tag_147\n      jump\t// in\n    tag_309:\n        /* \"#utility.yul\":13810:14241   */\n      pop\n      pop\n        /* \"#utility.yul\":13795:14241   */\n    tag_305:\n        /* \"#utility.yul\":13705:14248   */\n      pop\n      pop\n      pop\n      jump\t// out\n        /* \"#utility.yul\":14254:14371   */\n    tag_149:\n        /* \"#utility.yul\":14308:14316   */\n      0x00\n        /* \"#utility.yul\":14358:14363   */\n      dup3\n        /* \"#utility.yul\":14352:14356   */\n      dup3\n        /* \"#utility.yul\":14348:14364   */\n      shr\n        /* \"#utility.yul\":14327:14364   */\n      swap1\n      pop\n        /* \"#utility.yul\":14254:14371   */\n      swap3\n      swap2\n      pop\n      pop\n      jump\t// out\n        /* \"#utility.yul\":14377:14546   */\n    tag_150:\n        /* \"#utility.yul\":14421:14427   */\n      0x00\n        /* \"#utility.yul\":14454:14505   */\n      tag_313\n        /* \"#utility.yul\":14502:14503   */\n      0x00\n        /* \"#utility.yul\":14498:14504   */\n      not\n        /* \"#utility.yul\":14490:14495   */\n      dup5\n        /* \"#utility.yul\":14487:14488   */\n      0x08\n        /* \"#utility.yul\":14483:14496   */\n      mul\n        /* \"#utility.yul\":14454:14505   */\n      tag_149\n      jump\t// in\n    tag_313:\n        /* \"#utility.yul\":14450:14506   */\n      not\n        /* \"#utility.yul\":14535:14539   */\n      dup1\n        /* \"#utility.yul\":14529:14533   */\n      dup4\n        /* \"#utility.yul\":14525:14540   */\n      and\n        /* \"#utility.yul\":14515:14540   */\n      swap2\n      pop\n        /* \"#utility.yul\":14428:14546   */\n      pop\n        /* \"#utility.yul\":14377:14546   */\n      swap3\n      swap2\n      pop\n      pop\n      jump\t// out\n        /* \"#utility.yul\":14551:14846   */\n    tag_151:\n        /* \"#utility.yul\":14627:14631   */\n      0x00\n        /* \"#utility.yul\":14773:14802   */\n      tag_315\n        /* \"#utility.yul\":14798:14801   */\n      dup4\n        /* \"#utility.yul\":14792:14796   */\n      dup4\n        /* \"#utility.yul\":14773:14802   */\n      tag_150\n      jump\t// in\n    tag_315:\n        /* \"#utility.yul\":14765:14802   */\n      swap2\n      pop\n        /* \"#utility.yul\":14835:14838   */\n      dup3\n        /* \"#utility.yul\":14832:14833   */\n      0x02\n        /* \"#utility.yul\":14828:14839   */\n      mul\n        /* \"#utility.yul\":14822:14826   */\n      dup3\n        /* \"#utility.yul\":14819:14840   */\n      or\n        /* \"#utility.yul\":14811:14840   */\n      swap1\n      pop\n        /* \"#utility.yul\":14551:14846   */\n      swap3\n      swap2\n      pop\n      pop\n      jump\t// out\n        /* \"#utility.yul\":14851:16246   */\n    tag_77:\n        /* \"#utility.yul\":14968:15005   */\n      tag_317\n        /* \"#utility.yul\":15001:15004   */\n      dup3\n        /* \"#utility.yul\":14968:15005   */\n      tag_107\n      jump\t// in\n    tag_317:\n        /* \"#utility.yul\":15070:15088   */\n      0xffffffffffffffff\n        /* \"#utility.yul\":15062:15068   */\n      dup2\n        /* \"#utility.yul\":15059:15089   */\n      gt\n        /* \"#utility.yul\":15056:15112   */\n      iszero\n      tag_318\n      jumpi\n        /* \"#utility.yul\":15092:15110   */\n      tag_319\n      tag_123\n      jump\t// in\n    tag_319:\n        /* \"#utility.yul\":15056:15112   */\n    tag_318:\n        /* \"#utility.yul\":15136:15174   */\n      tag_320\n        /* \"#utility.yul\":15168:15172   */\n      dup3\n        /* \"#utility.yul\":15162:15173   */\n      sload\n        /* \"#utility.yul\":15136:15174   */\n      tag_41\n      jump\t// in\n    tag_320:\n        /* \"#utility.yul\":15221:15288   */\n      tag_321\n        /* \"#utility.yul\":15281:15287   */\n      dup3\n        /* \"#utility.yul\":15273:15279   */\n      dup3\n        /* \"#utility.yul\":15267:15271   */\n      dup6\n        /* \"#utility.yul\":15221:15288   */\n      tag_148\n      jump\t// in\n    tag_321:\n        /* \"#utility.yul\":15315:15316   */\n      0x00\n        /* \"#utility.yul\":15339:15343   */\n      0x20\n        /* \"#utility.yul\":15326:15343   */\n      swap1\n      pop\n        /* \"#utility.yul\":15371:15373   */\n      0x1f\n        /* \"#utility.yul\":15363:15369   */\n      dup4\n        /* \"#utility.yul\":15360:15374   */\n      gt\n        /* \"#utility.yul\":15388:15389   */\n      0x01\n        /* \"#utility.yul\":15383:16001   */\n      dup2\n      eq\n      tag_323\n      jumpi\n        /* \"#utility.yul\":16045:16046   */\n      0x00\n        /* \"#utility.yul\":16062:16068   */\n      dup5\n        /* \"#utility.yul\":16059:16136   */\n      iszero\n      tag_324\n      jumpi\n        /* \"#utility.yul\":16111:16120   */\n      dup3\n        /* \"#utility.yul\":16106:16109   */\n      dup8\n        /* \"#utility.yul\":16102:16121   */\n      add\n        /* \"#utility.yul\":16096:16122   */\n      mload\n        /* \"#utility.yul\":16087:16122   */\n      swap1\n      pop\n        /* \"#utility.yul\":16059:16136   */\n    tag_324:\n        /* \"#utility.yul\":16162:16229   */\n      tag_325\n        /* \"#utility.yul\":16222:16228   */\n      dup6\n        /* \"#utility.yul\":16215:16220   */\n      dup3\n        /* \"#utility.yul\":16162:16229   */\n      tag_151\n      jump\t// in\n    tag_325:\n        /* \"#utility.yul\":16156:16160   */\n      dup7\n        /* \"#utility.yul\":16149:16230   */\n      sstore\n        /* \"#utility.yul\":16018:16240   */\n      pop\n        /* \"#utility.yul\":15353:16240   */\n      jump(tag_322)\n        /* \"#utility.yul\":15383:16001   */\n    tag_323:\n        /* \"#utility.yul\":15435:15439   */\n      0x1f\n        /* \"#utility.yul\":15431:15440   */\n      not\n        /* \"#utility.yul\":15423:15429   */\n      dup5\n        /* \"#utility.yul\":15419:15441   */\n      and\n        /* \"#utility.yul\":15469:15506   */\n      tag_326\n        /* \"#utility.yul\":15501:15505   */\n      dup7\n        /* \"#utility.yul\":15469:15506   */\n      tag_137\n      jump\t// in\n    tag_326:\n        /* \"#utility.yul\":15528:15529   */\n      0x00\n        /* \"#utility.yul\":15542:15750   */\n    tag_327:\n        /* \"#utility.yul\":15556:15563   */\n      dup3\n        /* \"#utility.yul\":15553:15554   */\n      dup2\n        /* \"#utility.yul\":15550:15564   */\n      lt\n        /* \"#utility.yul\":15542:15750   */\n      iszero\n      tag_329\n      jumpi\n        /* \"#utility.yul\":15635:15644   */\n      dup5\n        /* \"#utility.yul\":15630:15633   */\n      dup10\n        /* \"#utility.yul\":15626:15645   */\n      add\n        /* \"#utility.yul\":15620:15646   */\n      mload\n        /* \"#utility.yul\":15612:15618   */\n      dup3\n        /* \"#utility.yul\":15605:15647   */\n      sstore\n        /* \"#utility.yul\":15686:15687   */\n      0x01\n        /* \"#utility.yul\":15678:15684   */\n      dup3\n        /* \"#utility.yul\":15674:15688   */\n      add\n        /* \"#utility.yul\":15664:15688   */\n      swap2\n      pop\n        /* \"#utility.yul\":15733:15735   */\n      0x20\n        /* \"#utility.yul\":15722:15731   */\n      dup6\n        /* \"#utility.yul\":15718:15736   */\n      add\n        /* \"#utility.yul\":15705:15736   */\n      swap5\n      pop\n        /* \"#utility.yul\":15579:15583   */\n      0x20\n        /* \"#utility.yul\":15576:15577   */\n      dup2\n        /* \"#utility.yul\":15572:15584   */\n      add\n        /* \"#utility.yul\":15567:15584   */\n      swap1\n      pop\n        /* \"#utility.yul\":15542:15750   */\n      jump(tag_327)\n    tag_329:\n        /* \"#utility.yul\":15778:15784   */\n      dup7\n        /* \"#utility.yul\":15769:15776   */\n      dup4\n        /* \"#utility.yul\":15766:15785   */\n      lt\n        /* \"#utility.yul\":15763:15942   */\n      iszero\n      tag_330\n      jumpi\n        /* \"#utility.yul\":15836:15845   */\n      dup5\n        /* \"#utility.yul\":15831:15834   */\n      dup10\n        /* \"#utility.yul\":15827:15846   */\n      add\n        /* \"#utility.yul\":15821:15847   */\n      mload\n        /* \"#utility.yul\":15879:15927   */\n      tag_331\n        /* \"#utility.yul\":15921:15925   */\n      0x1f\n        /* \"#utility.yul\":15913:15919   */\n      dup10\n        /* \"#utility.yul\":15909:15926   */\n      and\n        /* \"#utility.yul\":15898:15907   */\n      dup3\n        /* \"#utility.yul\":15879:15927   */\n      tag_150\n      jump\t// in\n    tag_331:\n        /* \"#utility.yul\":15871:15877   */\n      dup4\n        /* \"#utility.yul\":15864:15928   */\n      sstore\n        /* \"#utility.yul\":15786:15942   */\n      pop\n        /* \"#utility.yul\":15763:15942   */\n    tag_330:\n        /* \"#utility.yul\":15988:15989   */\n      0x01\n        /* \"#utility.yul\":15984:15985   */\n      0x02\n        /* \"#utility.yul\":15976:15982   */\n      dup9\n        /* \"#utility.yul\":15972:15986   */\n      mul\n        /* \"#utility.yul\":15968:15990   */\n      add\n        /* \"#utility.yul\":15962:15966   */\n      dup9\n        /* \"#utility.yul\":15955:15991   */\n      sstore\n        /* \"#utility.yul\":15390:16001   */\n      pop\n      pop\n      pop\n        /* \"#utility.yul\":15353:16240   */\n    tag_322:\n      pop\n        /* \"#utility.yul\":14943:16246   */\n      pop\n      pop\n      pop\n        /* \"#utility.yul\":14851:16246   */\n      pop\n      pop\n      jump\t// out\n        /* \"#utility.yul\":16252:16876   */\n    tag_80:\n        /* \"#utility.yul\":16441:16445   */\n      0x00\n        /* \"#utility.yul\":16479:16481   */\n      0x60\n        /* \"#utility.yul\":16468:16477   */\n      dup3\n        /* \"#utility.yul\":16464:16482   */\n      add\n        /* \"#utility.yul\":16456:16482   */\n      swap1\n      pop\n        /* \"#utility.yul\":16528:16537   */\n      dup2\n        /* \"#utility.yul\":16522:16526   */\n      dup2\n        /* \"#utility.yul\":16518:16538   */\n      sub\n        /* \"#utility.yul\":16514:16515   */\n      0x00\n        /* \"#utility.yul\":16503:16512   */\n      dup4\n        /* \"#utility.yul\":16499:16516   */\n      add\n        /* \"#utility.yul\":16492:16539   */\n      mstore\n        /* \"#utility.yul\":16556:16634   */\n      tag_333\n        /* \"#utility.yul\":16629:16633   */\n      dup2\n        /* \"#utility.yul\":16620:16626   */\n      dup7\n        /* \"#utility.yul\":16556:16634   */\n      tag_111\n      jump\t// in\n    tag_333:\n        /* \"#utility.yul\":16548:16634   */\n      swap1\n      pop\n        /* \"#utility.yul\":16681:16690   */\n      dup2\n        /* \"#utility.yul\":16675:16679   */\n      dup2\n        /* \"#utility.yul\":16671:16691   */\n      sub\n        /* \"#utility.yul\":16666:16668   */\n      0x20\n        /* \"#utility.yul\":16655:16664   */\n      dup4\n        /* \"#utility.yul\":16651:16669   */\n      add\n        /* \"#utility.yul\":16644:16692   */\n      mstore\n        /* \"#utility.yul\":16709:16787   */\n      tag_334\n        /* \"#utility.yul\":16782:16786   */\n      dup2\n        /* \"#utility.yul\":16773:16779   */\n      dup6\n        /* \"#utility.yul\":16709:16787   */\n      tag_111\n      jump\t// in\n    tag_334:\n        /* \"#utility.yul\":16701:16787   */\n      swap1\n      pop\n        /* \"#utility.yul\":16797:16869   */\n      tag_335\n        /* \"#utility.yul\":16865:16867   */\n      0x40\n        /* \"#utility.yul\":16854:16863   */\n      dup4\n        /* \"#utility.yul\":16850:16868   */\n      add\n        /* \"#utility.yul\":16841:16847   */\n      dup5\n        /* \"#utility.yul\":16797:16869   */\n      tag_114\n      jump\t// in\n    tag_335:\n        /* \"#utility.yul\":16252:16876   */\n      swap5\n      swap4\n      pop\n      pop\n      pop\n      pop\n      jump\t// out\n        /* \"#utility.yul\":16882:17107   */\n    tag_152:\n        /* \"#utility.yul\":17022:17056   */\n      0x4f776e61626c653a206e6577206f776e657220697320746865207a65726f2061\n        /* \"#utility.yul\":17018:17019   */\n      0x00\n        /* \"#utility.yul\":17010:17016   */\n      dup3\n        /* \"#utility.yul\":17006:17020   */\n      add\n        /* \"#utility.yul\":16999:17057   */\n      mstore\n        /* \"#utility.yul\":17091:17099   */\n      0x6464726573730000000000000000000000000000000000000000000000000000\n        /* \"#utility.yul\":17086:17088   */\n      0x20\n        /* \"#utility.yul\":17078:17084   */\n      dup3\n        /* \"#utility.yul\":17074:17089   */\n      add\n        /* \"#utility.yul\":17067:17100   */\n      mstore\n        /* \"#utility.yul\":16882:17107   */\n      pop\n      jump\t// out\n        /* \"#utility.yul\":17113:17479   */\n    tag_153:\n        /* \"#utility.yul\":17255:17258   */\n      0x00\n        /* \"#utility.yul\":17276:17343   */\n      tag_338\n        /* \"#utility.yul\":17340:17342   */\n      0x26\n        /* \"#utility.yul\":17335:17338   */\n      dup4\n        /* \"#utility.yul\":17276:17343   */\n      tag_108\n      jump\t// in\n    tag_338:\n        /* \"#utility.yul\":17269:17343   */\n      swap2\n      pop\n        /* \"#utility.yul\":17352:17445   */\n      tag_339\n        /* \"#utility.yul\":17441:17444   */\n      dup3\n        /* \"#utility.yul\":17352:17445   */\n      tag_152\n      jump\t// in\n    tag_339:\n        /* \"#utility.yul\":17470:17472   */\n      0x40\n        /* \"#utility.yul\":17465:17468   */\n      dup3\n        /* \"#utility.yul\":17461:17473   */\n      add\n        /* \"#utility.yul\":17454:17473   */\n      swap1\n      pop\n        /* \"#utility.yul\":17113:17479   */\n      swap2\n      swap1\n      pop\n      jump\t// out\n        /* \"#utility.yul\":17485:17904   */\n    tag_87:\n        /* \"#utility.yul\":17651:17655   */\n      0x00\n        /* \"#utility.yul\":17689:17691   */\n      0x20\n        /* \"#utility.yul\":17678:17687   */\n      dup3\n        /* \"#utility.yul\":17674:17692   */\n      add\n        /* \"#utility.yul\":17666:17692   */\n      swap1\n      pop\n        /* \"#utility.yul\":17738:17747   */\n      dup2\n        /* \"#utility.yul\":17732:17736   */\n      dup2\n        /* \"#utility.yul\":17728:17748   */\n      sub\n        /* \"#utility.yul\":17724:17725   */\n      0x00\n        /* \"#utility.yul\":17713:17722   */\n      dup4\n        /* \"#utility.yul\":17709:17726   */\n      add\n        /* \"#utility.yul\":17702:17749   */\n      mstore\n        /* \"#utility.yul\":17766:17897   */\n      tag_341\n        /* \"#utility.yul\":17892:17896   */\n      dup2\n        /* \"#utility.yul\":17766:17897   */\n      tag_153\n      jump\t// in\n    tag_341:\n        /* \"#utility.yul\":17758:17897   */\n      swap1\n      pop\n        /* \"#utility.yul\":17485:17904   */\n      swap2\n      swap1\n      pop\n      jump\t// out\n        /* \"#utility.yul\":17910:18092   */\n    tag_154:\n        /* \"#utility.yul\":18050:18084   */\n      0x4f776e61626c653a2063616c6c6572206973206e6f7420746865206f776e6572\n        /* \"#utility.yul\":18046:18047   */\n      0x00\n        /* \"#utility.yul\":18038:18044   */\n      dup3\n        /* \"#utility.yul\":18034:18048   */\n      add\n        /* \"#utility.yul\":18027:18085   */\n      mstore\n        /* \"#utility.yul\":17910:18092   */\n      pop\n      jump\t// out\n        /* \"#utility.yul\":18098:18464   */\n    tag_155:\n        /* \"#utility.yul\":18240:18243   */\n      0x00\n        /* \"#utility.yul\":18261:18328   */\n      tag_344\n        /* \"#utility.yul\":18325:18327   */\n      0x20\n        /* \"#utility.yul\":18320:18323   */\n      dup4\n        /* \"#utility.yul\":18261:18328   */\n      tag_108\n      jump\t// in\n    tag_344:\n        /* \"#utility.yul\":18254:18328   */\n      swap2\n      pop\n        /* \"#utility.yul\":18337:18430   */\n      tag_345\n        /* \"#utility.yul\":18426:18429   */\n      dup3\n        /* \"#utility.yul\":18337:18430   */\n      tag_154\n      jump\t// in\n    tag_345:\n        /* \"#utility.yul\":18455:18457   */\n      0x20\n        /* \"#utility.yul\":18450:18453   */\n      dup3\n        /* \"#utility.yul\":18446:18458   */\n      add\n        /* \"#utility.yul\":18439:18458   */\n      swap1\n      pop\n        /* \"#utility.yul\":18098:18464   */\n      swap2\n      swap1\n      pop\n      jump\t// out\n        /* \"#utility.yul\":18470:18889   */\n    tag_95:\n        /* \"#utility.yul\":18636:18640   */\n      0x00\n        /* \"#utility.yul\":18674:18676   */\n      0x20\n        /* \"#utility.yul\":18663:18672   */\n      dup3\n        /* \"#utility.yul\":18659:18677   */\n      add\n        /* \"#utility.yul\":18651:18677   */\n      swap1\n      pop\n        /* \"#utility.yul\":18723:18732   */\n      dup2\n        /* \"#utility.yul\":18717:18721   */\n      dup2\n        /* \"#utility.yul\":18713:18733   */\n      sub\n        /* \"#utility.yul\":18709:18710   */\n      0x00\n        /* \"#utility.yul\":18698:18707   */\n      dup4\n        /* \"#utility.yul\":18694:18711   */\n      add\n        /* \"#utility.yul\":18687:18734   */\n      mstore\n        /* \"#utility.yul\":18751:18882   */\n      tag_347\n        /* \"#utility.yul\":18877:18881   */\n      dup2\n        /* \"#utility.yul\":18751:18882   */\n      tag_155\n      jump\t// in\n    tag_347:\n        /* \"#utility.yul\":18743:18882   */\n      swap1\n      pop\n        /* \"#utility.yul\":18470:18889   */\n      swap2\n      swap1\n      pop\n      jump\t// out\n\n    auxdata: 0xa2646970667358221220e37439cd41fa28b937b80085005eb43dd8419fdc52b0cc7e8545686a57b3044964736f6c63430008120033\n}\n",
				"bytecode": {
					"linkReferences": {},
					"object": "608060405234801561001057600080fd5b5061002d61002261003260201b60201c565b61003a60201b60201c565b6100fe565b600033905090565b60008060009054906101000a900473ffffffffffffffffffffffffffffffffffffffff169050816000806101000a81548173ffffffffffffffffffffffffffffffffffffffff021916908373ffffffffffffffffffffffffffffffffffffffff1602179055508173ffffffffffffffffffffffffffffffffffffffff168173ffffffffffffffffffffffffffffffffffffffff167f8be0079c531659141344cd1fd0a4f28419497f9722a3daafe3b4186f6b6457e060405160405180910390a35050565b6112678061010d6000396000f3fe608060405234801561001057600080fd5b506004361061007d5760003560e01c8063715018a61161005b578063715018a61461010257806388557b071461010c5780638da5cb5b14610128578063f2fde38b146101465761007d565b8063365b98b2146100825780633953527a146100b65780634081db51146100d2575b600080fd5b61009c60048036038101906100979190610888565b610162565b6040516100ad9594939291906109b0565b60405180910390f35b6100d060048036038101906100cb9190610a3d565b6102d5565b005b6100ec60048036038101906100e79190610aa9565b610368565b6040516100f99190610ad6565b60405180910390f35b61010a610380565b005b61012660048036038101906101219190610c26565b610394565b005b610130610624565b60405161013d9190610cb1565b60405180910390f35b610160600480360381019061015b9190610aa9565b61064d565b005b600360205280600052604060002060009150905080600001549080600101805461018b90610cfb565b80601f01602080910402602001604051908101604052809291908181526020018280546101b790610cfb565b80156102045780601f106101d957610100808354040283529160200191610204565b820191906000526020600020905b8154815290600101906020018083116101e757829003601f168201915b50505050509080600201805461021990610cfb565b80601f016020809104026020016040519081016040528092919081815260200182805461024590610cfb565b80156102925780601f1061026757610100808354040283529160200191610292565b820191906000526020600020905b81548152906001019060200180831161027557829003601f168201915b5050505050908060030160009054906101000a900473ffffffffffffffffffffffffffffffffffffffff16908060030160149054906101000a900460ff16905085565b6102dd6106d0565b6000600360008481526020019081526020016000206000015403610336576040517f08c379a000000000000000000000000000000000000000000000000000000000815260040161032d90610d78565b60405180910390fd5b806003600084815260200190815260200160002060030160146101000a81548160ff0219169083151502179055505050565b60026020528060005260406000206000915090505481565b6103886106d0565b610392600061074e565b565b61039c6106d0565b600073ffffffffffffffffffffffffffffffffffffffff168173ffffffffffffffffffffffffffffffffffffffff160361040b576040517f08c379a000000000000000000000000000000000000000000000000000000000815260040161040290610de4565b60405180910390fd5b6000600260008373ffffffffffffffffffffffffffffffffffffffff1673ffffffffffffffffffffffffffffffffffffffff168152602001908152602001600020541461048d576040517f08c379a000000000000000000000000000000000000000000000000000000000815260040161048490610e50565b60405180910390fd5b6104976001610812565b60006104a36001610828565b905060006040518060a001604052808381526020018681526020018581526020018473ffffffffffffffffffffffffffffffffffffffff16815260200160011515815250905081600260008573ffffffffffffffffffffffffffffffffffffffff1673ffffffffffffffffffffffffffffffffffffffff168152602001908152602001600020819055508060036000848152602001908152602001600020600082015181600001556020820151816001019081610560919061101c565b506040820151816002019081610576919061101c565b5060608201518160030160006101000a81548173ffffffffffffffffffffffffffffffffffffffff021916908373ffffffffffffffffffffffffffffffffffffffff16021790555060808201518160030160146101000a81548160ff021916908315150217905550905050817f40338c70a446f0ba365fc0489113a2f74ba912dae0f24fb8f8568f446e6f0c80868686604051610615939291906110ee565b60405180910390a25050505050565b60008060009054906101000a900473ffffffffffffffffffffffffffffffffffffffff16905090565b6106556106d0565b600073ffffffffffffffffffffffffffffffffffffffff168173ffffffffffffffffffffffffffffffffffffffff16036106c4576040517f08c379a00000000000000000000000000000000000000000000000000000000081526004016106bb906111a5565b60405180910390fd5b6106cd8161074e565b50565b6106d8610836565b73ffffffffffffffffffffffffffffffffffffffff166106f6610624565b73ffffffffffffffffffffffffffffffffffffffff161461074c576040517f08c379a000000000000000000000000000000000000000000000000000000000815260040161074390611211565b60405180910390fd5b565b60008060009054906101000a900473ffffffffffffffffffffffffffffffffffffffff169050816000806101000a81548173ffffffffffffffffffffffffffffffffffffffff021916908373ffffffffffffffffffffffffffffffffffffffff1602179055508173ffffffffffffffffffffffffffffffffffffffff168173ffffffffffffffffffffffffffffffffffffffff167f8be0079c531659141344cd1fd0a4f28419497f9722a3daafe3b4186f6b6457e060405160405180910390a35050565b6001816000016000828254019250508190555050565b600081600001549050919050565b600033905090565b6000604051905090565b600080fd5b600080fd5b6000819050919050565b61086581610852565b811461087057600080fd5b50565b6000813590506108828161085c565b92915050565b60006020828403121561089e5761089d610848565b5b60006108ac84828501610873565b91505092915050565b6108be81610852565b82525050565b600081519050919050565b600082825260208201905092915050565b60005b838110156108fe5780820151818401526020810190506108e3565b60008484015250505050565b6000601f19601f8301169050919050565b6000610926826108c4565b61093081856108cf565b93506109408185602086016108e0565b6109498161090a565b840191505092915050565b600073ffffffffffffffffffffffffffffffffffffffff82169050919050565b600061097f82610954565b9050919050565b61098f81610974565b82525050565b60008115159050919050565b6109aa81610995565b82525050565b600060a0820190506109c560008301886108b5565b81810360208301526109d7818761091b565b905081810360408301526109eb818661091b565b90506109fa6060830185610986565b610a0760808301846109a1565b9695505050505050565b610a1a81610995565b8114610a2557600080fd5b50565b600081359050610a3781610a11565b92915050565b60008060408385031215610a5457610a53610848565b5b6000610a6285828601610873565b9250506020610a7385828601610a28565b9150509250929050565b610a8681610974565b8114610a9157600080fd5b50565b600081359050610aa381610a7d565b92915050565b600060208284031215610abf57610abe610848565b5b6000610acd84828501610a94565b91505092915050565b6000602082019050610aeb60008301846108b5565b92915050565b600080fd5b600080fd5b7f4e487b7100000000000000000000000000000000000000000000000000000000600052604160045260246000fd5b610b338261090a565b810181811067ffffffffffffffff82111715610b5257610b51610afb565b5b80604052505050565b6000610b6561083e565b9050610b718282610b2a565b919050565b600067ffffffffffffffff821115610b9157610b90610afb565b5b610b9a8261090a565b9050602081019050919050565b82818337600083830152505050565b6000610bc9610bc484610b76565b610b5b565b905082815260208101848484011115610be557610be4610af6565b5b610bf0848285610ba7565b509392505050565b600082601f830112610c0d57610c0c610af1565b5b8135610c1d848260208601610bb6565b91505092915050565b600080600060608486031215610c3f57610c3e610848565b5b600084013567ffffffffffffffff811115610c5d57610c5c61084d565b5b610c6986828701610bf8565b935050602084013567ffffffffffffffff811115610c8a57610c8961084d565b5b610c9686828701610bf8565b9250506040610ca786828701610a94565b9150509250925092565b6000602082019050610cc66000830184610986565b92915050565b7f4e487b7100000000000000000000000000000000000000000000000000000000600052602260045260246000fd5b60006002820490506001821680610d1357607f821691505b602082108103610d2657610d25610ccc565b5b50919050565b7f5573657220646f6573206e6f7420657869737400000000000000000000000000600082015250565b6000610d626013836108cf565b9150610d6d82610d2c565b602082019050919050565b60006020820190508181036000830152610d9181610d55565b9050919050565b7f496e76616c69642077616c6c6574206164647265737300000000000000000000600082015250565b6000610dce6016836108cf565b9150610dd982610d98565b602082019050919050565b60006020820190508181036000830152610dfd81610dc1565b9050919050565b7f5573657220616c72656164792072656769737465726564000000000000000000600082015250565b6000610e3a6017836108cf565b9150610e4582610e04565b602082019050919050565b60006020820190508181036000830152610e6981610e2d565b9050919050565b60008190508160005260206000209050919050565b60006020601f8301049050919050565b600082821b905092915050565b600060088302610ed27fffffffffffffffffffffffffffffffffffffffffffffffffffffffffffffffff82610e95565b610edc8683610e95565b95508019841693508086168417925050509392505050565b6000819050919050565b6000610f19610f14610f0f84610852565b610ef4565b610852565b9050919050565b6000819050919050565b610f3383610efe565b610f47610f3f82610f20565b848454610ea2565b825550505050565b600090565b610f5c610f4f565b610f67818484610f2a565b505050565b5b81811015610f8b57610f80600082610f54565b600181019050610f6d565b5050565b601f821115610fd057610fa181610e70565b610faa84610e85565b81016020851015610fb9578190505b610fcd610fc585610e85565b830182610f6c565b50505b505050565b600082821c905092915050565b6000610ff360001984600802610fd5565b1980831691505092915050565b600061100c8383610fe2565b9150826002028217905092915050565b611025826108c4565b67ffffffffffffffff81111561103e5761103d610afb565b5b6110488254610cfb565b611053828285610f8f565b600060209050601f8311600181146110865760008415611074578287015190505b61107e8582611000565b8655506110e6565b601f19841661109486610e70565b60005b828110156110bc57848901518255600182019150602085019450602081019050611097565b868310156110d957848901516110d5601f891682610fe2565b8355505b6001600288020188555050505b505050505050565b60006060820190508181036000830152611108818661091b565b9050818103602083015261111c818561091b565b905061112b6040830184610986565b949350505050565b7f4f776e61626c653a206e6577206f776e657220697320746865207a65726f206160008201527f6464726573730000000000000000000000000000000000000000000000000000602082015250565b600061118f6026836108cf565b915061119a82611133565b604082019050919050565b600060208201905081810360008301526111be81611182565b9050919050565b7f4f776e61626c653a2063616c6c6572206973206e6f7420746865206f776e6572600082015250565b60006111fb6020836108cf565b9150611206826111c5565b602082019050919050565b6000602082019050818103600083015261122a816111ee565b905091905056fea2646970667358221220e37439cd41fa28b937b80085005eb43dd8419fdc52b0cc7e8545686a57b3044964736f6c63430008120033",
					"opcodes": "PUSH1 0x80 PUSH1 0x40 MSTORE CALLVALUE DUP1 ISZERO PUSH2 0x10 JUMPI PUSH1 0x0 DUP1 REVERT JUMPDEST POP PUSH2 0x2D PUSH2 0x22 PUSH2 0x32 PUSH1 0x20 SHL PUSH1 0x20 SHR JUMP JUMPDEST PUSH2 0x3A PUSH1 0x20 SHL PUSH1 0x20 SHR JUMP JUMPDEST PUSH2 0xFE JUMP JUMPDEST PUSH1 0x0 CALLER SWAP1 POP SWAP1 JUMP JUMPDEST PUSH1 0x0 DUP1 PUSH1 0x0 SWAP1 SLOAD SWAP1 PUSH2 0x100 EXP SWAP1 DIV PUSH20 0xFFFFFFFFFFFFFFFFFFFFFFFFFFFFFFFFFFFFFFFF AND SWAP1 POP DUP2 PUSH1 0x0 DUP1 PUSH2 0x100 EXP DUP2 SLOAD DUP2 PUSH20 0xFFFFFFFFFFFFFFFFFFFFFFFFFFFFFFFFFFFFFFFF MUL NOT AND SWAP1 DUP4 PUSH20 0xFFFFFFFFFFFFFFFFFFFFFFFFFFFFFFFFFFFFFFFF AND MUL OR SWAP1 SSTORE POP DUP2 PUSH20 0xFFFFFFFFFFFFFFFFFFFFFFFFFFFFFFFFFFFFFFFF AND DUP2 PUSH20 0xFFFFFFFFFFFFFFFFFFFFFFFFFFFFFFFFFFFFFFFF AND PUSH32 0x8BE0079C531659141344CD1FD0A4F28419497F9722A3DAAFE3B4186F6B6457E0 PUSH1 0x40 MLOAD PUSH1 0x40 MLOAD DUP1 SWAP2 SUB SWAP1 LOG3 POP POP JUMP JUMPDEST PUSH2 0x1267 DUP1 PUSH2 0x10D PUSH1 0x0 CODECOPY PUSH1 0x0 RETURN INVALID PUSH1 0x80 PUSH1 0x40 MSTORE CALLVALUE DUP1 ISZERO PUSH2 0x10 JUMPI PUSH1 0x0 DUP1 REVERT JUMPDEST POP PUSH1 0x4 CALLDATASIZE LT PUSH2 0x7D JUMPI PUSH1 0x0 CALLDATALOAD PUSH1 0xE0 SHR DUP1 PUSH4 0x715018A6 GT PUSH2 0x5B JUMPI DUP1 PUSH4 0x715018A6 EQ PUSH2 0x102 JUMPI DUP1 PUSH4 0x88557B07 EQ PUSH2 0x10C JUMPI DUP1 PUSH4 0x8DA5CB5B EQ PUSH2 0x128 JUMPI DUP1 PUSH4 0xF2FDE38B EQ PUSH2 0x146 JUMPI PUSH2 0x7D JUMP JUMPDEST DUP1 PUSH4 0x365B98B2 EQ PUSH2 0x82 JUMPI DUP1 PUSH4 0x3953527A EQ PUSH2 0xB6 JUMPI DUP1 PUSH4 0x4081DB51 EQ PUSH2 0xD2 JUMPI JUMPDEST PUSH1 0x0 DUP1 REVERT JUMPDEST PUSH2 0x9C PUSH1 0x4 DUP1 CALLDATASIZE SUB DUP2 ADD SWAP1 PUSH2 0x97 SWAP2 SWAP1 PUSH2 0x888 JUMP JUMPDEST PUSH2 0x162 JUMP JUMPDEST PUSH1 0x40 MLOAD PUSH2 0xAD SWAP6 SWAP5 SWAP4 SWAP3 SWAP2 SWAP1 PUSH2 0x9B0 JUMP JUMPDEST PUSH1 0x40 MLOAD DUP1 SWAP2 SUB SWAP1 RETURN JUMPDEST PUSH2 0xD0 PUSH1 0x4 DUP1 CALLDATASIZE SUB DUP2 ADD SWAP1 PUSH2 0xCB SWAP2 SWAP1 PUSH2 0xA3D JUMP JUMPDEST PUSH2 0x2D5 JUMP JUMPDEST STOP JUMPDEST PUSH2 0xEC PUSH1 0x4 DUP1 CALLDATASIZE SUB DUP2 ADD SWAP1 PUSH2 0xE7 SWAP2 SWAP1 PUSH2 0xAA9 JUMP JUMPDEST PUSH2 0x368 JUMP JUMPDEST PUSH1 0x40 MLOAD PUSH2 0xF9 SWAP2 SWAP1 PUSH2 0xAD6 JUMP JUMPDEST PUSH1 0x40 MLOAD DUP1 SWAP2 SUB SWAP1 RETURN JUMPDEST PUSH2 0x10A PUSH2 0x380 JUMP JUMPDEST STOP JUMPDEST PUSH2 0x126 PUSH1 0x4 DUP1 CALLDATASIZE SUB DUP2 ADD SWAP1 PUSH2 0x121 SWAP2 SWAP1 PUSH2 0xC26 JUMP JUMPDEST PUSH2 0x394 JUMP JUMPDEST STOP JUMPDEST PUSH2 0x130 PUSH2 0x624 JUMP JUMPDEST PUSH1 0x40 MLOAD PUSH2 0x13D SWAP2 SWAP1 PUSH2 0xCB1 JUMP JUMPDEST PUSH1 0x40 MLOAD DUP1 SWAP2 SUB SWAP1 RETURN JUMPDEST PUSH2 0x160 PUSH1 0x4 DUP1 CALLDATASIZE SUB DUP2 ADD SWAP1 PUSH2 0x15B SWAP2 SWAP1 PUSH2 0xAA9 JUMP JUMPDEST PUSH2 0x64D JUMP JUMPDEST STOP JUMPDEST PUSH1 0x3 PUSH1 0x20 MSTORE DUP1 PUSH1 0x0 MSTORE PUSH1 0x40 PUSH1 0x0 KECCAK256 PUSH1 0x0 SWAP2 POP SWAP1 POP DUP1 PUSH1 0x0 ADD SLOAD SWAP1 DUP1 PUSH1 0x1 ADD DUP1 SLOAD PUSH2 0x18B SWAP1 PUSH2 0xCFB JUMP JUMPDEST DUP1 PUSH1 0x1F ADD PUSH1 0x20 DUP1 SWAP2 DIV MUL PUSH1 0x20 ADD PUSH1 0x40 MLOAD SWAP1 DUP2 ADD PUSH1 0x40 MSTORE DUP1 SWAP3 SWAP2 SWAP1 DUP2 DUP2 MSTORE PUSH1 0x20 ADD DUP3 DUP1 SLOAD PUSH2 0x1B7 SWAP1 PUSH2 0xCFB JUMP JUMPDEST DUP1 ISZERO PUSH2 0x204 JUMPI DUP1 PUSH1 0x1F LT PUSH2 0x1D9 JUMPI PUSH2 0x100 DUP1 DUP4 SLOAD DIV MUL DUP4 MSTORE SWAP2 PUSH1 0x20 ADD SWAP2 PUSH2 0x204 JUMP JUMPDEST DUP3 ADD SWAP2 SWAP1 PUSH1 0x0 MSTORE PUSH1 0x20 PUSH1 0x0 KECCAK256 SWAP1 JUMPDEST DUP2 SLOAD DUP2 MSTORE SWAP1 PUSH1 0x1 ADD SWAP1 PUSH1 0x20 ADD DUP1 DUP4 GT PUSH2 0x1E7 JUMPI DUP3 SWAP1 SUB PUSH1 0x1F AND DUP3 ADD SWAP2 JUMPDEST POP POP POP POP POP SWAP1 DUP1 PUSH1 0x2 ADD DUP1 SLOAD PUSH2 0x219 SWAP1 PUSH2 0xCFB JUMP JUMPDEST DUP1 PUSH1 0x1F ADD PUSH1 0x20 DUP1 SWAP2 DIV MUL PUSH1 0x20 ADD PUSH1 0x40 MLOAD SWAP1 DUP2 ADD PUSH1 0x40 MSTORE DUP1 SWAP3 SWAP2 SWAP1 DUP2 DUP2 MSTORE PUSH1 0x20 ADD DUP3 DUP1 SLOAD PUSH2 0x245 SWAP1 PUSH2 0xCFB JUMP JUMPDEST DUP1 ISZERO PUSH2 0x292 JUMPI DUP1 PUSH1 0x1F LT PUSH2 0x267 JUMPI PUSH2 0x100 DUP1 DUP4 SLOAD DIV MUL DUP4 MSTORE SWAP2 PUSH1 0x20 ADD SWAP2 PUSH2 0x292 JUMP JUMPDEST DUP3 ADD SWAP2 SWAP1 PUSH1 0x0 MSTORE PUSH1 0x20 PUSH1 0x0 KECCAK256 SWAP1 JUMPDEST DUP2 SLOAD DUP2 MSTORE SWAP1 PUSH1 0x1 ADD SWAP1 PUSH1 0x20 ADD DUP1 DUP4 GT PUSH2 0x275 JUMPI DUP3 SWAP1 SUB PUSH1 0x1F AND DUP3 ADD SWAP2 JUMPDEST POP POP POP POP POP SWAP1 DUP1 PUSH1 0x3 ADD PUSH1 0x0 SWAP1 SLOAD SWAP1 PUSH2 0x100 EXP SWAP1 DIV PUSH20 0xFFFFFFFFFFFFFFFFFFFFFFFFFFFFFFFFFFFFFFFF AND SWAP1 DUP1 PUSH1 0x3 ADD PUSH1 0x14 SWAP1 SLOAD SWAP1 PUSH2 0x100 EXP SWAP1 DIV PUSH1 0xFF AND SWAP1 POP DUP6 JUMP JUMPDEST PUSH2 0x2DD PUSH2 0x6D0 JUMP JUMPDEST PUSH1 0x0 PUSH1 0x3 PUSH1 0x0 DUP5 DUP2 MSTORE PUSH1 0x20 ADD SWAP1 DUP2 MSTORE PUSH1 0x20 ADD PUSH1 0x0 KECCAK256 PUSH1 0x0 ADD SLOAD SUB PUSH2 0x336 JUMPI PUSH1 0x40 MLOAD PUSH32 0x8C379A000000000000000000000000000000000000000000000000000000000 DUP2 MSTORE PUSH1 0x4 ADD PUSH2 0x32D SWAP1 PUSH2 0xD78 JUMP JUMPDEST PUSH1 0x40 MLOAD DUP1 SWAP2 SUB SWAP1 REVERT JUMPDEST DUP1 PUSH1 0x3 PUSH1 0x0 DUP5 DUP2 MSTORE PUSH1 0x20 ADD SWAP1 DUP2 MSTORE PUSH1 0x20 ADD PUSH1 0x0 KECCAK256 PUSH1 0x3 ADD PUSH1 0x14 PUSH2 0x100 EXP DUP2 SLOAD DUP2 PUSH1 0xFF MUL NOT AND SWAP1 DUP4 ISZERO ISZERO MUL OR SWAP1 SSTORE POP POP POP JUMP JUMPDEST PUSH1 0x2 PUSH1 0x20 MSTORE DUP1 PUSH1 0x0 MSTORE PUSH1 0x40 PUSH1 0x0 KECCAK256 PUSH1 0x0 SWAP2 POP SWAP1 POP SLOAD DUP2 JUMP JUMPDEST PUSH2 0x388 PUSH2 0x6D0 JUMP JUMPDEST PUSH2 0x392 PUSH1 0x0 PUSH2 0x74E JUMP JUMPDEST JUMP JUMPDEST PUSH2 0x39C PUSH2 0x6D0 JUMP JUMPDEST PUSH1 0x0 PUSH20 0xFFFFFFFFFFFFFFFFFFFFFFFFFFFFFFFFFFFFFFFF AND DUP2 PUSH20 0xFFFFFFFFFFFFFFFFFFFFFFFFFFFFFFFFFFFFFFFF AND SUB PUSH2 0x40B JUMPI PUSH1 0x40 MLOAD PUSH32 0x8C379A000000000000000000000000000000000000000000000000000000000 DUP2 MSTORE PUSH1 0x4 ADD PUSH2 0x402 SWAP1 PUSH2 0xDE4 JUMP JUMPDEST PUSH1 0x40 MLOAD DUP1 SWAP2 SUB SWAP1 REVERT JUMPDEST PUSH1 0x0 PUSH1 0x2 PUSH1 0x0 DUP4 PUSH20 0xFFFFFFFFFFFFFFFFFFFFFFFFFFFFFFFFFFFFFFFF AND PUSH20 0xFFFFFFFFFFFFFFFFFFFFFFFFFFFFFFFFFFFFFFFF AND DUP2 MSTORE PUSH1 0x20 ADD SWAP1 DUP2 MSTORE PUSH1 0x20 ADD PUSH1 0x0 KECCAK256 SLOAD EQ PUSH2 0x48D JUMPI PUSH1 0x40 MLOAD PUSH32 0x8C379A000000000000000000000000000000000000000000000000000000000 DUP2 MSTORE PUSH1 0x4 ADD PUSH2 0x484 SWAP1 PUSH2 0xE50 JUMP JUMPDEST PUSH1 0x40 MLOAD DUP1 SWAP2 SUB SWAP1 REVERT JUMPDEST PUSH2 0x497 PUSH1 0x1 PUSH2 0x812 JUMP JUMPDEST PUSH1 0x0 PUSH2 0x4A3 PUSH1 0x1 PUSH2 0x828 JUMP JUMPDEST SWAP1 POP PUSH1 0x0 PUSH1 0x40 MLOAD DUP1 PUSH1 0xA0 ADD PUSH1 0x40 MSTORE DUP1 DUP4 DUP2 MSTORE PUSH1 0x20 ADD DUP7 DUP2 MSTORE PUSH1 0x20 ADD DUP6 DUP2 MSTORE PUSH1 0x20 ADD DUP5 PUSH20 0xFFFFFFFFFFFFFFFFFFFFFFFFFFFFFFFFFFFFFFFF AND DUP2 MSTORE PUSH1 0x20 ADD PUSH1 0x1 ISZERO ISZERO DUP2 MSTORE POP SWAP1 POP DUP2 PUSH1 0x2 PUSH1 0x0 DUP6 PUSH20 0xFFFFFFFFFFFFFFFFFFFFFFFFFFFFFFFFFFFFFFFF AND PUSH20 0xFFFFFFFFFFFFFFFFFFFFFFFFFFFFFFFFFFFFFFFF AND DUP2 MSTORE PUSH1 0x20 ADD SWAP1 DUP2 MSTORE PUSH1 0x20 ADD PUSH1 0x0 KECCAK256 DUP2 SWAP1 SSTORE POP DUP1 PUSH1 0x3 PUSH1 0x0 DUP5 DUP2 MSTORE PUSH1 0x20 ADD SWAP1 DUP2 MSTORE PUSH1 0x20 ADD PUSH1 0x0 KECCAK256 PUSH1 0x0 DUP3 ADD MLOAD DUP2 PUSH1 0x0 ADD SSTORE PUSH1 0x20 DUP3 ADD MLOAD DUP2 PUSH1 0x1 ADD SWAP1 DUP2 PUSH2 0x560 SWAP2 SWAP1 PUSH2 0x101C JUMP JUMPDEST POP PUSH1 0x40 DUP3 ADD MLOAD DUP2 PUSH1 0x2 ADD SWAP1 DUP2 PUSH2 0x576 SWAP2 SWAP1 PUSH2 0x101C JUMP JUMPDEST POP PUSH1 0x60 DUP3 ADD MLOAD DUP2 PUSH1 0x3 ADD PUSH1 0x0 PUSH2 0x100 EXP DUP2 SLOAD DUP2 PUSH20 0xFFFFFFFFFFFFFFFFFFFFFFFFFFFFFFFFFFFFFFFF MUL NOT AND SWAP1 DUP4 PUSH20 0xFFFFFFFFFFFFFFFFFFFFFFFFFFFFFFFFFFFFFFFF AND MUL OR SWAP1 SSTORE POP PUSH1 0x80 DUP3 ADD MLOAD DUP2 PUSH1 0x3 ADD PUSH1 0x14 PUSH2 0x100 EXP DUP2 SLOAD DUP2 PUSH1 0xFF MUL NOT AND SWAP1 DUP4 ISZERO ISZERO MUL OR SWAP1 SSTORE POP SWAP1 POP POP DUP2 PUSH32 0x40338C70A446F0BA365FC0489113A2F74BA912DAE0F24FB8F8568F446E6F0C80 DUP7 DUP7 DUP7 PUSH1 0x40 MLOAD PUSH2 0x615 SWAP4 SWAP3 SWAP2 SWAP1 PUSH2 0x10EE JUMP JUMPDEST PUSH1 0x40 MLOAD DUP1 SWAP2 SUB SWAP1 LOG2 POP POP POP POP POP JUMP JUMPDEST PUSH1 0x0 DUP1 PUSH1 0x0 SWAP1 SLOAD SWAP1 PUSH2 0x100 EXP SWAP1 DIV PUSH20 0xFFFFFFFFFFFFFFFFFFFFFFFFFFFFFFFFFFFFFFFF AND SWAP1 POP SWAP1 JUMP JUMPDEST PUSH2 0x655 PUSH2 0x6D0 JUMP JUMPDEST PUSH1 0x0 PUSH20 0xFFFFFFFFFFFFFFFFFFFFFFFFFFFFFFFFFFFFFFFF AND DUP2 PUSH20 0xFFFFFFFFFFFFFFFFFFFFFFFFFFFFFFFFFFFFFFFF AND SUB PUSH2 0x6C4 JUMPI PUSH1 0x40 MLOAD PUSH32 0x8C379A000000000000000000000000000000000000000000000000000000000 DUP2 MSTORE PUSH1 0x4 ADD PUSH2 0x6BB SWAP1 PUSH2 0x11A5 JUMP JUMPDEST PUSH1 0x40 MLOAD DUP1 SWAP2 SUB SWAP1 REVERT JUMPDEST PUSH2 0x6CD DUP2 PUSH2 0x74E JUMP JUMPDEST POP JUMP JUMPDEST PUSH2 0x6D8 PUSH2 0x836 JUMP JUMPDEST PUSH20 0xFFFFFFFFFFFFFFFFFFFFFFFFFFFFFFFFFFFFFFFF AND PUSH2 0x6F6 PUSH2 0x624 JUMP JUMPDEST PUSH20 0xFFFFFFFFFFFFFFFFFFFFFFFFFFFFFFFFFFFFFFFF AND EQ PUSH2 0x74C JUMPI PUSH1 0x40 MLOAD PUSH32 0x8C379A000000000000000000000000000000000000000000000000000000000 DUP2 MSTORE PUSH1 0x4 ADD PUSH2 0x743 SWAP1 PUSH2 0x1211 JUMP JUMPDEST PUSH1 0x40 MLOAD DUP1 SWAP2 SUB SWAP1 REVERT JUMPDEST JUMP JUMPDEST PUSH1 0x0 DUP1 PUSH1 0x0 SWAP1 SLOAD SWAP1 PUSH2 0x100 EXP SWAP1 DIV PUSH20 0xFFFFFFFFFFFFFFFFFFFFFFFFFFFFFFFFFFFFFFFF AND SWAP1 POP DUP2 PUSH1 0x0 DUP1 PUSH2 0x100 EXP DUP2 SLOAD DUP2 PUSH20 0xFFFFFFFFFFFFFFFFFFFFFFFFFFFFFFFFFFFFFFFF MUL NOT AND SWAP1 DUP4 PUSH20 0xFFFFFFFFFFFFFFFFFFFFFFFFFFFFFFFFFFFFFFFF AND MUL OR SWAP1 SSTORE POP DUP2 PUSH20 0xFFFFFFFFFFFFFFFFFFFFFFFFFFFFFFFFFFFFFFFF AND DUP2 PUSH20 0xFFFFFFFFFFFFFFFFFFFFFFFFFFFFFFFFFFFFFFFF AND PUSH32 0x8BE0079C531659141344CD1FD0A4F28419497F9722A3DAAFE3B4186F6B6457E0 PUSH1 0x40 MLOAD PUSH1 0x40 MLOAD DUP1 SWAP2 SUB SWAP1 LOG3 POP POP JUMP JUMPDEST PUSH1 0x1 DUP2 PUSH1 0x0 ADD PUSH1 0x0 DUP3 DUP3 SLOAD ADD SWAP3 POP POP DUP2 SWAP1 SSTORE POP POP JUMP JUMPDEST PUSH1 0x0 DUP2 PUSH1 0x0 ADD SLOAD SWAP1 POP SWAP2 SWAP1 POP JUMP JUMPDEST PUSH1 0x0 CALLER SWAP1 POP SWAP1 JUMP JUMPDEST PUSH1 0x0 PUSH1 0x40 MLOAD SWAP1 POP SWAP1 JUMP JUMPDEST PUSH1 0x0 DUP1 REVERT JUMPDEST PUSH1 0x0 DUP1 REVERT JUMPDEST PUSH1 0x0 DUP2 SWAP1 POP SWAP2 SWAP1 POP JUMP JUMPDEST PUSH2 0x865 DUP2 PUSH2 0x852 JUMP JUMPDEST DUP2 EQ PUSH2 0x870 JUMPI PUSH1 0x0 DUP1 REVERT JUMPDEST POP JUMP JUMPDEST PUSH1 0x0 DUP2 CALLDATALOAD SWAP1 POP PUSH2 0x882 DUP2 PUSH2 0x85C JUMP JUMPDEST SWAP3 SWAP2 POP POP JUMP JUMPDEST PUSH1 0x0 PUSH1 0x20 DUP3 DUP5 SUB SLT ISZERO PUSH2 0x89E JUMPI PUSH2 0x89D PUSH2 0x848 JUMP JUMPDEST JUMPDEST PUSH1 0x0 PUSH2 0x8AC DUP5 DUP3 DUP6 ADD PUSH2 0x873 JUMP JUMPDEST SWAP2 POP POP SWAP3 SWAP2 POP POP JUMP JUMPDEST PUSH2 0x8BE DUP2 PUSH2 0x852 JUMP JUMPDEST DUP3 MSTORE POP POP JUMP JUMPDEST PUSH1 0x0 DUP2 MLOAD SWAP1 POP SWAP2 SWAP1 POP JUMP JUMPDEST PUSH1 0x0 DUP3 DUP3 MSTORE PUSH1 0x20 DUP3 ADD SWAP1 POP SWAP3 SWAP2 POP POP JUMP JUMPDEST PUSH1 0x0 JUMPDEST DUP4 DUP2 LT ISZERO PUSH2 0x8FE JUMPI DUP1 DUP3 ADD MLOAD DUP2 DUP5 ADD MSTORE PUSH1 0x20 DUP2 ADD SWAP1 POP PUSH2 0x8E3 JUMP JUMPDEST PUSH1 0x0 DUP5 DUP5 ADD MSTORE POP POP POP POP JUMP JUMPDEST PUSH1 0x0 PUSH1 0x1F NOT PUSH1 0x1F DUP4 ADD AND SWAP1 POP SWAP2 SWAP1 POP JUMP JUMPDEST PUSH1 0x0 PUSH2 0x926 DUP3 PUSH2 0x8C4 JUMP JUMPDEST PUSH2 0x930 DUP2 DUP6 PUSH2 0x8CF JUMP JUMPDEST SWAP4 POP PUSH2 0x940 DUP2 DUP6 PUSH1 0x20 DUP7 ADD PUSH2 0x8E0 JUMP JUMPDEST PUSH2 0x949 DUP2 PUSH2 0x90A JUMP JUMPDEST DUP5 ADD SWAP2 POP POP SWAP3 SWAP2 POP POP JUMP JUMPDEST PUSH1 0x0 PUSH20 0xFFFFFFFFFFFFFFFFFFFFFFFFFFFFFFFFFFFFFFFF DUP3 AND SWAP1 POP SWAP2 SWAP1 POP JUMP JUMPDEST PUSH1 0x0 PUSH2 0x97F DUP3 PUSH2 0x954 JUMP JUMPDEST SWAP1 POP SWAP2 SWAP1 POP JUMP JUMPDEST PUSH2 0x98F DUP2 PUSH2 0x974 JUMP JUMPDEST DUP3 MSTORE POP POP JUMP JUMPDEST PUSH1 0x0 DUP2 ISZERO ISZERO SWAP1 POP SWAP2 SWAP1 POP JUMP JUMPDEST PUSH2 0x9AA DUP2 PUSH2 0x995 JUMP JUMPDEST DUP3 MSTORE POP POP JUMP JUMPDEST PUSH1 0x0 PUSH1 0xA0 DUP3 ADD SWAP1 POP PUSH2 0x9C5 PUSH1 0x0 DUP4 ADD DUP9 PUSH2 0x8B5 JUMP JUMPDEST DUP2 DUP2 SUB PUSH1 0x20 DUP4 ADD MSTORE PUSH2 0x9D7 DUP2 DUP8 PUSH2 0x91B JUMP JUMPDEST SWAP1 POP DUP2 DUP2 SUB PUSH1 0x40 DUP4 ADD MSTORE PUSH2 0x9EB DUP2 DUP7 PUSH2 0x91B JUMP JUMPDEST SWAP1 POP PUSH2 0x9FA PUSH1 0x60 DUP4 ADD DUP6 PUSH2 0x986 JUMP JUMPDEST PUSH2 0xA07 PUSH1 0x80 DUP4 ADD DUP5 PUSH2 0x9A1 JUMP JUMPDEST SWAP7 SWAP6 POP POP POP POP POP POP JUMP JUMPDEST PUSH2 0xA1A DUP2 PUSH2 0x995 JUMP JUMPDEST DUP2 EQ PUSH2 0xA25 JUMPI PUSH1 0x0 DUP1 REVERT JUMPDEST POP JUMP JUMPDEST PUSH1 0x0 DUP2 CALLDATALOAD SWAP1 POP PUSH2 0xA37 DUP2 PUSH2 0xA11 JUMP JUMPDEST SWAP3 SWAP2 POP POP JUMP JUMPDEST PUSH1 0x0 DUP1 PUSH1 0x40 DUP4 DUP6 SUB SLT ISZERO PUSH2 0xA54 JUMPI PUSH2 0xA53 PUSH2 0x848 JUMP JUMPDEST JUMPDEST PUSH1 0x0 PUSH2 0xA62 DUP6 DUP3 DUP7 ADD PUSH2 0x873 JUMP JUMPDEST SWAP3 POP POP PUSH1 0x20 PUSH2 0xA73 DUP6 DUP3 DUP7 ADD PUSH2 0xA28 JUMP JUMPDEST SWAP2 POP POP SWAP3 POP SWAP3 SWAP1 POP JUMP JUMPDEST PUSH2 0xA86 DUP2 PUSH2 0x974 JUMP JUMPDEST DUP2 EQ PUSH2 0xA91 JUMPI PUSH1 0x0 DUP1 REVERT JUMPDEST POP JUMP JUMPDEST PUSH1 0x0 DUP2 CALLDATALOAD SWAP1 POP PUSH2 0xAA3 DUP2 PUSH2 0xA7D JUMP JUMPDEST SWAP3 SWAP2 POP POP JUMP JUMPDEST PUSH1 0x0 PUSH1 0x20 DUP3 DUP5 SUB SLT ISZERO PUSH2 0xABF JUMPI PUSH2 0xABE PUSH2 0x848 JUMP JUMPDEST JUMPDEST PUSH1 0x0 PUSH2 0xACD DUP5 DUP3 DUP6 ADD PUSH2 0xA94 JUMP JUMPDEST SWAP2 POP POP SWAP3 SWAP2 POP POP JUMP JUMPDEST PUSH1 0x0 PUSH1 0x20 DUP3 ADD SWAP1 POP PUSH2 0xAEB PUSH1 0x0 DUP4 ADD DUP5 PUSH2 0x8B5 JUMP JUMPDEST SWAP3 SWAP2 POP POP JUMP JUMPDEST PUSH1 0x0 DUP1 REVERT JUMPDEST PUSH1 0x0 DUP1 REVERT JUMPDEST PUSH32 0x4E487B7100000000000000000000000000000000000000000000000000000000 PUSH1 0x0 MSTORE PUSH1 0x41 PUSH1 0x4 MSTORE PUSH1 0x24 PUSH1 0x0 REVERT JUMPDEST PUSH2 0xB33 DUP3 PUSH2 0x90A JUMP JUMPDEST DUP2 ADD DUP2 DUP2 LT PUSH8 0xFFFFFFFFFFFFFFFF DUP3 GT OR ISZERO PUSH2 0xB52 JUMPI PUSH2 0xB51 PUSH2 0xAFB JUMP JUMPDEST JUMPDEST DUP1 PUSH1 0x40 MSTORE POP POP POP JUMP JUMPDEST PUSH1 0x0 PUSH2 0xB65 PUSH2 0x83E JUMP JUMPDEST SWAP1 POP PUSH2 0xB71 DUP3 DUP3 PUSH2 0xB2A JUMP JUMPDEST SWAP2 SWAP1 POP JUMP JUMPDEST PUSH1 0x0 PUSH8 0xFFFFFFFFFFFFFFFF DUP3 GT ISZERO PUSH2 0xB91 JUMPI PUSH2 0xB90 PUSH2 0xAFB JUMP JUMPDEST JUMPDEST PUSH2 0xB9A DUP3 PUSH2 0x90A JUMP JUMPDEST SWAP1 POP PUSH1 0x20 DUP2 ADD SWAP1 POP SWAP2 SWAP1 POP JUMP JUMPDEST DUP3 DUP2 DUP4 CALLDATACOPY PUSH1 0x0 DUP4 DUP4 ADD MSTORE POP POP POP JUMP JUMPDEST PUSH1 0x0 PUSH2 0xBC9 PUSH2 0xBC4 DUP5 PUSH2 0xB76 JUMP JUMPDEST PUSH2 0xB5B JUMP JUMPDEST SWAP1 POP DUP3 DUP2 MSTORE PUSH1 0x20 DUP2 ADD DUP5 DUP5 DUP5 ADD GT ISZERO PUSH2 0xBE5 JUMPI PUSH2 0xBE4 PUSH2 0xAF6 JUMP JUMPDEST JUMPDEST PUSH2 0xBF0 DUP5 DUP3 DUP6 PUSH2 0xBA7 JUMP JUMPDEST POP SWAP4 SWAP3 POP POP POP JUMP JUMPDEST PUSH1 0x0 DUP3 PUSH1 0x1F DUP4 ADD SLT PUSH2 0xC0D JUMPI PUSH2 0xC0C PUSH2 0xAF1 JUMP JUMPDEST JUMPDEST DUP2 CALLDATALOAD PUSH2 0xC1D DUP5 DUP3 PUSH1 0x20 DUP7 ADD PUSH2 0xBB6 JUMP JUMPDEST SWAP2 POP POP SWAP3 SWAP2 POP POP JUMP JUMPDEST PUSH1 0x0 DUP1 PUSH1 0x0 PUSH1 0x60 DUP5 DUP7 SUB SLT ISZERO PUSH2 0xC3F JUMPI PUSH2 0xC3E PUSH2 0x848 JUMP JUMPDEST JUMPDEST PUSH1 0x0 DUP5 ADD CALLDATALOAD PUSH8 0xFFFFFFFFFFFFFFFF DUP2 GT ISZERO PUSH2 0xC5D JUMPI PUSH2 0xC5C PUSH2 0x84D JUMP JUMPDEST JUMPDEST PUSH2 0xC69 DUP7 DUP3 DUP8 ADD PUSH2 0xBF8 JUMP JUMPDEST SWAP4 POP POP PUSH1 0x20 DUP5 ADD CALLDATALOAD PUSH8 0xFFFFFFFFFFFFFFFF DUP2 GT ISZERO PUSH2 0xC8A JUMPI PUSH2 0xC89 PUSH2 0x84D JUMP JUMPDEST JUMPDEST PUSH2 0xC96 DUP7 DUP3 DUP8 ADD PUSH2 0xBF8 JUMP JUMPDEST SWAP3 POP POP PUSH1 0x40 PUSH2 0xCA7 DUP7 DUP3 DUP8 ADD PUSH2 0xA94 JUMP JUMPDEST SWAP2 POP POP SWAP3 POP SWAP3 POP SWAP3 JUMP JUMPDEST PUSH1 0x0 PUSH1 0x20 DUP3 ADD SWAP1 POP PUSH2 0xCC6 PUSH1 0x0 DUP4 ADD DUP5 PUSH2 0x986 JUMP JUMPDEST SWAP3 SWAP2 POP POP JUMP JUMPDEST PUSH32 0x4E487B7100000000000000000000000000000000000000000000000000000000 PUSH1 0x0 MSTORE PUSH1 0x22 PUSH1 0x4 MSTORE PUSH1 0x24 PUSH1 0x0 REVERT JUMPDEST PUSH1 0x0 PUSH1 0x2 DUP3 DIV SWAP1 POP PUSH1 0x1 DUP3 AND DUP1 PUSH2 0xD13 JUMPI PUSH1 0x7F DUP3 AND SWAP2 POP JUMPDEST PUSH1 0x20 DUP3 LT DUP2 SUB PUSH2 0xD26 JUMPI PUSH2 0xD25 PUSH2 0xCCC JUMP JUMPDEST JUMPDEST POP SWAP2 SWAP1 POP JUMP JUMPDEST PUSH32 0x5573657220646F6573206E6F7420657869737400000000000000000000000000 PUSH1 0x0 DUP3 ADD MSTORE POP JUMP JUMPDEST PUSH1 0x0 PUSH2 0xD62 PUSH1 0x13 DUP4 PUSH2 0x8CF JUMP JUMPDEST SWAP2 POP PUSH2 0xD6D DUP3 PUSH2 0xD2C JUMP JUMPDEST PUSH1 0x20 DUP3 ADD SWAP1 POP SWAP2 SWAP1 POP JUMP JUMPDEST PUSH1 0x0 PUSH1 0x20 DUP3 ADD SWAP1 POP DUP2 DUP2 SUB PUSH1 0x0 DUP4 ADD MSTORE PUSH2 0xD91 DUP2 PUSH2 0xD55 JUMP JUMPDEST SWAP1 POP SWAP2 SWAP1 POP JUMP JUMPDEST PUSH32 0x496E76616C69642077616C6C6574206164647265737300000000000000000000 PUSH1 0x0 DUP3 ADD MSTORE POP JUMP JUMPDEST PUSH1 0x0 PUSH2 0xDCE PUSH1 0x16 DUP4 PUSH2 0x8CF JUMP JUMPDEST SWAP2 POP PUSH2 0xDD9 DUP3 PUSH2 0xD98 JUMP JUMPDEST PUSH1 0x20 DUP3 ADD SWAP1 POP SWAP2 SWAP1 POP JUMP JUMPDEST PUSH1 0x0 PUSH1 0x20 DUP3 ADD SWAP1 POP DUP2 DUP2 SUB PUSH1 0x0 DUP4 ADD MSTORE PUSH2 0xDFD DUP2 PUSH2 0xDC1 JUMP JUMPDEST SWAP1 POP SWAP2 SWAP1 POP JUMP JUMPDEST PUSH32 0x5573657220616C72656164792072656769737465726564000000000000000000 PUSH1 0x0 DUP3 ADD MSTORE POP JUMP JUMPDEST PUSH1 0x0 PUSH2 0xE3A PUSH1 0x17 DUP4 PUSH2 0x8CF JUMP JUMPDEST SWAP2 POP PUSH2 0xE45 DUP3 PUSH2 0xE04 JUMP JUMPDEST PUSH1 0x20 DUP3 ADD SWAP1 POP SWAP2 SWAP1 POP JUMP JUMPDEST PUSH1 0x0 PUSH1 0x20 DUP3 ADD SWAP1 POP DUP2 DUP2 SUB PUSH1 0x0 DUP4 ADD MSTORE PUSH2 0xE69 DUP2 PUSH2 0xE2D JUMP JUMPDEST SWAP1 POP SWAP2 SWAP1 POP JUMP JUMPDEST PUSH1 0x0 DUP2 SWAP1 POP DUP2 PUSH1 0x0 MSTORE PUSH1 0x20 PUSH1 0x0 KECCAK256 SWAP1 POP SWAP2 SWAP1 POP JUMP JUMPDEST PUSH1 0x0 PUSH1 0x20 PUSH1 0x1F DUP4 ADD DIV SWAP1 POP SWAP2 SWAP1 POP JUMP JUMPDEST PUSH1 0x0 DUP3 DUP3 SHL SWAP1 POP SWAP3 SWAP2 POP POP JUMP JUMPDEST PUSH1 0x0 PUSH1 0x8 DUP4 MUL PUSH2 0xED2 PUSH32 0xFFFFFFFFFFFFFFFFFFFFFFFFFFFFFFFFFFFFFFFFFFFFFFFFFFFFFFFFFFFFFFFF DUP3 PUSH2 0xE95 JUMP JUMPDEST PUSH2 0xEDC DUP7 DUP4 PUSH2 0xE95 JUMP JUMPDEST SWAP6 POP DUP1 NOT DUP5 AND SWAP4 POP DUP1 DUP7 AND DUP5 OR SWAP3 POP POP POP SWAP4 SWAP3 POP POP POP JUMP JUMPDEST PUSH1 0x0 DUP2 SWAP1 POP SWAP2 SWAP1 POP JUMP JUMPDEST PUSH1 0x0 PUSH2 0xF19 PUSH2 0xF14 PUSH2 0xF0F DUP5 PUSH2 0x852 JUMP JUMPDEST PUSH2 0xEF4 JUMP JUMPDEST PUSH2 0x852 JUMP JUMPDEST SWAP1 POP SWAP2 SWAP1 POP JUMP JUMPDEST PUSH1 0x0 DUP2 SWAP1 POP SWAP2 SWAP1 POP JUMP JUMPDEST PUSH2 0xF33 DUP4 PUSH2 0xEFE JUMP JUMPDEST PUSH2 0xF47 PUSH2 0xF3F DUP3 PUSH2 0xF20 JUMP JUMPDEST DUP5 DUP5 SLOAD PUSH2 0xEA2 JUMP JUMPDEST DUP3 SSTORE POP POP POP POP JUMP JUMPDEST PUSH1 0x0 SWAP1 JUMP JUMPDEST PUSH2 0xF5C PUSH2 0xF4F JUMP JUMPDEST PUSH2 0xF67 DUP2 DUP5 DUP5 PUSH2 0xF2A JUMP JUMPDEST POP POP POP JUMP JUMPDEST JUMPDEST DUP2 DUP2 LT ISZERO PUSH2 0xF8B JUMPI PUSH2 0xF80 PUSH1 0x0 DUP3 PUSH2 0xF54 JUMP JUMPDEST PUSH1 0x1 DUP2 ADD SWAP1 POP PUSH2 0xF6D JUMP JUMPDEST POP POP JUMP JUMPDEST PUSH1 0x1F DUP3 GT ISZERO PUSH2 0xFD0 JUMPI PUSH2 0xFA1 DUP2 PUSH2 0xE70 JUMP JUMPDEST PUSH2 0xFAA DUP5 PUSH2 0xE85 JUMP JUMPDEST DUP2 ADD PUSH1 0x20 DUP6 LT ISZERO PUSH2 0xFB9 JUMPI DUP2 SWAP1 POP JUMPDEST PUSH2 0xFCD PUSH2 0xFC5 DUP6 PUSH2 0xE85 JUMP JUMPDEST DUP4 ADD DUP3 PUSH2 0xF6C JUMP JUMPDEST POP POP JUMPDEST POP POP POP JUMP JUMPDEST PUSH1 0x0 DUP3 DUP3 SHR SWAP1 POP SWAP3 SWAP2 POP POP JUMP JUMPDEST PUSH1 0x0 PUSH2 0xFF3 PUSH1 0x0 NOT DUP5 PUSH1 0x8 MUL PUSH2 0xFD5 JUMP JUMPDEST NOT DUP1 DUP4 AND SWAP2 POP POP SWAP3 SWAP2 POP POP JUMP JUMPDEST PUSH1 0x0 PUSH2 0x100C DUP4 DUP4 PUSH2 0xFE2 JUMP JUMPDEST SWAP2 POP DUP3 PUSH1 0x2 MUL DUP3 OR SWAP1 POP SWAP3 SWAP2 POP POP JUMP JUMPDEST PUSH2 0x1025 DUP3 PUSH2 0x8C4 JUMP JUMPDEST PUSH8 0xFFFFFFFFFFFFFFFF DUP2 GT ISZERO PUSH2 0x103E JUMPI PUSH2 0x103D PUSH2 0xAFB JUMP JUMPDEST JUMPDEST PUSH2 0x1048 DUP3 SLOAD PUSH2 0xCFB JUMP JUMPDEST PUSH2 0x1053 DUP3 DUP3 DUP6 PUSH2 0xF8F JUMP JUMPDEST PUSH1 0x0 PUSH1 0x20 SWAP1 POP PUSH1 0x1F DUP4 GT PUSH1 0x1 DUP2 EQ PUSH2 0x1086 JUMPI PUSH1 0x0 DUP5 ISZERO PUSH2 0x1074 JUMPI DUP3 DUP8 ADD MLOAD SWAP1 POP JUMPDEST PUSH2 0x107E DUP6 DUP3 PUSH2 0x1000 JUMP JUMPDEST DUP7 SSTORE POP PUSH2 0x10E6 JUMP JUMPDEST PUSH1 0x1F NOT DUP5 AND PUSH2 0x1094 DUP7 PUSH2 0xE70 JUMP JUMPDEST PUSH1 0x0 JUMPDEST DUP3 DUP2 LT ISZERO PUSH2 0x10BC JUMPI DUP5 DUP10 ADD MLOAD DUP3 SSTORE PUSH1 0x1 DUP3 ADD SWAP2 POP PUSH1 0x20 DUP6 ADD SWAP5 POP PUSH1 0x20 DUP2 ADD SWAP1 POP PUSH2 0x1097 JUMP JUMPDEST DUP7 DUP4 LT ISZERO PUSH2 0x10D9 JUMPI DUP5 DUP10 ADD MLOAD PUSH2 0x10D5 PUSH1 0x1F DUP10 AND DUP3 PUSH2 0xFE2 JUMP JUMPDEST DUP4 SSTORE POP JUMPDEST PUSH1 0x1 PUSH1 0x2 DUP9 MUL ADD DUP9 SSTORE POP POP POP JUMPDEST POP POP POP POP POP POP JUMP JUMPDEST PUSH1 0x0 PUSH1 0x60 DUP3 ADD SWAP1 POP DUP2 DUP2 SUB PUSH1 0x0 DUP4 ADD MSTORE PUSH2 0x1108 DUP2 DUP7 PUSH2 0x91B JUMP JUMPDEST SWAP1 POP DUP2 DUP2 SUB PUSH1 0x20 DUP4 ADD MSTORE PUSH2 0x111C DUP2 DUP6 PUSH2 0x91B JUMP JUMPDEST SWAP1 POP PUSH2 0x112B PUSH1 0x40 DUP4 ADD DUP5 PUSH2 0x986 JUMP JUMPDEST SWAP5 SWAP4 POP POP POP POP JUMP JUMPDEST PUSH32 0x4F776E61626C653A206E6577206F776E657220697320746865207A65726F2061 PUSH1 0x0 DUP3 ADD MSTORE PUSH32 0x6464726573730000000000000000000000000000000000000000000000000000 PUSH1 0x20 DUP3 ADD MSTORE POP JUMP JUMPDEST PUSH1 0x0 PUSH2 0x118F PUSH1 0x26 DUP4 PUSH2 0x8CF JUMP JUMPDEST SWAP2 POP PUSH2 0x119A DUP3 PUSH2 0x1133 JUMP JUMPDEST PUSH1 0x40 DUP3 ADD SWAP1 POP SWAP2 SWAP1 POP JUMP JUMPDEST PUSH1 0x0 PUSH1 0x20 DUP3 ADD SWAP1 POP DUP2 DUP2 SUB PUSH1 0x0 DUP4 ADD MSTORE PUSH2 0x11BE DUP2 PUSH2 0x1182 JUMP JUMPDEST SWAP1 POP SWAP2 SWAP1 POP JUMP JUMPDEST PUSH32 0x4F776E61626C653A2063616C6C6572206973206E6F7420746865206F776E6572 PUSH1 0x0 DUP3 ADD MSTORE POP JUMP JUMPDEST PUSH1 0x0 PUSH2 0x11FB PUSH1 0x20 DUP4 PUSH2 0x8CF JUMP JUMPDEST SWAP2 POP PUSH2 0x1206 DUP3 PUSH2 0x11C5 JUMP JUMPDEST PUSH1 0x20 DUP3 ADD SWAP1 POP SWAP2 SWAP1 POP JUMP JUMPDEST PUSH1 0x0 PUSH1 0x20 DUP3 ADD SWAP1 POP DUP2 DUP2 SUB PUSH1 0x0 DUP4 ADD MSTORE PUSH2 0x122A DUP2 PUSH2 0x11EE JUMP JUMPDEST SWAP1 POP SWAP2 SWAP1 POP JUMP INVALID LOG2 PUSH5 0x6970667358 0x22 SLT KECCAK256 0xE3 PUSH21 0x39CD41FA28B937B80085005EB43DD8419FDC52B0CC PUSH31 0x8545686A57B3044964736F6C63430008120033000000000000000000000000 "
				},
				"gasEstimates": {
					"creation": {
						"codeDepositCost": "942200",
						"executionCost": "infinite",
						"totalCost": "infinite"
					},
					"external": {
						"owner()": "2566",
						"registerUser(string,string,address)": "infinite",
						"renounceOwnership()": "30398",
						"transferOwnership(address)": "30810",
						"updateUserStatus(uint256,bool)": "29480",
						"userIds(address)": "2859",
						"users(uint256)": "infinite"
					}
				},
				"methodIdentifiers": {
					"owner()": "8da5cb5b",
					"registerUser(string,string,address)": "88557b07",
					"renounceOwnership()": "715018a6",
					"transferOwnership(address)": "f2fde38b",
					"updateUserStatus(uint256,bool)": "3953527a",
					"userIds(address)": "4081db51",
					"users(uint256)": "365b98b2"
				}
			},
			"storageLayout": {
				"storage": [
					{
						"astId": 7,
						"contract": "Users/chris/Documents/GitHub/AirlineRewards/contracts/users/UserRegistration.sol:UserRegistration",
						"label": "_owner",
						"offset": 0,
						"slot": "0",
						"type": "t_address"
					},
					{
						"astId": 232,
						"contract": "Users/chris/Documents/GitHub/AirlineRewards/contracts/users/UserRegistration.sol:UserRegistration",
						"label": "_userIds",
						"offset": 0,
						"slot": "1",
						"type": "t_struct(Counter)140_storage"
					},
					{
						"astId": 236,
						"contract": "Users/chris/Documents/GitHub/AirlineRewards/contracts/users/UserRegistration.sol:UserRegistration",
						"label": "userIds",
						"offset": 0,
						"slot": "2",
						"type": "t_mapping(t_address,t_uint256)"
					},
					{
						"astId": 241,
						"contract": "Users/chris/Documents/GitHub/AirlineRewards/contracts/users/UserRegistration.sol:UserRegistration",
						"label": "users",
						"offset": 0,
						"slot": "3",
						"type": "t_mapping(t_uint256,t_struct(User)229_storage)"
					}
				],
				"types": {
					"t_address": {
						"encoding": "inplace",
						"label": "address",
						"numberOfBytes": "20"
					},
					"t_bool": {
						"encoding": "inplace",
						"label": "bool",
						"numberOfBytes": "1"
					},
					"t_mapping(t_address,t_uint256)": {
						"encoding": "mapping",
						"key": "t_address",
						"label": "mapping(address => uint256)",
						"numberOfBytes": "32",
						"value": "t_uint256"
					},
					"t_mapping(t_uint256,t_struct(User)229_storage)": {
						"encoding": "mapping",
						"key": "t_uint256",
						"label": "mapping(uint256 => struct UserRegistration.User)",
						"numberOfBytes": "32",
						"value": "t_struct(User)229_storage"
					},
					"t_string_storage": {
						"encoding": "bytes",
						"label": "string",
						"numberOfBytes": "32"
					},
					"t_struct(Counter)140_storage": {
						"encoding": "inplace",
						"label": "struct Counters.Counter",
						"members": [
							{
								"astId": 139,
								"contract": "Users/chris/Documents/GitHub/AirlineRewards/contracts/users/UserRegistration.sol:UserRegistration",
								"label": "_value",
								"offset": 0,
								"slot": "0",
								"type": "t_uint256"
							}
						],
						"numberOfBytes": "32"
					},
					"t_struct(User)229_storage": {
						"encoding": "inplace",
						"label": "struct UserRegistration.User",
						"members": [
							{
								"astId": 220,
								"contract": "Users/chris/Documents/GitHub/AirlineRewards/contracts/users/UserRegistration.sol:UserRegistration",
								"label": "id",
								"offset": 0,
								"slot": "0",
								"type": "t_uint256"
							},
							{
								"astId": 222,
								"contract": "Users/chris/Documents/GitHub/AirlineRewards/contracts/users/UserRegistration.sol:UserRegistration",
								"label": "fullName",
								"offset": 0,
								"slot": "1",
								"type": "t_string_storage"
							},
							{
								"astId": 224,
								"contract": "Users/chris/Documents/GitHub/AirlineRewards/contracts/users/UserRegistration.sol:UserRegistration",
								"label": "email",
								"offset": 0,
								"slot": "2",
								"type": "t_string_storage"
							},
							{
								"astId": 226,
								"contract": "Users/chris/Documents/GitHub/AirlineRewards/contracts/users/UserRegistration.sol:UserRegistration",
								"label": "wallet",
								"offset": 0,
								"slot": "3",
								"type": "t_address"
							},
							{
								"astId": 228,
								"contract": "Users/chris/Documents/GitHub/AirlineRewards/contracts/users/UserRegistration.sol:UserRegistration",
								"label": "isActive",
								"offset": 20,
								"slot": "3",
								"type": "t_bool"
							}
						],
						"numberOfBytes": "128"
					},
					"t_uint256": {
						"encoding": "inplace",
						"label": "uint256",
						"numberOfBytes": "32"
					}
				}
			},
			"userdoc": {
				"kind": "user",
				"methods": {},
				"version": 1
			}
		}
	}
}