{
	"Users/chris/Documents/GitHub/AirlineRewards/contracts/points/PointsConversion.sol": {
		"PointsConversion": {
			"abi": [
				{
					"inputs": [
						{
							"internalType": "address",
							"name": "_pointsManagementAddress",
							"type": "address"
						},
						{
							"internalType": "uint256",
							"name": "_conversionRate",
							"type": "uint256"
						}
					],
					"stateMutability": "nonpayable",
					"type": "constructor"
				},
				{
					"anonymous": false,
					"inputs": [
						{
							"indexed": false,
							"internalType": "uint256",
							"name": "newConversionRate",
							"type": "uint256"
						}
					],
					"name": "ConversionRateUpdated",
					"type": "event"
				},
				{
					"anonymous": false,
					"inputs": [
						{
							"indexed": true,
							"internalType": "address",
							"name": "previousOwner",
							"type": "address"
						},
						{
							"indexed": true,
							"internalType": "address",
							"name": "newOwner",
							"type": "address"
						}
					],
					"name": "OwnershipTransferred",
					"type": "event"
				},
				{
					"anonymous": false,
					"inputs": [
						{
							"indexed": true,
							"internalType": "address",
							"name": "user",
							"type": "address"
						},
						{
							"indexed": false,
							"internalType": "uint256",
							"name": "tokensAmount",
							"type": "uint256"
						},
						{
							"indexed": false,
							"internalType": "uint256",
							"name": "pointsEarned",
							"type": "uint256"
						}
					],
					"name": "TokensConverted",
					"type": "event"
				},
				{
					"inputs": [],
					"name": "conversionRate",
					"outputs": [
						{
							"internalType": "uint256",
							"name": "",
							"type": "uint256"
						}
					],
					"stateMutability": "view",
					"type": "function"
				},
				{
					"inputs": [
						{
							"internalType": "address",
							"name": "_user",
							"type": "address"
						},
						{
							"internalType": "uint256",
							"name": "_tokensAmount",
							"type": "uint256"
						}
					],
					"name": "convertTokensToPoints",
					"outputs": [],
					"stateMutability": "nonpayable",
					"type": "function"
				},
				{
					"inputs": [],
					"name": "owner",
					"outputs": [
						{
							"internalType": "address",
							"name": "",
							"type": "address"
						}
					],
					"stateMutability": "view",
					"type": "function"
				},
				{
					"inputs": [],
					"name": "renounceOwnership",
					"outputs": [],
					"stateMutability": "nonpayable",
					"type": "function"
				},
				{
					"inputs": [
						{
							"internalType": "address",
							"name": "newOwner",
							"type": "address"
						}
					],
					"name": "transferOwnership",
					"outputs": [],
					"stateMutability": "nonpayable",
					"type": "function"
				},
				{
					"inputs": [
						{
							"internalType": "uint256",
							"name": "_newConversionRate",
							"type": "uint256"
						}
					],
					"name": "updateConversionRate",
					"outputs": [],
					"stateMutability": "nonpayable",
					"type": "function"
				}
			],
			"devdoc": {
				"kind": "dev",
				"methods": {
					"convertTokensToPoints(address,uint256)": {
						"details": "Convert tokens to points and add the points to the user's balance.",
						"params": {
							"_tokensAmount": "The number of tokens to be converted to points.",
							"_user": "The wallet address of the user."
						}
					},
					"owner()": {
						"details": "Returns the address of the current owner."
					},
					"renounceOwnership()": {
						"details": "Leaves the contract without owner. It will not be possible to call `onlyOwner` functions anymore. Can only be called by the current owner. NOTE: Renouncing ownership will leave the contract without an owner, thereby removing any functionality that is only available to the owner."
					},
					"transferOwnership(address)": {
						"details": "Transfers ownership of the contract to a new account (`newOwner`). Can only be called by the current owner."
					},
					"updateConversionRate(uint256)": {
						"details": "Update the conversion rate from tokens to points.",
						"params": {
							"_newConversionRate": "The new conversion rate."
						}
					}
				},
				"version": 1
			},
			"evm": {
				"assembly": "    /* \"Users/chris/Documents/GitHub/AirlineRewards/contracts/points/PointsConversion.sol\":112:1892  contract PointsConversion is Ownable {... */\n  mstore(0x40, 0x80)\n    /* \"Users/chris/Documents/GitHub/AirlineRewards/contracts/points/PointsConversion.sol\":626:817  constructor(address _pointsManagementAddress, uint256 _conversionRate) {... */\n  callvalue\n  dup1\n  iszero\n  tag_1\n  jumpi\n  0x00\n  dup1\n  revert\ntag_1:\n  pop\n  mload(0x40)\n  sub(codesize, bytecodeSize)\n  dup1\n  bytecodeSize\n  dup4\n  codecopy\n  dup2\n  dup2\n  add\n  0x40\n  mstore\n  dup2\n  add\n  swap1\n  tag_2\n  swap2\n  swap1\n  tag_3\n  jump\t// in\ntag_2:\n    /* \"@openzeppelin/contracts/access/Ownable.sol\":936:968  _transferOwnership(_msgSender()) */\n  tag_7\n    /* \"@openzeppelin/contracts/access/Ownable.sol\":955:967  _msgSender() */\n  tag_8\n    /* \"@openzeppelin/contracts/access/Ownable.sol\":955:965  _msgSender */\n  shl(0x20, tag_9)\n    /* \"@openzeppelin/contracts/access/Ownable.sol\":955:967  _msgSender() */\n  0x20\n  shr\n  jump\t// in\ntag_8:\n    /* \"@openzeppelin/contracts/access/Ownable.sol\":936:954  _transferOwnership */\n  shl(0x20, tag_10)\n    /* \"@openzeppelin/contracts/access/Ownable.sol\":936:968  _transferOwnership(_msgSender()) */\n  0x20\n  shr\n  jump\t// in\ntag_7:\n    /* \"Users/chris/Documents/GitHub/AirlineRewards/contracts/points/PointsConversion.sol\":743:767  _pointsManagementAddress */\n  dup2\n    /* \"Users/chris/Documents/GitHub/AirlineRewards/contracts/points/PointsConversion.sol\":707:723  pointsManagement */\n  0x01\n  0x00\n    /* \"Users/chris/Documents/GitHub/AirlineRewards/contracts/points/PointsConversion.sol\":707:768  pointsManagement = PointsManagement(_pointsManagementAddress) */\n  0x0100\n  exp\n  dup2\n  sload\n  dup2\n  0xffffffffffffffffffffffffffffffffffffffff\n  mul\n  not\n  and\n  swap1\n  dup4\n  0xffffffffffffffffffffffffffffffffffffffff\n  and\n  mul\n  or\n  swap1\n  sstore\n  pop\n    /* \"Users/chris/Documents/GitHub/AirlineRewards/contracts/points/PointsConversion.sol\":795:810  _conversionRate */\n  dup1\n    /* \"Users/chris/Documents/GitHub/AirlineRewards/contracts/points/PointsConversion.sol\":778:792  conversionRate */\n  0x02\n    /* \"Users/chris/Documents/GitHub/AirlineRewards/contracts/points/PointsConversion.sol\":778:810  conversionRate = _conversionRate */\n  dup2\n  swap1\n  sstore\n  pop\n    /* \"Users/chris/Documents/GitHub/AirlineRewards/contracts/points/PointsConversion.sol\":626:817  constructor(address _pointsManagementAddress, uint256 _conversionRate) {... */\n  pop\n  pop\n    /* \"Users/chris/Documents/GitHub/AirlineRewards/contracts/points/PointsConversion.sol\":112:1892  contract PointsConversion is Ownable {... */\n  jump(tag_12)\n    /* \"@openzeppelin/contracts/utils/Context.sol\":640:736  function _msgSender() internal view virtual returns (address) {... */\ntag_9:\n    /* \"@openzeppelin/contracts/utils/Context.sol\":693:700  address */\n  0x00\n    /* \"@openzeppelin/contracts/utils/Context.sol\":719:729  msg.sender */\n  caller\n    /* \"@openzeppelin/contracts/utils/Context.sol\":712:729  return msg.sender */\n  swap1\n  pop\n    /* \"@openzeppelin/contracts/utils/Context.sol\":640:736  function _msgSender() internal view virtual returns (address) {... */\n  swap1\n  jump\t// out\n    /* \"@openzeppelin/contracts/access/Ownable.sol\":2433:2620  function _transferOwnership(address newOwner) internal virtual {... */\ntag_10:\n    /* \"@openzeppelin/contracts/access/Ownable.sol\":2506:2522  address oldOwner */\n  0x00\n    /* \"@openzeppelin/contracts/access/Ownable.sol\":2525:2531  _owner */\n  dup1\n  0x00\n  swap1\n  sload\n  swap1\n  0x0100\n  exp\n  swap1\n  div\n  0xffffffffffffffffffffffffffffffffffffffff\n  and\n    /* \"@openzeppelin/contracts/access/Ownable.sol\":2506:2531  address oldOwner = _owner */\n  swap1\n  pop\n    /* \"@openzeppelin/contracts/access/Ownable.sol\":2550:2558  newOwner */\n  dup2\n    /* \"@openzeppelin/contracts/access/Ownable.sol\":2541:2547  _owner */\n  0x00\n  dup1\n    /* \"@openzeppelin/contracts/access/Ownable.sol\":2541:2558  _owner = newOwner */\n  0x0100\n  exp\n  dup2\n  sload\n  dup2\n  0xffffffffffffffffffffffffffffffffffffffff\n  mul\n  not\n  and\n  swap1\n  dup4\n  0xffffffffffffffffffffffffffffffffffffffff\n  and\n  mul\n  or\n  swap1\n  sstore\n  pop\n    /* \"@openzeppelin/contracts/access/Ownable.sol\":2604:2612  newOwner */\n  dup2\n    /* \"@openzeppelin/contracts/access/Ownable.sol\":2573:2613  OwnershipTransferred(oldOwner, newOwner) */\n  0xffffffffffffffffffffffffffffffffffffffff\n  and\n    /* \"@openzeppelin/contracts/access/Ownable.sol\":2594:2602  oldOwner */\n  dup2\n    /* \"@openzeppelin/contracts/access/Ownable.sol\":2573:2613  OwnershipTransferred(oldOwner, newOwner) */\n  0xffffffffffffffffffffffffffffffffffffffff\n  and\n  0x8be0079c531659141344cd1fd0a4f28419497f9722a3daafe3b4186f6b6457e0\n  mload(0x40)\n  mload(0x40)\n  dup1\n  swap2\n  sub\n  swap1\n  log3\n    /* \"@openzeppelin/contracts/access/Ownable.sol\":2496:2620  {... */\n  pop\n    /* \"@openzeppelin/contracts/access/Ownable.sol\":2433:2620  function _transferOwnership(address newOwner) internal virtual {... */\n  pop\n  jump\t// out\n    /* \"#utility.yul\":88:205   */\ntag_16:\n    /* \"#utility.yul\":197:198   */\n  0x00\n    /* \"#utility.yul\":194:195   */\n  dup1\n    /* \"#utility.yul\":187:199   */\n  revert\n    /* \"#utility.yul\":334:460   */\ntag_18:\n    /* \"#utility.yul\":371:378   */\n  0x00\n    /* \"#utility.yul\":411:453   */\n  0xffffffffffffffffffffffffffffffffffffffff\n    /* \"#utility.yul\":404:409   */\n  dup3\n    /* \"#utility.yul\":400:454   */\n  and\n    /* \"#utility.yul\":389:454   */\n  swap1\n  pop\n    /* \"#utility.yul\":334:460   */\n  swap2\n  swap1\n  pop\n  jump\t// out\n    /* \"#utility.yul\":466:562   */\ntag_19:\n    /* \"#utility.yul\":503:510   */\n  0x00\n    /* \"#utility.yul\":532:556   */\n  tag_31\n    /* \"#utility.yul\":550:555   */\n  dup3\n    /* \"#utility.yul\":532:556   */\n  tag_18\n  jump\t// in\ntag_31:\n    /* \"#utility.yul\":521:556   */\n  swap1\n  pop\n    /* \"#utility.yul\":466:562   */\n  swap2\n  swap1\n  pop\n  jump\t// out\n    /* \"#utility.yul\":568:690   */\ntag_20:\n    /* \"#utility.yul\":641:665   */\n  tag_33\n    /* \"#utility.yul\":659:664   */\n  dup2\n    /* \"#utility.yul\":641:665   */\n  tag_19\n  jump\t// in\ntag_33:\n    /* \"#utility.yul\":634:639   */\n  dup2\n    /* \"#utility.yul\":631:666   */\n  eq\n    /* \"#utility.yul\":621:684   */\n  tag_34\n  jumpi\n    /* \"#utility.yul\":680:681   */\n  0x00\n    /* \"#utility.yul\":677:678   */\n  dup1\n    /* \"#utility.yul\":670:682   */\n  revert\n    /* \"#utility.yul\":621:684   */\ntag_34:\n    /* \"#utility.yul\":568:690   */\n  pop\n  jump\t// out\n    /* \"#utility.yul\":696:839   */\ntag_21:\n    /* \"#utility.yul\":753:758   */\n  0x00\n    /* \"#utility.yul\":784:790   */\n  dup2\n    /* \"#utility.yul\":778:791   */\n  mload\n    /* \"#utility.yul\":769:791   */\n  swap1\n  pop\n    /* \"#utility.yul\":800:833   */\n  tag_36\n    /* \"#utility.yul\":827:832   */\n  dup2\n    /* \"#utility.yul\":800:833   */\n  tag_20\n  jump\t// in\ntag_36:\n    /* \"#utility.yul\":696:839   */\n  swap3\n  swap2\n  pop\n  pop\n  jump\t// out\n    /* \"#utility.yul\":845:922   */\ntag_22:\n    /* \"#utility.yul\":882:889   */\n  0x00\n    /* \"#utility.yul\":911:916   */\n  dup2\n    /* \"#utility.yul\":900:916   */\n  swap1\n  pop\n    /* \"#utility.yul\":845:922   */\n  swap2\n  swap1\n  pop\n  jump\t// out\n    /* \"#utility.yul\":928:1050   */\ntag_23:\n    /* \"#utility.yul\":1001:1025   */\n  tag_39\n    /* \"#utility.yul\":1019:1024   */\n  dup2\n    /* \"#utility.yul\":1001:1025   */\n  tag_22\n  jump\t// in\ntag_39:\n    /* \"#utility.yul\":994:999   */\n  dup2\n    /* \"#utility.yul\":991:1026   */\n  eq\n    /* \"#utility.yul\":981:1044   */\n  tag_40\n  jumpi\n    /* \"#utility.yul\":1040:1041   */\n  0x00\n    /* \"#utility.yul\":1037:1038   */\n  dup1\n    /* \"#utility.yul\":1030:1042   */\n  revert\n    /* \"#utility.yul\":981:1044   */\ntag_40:\n    /* \"#utility.yul\":928:1050   */\n  pop\n  jump\t// out\n    /* \"#utility.yul\":1056:1199   */\ntag_24:\n    /* \"#utility.yul\":1113:1118   */\n  0x00\n    /* \"#utility.yul\":1144:1150   */\n  dup2\n    /* \"#utility.yul\":1138:1151   */\n  mload\n    /* \"#utility.yul\":1129:1151   */\n  swap1\n  pop\n    /* \"#utility.yul\":1160:1193   */\n  tag_42\n    /* \"#utility.yul\":1187:1192   */\n  dup2\n    /* \"#utility.yul\":1160:1193   */\n  tag_23\n  jump\t// in\ntag_42:\n    /* \"#utility.yul\":1056:1199   */\n  swap3\n  swap2\n  pop\n  pop\n  jump\t// out\n    /* \"#utility.yul\":1205:1712   */\ntag_3:\n    /* \"#utility.yul\":1284:1290   */\n  0x00\n    /* \"#utility.yul\":1292:1298   */\n  dup1\n    /* \"#utility.yul\":1341:1343   */\n  0x40\n    /* \"#utility.yul\":1329:1338   */\n  dup4\n    /* \"#utility.yul\":1320:1327   */\n  dup6\n    /* \"#utility.yul\":1316:1339   */\n  sub\n    /* \"#utility.yul\":1312:1344   */\n  slt\n    /* \"#utility.yul\":1309:1428   */\n  iszero\n  tag_44\n  jumpi\n    /* \"#utility.yul\":1347:1426   */\n  tag_45\n  tag_16\n  jump\t// in\ntag_45:\n    /* \"#utility.yul\":1309:1428   */\ntag_44:\n    /* \"#utility.yul\":1467:1468   */\n  0x00\n    /* \"#utility.yul\":1492:1556   */\n  tag_46\n    /* \"#utility.yul\":1548:1555   */\n  dup6\n    /* \"#utility.yul\":1539:1545   */\n  dup3\n    /* \"#utility.yul\":1528:1537   */\n  dup7\n    /* \"#utility.yul\":1524:1546   */\n  add\n    /* \"#utility.yul\":1492:1556   */\n  tag_21\n  jump\t// in\ntag_46:\n    /* \"#utility.yul\":1482:1556   */\n  swap3\n  pop\n    /* \"#utility.yul\":1438:1566   */\n  pop\n    /* \"#utility.yul\":1605:1607   */\n  0x20\n    /* \"#utility.yul\":1631:1695   */\n  tag_47\n    /* \"#utility.yul\":1687:1694   */\n  dup6\n    /* \"#utility.yul\":1678:1684   */\n  dup3\n    /* \"#utility.yul\":1667:1676   */\n  dup7\n    /* \"#utility.yul\":1663:1685   */\n  add\n    /* \"#utility.yul\":1631:1695   */\n  tag_24\n  jump\t// in\ntag_47:\n    /* \"#utility.yul\":1621:1695   */\n  swap2\n  pop\n    /* \"#utility.yul\":1576:1705   */\n  pop\n    /* \"#utility.yul\":1205:1712   */\n  swap3\n  pop\n  swap3\n  swap1\n  pop\n  jump\t// out\n    /* \"Users/chris/Documents/GitHub/AirlineRewards/contracts/points/PointsConversion.sol\":112:1892  contract PointsConversion is Ownable {... */\ntag_12:\n  dataSize(sub_0)\n  dup1\n  dataOffset(sub_0)\n  0x00\n  codecopy\n  0x00\n  return\nstop\n\nsub_0: assembly {\n        /* \"Users/chris/Documents/GitHub/AirlineRewards/contracts/points/PointsConversion.sol\":112:1892  contract PointsConversion is Ownable {... */\n      mstore(0x40, 0x80)\n      callvalue\n      dup1\n      iszero\n      tag_1\n      jumpi\n      0x00\n      dup1\n      revert\n    tag_1:\n      pop\n      jumpi(tag_2, lt(calldatasize, 0x04))\n      shr(0xe0, calldataload(0x00))\n      dup1\n      0x1dc387f1\n      eq\n      tag_3\n      jumpi\n      dup1\n      0x715018a6\n      eq\n      tag_4\n      jumpi\n      dup1\n      0x7ffdf53e\n      eq\n      tag_5\n      jumpi\n      dup1\n      0x87fcdbc1\n      eq\n      tag_6\n      jumpi\n      dup1\n      0x8da5cb5b\n      eq\n      tag_7\n      jumpi\n      dup1\n      0xf2fde38b\n      eq\n      tag_8\n      jumpi\n    tag_2:\n      0x00\n      dup1\n      revert\n        /* \"Users/chris/Documents/GitHub/AirlineRewards/contracts/points/PointsConversion.sol\":1046:1473  function convertTokensToPoints(address _user, uint256 _tokensAmount) external onlyOwner {... */\n    tag_3:\n      tag_9\n      0x04\n      dup1\n      calldatasize\n      sub\n      dup2\n      add\n      swap1\n      tag_10\n      swap2\n      swap1\n      tag_11\n      jump\t// in\n    tag_10:\n      tag_12\n      jump\t// in\n    tag_9:\n      stop\n        /* \"@openzeppelin/contracts/access/Ownable.sol\":1831:1932  function renounceOwnership() public virtual onlyOwner {... */\n    tag_4:\n      tag_13\n      tag_14\n      jump\t// in\n    tag_13:\n      stop\n        /* \"Users/chris/Documents/GitHub/AirlineRewards/contracts/points/PointsConversion.sol\":321:350  uint256 public conversionRate */\n    tag_5:\n      tag_15\n      tag_16\n      jump\t// in\n    tag_15:\n      mload(0x40)\n      tag_17\n      swap2\n      swap1\n      tag_18\n      jump\t// in\n    tag_17:\n      mload(0x40)\n      dup1\n      swap2\n      sub\n      swap1\n      return\n        /* \"Users/chris/Documents/GitHub/AirlineRewards/contracts/points/PointsConversion.sol\":1615:1890  function updateConversionRate(uint256 _newConversionRate) external onlyOwner {... */\n    tag_6:\n      tag_19\n      0x04\n      dup1\n      calldatasize\n      sub\n      dup2\n      add\n      swap1\n      tag_20\n      swap2\n      swap1\n      tag_21\n      jump\t// in\n    tag_20:\n      tag_22\n      jump\t// in\n    tag_19:\n      stop\n        /* \"@openzeppelin/contracts/access/Ownable.sol\":1201:1286  function owner() public view virtual returns (address) {... */\n    tag_7:\n      tag_23\n      tag_24\n      jump\t// in\n    tag_23:\n      mload(0x40)\n      tag_25\n      swap2\n      swap1\n      tag_26\n      jump\t// in\n    tag_25:\n      mload(0x40)\n      dup1\n      swap2\n      sub\n      swap1\n      return\n        /* \"@openzeppelin/contracts/access/Ownable.sol\":2081:2279  function transferOwnership(address newOwner) public virtual onlyOwner {... */\n    tag_8:\n      tag_27\n      0x04\n      dup1\n      calldatasize\n      sub\n      dup2\n      add\n      swap1\n      tag_28\n      swap2\n      swap1\n      tag_29\n      jump\t// in\n    tag_28:\n      tag_30\n      jump\t// in\n    tag_27:\n      stop\n        /* \"Users/chris/Documents/GitHub/AirlineRewards/contracts/points/PointsConversion.sol\":1046:1473  function convertTokensToPoints(address _user, uint256 _tokensAmount) external onlyOwner {... */\n    tag_12:\n        /* \"@openzeppelin/contracts/access/Ownable.sol\":1094:1107  _checkOwner() */\n      tag_32\n        /* \"@openzeppelin/contracts/access/Ownable.sol\":1094:1105  _checkOwner */\n      tag_33\n        /* \"@openzeppelin/contracts/access/Ownable.sol\":1094:1107  _checkOwner() */\n      jump\t// in\n    tag_32:\n        /* \"Users/chris/Documents/GitHub/AirlineRewards/contracts/points/PointsConversion.sol\":1169:1170  0 */\n      0x00\n        /* \"Users/chris/Documents/GitHub/AirlineRewards/contracts/points/PointsConversion.sol\":1152:1171  _user != address(0) */\n      0xffffffffffffffffffffffffffffffffffffffff\n      and\n        /* \"Users/chris/Documents/GitHub/AirlineRewards/contracts/points/PointsConversion.sol\":1152:1157  _user */\n      dup3\n        /* \"Users/chris/Documents/GitHub/AirlineRewards/contracts/points/PointsConversion.sol\":1152:1171  _user != address(0) */\n      0xffffffffffffffffffffffffffffffffffffffff\n      and\n      sub\n        /* \"Users/chris/Documents/GitHub/AirlineRewards/contracts/points/PointsConversion.sol\":1144:1196  require(_user != address(0), \"Invalid user address\") */\n      tag_35\n      jumpi\n      mload(0x40)\n      0x08c379a000000000000000000000000000000000000000000000000000000000\n      dup2\n      mstore\n      0x04\n      add\n      tag_36\n      swap1\n      tag_37\n      jump\t// in\n    tag_36:\n      mload(0x40)\n      dup1\n      swap2\n      sub\n      swap1\n      revert\n    tag_35:\n        /* \"Users/chris/Documents/GitHub/AirlineRewards/contracts/points/PointsConversion.sol\":1230:1231  0 */\n      0x00\n        /* \"Users/chris/Documents/GitHub/AirlineRewards/contracts/points/PointsConversion.sol\":1214:1227  _tokensAmount */\n      dup2\n        /* \"Users/chris/Documents/GitHub/AirlineRewards/contracts/points/PointsConversion.sol\":1214:1231  _tokensAmount > 0 */\n      gt\n        /* \"Users/chris/Documents/GitHub/AirlineRewards/contracts/points/PointsConversion.sol\":1206:1277  require(_tokensAmount > 0, \"Tokens amount should be greater than zero\") */\n      tag_38\n      jumpi\n      mload(0x40)\n      0x08c379a000000000000000000000000000000000000000000000000000000000\n      dup2\n      mstore\n      0x04\n      add\n      tag_39\n      swap1\n      tag_40\n      jump\t// in\n    tag_39:\n      mload(0x40)\n      dup1\n      swap2\n      sub\n      swap1\n      revert\n    tag_38:\n        /* \"Users/chris/Documents/GitHub/AirlineRewards/contracts/points/PointsConversion.sol\":1288:1308  uint256 pointsEarned */\n      0x00\n        /* \"Users/chris/Documents/GitHub/AirlineRewards/contracts/points/PointsConversion.sol\":1327:1341  conversionRate */\n      sload(0x02)\n        /* \"Users/chris/Documents/GitHub/AirlineRewards/contracts/points/PointsConversion.sol\":1311:1324  _tokensAmount */\n      dup3\n        /* \"Users/chris/Documents/GitHub/AirlineRewards/contracts/points/PointsConversion.sol\":1311:1341  _tokensAmount * conversionRate */\n      tag_41\n      swap2\n      swap1\n      tag_42\n      jump\t// in\n    tag_41:\n        /* \"Users/chris/Documents/GitHub/AirlineRewards/contracts/points/PointsConversion.sol\":1288:1341  uint256 pointsEarned = _tokensAmount * conversionRate */\n      swap1\n      pop\n        /* \"Users/chris/Documents/GitHub/AirlineRewards/contracts/points/PointsConversion.sol\":1351:1367  pointsManagement */\n      0x01\n      0x00\n      swap1\n      sload\n      swap1\n      0x0100\n      exp\n      swap1\n      div\n      0xffffffffffffffffffffffffffffffffffffffff\n      and\n        /* \"Users/chris/Documents/GitHub/AirlineRewards/contracts/points/PointsConversion.sol\":1351:1378  pointsManagement.earnPoints */\n      0xffffffffffffffffffffffffffffffffffffffff\n      and\n      0xd909d5e3\n        /* \"Users/chris/Documents/GitHub/AirlineRewards/contracts/points/PointsConversion.sol\":1379:1384  _user */\n      dup5\n        /* \"Users/chris/Documents/GitHub/AirlineRewards/contracts/points/PointsConversion.sol\":1386:1398  pointsEarned */\n      dup4\n        /* \"Users/chris/Documents/GitHub/AirlineRewards/contracts/points/PointsConversion.sol\":1351:1399  pointsManagement.earnPoints(_user, pointsEarned) */\n      mload(0x40)\n      dup4\n      0xffffffff\n      and\n      0xe0\n      shl\n      dup2\n      mstore\n      0x04\n      add\n      tag_43\n      swap3\n      swap2\n      swap1\n      tag_44\n      jump\t// in\n    tag_43:\n      0x00\n      mload(0x40)\n      dup1\n      dup4\n      sub\n      dup2\n      0x00\n      dup8\n      dup1\n      extcodesize\n      iszero\n      dup1\n      iszero\n      tag_45\n      jumpi\n      0x00\n      dup1\n      revert\n    tag_45:\n      pop\n      gas\n      call\n      iszero\n      dup1\n      iszero\n      tag_47\n      jumpi\n      returndatasize\n      0x00\n      dup1\n      returndatacopy\n      revert(0x00, returndatasize)\n    tag_47:\n      pop\n      pop\n      pop\n      pop\n        /* \"Users/chris/Documents/GitHub/AirlineRewards/contracts/points/PointsConversion.sol\":1431:1436  _user */\n      dup3\n        /* \"Users/chris/Documents/GitHub/AirlineRewards/contracts/points/PointsConversion.sol\":1415:1466  TokensConverted(_user, _tokensAmount, pointsEarned) */\n      0xffffffffffffffffffffffffffffffffffffffff\n      and\n      0x8129f7128f965c7aab0e1547e6a8103773c3c1eb652d930f9ef3741f011ce735\n        /* \"Users/chris/Documents/GitHub/AirlineRewards/contracts/points/PointsConversion.sol\":1438:1451  _tokensAmount */\n      dup4\n        /* \"Users/chris/Documents/GitHub/AirlineRewards/contracts/points/PointsConversion.sol\":1453:1465  pointsEarned */\n      dup4\n        /* \"Users/chris/Documents/GitHub/AirlineRewards/contracts/points/PointsConversion.sol\":1415:1466  TokensConverted(_user, _tokensAmount, pointsEarned) */\n      mload(0x40)\n      tag_48\n      swap3\n      swap2\n      swap1\n      tag_49\n      jump\t// in\n    tag_48:\n      mload(0x40)\n      dup1\n      swap2\n      sub\n      swap1\n      log2\n        /* \"Users/chris/Documents/GitHub/AirlineRewards/contracts/points/PointsConversion.sol\":1134:1473  {... */\n      pop\n        /* \"Users/chris/Documents/GitHub/AirlineRewards/contracts/points/PointsConversion.sol\":1046:1473  function convertTokensToPoints(address _user, uint256 _tokensAmount) external onlyOwner {... */\n      pop\n      pop\n      jump\t// out\n        /* \"@openzeppelin/contracts/access/Ownable.sol\":1831:1932  function renounceOwnership() public virtual onlyOwner {... */\n    tag_14:\n        /* \"@openzeppelin/contracts/access/Ownable.sol\":1094:1107  _checkOwner() */\n      tag_51\n        /* \"@openzeppelin/contracts/access/Ownable.sol\":1094:1105  _checkOwner */\n      tag_33\n        /* \"@openzeppelin/contracts/access/Ownable.sol\":1094:1107  _checkOwner() */\n      jump\t// in\n    tag_51:\n        /* \"@openzeppelin/contracts/access/Ownable.sol\":1895:1925  _transferOwnership(address(0)) */\n      tag_53\n        /* \"@openzeppelin/contracts/access/Ownable.sol\":1922:1923  0 */\n      0x00\n        /* \"@openzeppelin/contracts/access/Ownable.sol\":1895:1913  _transferOwnership */\n      tag_54\n        /* \"@openzeppelin/contracts/access/Ownable.sol\":1895:1925  _transferOwnership(address(0)) */\n      jump\t// in\n    tag_53:\n        /* \"@openzeppelin/contracts/access/Ownable.sol\":1831:1932  function renounceOwnership() public virtual onlyOwner {... */\n      jump\t// out\n        /* \"Users/chris/Documents/GitHub/AirlineRewards/contracts/points/PointsConversion.sol\":321:350  uint256 public conversionRate */\n    tag_16:\n      sload(0x02)\n      dup2\n      jump\t// out\n        /* \"Users/chris/Documents/GitHub/AirlineRewards/contracts/points/PointsConversion.sol\":1615:1890  function updateConversionRate(uint256 _newConversionRate) external onlyOwner {... */\n    tag_22:\n        /* \"@openzeppelin/contracts/access/Ownable.sol\":1094:1107  _checkOwner() */\n      tag_56\n        /* \"@openzeppelin/contracts/access/Ownable.sol\":1094:1105  _checkOwner */\n      tag_33\n        /* \"@openzeppelin/contracts/access/Ownable.sol\":1094:1107  _checkOwner() */\n      jump\t// in\n    tag_56:\n        /* \"Users/chris/Documents/GitHub/AirlineRewards/contracts/points/PointsConversion.sol\":1731:1732  0 */\n      0x00\n        /* \"Users/chris/Documents/GitHub/AirlineRewards/contracts/points/PointsConversion.sol\":1710:1728  _newConversionRate */\n      dup2\n        /* \"Users/chris/Documents/GitHub/AirlineRewards/contracts/points/PointsConversion.sol\":1710:1732  _newConversionRate > 0 */\n      gt\n        /* \"Users/chris/Documents/GitHub/AirlineRewards/contracts/points/PointsConversion.sol\":1702:1780  require(_newConversionRate > 0, \"Conversion rate should be greater than zero\") */\n      tag_58\n      jumpi\n      mload(0x40)\n      0x08c379a000000000000000000000000000000000000000000000000000000000\n      dup2\n      mstore\n      0x04\n      add\n      tag_59\n      swap1\n      tag_60\n      jump\t// in\n    tag_59:\n      mload(0x40)\n      dup1\n      swap2\n      sub\n      swap1\n      revert\n    tag_58:\n        /* \"Users/chris/Documents/GitHub/AirlineRewards/contracts/points/PointsConversion.sol\":1808:1826  _newConversionRate */\n      dup1\n        /* \"Users/chris/Documents/GitHub/AirlineRewards/contracts/points/PointsConversion.sol\":1791:1805  conversionRate */\n      0x02\n        /* \"Users/chris/Documents/GitHub/AirlineRewards/contracts/points/PointsConversion.sol\":1791:1826  conversionRate = _newConversionRate */\n      dup2\n      swap1\n      sstore\n      pop\n        /* \"Users/chris/Documents/GitHub/AirlineRewards/contracts/points/PointsConversion.sol\":1842:1883  ConversionRateUpdated(_newConversionRate) */\n      0xb22dee8d85ff5215d4c68cdb3f5864f9e51f23b5c76363187afaacab3906e7\n        /* \"Users/chris/Documents/GitHub/AirlineRewards/contracts/points/PointsConversion.sol\":1864:1882  _newConversionRate */\n      dup2\n        /* \"Users/chris/Documents/GitHub/AirlineRewards/contracts/points/PointsConversion.sol\":1842:1883  ConversionRateUpdated(_newConversionRate) */\n      mload(0x40)\n      tag_61\n      swap2\n      swap1\n      tag_18\n      jump\t// in\n    tag_61:\n      mload(0x40)\n      dup1\n      swap2\n      sub\n      swap1\n      log1\n        /* \"Users/chris/Documents/GitHub/AirlineRewards/contracts/points/PointsConversion.sol\":1615:1890  function updateConversionRate(uint256 _newConversionRate) external onlyOwner {... */\n      pop\n      jump\t// out\n        /* \"@openzeppelin/contracts/access/Ownable.sol\":1201:1286  function owner() public view virtual returns (address) {... */\n    tag_24:\n        /* \"@openzeppelin/contracts/access/Ownable.sol\":1247:1254  address */\n      0x00\n        /* \"@openzeppelin/contracts/access/Ownable.sol\":1273:1279  _owner */\n      dup1\n      0x00\n      swap1\n      sload\n      swap1\n      0x0100\n      exp\n      swap1\n      div\n      0xffffffffffffffffffffffffffffffffffffffff\n      and\n        /* \"@openzeppelin/contracts/access/Ownable.sol\":1266:1279  return _owner */\n      swap1\n      pop\n        /* \"@openzeppelin/contracts/access/Ownable.sol\":1201:1286  function owner() public view virtual returns (address) {... */\n      swap1\n      jump\t// out\n        /* \"@openzeppelin/contracts/access/Ownable.sol\":2081:2279  function transferOwnership(address newOwner) public virtual onlyOwner {... */\n    tag_30:\n        /* \"@openzeppelin/contracts/access/Ownable.sol\":1094:1107  _checkOwner() */\n      tag_64\n        /* \"@openzeppelin/contracts/access/Ownable.sol\":1094:1105  _checkOwner */\n      tag_33\n        /* \"@openzeppelin/contracts/access/Ownable.sol\":1094:1107  _checkOwner() */\n      jump\t// in\n    tag_64:\n        /* \"@openzeppelin/contracts/access/Ownable.sol\":2189:2190  0 */\n      0x00\n        /* \"@openzeppelin/contracts/access/Ownable.sol\":2169:2191  newOwner != address(0) */\n      0xffffffffffffffffffffffffffffffffffffffff\n      and\n        /* \"@openzeppelin/contracts/access/Ownable.sol\":2169:2177  newOwner */\n      dup2\n        /* \"@openzeppelin/contracts/access/Ownable.sol\":2169:2191  newOwner != address(0) */\n      0xffffffffffffffffffffffffffffffffffffffff\n      and\n      sub\n        /* \"@openzeppelin/contracts/access/Ownable.sol\":2161:2234  require(newOwner != address(0), \"Ownable: new owner is the zero address\") */\n      tag_66\n      jumpi\n      mload(0x40)\n      0x08c379a000000000000000000000000000000000000000000000000000000000\n      dup2\n      mstore\n      0x04\n      add\n      tag_67\n      swap1\n      tag_68\n      jump\t// in\n    tag_67:\n      mload(0x40)\n      dup1\n      swap2\n      sub\n      swap1\n      revert\n    tag_66:\n        /* \"@openzeppelin/contracts/access/Ownable.sol\":2244:2272  _transferOwnership(newOwner) */\n      tag_69\n        /* \"@openzeppelin/contracts/access/Ownable.sol\":2263:2271  newOwner */\n      dup2\n        /* \"@openzeppelin/contracts/access/Ownable.sol\":2244:2262  _transferOwnership */\n      tag_54\n        /* \"@openzeppelin/contracts/access/Ownable.sol\":2244:2272  _transferOwnership(newOwner) */\n      jump\t// in\n    tag_69:\n        /* \"@openzeppelin/contracts/access/Ownable.sol\":2081:2279  function transferOwnership(address newOwner) public virtual onlyOwner {... */\n      pop\n      jump\t// out\n        /* \"@openzeppelin/contracts/access/Ownable.sol\":1359:1489  function _checkOwner() internal view virtual {... */\n    tag_33:\n        /* \"@openzeppelin/contracts/access/Ownable.sol\":1433:1445  _msgSender() */\n      tag_71\n        /* \"@openzeppelin/contracts/access/Ownable.sol\":1433:1443  _msgSender */\n      tag_72\n        /* \"@openzeppelin/contracts/access/Ownable.sol\":1433:1445  _msgSender() */\n      jump\t// in\n    tag_71:\n        /* \"@openzeppelin/contracts/access/Ownable.sol\":1422:1445  owner() == _msgSender() */\n      0xffffffffffffffffffffffffffffffffffffffff\n      and\n        /* \"@openzeppelin/contracts/access/Ownable.sol\":1422:1429  owner() */\n      tag_73\n        /* \"@openzeppelin/contracts/access/Ownable.sol\":1422:1427  owner */\n      tag_24\n        /* \"@openzeppelin/contracts/access/Ownable.sol\":1422:1429  owner() */\n      jump\t// in\n    tag_73:\n        /* \"@openzeppelin/contracts/access/Ownable.sol\":1422:1445  owner() == _msgSender() */\n      0xffffffffffffffffffffffffffffffffffffffff\n      and\n      eq\n        /* \"@openzeppelin/contracts/access/Ownable.sol\":1414:1482  require(owner() == _msgSender(), \"Ownable: caller is not the owner\") */\n      tag_74\n      jumpi\n      mload(0x40)\n      0x08c379a000000000000000000000000000000000000000000000000000000000\n      dup2\n      mstore\n      0x04\n      add\n      tag_75\n      swap1\n      tag_76\n      jump\t// in\n    tag_75:\n      mload(0x40)\n      dup1\n      swap2\n      sub\n      swap1\n      revert\n    tag_74:\n        /* \"@openzeppelin/contracts/access/Ownable.sol\":1359:1489  function _checkOwner() internal view virtual {... */\n      jump\t// out\n        /* \"@openzeppelin/contracts/access/Ownable.sol\":2433:2620  function _transferOwnership(address newOwner) internal virtual {... */\n    tag_54:\n        /* \"@openzeppelin/contracts/access/Ownable.sol\":2506:2522  address oldOwner */\n      0x00\n        /* \"@openzeppelin/contracts/access/Ownable.sol\":2525:2531  _owner */\n      dup1\n      0x00\n      swap1\n      sload\n      swap1\n      0x0100\n      exp\n      swap1\n      div\n      0xffffffffffffffffffffffffffffffffffffffff\n      and\n        /* \"@openzeppelin/contracts/access/Ownable.sol\":2506:2531  address oldOwner = _owner */\n      swap1\n      pop\n        /* \"@openzeppelin/contracts/access/Ownable.sol\":2550:2558  newOwner */\n      dup2\n        /* \"@openzeppelin/contracts/access/Ownable.sol\":2541:2547  _owner */\n      0x00\n      dup1\n        /* \"@openzeppelin/contracts/access/Ownable.sol\":2541:2558  _owner = newOwner */\n      0x0100\n      exp\n      dup2\n      sload\n      dup2\n      0xffffffffffffffffffffffffffffffffffffffff\n      mul\n      not\n      and\n      swap1\n      dup4\n      0xffffffffffffffffffffffffffffffffffffffff\n      and\n      mul\n      or\n      swap1\n      sstore\n      pop\n        /* \"@openzeppelin/contracts/access/Ownable.sol\":2604:2612  newOwner */\n      dup2\n        /* \"@openzeppelin/contracts/access/Ownable.sol\":2573:2613  OwnershipTransferred(oldOwner, newOwner) */\n      0xffffffffffffffffffffffffffffffffffffffff\n      and\n        /* \"@openzeppelin/contracts/access/Ownable.sol\":2594:2602  oldOwner */\n      dup2\n        /* \"@openzeppelin/contracts/access/Ownable.sol\":2573:2613  OwnershipTransferred(oldOwner, newOwner) */\n      0xffffffffffffffffffffffffffffffffffffffff\n      and\n      0x8be0079c531659141344cd1fd0a4f28419497f9722a3daafe3b4186f6b6457e0\n      mload(0x40)\n      mload(0x40)\n      dup1\n      swap2\n      sub\n      swap1\n      log3\n        /* \"@openzeppelin/contracts/access/Ownable.sol\":2496:2620  {... */\n      pop\n        /* \"@openzeppelin/contracts/access/Ownable.sol\":2433:2620  function _transferOwnership(address newOwner) internal virtual {... */\n      pop\n      jump\t// out\n        /* \"@openzeppelin/contracts/utils/Context.sol\":640:736  function _msgSender() internal view virtual returns (address) {... */\n    tag_72:\n        /* \"@openzeppelin/contracts/utils/Context.sol\":693:700  address */\n      0x00\n        /* \"@openzeppelin/contracts/utils/Context.sol\":719:729  msg.sender */\n      caller\n        /* \"@openzeppelin/contracts/utils/Context.sol\":712:729  return msg.sender */\n      swap1\n      pop\n        /* \"@openzeppelin/contracts/utils/Context.sol\":640:736  function _msgSender() internal view virtual returns (address) {... */\n      swap1\n      jump\t// out\n        /* \"#utility.yul\":88:205   */\n    tag_80:\n        /* \"#utility.yul\":197:198   */\n      0x00\n        /* \"#utility.yul\":194:195   */\n      dup1\n        /* \"#utility.yul\":187:199   */\n      revert\n        /* \"#utility.yul\":334:460   */\n    tag_82:\n        /* \"#utility.yul\":371:378   */\n      0x00\n        /* \"#utility.yul\":411:453   */\n      0xffffffffffffffffffffffffffffffffffffffff\n        /* \"#utility.yul\":404:409   */\n      dup3\n        /* \"#utility.yul\":400:454   */\n      and\n        /* \"#utility.yul\":389:454   */\n      swap1\n      pop\n        /* \"#utility.yul\":334:460   */\n      swap2\n      swap1\n      pop\n      jump\t// out\n        /* \"#utility.yul\":466:562   */\n    tag_83:\n        /* \"#utility.yul\":503:510   */\n      0x00\n        /* \"#utility.yul\":532:556   */\n      tag_109\n        /* \"#utility.yul\":550:555   */\n      dup3\n        /* \"#utility.yul\":532:556   */\n      tag_82\n      jump\t// in\n    tag_109:\n        /* \"#utility.yul\":521:556   */\n      swap1\n      pop\n        /* \"#utility.yul\":466:562   */\n      swap2\n      swap1\n      pop\n      jump\t// out\n        /* \"#utility.yul\":568:690   */\n    tag_84:\n        /* \"#utility.yul\":641:665   */\n      tag_111\n        /* \"#utility.yul\":659:664   */\n      dup2\n        /* \"#utility.yul\":641:665   */\n      tag_83\n      jump\t// in\n    tag_111:\n        /* \"#utility.yul\":634:639   */\n      dup2\n        /* \"#utility.yul\":631:666   */\n      eq\n        /* \"#utility.yul\":621:684   */\n      tag_112\n      jumpi\n        /* \"#utility.yul\":680:681   */\n      0x00\n        /* \"#utility.yul\":677:678   */\n      dup1\n        /* \"#utility.yul\":670:682   */\n      revert\n        /* \"#utility.yul\":621:684   */\n    tag_112:\n        /* \"#utility.yul\":568:690   */\n      pop\n      jump\t// out\n        /* \"#utility.yul\":696:835   */\n    tag_85:\n        /* \"#utility.yul\":742:747   */\n      0x00\n        /* \"#utility.yul\":780:786   */\n      dup2\n        /* \"#utility.yul\":767:787   */\n      calldataload\n        /* \"#utility.yul\":758:787   */\n      swap1\n      pop\n        /* \"#utility.yul\":796:829   */\n      tag_114\n        /* \"#utility.yul\":823:828   */\n      dup2\n        /* \"#utility.yul\":796:829   */\n      tag_84\n      jump\t// in\n    tag_114:\n        /* \"#utility.yul\":696:835   */\n      swap3\n      swap2\n      pop\n      pop\n      jump\t// out\n        /* \"#utility.yul\":841:918   */\n    tag_86:\n        /* \"#utility.yul\":878:885   */\n      0x00\n        /* \"#utility.yul\":907:912   */\n      dup2\n        /* \"#utility.yul\":896:912   */\n      swap1\n      pop\n        /* \"#utility.yul\":841:918   */\n      swap2\n      swap1\n      pop\n      jump\t// out\n        /* \"#utility.yul\":924:1046   */\n    tag_87:\n        /* \"#utility.yul\":997:1021   */\n      tag_117\n        /* \"#utility.yul\":1015:1020   */\n      dup2\n        /* \"#utility.yul\":997:1021   */\n      tag_86\n      jump\t// in\n    tag_117:\n        /* \"#utility.yul\":990:995   */\n      dup2\n        /* \"#utility.yul\":987:1022   */\n      eq\n        /* \"#utility.yul\":977:1040   */\n      tag_118\n      jumpi\n        /* \"#utility.yul\":1036:1037   */\n      0x00\n        /* \"#utility.yul\":1033:1034   */\n      dup1\n        /* \"#utility.yul\":1026:1038   */\n      revert\n        /* \"#utility.yul\":977:1040   */\n    tag_118:\n        /* \"#utility.yul\":924:1046   */\n      pop\n      jump\t// out\n        /* \"#utility.yul\":1052:1191   */\n    tag_88:\n        /* \"#utility.yul\":1098:1103   */\n      0x00\n        /* \"#utility.yul\":1136:1142   */\n      dup2\n        /* \"#utility.yul\":1123:1143   */\n      calldataload\n        /* \"#utility.yul\":1114:1143   */\n      swap1\n      pop\n        /* \"#utility.yul\":1152:1185   */\n      tag_120\n        /* \"#utility.yul\":1179:1184   */\n      dup2\n        /* \"#utility.yul\":1152:1185   */\n      tag_87\n      jump\t// in\n    tag_120:\n        /* \"#utility.yul\":1052:1191   */\n      swap3\n      swap2\n      pop\n      pop\n      jump\t// out\n        /* \"#utility.yul\":1197:1671   */\n    tag_11:\n        /* \"#utility.yul\":1265:1271   */\n      0x00\n        /* \"#utility.yul\":1273:1279   */\n      dup1\n        /* \"#utility.yul\":1322:1324   */\n      0x40\n        /* \"#utility.yul\":1310:1319   */\n      dup4\n        /* \"#utility.yul\":1301:1308   */\n      dup6\n        /* \"#utility.yul\":1297:1320   */\n      sub\n        /* \"#utility.yul\":1293:1325   */\n      slt\n        /* \"#utility.yul\":1290:1409   */\n      iszero\n      tag_122\n      jumpi\n        /* \"#utility.yul\":1328:1407   */\n      tag_123\n      tag_80\n      jump\t// in\n    tag_123:\n        /* \"#utility.yul\":1290:1409   */\n    tag_122:\n        /* \"#utility.yul\":1448:1449   */\n      0x00\n        /* \"#utility.yul\":1473:1526   */\n      tag_124\n        /* \"#utility.yul\":1518:1525   */\n      dup6\n        /* \"#utility.yul\":1509:1515   */\n      dup3\n        /* \"#utility.yul\":1498:1507   */\n      dup7\n        /* \"#utility.yul\":1494:1516   */\n      add\n        /* \"#utility.yul\":1473:1526   */\n      tag_85\n      jump\t// in\n    tag_124:\n        /* \"#utility.yul\":1463:1526   */\n      swap3\n      pop\n        /* \"#utility.yul\":1419:1536   */\n      pop\n        /* \"#utility.yul\":1575:1577   */\n      0x20\n        /* \"#utility.yul\":1601:1654   */\n      tag_125\n        /* \"#utility.yul\":1646:1653   */\n      dup6\n        /* \"#utility.yul\":1637:1643   */\n      dup3\n        /* \"#utility.yul\":1626:1635   */\n      dup7\n        /* \"#utility.yul\":1622:1644   */\n      add\n        /* \"#utility.yul\":1601:1654   */\n      tag_88\n      jump\t// in\n    tag_125:\n        /* \"#utility.yul\":1591:1654   */\n      swap2\n      pop\n        /* \"#utility.yul\":1546:1664   */\n      pop\n        /* \"#utility.yul\":1197:1671   */\n      swap3\n      pop\n      swap3\n      swap1\n      pop\n      jump\t// out\n        /* \"#utility.yul\":1677:1795   */\n    tag_89:\n        /* \"#utility.yul\":1764:1788   */\n      tag_127\n        /* \"#utility.yul\":1782:1787   */\n      dup2\n        /* \"#utility.yul\":1764:1788   */\n      tag_86\n      jump\t// in\n    tag_127:\n        /* \"#utility.yul\":1759:1762   */\n      dup3\n        /* \"#utility.yul\":1752:1789   */\n      mstore\n        /* \"#utility.yul\":1677:1795   */\n      pop\n      pop\n      jump\t// out\n        /* \"#utility.yul\":1801:2023   */\n    tag_18:\n        /* \"#utility.yul\":1894:1898   */\n      0x00\n        /* \"#utility.yul\":1932:1934   */\n      0x20\n        /* \"#utility.yul\":1921:1930   */\n      dup3\n        /* \"#utility.yul\":1917:1935   */\n      add\n        /* \"#utility.yul\":1909:1935   */\n      swap1\n      pop\n        /* \"#utility.yul\":1945:2016   */\n      tag_129\n        /* \"#utility.yul\":2013:2014   */\n      0x00\n        /* \"#utility.yul\":2002:2011   */\n      dup4\n        /* \"#utility.yul\":1998:2015   */\n      add\n        /* \"#utility.yul\":1989:1995   */\n      dup5\n        /* \"#utility.yul\":1945:2016   */\n      tag_89\n      jump\t// in\n    tag_129:\n        /* \"#utility.yul\":1801:2023   */\n      swap3\n      swap2\n      pop\n      pop\n      jump\t// out\n        /* \"#utility.yul\":2029:2358   */\n    tag_21:\n        /* \"#utility.yul\":2088:2094   */\n      0x00\n        /* \"#utility.yul\":2137:2139   */\n      0x20\n        /* \"#utility.yul\":2125:2134   */\n      dup3\n        /* \"#utility.yul\":2116:2123   */\n      dup5\n        /* \"#utility.yul\":2112:2135   */\n      sub\n        /* \"#utility.yul\":2108:2140   */\n      slt\n        /* \"#utility.yul\":2105:2224   */\n      iszero\n      tag_131\n      jumpi\n        /* \"#utility.yul\":2143:2222   */\n      tag_132\n      tag_80\n      jump\t// in\n    tag_132:\n        /* \"#utility.yul\":2105:2224   */\n    tag_131:\n        /* \"#utility.yul\":2263:2264   */\n      0x00\n        /* \"#utility.yul\":2288:2341   */\n      tag_133\n        /* \"#utility.yul\":2333:2340   */\n      dup5\n        /* \"#utility.yul\":2324:2330   */\n      dup3\n        /* \"#utility.yul\":2313:2322   */\n      dup6\n        /* \"#utility.yul\":2309:2331   */\n      add\n        /* \"#utility.yul\":2288:2341   */\n      tag_88\n      jump\t// in\n    tag_133:\n        /* \"#utility.yul\":2278:2341   */\n      swap2\n      pop\n        /* \"#utility.yul\":2234:2351   */\n      pop\n        /* \"#utility.yul\":2029:2358   */\n      swap3\n      swap2\n      pop\n      pop\n      jump\t// out\n        /* \"#utility.yul\":2364:2482   */\n    tag_90:\n        /* \"#utility.yul\":2451:2475   */\n      tag_135\n        /* \"#utility.yul\":2469:2474   */\n      dup2\n        /* \"#utility.yul\":2451:2475   */\n      tag_83\n      jump\t// in\n    tag_135:\n        /* \"#utility.yul\":2446:2449   */\n      dup3\n        /* \"#utility.yul\":2439:2476   */\n      mstore\n        /* \"#utility.yul\":2364:2482   */\n      pop\n      pop\n      jump\t// out\n        /* \"#utility.yul\":2488:2710   */\n    tag_26:\n        /* \"#utility.yul\":2581:2585   */\n      0x00\n        /* \"#utility.yul\":2619:2621   */\n      0x20\n        /* \"#utility.yul\":2608:2617   */\n      dup3\n        /* \"#utility.yul\":2604:2622   */\n      add\n        /* \"#utility.yul\":2596:2622   */\n      swap1\n      pop\n        /* \"#utility.yul\":2632:2703   */\n      tag_137\n        /* \"#utility.yul\":2700:2701   */\n      0x00\n        /* \"#utility.yul\":2689:2698   */\n      dup4\n        /* \"#utility.yul\":2685:2702   */\n      add\n        /* \"#utility.yul\":2676:2682   */\n      dup5\n        /* \"#utility.yul\":2632:2703   */\n      tag_90\n      jump\t// in\n    tag_137:\n        /* \"#utility.yul\":2488:2710   */\n      swap3\n      swap2\n      pop\n      pop\n      jump\t// out\n        /* \"#utility.yul\":2716:3045   */\n    tag_29:\n        /* \"#utility.yul\":2775:2781   */\n      0x00\n        /* \"#utility.yul\":2824:2826   */\n      0x20\n        /* \"#utility.yul\":2812:2821   */\n      dup3\n        /* \"#utility.yul\":2803:2810   */\n      dup5\n        /* \"#utility.yul\":2799:2822   */\n      sub\n        /* \"#utility.yul\":2795:2827   */\n      slt\n        /* \"#utility.yul\":2792:2911   */\n      iszero\n      tag_139\n      jumpi\n        /* \"#utility.yul\":2830:2909   */\n      tag_140\n      tag_80\n      jump\t// in\n    tag_140:\n        /* \"#utility.yul\":2792:2911   */\n    tag_139:\n        /* \"#utility.yul\":2950:2951   */\n      0x00\n        /* \"#utility.yul\":2975:3028   */\n      tag_141\n        /* \"#utility.yul\":3020:3027   */\n      dup5\n        /* \"#utility.yul\":3011:3017   */\n      dup3\n        /* \"#utility.yul\":3000:3009   */\n      dup6\n        /* \"#utility.yul\":2996:3018   */\n      add\n        /* \"#utility.yul\":2975:3028   */\n      tag_85\n      jump\t// in\n    tag_141:\n        /* \"#utility.yul\":2965:3028   */\n      swap2\n      pop\n        /* \"#utility.yul\":2921:3038   */\n      pop\n        /* \"#utility.yul\":2716:3045   */\n      swap3\n      swap2\n      pop\n      pop\n      jump\t// out\n        /* \"#utility.yul\":3051:3220   */\n    tag_91:\n        /* \"#utility.yul\":3135:3146   */\n      0x00\n        /* \"#utility.yul\":3169:3175   */\n      dup3\n        /* \"#utility.yul\":3164:3167   */\n      dup3\n        /* \"#utility.yul\":3157:3176   */\n      mstore\n        /* \"#utility.yul\":3209:3213   */\n      0x20\n        /* \"#utility.yul\":3204:3207   */\n      dup3\n        /* \"#utility.yul\":3200:3214   */\n      add\n        /* \"#utility.yul\":3185:3214   */\n      swap1\n      pop\n        /* \"#utility.yul\":3051:3220   */\n      swap3\n      swap2\n      pop\n      pop\n      jump\t// out\n        /* \"#utility.yul\":3226:3396   */\n    tag_92:\n        /* \"#utility.yul\":3366:3388   */\n      0x496e76616c696420757365722061646472657373000000000000000000000000\n        /* \"#utility.yul\":3362:3363   */\n      0x00\n        /* \"#utility.yul\":3354:3360   */\n      dup3\n        /* \"#utility.yul\":3350:3364   */\n      add\n        /* \"#utility.yul\":3343:3389   */\n      mstore\n        /* \"#utility.yul\":3226:3396   */\n      pop\n      jump\t// out\n        /* \"#utility.yul\":3402:3768   */\n    tag_93:\n        /* \"#utility.yul\":3544:3547   */\n      0x00\n        /* \"#utility.yul\":3565:3632   */\n      tag_145\n        /* \"#utility.yul\":3629:3631   */\n      0x14\n        /* \"#utility.yul\":3624:3627   */\n      dup4\n        /* \"#utility.yul\":3565:3632   */\n      tag_91\n      jump\t// in\n    tag_145:\n        /* \"#utility.yul\":3558:3632   */\n      swap2\n      pop\n        /* \"#utility.yul\":3641:3734   */\n      tag_146\n        /* \"#utility.yul\":3730:3733   */\n      dup3\n        /* \"#utility.yul\":3641:3734   */\n      tag_92\n      jump\t// in\n    tag_146:\n        /* \"#utility.yul\":3759:3761   */\n      0x20\n        /* \"#utility.yul\":3754:3757   */\n      dup3\n        /* \"#utility.yul\":3750:3762   */\n      add\n        /* \"#utility.yul\":3743:3762   */\n      swap1\n      pop\n        /* \"#utility.yul\":3402:3768   */\n      swap2\n      swap1\n      pop\n      jump\t// out\n        /* \"#utility.yul\":3774:4193   */\n    tag_37:\n        /* \"#utility.yul\":3940:3944   */\n      0x00\n        /* \"#utility.yul\":3978:3980   */\n      0x20\n        /* \"#utility.yul\":3967:3976   */\n      dup3\n        /* \"#utility.yul\":3963:3981   */\n      add\n        /* \"#utility.yul\":3955:3981   */\n      swap1\n      pop\n        /* \"#utility.yul\":4027:4036   */\n      dup2\n        /* \"#utility.yul\":4021:4025   */\n      dup2\n        /* \"#utility.yul\":4017:4037   */\n      sub\n        /* \"#utility.yul\":4013:4014   */\n      0x00\n        /* \"#utility.yul\":4002:4011   */\n      dup4\n        /* \"#utility.yul\":3998:4015   */\n      add\n        /* \"#utility.yul\":3991:4038   */\n      mstore\n        /* \"#utility.yul\":4055:4186   */\n      tag_148\n        /* \"#utility.yul\":4181:4185   */\n      dup2\n        /* \"#utility.yul\":4055:4186   */\n      tag_93\n      jump\t// in\n    tag_148:\n        /* \"#utility.yul\":4047:4186   */\n      swap1\n      pop\n        /* \"#utility.yul\":3774:4193   */\n      swap2\n      swap1\n      pop\n      jump\t// out\n        /* \"#utility.yul\":4199:4427   */\n    tag_94:\n        /* \"#utility.yul\":4339:4373   */\n      0x546f6b656e7320616d6f756e742073686f756c64206265206772656174657220\n        /* \"#utility.yul\":4335:4336   */\n      0x00\n        /* \"#utility.yul\":4327:4333   */\n      dup3\n        /* \"#utility.yul\":4323:4337   */\n      add\n        /* \"#utility.yul\":4316:4374   */\n      mstore\n        /* \"#utility.yul\":4408:4419   */\n      0x7468616e207a65726f0000000000000000000000000000000000000000000000\n        /* \"#utility.yul\":4403:4405   */\n      0x20\n        /* \"#utility.yul\":4395:4401   */\n      dup3\n        /* \"#utility.yul\":4391:4406   */\n      add\n        /* \"#utility.yul\":4384:4420   */\n      mstore\n        /* \"#utility.yul\":4199:4427   */\n      pop\n      jump\t// out\n        /* \"#utility.yul\":4433:4799   */\n    tag_95:\n        /* \"#utility.yul\":4575:4578   */\n      0x00\n        /* \"#utility.yul\":4596:4663   */\n      tag_151\n        /* \"#utility.yul\":4660:4662   */\n      0x29\n        /* \"#utility.yul\":4655:4658   */\n      dup4\n        /* \"#utility.yul\":4596:4663   */\n      tag_91\n      jump\t// in\n    tag_151:\n        /* \"#utility.yul\":4589:4663   */\n      swap2\n      pop\n        /* \"#utility.yul\":4672:4765   */\n      tag_152\n        /* \"#utility.yul\":4761:4764   */\n      dup3\n        /* \"#utility.yul\":4672:4765   */\n      tag_94\n      jump\t// in\n    tag_152:\n        /* \"#utility.yul\":4790:4792   */\n      0x40\n        /* \"#utility.yul\":4785:4788   */\n      dup3\n        /* \"#utility.yul\":4781:4793   */\n      add\n        /* \"#utility.yul\":4774:4793   */\n      swap1\n      pop\n        /* \"#utility.yul\":4433:4799   */\n      swap2\n      swap1\n      pop\n      jump\t// out\n        /* \"#utility.yul\":4805:5224   */\n    tag_40:\n        /* \"#utility.yul\":4971:4975   */\n      0x00\n        /* \"#utility.yul\":5009:5011   */\n      0x20\n        /* \"#utility.yul\":4998:5007   */\n      dup3\n        /* \"#utility.yul\":4994:5012   */\n      add\n        /* \"#utility.yul\":4986:5012   */\n      swap1\n      pop\n        /* \"#utility.yul\":5058:5067   */\n      dup2\n        /* \"#utility.yul\":5052:5056   */\n      dup2\n        /* \"#utility.yul\":5048:5068   */\n      sub\n        /* \"#utility.yul\":5044:5045   */\n      0x00\n        /* \"#utility.yul\":5033:5042   */\n      dup4\n        /* \"#utility.yul\":5029:5046   */\n      add\n        /* \"#utility.yul\":5022:5069   */\n      mstore\n        /* \"#utility.yul\":5086:5217   */\n      tag_154\n        /* \"#utility.yul\":5212:5216   */\n      dup2\n        /* \"#utility.yul\":5086:5217   */\n      tag_95\n      jump\t// in\n    tag_154:\n        /* \"#utility.yul\":5078:5217   */\n      swap1\n      pop\n        /* \"#utility.yul\":4805:5224   */\n      swap2\n      swap1\n      pop\n      jump\t// out\n        /* \"#utility.yul\":5230:5410   */\n    tag_96:\n        /* \"#utility.yul\":5278:5355   */\n      0x4e487b7100000000000000000000000000000000000000000000000000000000\n        /* \"#utility.yul\":5275:5276   */\n      0x00\n        /* \"#utility.yul\":5268:5356   */\n      mstore\n        /* \"#utility.yul\":5375:5379   */\n      0x11\n        /* \"#utility.yul\":5372:5373   */\n      0x04\n        /* \"#utility.yul\":5365:5380   */\n      mstore\n        /* \"#utility.yul\":5399:5403   */\n      0x24\n        /* \"#utility.yul\":5396:5397   */\n      0x00\n        /* \"#utility.yul\":5389:5404   */\n      revert\n        /* \"#utility.yul\":5416:5826   */\n    tag_42:\n        /* \"#utility.yul\":5456:5463   */\n      0x00\n        /* \"#utility.yul\":5479:5499   */\n      tag_157\n        /* \"#utility.yul\":5497:5498   */\n      dup3\n        /* \"#utility.yul\":5479:5499   */\n      tag_86\n      jump\t// in\n    tag_157:\n        /* \"#utility.yul\":5474:5499   */\n      swap2\n      pop\n        /* \"#utility.yul\":5513:5533   */\n      tag_158\n        /* \"#utility.yul\":5531:5532   */\n      dup4\n        /* \"#utility.yul\":5513:5533   */\n      tag_86\n      jump\t// in\n    tag_158:\n        /* \"#utility.yul\":5508:5533   */\n      swap3\n      pop\n        /* \"#utility.yul\":5568:5569   */\n      dup3\n        /* \"#utility.yul\":5565:5566   */\n      dup3\n        /* \"#utility.yul\":5561:5570   */\n      mul\n        /* \"#utility.yul\":5590:5620   */\n      tag_159\n        /* \"#utility.yul\":5608:5619   */\n      dup2\n        /* \"#utility.yul\":5590:5620   */\n      tag_86\n      jump\t// in\n    tag_159:\n        /* \"#utility.yul\":5579:5620   */\n      swap2\n      pop\n        /* \"#utility.yul\":5769:5770   */\n      dup3\n        /* \"#utility.yul\":5760:5767   */\n      dup3\n        /* \"#utility.yul\":5756:5771   */\n      div\n        /* \"#utility.yul\":5753:5754   */\n      dup5\n        /* \"#utility.yul\":5750:5772   */\n      eq\n        /* \"#utility.yul\":5730:5731   */\n      dup4\n        /* \"#utility.yul\":5723:5732   */\n      iszero\n        /* \"#utility.yul\":5703:5786   */\n      or\n        /* \"#utility.yul\":5680:5819   */\n      tag_160\n      jumpi\n        /* \"#utility.yul\":5799:5817   */\n      tag_161\n      tag_96\n      jump\t// in\n    tag_161:\n        /* \"#utility.yul\":5680:5819   */\n    tag_160:\n        /* \"#utility.yul\":5464:5826   */\n      pop\n        /* \"#utility.yul\":5416:5826   */\n      swap3\n      swap2\n      pop\n      pop\n      jump\t// out\n        /* \"#utility.yul\":5832:6164   */\n    tag_44:\n        /* \"#utility.yul\":5953:5957   */\n      0x00\n        /* \"#utility.yul\":5991:5993   */\n      0x40\n        /* \"#utility.yul\":5980:5989   */\n      dup3\n        /* \"#utility.yul\":5976:5994   */\n      add\n        /* \"#utility.yul\":5968:5994   */\n      swap1\n      pop\n        /* \"#utility.yul\":6004:6075   */\n      tag_163\n        /* \"#utility.yul\":6072:6073   */\n      0x00\n        /* \"#utility.yul\":6061:6070   */\n      dup4\n        /* \"#utility.yul\":6057:6074   */\n      add\n        /* \"#utility.yul\":6048:6054   */\n      dup6\n        /* \"#utility.yul\":6004:6075   */\n      tag_90\n      jump\t// in\n    tag_163:\n        /* \"#utility.yul\":6085:6157   */\n      tag_164\n        /* \"#utility.yul\":6153:6155   */\n      0x20\n        /* \"#utility.yul\":6142:6151   */\n      dup4\n        /* \"#utility.yul\":6138:6156   */\n      add\n        /* \"#utility.yul\":6129:6135   */\n      dup5\n        /* \"#utility.yul\":6085:6157   */\n      tag_89\n      jump\t// in\n    tag_164:\n        /* \"#utility.yul\":5832:6164   */\n      swap4\n      swap3\n      pop\n      pop\n      pop\n      jump\t// out\n        /* \"#utility.yul\":6170:6502   */\n    tag_49:\n        /* \"#utility.yul\":6291:6295   */\n      0x00\n        /* \"#utility.yul\":6329:6331   */\n      0x40\n        /* \"#utility.yul\":6318:6327   */\n      dup3\n        /* \"#utility.yul\":6314:6332   */\n      add\n        /* \"#utility.yul\":6306:6332   */\n      swap1\n      pop\n        /* \"#utility.yul\":6342:6413   */\n      tag_166\n        /* \"#utility.yul\":6410:6411   */\n      0x00\n        /* \"#utility.yul\":6399:6408   */\n      dup4\n        /* \"#utility.yul\":6395:6412   */\n      add\n        /* \"#utility.yul\":6386:6392   */\n      dup6\n        /* \"#utility.yul\":6342:6413   */\n      tag_89\n      jump\t// in\n    tag_166:\n        /* \"#utility.yul\":6423:6495   */\n      tag_167\n        /* \"#utility.yul\":6491:6493   */\n      0x20\n        /* \"#utility.yul\":6480:6489   */\n      dup4\n        /* \"#utility.yul\":6476:6494   */\n      add\n        /* \"#utility.yul\":6467:6473   */\n      dup5\n        /* \"#utility.yul\":6423:6495   */\n      tag_89\n      jump\t// in\n    tag_167:\n        /* \"#utility.yul\":6170:6502   */\n      swap4\n      swap3\n      pop\n      pop\n      pop\n      jump\t// out\n        /* \"#utility.yul\":6508:6738   */\n    tag_97:\n        /* \"#utility.yul\":6648:6682   */\n      0x436f6e76657273696f6e20726174652073686f756c6420626520677265617465\n        /* \"#utility.yul\":6644:6645   */\n      0x00\n        /* \"#utility.yul\":6636:6642   */\n      dup3\n        /* \"#utility.yul\":6632:6646   */\n      add\n        /* \"#utility.yul\":6625:6683   */\n      mstore\n        /* \"#utility.yul\":6717:6730   */\n      0x72207468616e207a65726f000000000000000000000000000000000000000000\n        /* \"#utility.yul\":6712:6714   */\n      0x20\n        /* \"#utility.yul\":6704:6710   */\n      dup3\n        /* \"#utility.yul\":6700:6715   */\n      add\n        /* \"#utility.yul\":6693:6731   */\n      mstore\n        /* \"#utility.yul\":6508:6738   */\n      pop\n      jump\t// out\n        /* \"#utility.yul\":6744:7110   */\n    tag_98:\n        /* \"#utility.yul\":6886:6889   */\n      0x00\n        /* \"#utility.yul\":6907:6974   */\n      tag_170\n        /* \"#utility.yul\":6971:6973   */\n      0x2b\n        /* \"#utility.yul\":6966:6969   */\n      dup4\n        /* \"#utility.yul\":6907:6974   */\n      tag_91\n      jump\t// in\n    tag_170:\n        /* \"#utility.yul\":6900:6974   */\n      swap2\n      pop\n        /* \"#utility.yul\":6983:7076   */\n      tag_171\n        /* \"#utility.yul\":7072:7075   */\n      dup3\n        /* \"#utility.yul\":6983:7076   */\n      tag_97\n      jump\t// in\n    tag_171:\n        /* \"#utility.yul\":7101:7103   */\n      0x40\n        /* \"#utility.yul\":7096:7099   */\n      dup3\n        /* \"#utility.yul\":7092:7104   */\n      add\n        /* \"#utility.yul\":7085:7104   */\n      swap1\n      pop\n        /* \"#utility.yul\":6744:7110   */\n      swap2\n      swap1\n      pop\n      jump\t// out\n        /* \"#utility.yul\":7116:7535   */\n    tag_60:\n        /* \"#utility.yul\":7282:7286   */\n      0x00\n        /* \"#utility.yul\":7320:7322   */\n      0x20\n        /* \"#utility.yul\":7309:7318   */\n      dup3\n        /* \"#utility.yul\":7305:7323   */\n      add\n        /* \"#utility.yul\":7297:7323   */\n      swap1\n      pop\n        /* \"#utility.yul\":7369:7378   */\n      dup2\n        /* \"#utility.yul\":7363:7367   */\n      dup2\n        /* \"#utility.yul\":7359:7379   */\n      sub\n        /* \"#utility.yul\":7355:7356   */\n      0x00\n        /* \"#utility.yul\":7344:7353   */\n      dup4\n        /* \"#utility.yul\":7340:7357   */\n      add\n        /* \"#utility.yul\":7333:7380   */\n      mstore\n        /* \"#utility.yul\":7397:7528   */\n      tag_173\n        /* \"#utility.yul\":7523:7527   */\n      dup2\n        /* \"#utility.yul\":7397:7528   */\n      tag_98\n      jump\t// in\n    tag_173:\n        /* \"#utility.yul\":7389:7528   */\n      swap1\n      pop\n        /* \"#utility.yul\":7116:7535   */\n      swap2\n      swap1\n      pop\n      jump\t// out\n        /* \"#utility.yul\":7541:7766   */\n    tag_99:\n        /* \"#utility.yul\":7681:7715   */\n      0x4f776e61626c653a206e6577206f776e657220697320746865207a65726f2061\n        /* \"#utility.yul\":7677:7678   */\n      0x00\n        /* \"#utility.yul\":7669:7675   */\n      dup3\n        /* \"#utility.yul\":7665:7679   */\n      add\n        /* \"#utility.yul\":7658:7716   */\n      mstore\n        /* \"#utility.yul\":7750:7758   */\n      0x6464726573730000000000000000000000000000000000000000000000000000\n        /* \"#utility.yul\":7745:7747   */\n      0x20\n        /* \"#utility.yul\":7737:7743   */\n      dup3\n        /* \"#utility.yul\":7733:7748   */\n      add\n        /* \"#utility.yul\":7726:7759   */\n      mstore\n        /* \"#utility.yul\":7541:7766   */\n      pop\n      jump\t// out\n        /* \"#utility.yul\":7772:8138   */\n    tag_100:\n        /* \"#utility.yul\":7914:7917   */\n      0x00\n        /* \"#utility.yul\":7935:8002   */\n      tag_176\n        /* \"#utility.yul\":7999:8001   */\n      0x26\n        /* \"#utility.yul\":7994:7997   */\n      dup4\n        /* \"#utility.yul\":7935:8002   */\n      tag_91\n      jump\t// in\n    tag_176:\n        /* \"#utility.yul\":7928:8002   */\n      swap2\n      pop\n        /* \"#utility.yul\":8011:8104   */\n      tag_177\n        /* \"#utility.yul\":8100:8103   */\n      dup3\n        /* \"#utility.yul\":8011:8104   */\n      tag_99\n      jump\t// in\n    tag_177:\n        /* \"#utility.yul\":8129:8131   */\n      0x40\n        /* \"#utility.yul\":8124:8127   */\n      dup3\n        /* \"#utility.yul\":8120:8132   */\n      add\n        /* \"#utility.yul\":8113:8132   */\n      swap1\n      pop\n        /* \"#utility.yul\":7772:8138   */\n      swap2\n      swap1\n      pop\n      jump\t// out\n        /* \"#utility.yul\":8144:8563   */\n    tag_68:\n        /* \"#utility.yul\":8310:8314   */\n      0x00\n        /* \"#utility.yul\":8348:8350   */\n      0x20\n        /* \"#utility.yul\":8337:8346   */\n      dup3\n        /* \"#utility.yul\":8333:8351   */\n      add\n        /* \"#utility.yul\":8325:8351   */\n      swap1\n      pop\n        /* \"#utility.yul\":8397:8406   */\n      dup2\n        /* \"#utility.yul\":8391:8395   */\n      dup2\n        /* \"#utility.yul\":8387:8407   */\n      sub\n        /* \"#utility.yul\":8383:8384   */\n      0x00\n        /* \"#utility.yul\":8372:8381   */\n      dup4\n        /* \"#utility.yul\":8368:8385   */\n      add\n        /* \"#utility.yul\":8361:8408   */\n      mstore\n        /* \"#utility.yul\":8425:8556   */\n      tag_179\n        /* \"#utility.yul\":8551:8555   */\n      dup2\n        /* \"#utility.yul\":8425:8556   */\n      tag_100\n      jump\t// in\n    tag_179:\n        /* \"#utility.yul\":8417:8556   */\n      swap1\n      pop\n        /* \"#utility.yul\":8144:8563   */\n      swap2\n      swap1\n      pop\n      jump\t// out\n        /* \"#utility.yul\":8569:8751   */\n    tag_101:\n        /* \"#utility.yul\":8709:8743   */\n      0x4f776e61626c653a2063616c6c6572206973206e6f7420746865206f776e6572\n        /* \"#utility.yul\":8705:8706   */\n      0x00\n        /* \"#utility.yul\":8697:8703   */\n      dup3\n        /* \"#utility.yul\":8693:8707   */\n      add\n        /* \"#utility.yul\":8686:8744   */\n      mstore\n        /* \"#utility.yul\":8569:8751   */\n      pop\n      jump\t// out\n        /* \"#utility.yul\":8757:9123   */\n    tag_102:\n        /* \"#utility.yul\":8899:8902   */\n      0x00\n        /* \"#utility.yul\":8920:8987   */\n      tag_182\n        /* \"#utility.yul\":8984:8986   */\n      0x20\n        /* \"#utility.yul\":8979:8982   */\n      dup4\n        /* \"#utility.yul\":8920:8987   */\n      tag_91\n      jump\t// in\n    tag_182:\n        /* \"#utility.yul\":8913:8987   */\n      swap2\n      pop\n        /* \"#utility.yul\":8996:9089   */\n      tag_183\n        /* \"#utility.yul\":9085:9088   */\n      dup3\n        /* \"#utility.yul\":8996:9089   */\n      tag_101\n      jump\t// in\n    tag_183:\n        /* \"#utility.yul\":9114:9116   */\n      0x20\n        /* \"#utility.yul\":9109:9112   */\n      dup3\n        /* \"#utility.yul\":9105:9117   */\n      add\n        /* \"#utility.yul\":9098:9117   */\n      swap1\n      pop\n        /* \"#utility.yul\":8757:9123   */\n      swap2\n      swap1\n      pop\n      jump\t// out\n        /* \"#utility.yul\":9129:9548   */\n    tag_76:\n        /* \"#utility.yul\":9295:9299   */\n      0x00\n        /* \"#utility.yul\":9333:9335   */\n      0x20\n        /* \"#utility.yul\":9322:9331   */\n      dup3\n        /* \"#utility.yul\":9318:9336   */\n      add\n        /* \"#utility.yul\":9310:9336   */\n      swap1\n      pop\n        /* \"#utility.yul\":9382:9391   */\n      dup2\n        /* \"#utility.yul\":9376:9380   */\n      dup2\n        /* \"#utility.yul\":9372:9392   */\n      sub\n        /* \"#utility.yul\":9368:9369   */\n      0x00\n        /* \"#utility.yul\":9357:9366   */\n      dup4\n        /* \"#utility.yul\":9353:9370   */\n      add\n        /* \"#utility.yul\":9346:9393   */\n      mstore\n        /* \"#utility.yul\":9410:9541   */\n      tag_185\n        /* \"#utility.yul\":9536:9540   */\n      dup2\n        /* \"#utility.yul\":9410:9541   */\n      tag_102\n      jump\t// in\n    tag_185:\n        /* \"#utility.yul\":9402:9541   */\n      swap1\n      pop\n        /* \"#utility.yul\":9129:9548   */\n      swap2\n      swap1\n      pop\n      jump\t// out\n\n    auxdata: 0xa26469706673582212201e2e9e5919fdef39a43f13caf9834674da72b21d667a4ebb30ba0ef46d45332f64736f6c63430008120033\n}\n",
				"bytecode": {
					"linkReferences": {},
					"object": "60806040523480156200001157600080fd5b5060405162000cda38038062000cda833981810160405281019062000037919062000218565b620000576200004b620000a760201b60201c565b620000af60201b60201c565b81600160006101000a81548173ffffffffffffffffffffffffffffffffffffffff021916908373ffffffffffffffffffffffffffffffffffffffff1602179055508060028190555050506200025f565b600033905090565b60008060009054906101000a900473ffffffffffffffffffffffffffffffffffffffff169050816000806101000a81548173ffffffffffffffffffffffffffffffffffffffff021916908373ffffffffffffffffffffffffffffffffffffffff1602179055508173ffffffffffffffffffffffffffffffffffffffff168173ffffffffffffffffffffffffffffffffffffffff167f8be0079c531659141344cd1fd0a4f28419497f9722a3daafe3b4186f6b6457e060405160405180910390a35050565b600080fd5b600073ffffffffffffffffffffffffffffffffffffffff82169050919050565b6000620001a58262000178565b9050919050565b620001b78162000198565b8114620001c357600080fd5b50565b600081519050620001d781620001ac565b92915050565b6000819050919050565b620001f281620001dd565b8114620001fe57600080fd5b50565b6000815190506200021281620001e7565b92915050565b6000806040838503121562000232576200023162000173565b5b60006200024285828601620001c6565b9250506020620002558582860162000201565b9150509250929050565b610a6b806200026f6000396000f3fe608060405234801561001057600080fd5b50600436106100625760003560e01c80631dc387f114610067578063715018a6146100835780637ffdf53e1461008d57806387fcdbc1146100ab5780638da5cb5b146100c7578063f2fde38b146100e5575b600080fd5b610081600480360381019061007c91906105e5565b610101565b005b61008b6102b1565b005b6100956102c5565b6040516100a29190610634565b60405180910390f35b6100c560048036038101906100c0919061064f565b6102cb565b005b6100cf610356565b6040516100dc919061068b565b60405180910390f35b6100ff60048036038101906100fa91906106a6565b61037f565b005b610109610402565b600073ffffffffffffffffffffffffffffffffffffffff168273ffffffffffffffffffffffffffffffffffffffff1603610178576040517f08c379a000000000000000000000000000000000000000000000000000000000815260040161016f90610730565b60405180910390fd5b600081116101bb576040517f08c379a00000000000000000000000000000000000000000000000000000000081526004016101b2906107c2565b60405180910390fd5b6000600254826101cb9190610811565b9050600160009054906101000a900473ffffffffffffffffffffffffffffffffffffffff1673ffffffffffffffffffffffffffffffffffffffff1663d909d5e384836040518363ffffffff1660e01b815260040161022a929190610853565b600060405180830381600087803b15801561024457600080fd5b505af1158015610258573d6000803e3d6000fd5b505050508273ffffffffffffffffffffffffffffffffffffffff167f8129f7128f965c7aab0e1547e6a8103773c3c1eb652d930f9ef3741f011ce73583836040516102a492919061087c565b60405180910390a2505050565b6102b9610402565b6102c36000610480565b565b60025481565b6102d3610402565b60008111610316576040517f08c379a000000000000000000000000000000000000000000000000000000000815260040161030d90610917565b60405180910390fd5b806002819055507eb22dee8d85ff5215d4c68cdb3f5864f9e51f23b5c76363187afaacab3906e78160405161034b9190610634565b60405180910390a150565b60008060009054906101000a900473ffffffffffffffffffffffffffffffffffffffff16905090565b610387610402565b600073ffffffffffffffffffffffffffffffffffffffff168173ffffffffffffffffffffffffffffffffffffffff16036103f6576040517f08c379a00000000000000000000000000000000000000000000000000000000081526004016103ed906109a9565b60405180910390fd5b6103ff81610480565b50565b61040a610544565b73ffffffffffffffffffffffffffffffffffffffff16610428610356565b73ffffffffffffffffffffffffffffffffffffffff161461047e576040517f08c379a000000000000000000000000000000000000000000000000000000000815260040161047590610a15565b60405180910390fd5b565b60008060009054906101000a900473ffffffffffffffffffffffffffffffffffffffff169050816000806101000a81548173ffffffffffffffffffffffffffffffffffffffff021916908373ffffffffffffffffffffffffffffffffffffffff1602179055508173ffffffffffffffffffffffffffffffffffffffff168173ffffffffffffffffffffffffffffffffffffffff167f8be0079c531659141344cd1fd0a4f28419497f9722a3daafe3b4186f6b6457e060405160405180910390a35050565b600033905090565b600080fd5b600073ffffffffffffffffffffffffffffffffffffffff82169050919050565b600061057c82610551565b9050919050565b61058c81610571565b811461059757600080fd5b50565b6000813590506105a981610583565b92915050565b6000819050919050565b6105c2816105af565b81146105cd57600080fd5b50565b6000813590506105df816105b9565b92915050565b600080604083850312156105fc576105fb61054c565b5b600061060a8582860161059a565b925050602061061b858286016105d0565b9150509250929050565b61062e816105af565b82525050565b60006020820190506106496000830184610625565b92915050565b6000602082840312156106655761066461054c565b5b6000610673848285016105d0565b91505092915050565b61068581610571565b82525050565b60006020820190506106a0600083018461067c565b92915050565b6000602082840312156106bc576106bb61054c565b5b60006106ca8482850161059a565b91505092915050565b600082825260208201905092915050565b7f496e76616c696420757365722061646472657373000000000000000000000000600082015250565b600061071a6014836106d3565b9150610725826106e4565b602082019050919050565b600060208201905081810360008301526107498161070d565b9050919050565b7f546f6b656e7320616d6f756e742073686f756c6420626520677265617465722060008201527f7468616e207a65726f0000000000000000000000000000000000000000000000602082015250565b60006107ac6029836106d3565b91506107b782610750565b604082019050919050565b600060208201905081810360008301526107db8161079f565b9050919050565b7f4e487b7100000000000000000000000000000000000000000000000000000000600052601160045260246000fd5b600061081c826105af565b9150610827836105af565b9250828202610835816105af565b9150828204841483151761084c5761084b6107e2565b5b5092915050565b6000604082019050610868600083018561067c565b6108756020830184610625565b9392505050565b60006040820190506108916000830185610625565b61089e6020830184610625565b9392505050565b7f436f6e76657273696f6e20726174652073686f756c642062652067726561746560008201527f72207468616e207a65726f000000000000000000000000000000000000000000602082015250565b6000610901602b836106d3565b915061090c826108a5565b604082019050919050565b60006020820190508181036000830152610930816108f4565b9050919050565b7f4f776e61626c653a206e6577206f776e657220697320746865207a65726f206160008201527f6464726573730000000000000000000000000000000000000000000000000000602082015250565b60006109936026836106d3565b915061099e82610937565b604082019050919050565b600060208201905081810360008301526109c281610986565b9050919050565b7f4f776e61626c653a2063616c6c6572206973206e6f7420746865206f776e6572600082015250565b60006109ff6020836106d3565b9150610a0a826109c9565b602082019050919050565b60006020820190508181036000830152610a2e816109f2565b905091905056fea26469706673582212201e2e9e5919fdef39a43f13caf9834674da72b21d667a4ebb30ba0ef46d45332f64736f6c63430008120033",
					"opcodes": "PUSH1 0x80 PUSH1 0x40 MSTORE CALLVALUE DUP1 ISZERO PUSH3 0x11 JUMPI PUSH1 0x0 DUP1 REVERT JUMPDEST POP PUSH1 0x40 MLOAD PUSH3 0xCDA CODESIZE SUB DUP1 PUSH3 0xCDA DUP4 CODECOPY DUP2 DUP2 ADD PUSH1 0x40 MSTORE DUP2 ADD SWAP1 PUSH3 0x37 SWAP2 SWAP1 PUSH3 0x218 JUMP JUMPDEST PUSH3 0x57 PUSH3 0x4B PUSH3 0xA7 PUSH1 0x20 SHL PUSH1 0x20 SHR JUMP JUMPDEST PUSH3 0xAF PUSH1 0x20 SHL PUSH1 0x20 SHR JUMP JUMPDEST DUP2 PUSH1 0x1 PUSH1 0x0 PUSH2 0x100 EXP DUP2 SLOAD DUP2 PUSH20 0xFFFFFFFFFFFFFFFFFFFFFFFFFFFFFFFFFFFFFFFF MUL NOT AND SWAP1 DUP4 PUSH20 0xFFFFFFFFFFFFFFFFFFFFFFFFFFFFFFFFFFFFFFFF AND MUL OR SWAP1 SSTORE POP DUP1 PUSH1 0x2 DUP2 SWAP1 SSTORE POP POP POP PUSH3 0x25F JUMP JUMPDEST PUSH1 0x0 CALLER SWAP1 POP SWAP1 JUMP JUMPDEST PUSH1 0x0 DUP1 PUSH1 0x0 SWAP1 SLOAD SWAP1 PUSH2 0x100 EXP SWAP1 DIV PUSH20 0xFFFFFFFFFFFFFFFFFFFFFFFFFFFFFFFFFFFFFFFF AND SWAP1 POP DUP2 PUSH1 0x0 DUP1 PUSH2 0x100 EXP DUP2 SLOAD DUP2 PUSH20 0xFFFFFFFFFFFFFFFFFFFFFFFFFFFFFFFFFFFFFFFF MUL NOT AND SWAP1 DUP4 PUSH20 0xFFFFFFFFFFFFFFFFFFFFFFFFFFFFFFFFFFFFFFFF AND MUL OR SWAP1 SSTORE POP DUP2 PUSH20 0xFFFFFFFFFFFFFFFFFFFFFFFFFFFFFFFFFFFFFFFF AND DUP2 PUSH20 0xFFFFFFFFFFFFFFFFFFFFFFFFFFFFFFFFFFFFFFFF AND PUSH32 0x8BE0079C531659141344CD1FD0A4F28419497F9722A3DAAFE3B4186F6B6457E0 PUSH1 0x40 MLOAD PUSH1 0x40 MLOAD DUP1 SWAP2 SUB SWAP1 LOG3 POP POP JUMP JUMPDEST PUSH1 0x0 DUP1 REVERT JUMPDEST PUSH1 0x0 PUSH20 0xFFFFFFFFFFFFFFFFFFFFFFFFFFFFFFFFFFFFFFFF DUP3 AND SWAP1 POP SWAP2 SWAP1 POP JUMP JUMPDEST PUSH1 0x0 PUSH3 0x1A5 DUP3 PUSH3 0x178 JUMP JUMPDEST SWAP1 POP SWAP2 SWAP1 POP JUMP JUMPDEST PUSH3 0x1B7 DUP2 PUSH3 0x198 JUMP JUMPDEST DUP2 EQ PUSH3 0x1C3 JUMPI PUSH1 0x0 DUP1 REVERT JUMPDEST POP JUMP JUMPDEST PUSH1 0x0 DUP2 MLOAD SWAP1 POP PUSH3 0x1D7 DUP2 PUSH3 0x1AC JUMP JUMPDEST SWAP3 SWAP2 POP POP JUMP JUMPDEST PUSH1 0x0 DUP2 SWAP1 POP SWAP2 SWAP1 POP JUMP JUMPDEST PUSH3 0x1F2 DUP2 PUSH3 0x1DD JUMP JUMPDEST DUP2 EQ PUSH3 0x1FE JUMPI PUSH1 0x0 DUP1 REVERT JUMPDEST POP JUMP JUMPDEST PUSH1 0x0 DUP2 MLOAD SWAP1 POP PUSH3 0x212 DUP2 PUSH3 0x1E7 JUMP JUMPDEST SWAP3 SWAP2 POP POP JUMP JUMPDEST PUSH1 0x0 DUP1 PUSH1 0x40 DUP4 DUP6 SUB SLT ISZERO PUSH3 0x232 JUMPI PUSH3 0x231 PUSH3 0x173 JUMP JUMPDEST JUMPDEST PUSH1 0x0 PUSH3 0x242 DUP6 DUP3 DUP7 ADD PUSH3 0x1C6 JUMP JUMPDEST SWAP3 POP POP PUSH1 0x20 PUSH3 0x255 DUP6 DUP3 DUP7 ADD PUSH3 0x201 JUMP JUMPDEST SWAP2 POP POP SWAP3 POP SWAP3 SWAP1 POP JUMP JUMPDEST PUSH2 0xA6B DUP1 PUSH3 0x26F PUSH1 0x0 CODECOPY PUSH1 0x0 RETURN INVALID PUSH1 0x80 PUSH1 0x40 MSTORE CALLVALUE DUP1 ISZERO PUSH2 0x10 JUMPI PUSH1 0x0 DUP1 REVERT JUMPDEST POP PUSH1 0x4 CALLDATASIZE LT PUSH2 0x62 JUMPI PUSH1 0x0 CALLDATALOAD PUSH1 0xE0 SHR DUP1 PUSH4 0x1DC387F1 EQ PUSH2 0x67 JUMPI DUP1 PUSH4 0x715018A6 EQ PUSH2 0x83 JUMPI DUP1 PUSH4 0x7FFDF53E EQ PUSH2 0x8D JUMPI DUP1 PUSH4 0x87FCDBC1 EQ PUSH2 0xAB JUMPI DUP1 PUSH4 0x8DA5CB5B EQ PUSH2 0xC7 JUMPI DUP1 PUSH4 0xF2FDE38B EQ PUSH2 0xE5 JUMPI JUMPDEST PUSH1 0x0 DUP1 REVERT JUMPDEST PUSH2 0x81 PUSH1 0x4 DUP1 CALLDATASIZE SUB DUP2 ADD SWAP1 PUSH2 0x7C SWAP2 SWAP1 PUSH2 0x5E5 JUMP JUMPDEST PUSH2 0x101 JUMP JUMPDEST STOP JUMPDEST PUSH2 0x8B PUSH2 0x2B1 JUMP JUMPDEST STOP JUMPDEST PUSH2 0x95 PUSH2 0x2C5 JUMP JUMPDEST PUSH1 0x40 MLOAD PUSH2 0xA2 SWAP2 SWAP1 PUSH2 0x634 JUMP JUMPDEST PUSH1 0x40 MLOAD DUP1 SWAP2 SUB SWAP1 RETURN JUMPDEST PUSH2 0xC5 PUSH1 0x4 DUP1 CALLDATASIZE SUB DUP2 ADD SWAP1 PUSH2 0xC0 SWAP2 SWAP1 PUSH2 0x64F JUMP JUMPDEST PUSH2 0x2CB JUMP JUMPDEST STOP JUMPDEST PUSH2 0xCF PUSH2 0x356 JUMP JUMPDEST PUSH1 0x40 MLOAD PUSH2 0xDC SWAP2 SWAP1 PUSH2 0x68B JUMP JUMPDEST PUSH1 0x40 MLOAD DUP1 SWAP2 SUB SWAP1 RETURN JUMPDEST PUSH2 0xFF PUSH1 0x4 DUP1 CALLDATASIZE SUB DUP2 ADD SWAP1 PUSH2 0xFA SWAP2 SWAP1 PUSH2 0x6A6 JUMP JUMPDEST PUSH2 0x37F JUMP JUMPDEST STOP JUMPDEST PUSH2 0x109 PUSH2 0x402 JUMP JUMPDEST PUSH1 0x0 PUSH20 0xFFFFFFFFFFFFFFFFFFFFFFFFFFFFFFFFFFFFFFFF AND DUP3 PUSH20 0xFFFFFFFFFFFFFFFFFFFFFFFFFFFFFFFFFFFFFFFF AND SUB PUSH2 0x178 JUMPI PUSH1 0x40 MLOAD PUSH32 0x8C379A000000000000000000000000000000000000000000000000000000000 DUP2 MSTORE PUSH1 0x4 ADD PUSH2 0x16F SWAP1 PUSH2 0x730 JUMP JUMPDEST PUSH1 0x40 MLOAD DUP1 SWAP2 SUB SWAP1 REVERT JUMPDEST PUSH1 0x0 DUP2 GT PUSH2 0x1BB JUMPI PUSH1 0x40 MLOAD PUSH32 0x8C379A000000000000000000000000000000000000000000000000000000000 DUP2 MSTORE PUSH1 0x4 ADD PUSH2 0x1B2 SWAP1 PUSH2 0x7C2 JUMP JUMPDEST PUSH1 0x40 MLOAD DUP1 SWAP2 SUB SWAP1 REVERT JUMPDEST PUSH1 0x0 PUSH1 0x2 SLOAD DUP3 PUSH2 0x1CB SWAP2 SWAP1 PUSH2 0x811 JUMP JUMPDEST SWAP1 POP PUSH1 0x1 PUSH1 0x0 SWAP1 SLOAD SWAP1 PUSH2 0x100 EXP SWAP1 DIV PUSH20 0xFFFFFFFFFFFFFFFFFFFFFFFFFFFFFFFFFFFFFFFF AND PUSH20 0xFFFFFFFFFFFFFFFFFFFFFFFFFFFFFFFFFFFFFFFF AND PUSH4 0xD909D5E3 DUP5 DUP4 PUSH1 0x40 MLOAD DUP4 PUSH4 0xFFFFFFFF AND PUSH1 0xE0 SHL DUP2 MSTORE PUSH1 0x4 ADD PUSH2 0x22A SWAP3 SWAP2 SWAP1 PUSH2 0x853 JUMP JUMPDEST PUSH1 0x0 PUSH1 0x40 MLOAD DUP1 DUP4 SUB DUP2 PUSH1 0x0 DUP8 DUP1 EXTCODESIZE ISZERO DUP1 ISZERO PUSH2 0x244 JUMPI PUSH1 0x0 DUP1 REVERT JUMPDEST POP GAS CALL ISZERO DUP1 ISZERO PUSH2 0x258 JUMPI RETURNDATASIZE PUSH1 0x0 DUP1 RETURNDATACOPY RETURNDATASIZE PUSH1 0x0 REVERT JUMPDEST POP POP POP POP DUP3 PUSH20 0xFFFFFFFFFFFFFFFFFFFFFFFFFFFFFFFFFFFFFFFF AND PUSH32 0x8129F7128F965C7AAB0E1547E6A8103773C3C1EB652D930F9EF3741F011CE735 DUP4 DUP4 PUSH1 0x40 MLOAD PUSH2 0x2A4 SWAP3 SWAP2 SWAP1 PUSH2 0x87C JUMP JUMPDEST PUSH1 0x40 MLOAD DUP1 SWAP2 SUB SWAP1 LOG2 POP POP POP JUMP JUMPDEST PUSH2 0x2B9 PUSH2 0x402 JUMP JUMPDEST PUSH2 0x2C3 PUSH1 0x0 PUSH2 0x480 JUMP JUMPDEST JUMP JUMPDEST PUSH1 0x2 SLOAD DUP2 JUMP JUMPDEST PUSH2 0x2D3 PUSH2 0x402 JUMP JUMPDEST PUSH1 0x0 DUP2 GT PUSH2 0x316 JUMPI PUSH1 0x40 MLOAD PUSH32 0x8C379A000000000000000000000000000000000000000000000000000000000 DUP2 MSTORE PUSH1 0x4 ADD PUSH2 0x30D SWAP1 PUSH2 0x917 JUMP JUMPDEST PUSH1 0x40 MLOAD DUP1 SWAP2 SUB SWAP1 REVERT JUMPDEST DUP1 PUSH1 0x2 DUP2 SWAP1 SSTORE POP PUSH31 0xB22DEE8D85FF5215D4C68CDB3F5864F9E51F23B5C76363187AFAACAB3906E7 DUP2 PUSH1 0x40 MLOAD PUSH2 0x34B SWAP2 SWAP1 PUSH2 0x634 JUMP JUMPDEST PUSH1 0x40 MLOAD DUP1 SWAP2 SUB SWAP1 LOG1 POP JUMP JUMPDEST PUSH1 0x0 DUP1 PUSH1 0x0 SWAP1 SLOAD SWAP1 PUSH2 0x100 EXP SWAP1 DIV PUSH20 0xFFFFFFFFFFFFFFFFFFFFFFFFFFFFFFFFFFFFFFFF AND SWAP1 POP SWAP1 JUMP JUMPDEST PUSH2 0x387 PUSH2 0x402 JUMP JUMPDEST PUSH1 0x0 PUSH20 0xFFFFFFFFFFFFFFFFFFFFFFFFFFFFFFFFFFFFFFFF AND DUP2 PUSH20 0xFFFFFFFFFFFFFFFFFFFFFFFFFFFFFFFFFFFFFFFF AND SUB PUSH2 0x3F6 JUMPI PUSH1 0x40 MLOAD PUSH32 0x8C379A000000000000000000000000000000000000000000000000000000000 DUP2 MSTORE PUSH1 0x4 ADD PUSH2 0x3ED SWAP1 PUSH2 0x9A9 JUMP JUMPDEST PUSH1 0x40 MLOAD DUP1 SWAP2 SUB SWAP1 REVERT JUMPDEST PUSH2 0x3FF DUP2 PUSH2 0x480 JUMP JUMPDEST POP JUMP JUMPDEST PUSH2 0x40A PUSH2 0x544 JUMP JUMPDEST PUSH20 0xFFFFFFFFFFFFFFFFFFFFFFFFFFFFFFFFFFFFFFFF AND PUSH2 0x428 PUSH2 0x356 JUMP JUMPDEST PUSH20 0xFFFFFFFFFFFFFFFFFFFFFFFFFFFFFFFFFFFFFFFF AND EQ PUSH2 0x47E JUMPI PUSH1 0x40 MLOAD PUSH32 0x8C379A000000000000000000000000000000000000000000000000000000000 DUP2 MSTORE PUSH1 0x4 ADD PUSH2 0x475 SWAP1 PUSH2 0xA15 JUMP JUMPDEST PUSH1 0x40 MLOAD DUP1 SWAP2 SUB SWAP1 REVERT JUMPDEST JUMP JUMPDEST PUSH1 0x0 DUP1 PUSH1 0x0 SWAP1 SLOAD SWAP1 PUSH2 0x100 EXP SWAP1 DIV PUSH20 0xFFFFFFFFFFFFFFFFFFFFFFFFFFFFFFFFFFFFFFFF AND SWAP1 POP DUP2 PUSH1 0x0 DUP1 PUSH2 0x100 EXP DUP2 SLOAD DUP2 PUSH20 0xFFFFFFFFFFFFFFFFFFFFFFFFFFFFFFFFFFFFFFFF MUL NOT AND SWAP1 DUP4 PUSH20 0xFFFFFFFFFFFFFFFFFFFFFFFFFFFFFFFFFFFFFFFF AND MUL OR SWAP1 SSTORE POP DUP2 PUSH20 0xFFFFFFFFFFFFFFFFFFFFFFFFFFFFFFFFFFFFFFFF AND DUP2 PUSH20 0xFFFFFFFFFFFFFFFFFFFFFFFFFFFFFFFFFFFFFFFF AND PUSH32 0x8BE0079C531659141344CD1FD0A4F28419497F9722A3DAAFE3B4186F6B6457E0 PUSH1 0x40 MLOAD PUSH1 0x40 MLOAD DUP1 SWAP2 SUB SWAP1 LOG3 POP POP JUMP JUMPDEST PUSH1 0x0 CALLER SWAP1 POP SWAP1 JUMP JUMPDEST PUSH1 0x0 DUP1 REVERT JUMPDEST PUSH1 0x0 PUSH20 0xFFFFFFFFFFFFFFFFFFFFFFFFFFFFFFFFFFFFFFFF DUP3 AND SWAP1 POP SWAP2 SWAP1 POP JUMP JUMPDEST PUSH1 0x0 PUSH2 0x57C DUP3 PUSH2 0x551 JUMP JUMPDEST SWAP1 POP SWAP2 SWAP1 POP JUMP JUMPDEST PUSH2 0x58C DUP2 PUSH2 0x571 JUMP JUMPDEST DUP2 EQ PUSH2 0x597 JUMPI PUSH1 0x0 DUP1 REVERT JUMPDEST POP JUMP JUMPDEST PUSH1 0x0 DUP2 CALLDATALOAD SWAP1 POP PUSH2 0x5A9 DUP2 PUSH2 0x583 JUMP JUMPDEST SWAP3 SWAP2 POP POP JUMP JUMPDEST PUSH1 0x0 DUP2 SWAP1 POP SWAP2 SWAP1 POP JUMP JUMPDEST PUSH2 0x5C2 DUP2 PUSH2 0x5AF JUMP JUMPDEST DUP2 EQ PUSH2 0x5CD JUMPI PUSH1 0x0 DUP1 REVERT JUMPDEST POP JUMP JUMPDEST PUSH1 0x0 DUP2 CALLDATALOAD SWAP1 POP PUSH2 0x5DF DUP2 PUSH2 0x5B9 JUMP JUMPDEST SWAP3 SWAP2 POP POP JUMP JUMPDEST PUSH1 0x0 DUP1 PUSH1 0x40 DUP4 DUP6 SUB SLT ISZERO PUSH2 0x5FC JUMPI PUSH2 0x5FB PUSH2 0x54C JUMP JUMPDEST JUMPDEST PUSH1 0x0 PUSH2 0x60A DUP6 DUP3 DUP7 ADD PUSH2 0x59A JUMP JUMPDEST SWAP3 POP POP PUSH1 0x20 PUSH2 0x61B DUP6 DUP3 DUP7 ADD PUSH2 0x5D0 JUMP JUMPDEST SWAP2 POP POP SWAP3 POP SWAP3 SWAP1 POP JUMP JUMPDEST PUSH2 0x62E DUP2 PUSH2 0x5AF JUMP JUMPDEST DUP3 MSTORE POP POP JUMP JUMPDEST PUSH1 0x0 PUSH1 0x20 DUP3 ADD SWAP1 POP PUSH2 0x649 PUSH1 0x0 DUP4 ADD DUP5 PUSH2 0x625 JUMP JUMPDEST SWAP3 SWAP2 POP POP JUMP JUMPDEST PUSH1 0x0 PUSH1 0x20 DUP3 DUP5 SUB SLT ISZERO PUSH2 0x665 JUMPI PUSH2 0x664 PUSH2 0x54C JUMP JUMPDEST JUMPDEST PUSH1 0x0 PUSH2 0x673 DUP5 DUP3 DUP6 ADD PUSH2 0x5D0 JUMP JUMPDEST SWAP2 POP POP SWAP3 SWAP2 POP POP JUMP JUMPDEST PUSH2 0x685 DUP2 PUSH2 0x571 JUMP JUMPDEST DUP3 MSTORE POP POP JUMP JUMPDEST PUSH1 0x0 PUSH1 0x20 DUP3 ADD SWAP1 POP PUSH2 0x6A0 PUSH1 0x0 DUP4 ADD DUP5 PUSH2 0x67C JUMP JUMPDEST SWAP3 SWAP2 POP POP JUMP JUMPDEST PUSH1 0x0 PUSH1 0x20 DUP3 DUP5 SUB SLT ISZERO PUSH2 0x6BC JUMPI PUSH2 0x6BB PUSH2 0x54C JUMP JUMPDEST JUMPDEST PUSH1 0x0 PUSH2 0x6CA DUP5 DUP3 DUP6 ADD PUSH2 0x59A JUMP JUMPDEST SWAP2 POP POP SWAP3 SWAP2 POP POP JUMP JUMPDEST PUSH1 0x0 DUP3 DUP3 MSTORE PUSH1 0x20 DUP3 ADD SWAP1 POP SWAP3 SWAP2 POP POP JUMP JUMPDEST PUSH32 0x496E76616C696420757365722061646472657373000000000000000000000000 PUSH1 0x0 DUP3 ADD MSTORE POP JUMP JUMPDEST PUSH1 0x0 PUSH2 0x71A PUSH1 0x14 DUP4 PUSH2 0x6D3 JUMP JUMPDEST SWAP2 POP PUSH2 0x725 DUP3 PUSH2 0x6E4 JUMP JUMPDEST PUSH1 0x20 DUP3 ADD SWAP1 POP SWAP2 SWAP1 POP JUMP JUMPDEST PUSH1 0x0 PUSH1 0x20 DUP3 ADD SWAP1 POP DUP2 DUP2 SUB PUSH1 0x0 DUP4 ADD MSTORE PUSH2 0x749 DUP2 PUSH2 0x70D JUMP JUMPDEST SWAP1 POP SWAP2 SWAP1 POP JUMP JUMPDEST PUSH32 0x546F6B656E7320616D6F756E742073686F756C64206265206772656174657220 PUSH1 0x0 DUP3 ADD MSTORE PUSH32 0x7468616E207A65726F0000000000000000000000000000000000000000000000 PUSH1 0x20 DUP3 ADD MSTORE POP JUMP JUMPDEST PUSH1 0x0 PUSH2 0x7AC PUSH1 0x29 DUP4 PUSH2 0x6D3 JUMP JUMPDEST SWAP2 POP PUSH2 0x7B7 DUP3 PUSH2 0x750 JUMP JUMPDEST PUSH1 0x40 DUP3 ADD SWAP1 POP SWAP2 SWAP1 POP JUMP JUMPDEST PUSH1 0x0 PUSH1 0x20 DUP3 ADD SWAP1 POP DUP2 DUP2 SUB PUSH1 0x0 DUP4 ADD MSTORE PUSH2 0x7DB DUP2 PUSH2 0x79F JUMP JUMPDEST SWAP1 POP SWAP2 SWAP1 POP JUMP JUMPDEST PUSH32 0x4E487B7100000000000000000000000000000000000000000000000000000000 PUSH1 0x0 MSTORE PUSH1 0x11 PUSH1 0x4 MSTORE PUSH1 0x24 PUSH1 0x0 REVERT JUMPDEST PUSH1 0x0 PUSH2 0x81C DUP3 PUSH2 0x5AF JUMP JUMPDEST SWAP2 POP PUSH2 0x827 DUP4 PUSH2 0x5AF JUMP JUMPDEST SWAP3 POP DUP3 DUP3 MUL PUSH2 0x835 DUP2 PUSH2 0x5AF JUMP JUMPDEST SWAP2 POP DUP3 DUP3 DIV DUP5 EQ DUP4 ISZERO OR PUSH2 0x84C JUMPI PUSH2 0x84B PUSH2 0x7E2 JUMP JUMPDEST JUMPDEST POP SWAP3 SWAP2 POP POP JUMP JUMPDEST PUSH1 0x0 PUSH1 0x40 DUP3 ADD SWAP1 POP PUSH2 0x868 PUSH1 0x0 DUP4 ADD DUP6 PUSH2 0x67C JUMP JUMPDEST PUSH2 0x875 PUSH1 0x20 DUP4 ADD DUP5 PUSH2 0x625 JUMP JUMPDEST SWAP4 SWAP3 POP POP POP JUMP JUMPDEST PUSH1 0x0 PUSH1 0x40 DUP3 ADD SWAP1 POP PUSH2 0x891 PUSH1 0x0 DUP4 ADD DUP6 PUSH2 0x625 JUMP JUMPDEST PUSH2 0x89E PUSH1 0x20 DUP4 ADD DUP5 PUSH2 0x625 JUMP JUMPDEST SWAP4 SWAP3 POP POP POP JUMP JUMPDEST PUSH32 0x436F6E76657273696F6E20726174652073686F756C6420626520677265617465 PUSH1 0x0 DUP3 ADD MSTORE PUSH32 0x72207468616E207A65726F000000000000000000000000000000000000000000 PUSH1 0x20 DUP3 ADD MSTORE POP JUMP JUMPDEST PUSH1 0x0 PUSH2 0x901 PUSH1 0x2B DUP4 PUSH2 0x6D3 JUMP JUMPDEST SWAP2 POP PUSH2 0x90C DUP3 PUSH2 0x8A5 JUMP JUMPDEST PUSH1 0x40 DUP3 ADD SWAP1 POP SWAP2 SWAP1 POP JUMP JUMPDEST PUSH1 0x0 PUSH1 0x20 DUP3 ADD SWAP1 POP DUP2 DUP2 SUB PUSH1 0x0 DUP4 ADD MSTORE PUSH2 0x930 DUP2 PUSH2 0x8F4 JUMP JUMPDEST SWAP1 POP SWAP2 SWAP1 POP JUMP JUMPDEST PUSH32 0x4F776E61626C653A206E6577206F776E657220697320746865207A65726F2061 PUSH1 0x0 DUP3 ADD MSTORE PUSH32 0x6464726573730000000000000000000000000000000000000000000000000000 PUSH1 0x20 DUP3 ADD MSTORE POP JUMP JUMPDEST PUSH1 0x0 PUSH2 0x993 PUSH1 0x26 DUP4 PUSH2 0x6D3 JUMP JUMPDEST SWAP2 POP PUSH2 0x99E DUP3 PUSH2 0x937 JUMP JUMPDEST PUSH1 0x40 DUP3 ADD SWAP1 POP SWAP2 SWAP1 POP JUMP JUMPDEST PUSH1 0x0 PUSH1 0x20 DUP3 ADD SWAP1 POP DUP2 DUP2 SUB PUSH1 0x0 DUP4 ADD MSTORE PUSH2 0x9C2 DUP2 PUSH2 0x986 JUMP JUMPDEST SWAP1 POP SWAP2 SWAP1 POP JUMP JUMPDEST PUSH32 0x4F776E61626C653A2063616C6C6572206973206E6F7420746865206F776E6572 PUSH1 0x0 DUP3 ADD MSTORE POP JUMP JUMPDEST PUSH1 0x0 PUSH2 0x9FF PUSH1 0x20 DUP4 PUSH2 0x6D3 JUMP JUMPDEST SWAP2 POP PUSH2 0xA0A DUP3 PUSH2 0x9C9 JUMP JUMPDEST PUSH1 0x20 DUP3 ADD SWAP1 POP SWAP2 SWAP1 POP JUMP JUMPDEST PUSH1 0x0 PUSH1 0x20 DUP3 ADD SWAP1 POP DUP2 DUP2 SUB PUSH1 0x0 DUP4 ADD MSTORE PUSH2 0xA2E DUP2 PUSH2 0x9F2 JUMP JUMPDEST SWAP1 POP SWAP2 SWAP1 POP JUMP INVALID LOG2 PUSH5 0x6970667358 0x22 SLT KECCAK256 0x1E 0x2E SWAP15 MSIZE NOT REVERT 0xEF CODECOPY LOG4 EXTCODEHASH SGT 0xCA 0xF9 DUP4 CHAINID PUSH21 0xDA72B21D667A4EBB30BA0EF46D45332F64736F6C63 NUMBER STOP ADDMOD SLT STOP CALLER "
				},
				"gasEstimates": {
					"creation": {
						"codeDepositCost": "533400",
						"executionCost": "infinite",
						"totalCost": "infinite"
					},
					"external": {
						"conversionRate()": "2451",
						"convertTokensToPoints(address,uint256)": "infinite",
						"owner()": "2588",
						"renounceOwnership()": "30398",
						"transferOwnership(address)": "30832",
						"updateConversionRate(uint256)": "infinite"
					}
				},
				"methodIdentifiers": {
					"conversionRate()": "7ffdf53e",
					"convertTokensToPoints(address,uint256)": "1dc387f1",
					"owner()": "8da5cb5b",
					"renounceOwnership()": "715018a6",
					"transferOwnership(address)": "f2fde38b",
					"updateConversionRate(uint256)": "87fcdbc1"
				}
			},
			"storageLayout": {
				"storage": [
					{
						"astId": 7,
						"contract": "Users/chris/Documents/GitHub/AirlineRewards/contracts/points/PointsConversion.sol:PointsConversion",
						"label": "_owner",
						"offset": 0,
						"slot": "0",
						"type": "t_address"
					},
					{
						"astId": 143,
						"contract": "Users/chris/Documents/GitHub/AirlineRewards/contracts/points/PointsConversion.sol:PointsConversion",
						"label": "pointsManagement",
						"offset": 0,
						"slot": "1",
						"type": "t_contract(PointsManagement)396"
					},
					{
						"astId": 145,
						"contract": "Users/chris/Documents/GitHub/AirlineRewards/contracts/points/PointsConversion.sol:PointsConversion",
						"label": "conversionRate",
						"offset": 0,
						"slot": "2",
						"type": "t_uint256"
					}
				],
				"types": {
					"t_address": {
						"encoding": "inplace",
						"label": "address",
						"numberOfBytes": "20"
					},
					"t_contract(PointsManagement)396": {
						"encoding": "inplace",
						"label": "contract PointsManagement",
						"numberOfBytes": "20"
					},
					"t_uint256": {
						"encoding": "inplace",
						"label": "uint256",
						"numberOfBytes": "32"
					}
				}
			},
			"userdoc": {
				"kind": "user",
				"methods": {},
				"version": 1
			}
		}
	}
}