{
	"Users/chris/Documents/GitHub/AirlineRewards/contracts/points/PointsManagement.sol": {
		"PointsManagement": {
			"abi": [
				{
					"anonymous": false,
					"inputs": [
						{
							"indexed": true,
							"internalType": "address",
							"name": "previousOwner",
							"type": "address"
						},
						{
							"indexed": true,
							"internalType": "address",
							"name": "newOwner",
							"type": "address"
						}
					],
					"name": "OwnershipTransferred",
					"type": "event"
				},
				{
					"anonymous": false,
					"inputs": [
						{
							"indexed": true,
							"internalType": "address",
							"name": "user",
							"type": "address"
						},
						{
							"indexed": false,
							"internalType": "uint256",
							"name": "amount",
							"type": "uint256"
						}
					],
					"name": "PointsEarned",
					"type": "event"
				},
				{
					"anonymous": false,
					"inputs": [
						{
							"indexed": true,
							"internalType": "address",
							"name": "user",
							"type": "address"
						},
						{
							"indexed": false,
							"internalType": "uint256",
							"name": "amount",
							"type": "uint256"
						}
					],
					"name": "PointsRedeemed",
					"type": "event"
				},
				{
					"inputs": [
						{
							"internalType": "address",
							"name": "_user",
							"type": "address"
						},
						{
							"internalType": "uint256",
							"name": "_amount",
							"type": "uint256"
						}
					],
					"name": "earnPoints",
					"outputs": [],
					"stateMutability": "nonpayable",
					"type": "function"
				},
				{
					"inputs": [
						{
							"internalType": "address",
							"name": "_user",
							"type": "address"
						}
					],
					"name": "getPointsBalance",
					"outputs": [
						{
							"internalType": "uint256",
							"name": "",
							"type": "uint256"
						}
					],
					"stateMutability": "view",
					"type": "function"
				},
				{
					"inputs": [],
					"name": "owner",
					"outputs": [
						{
							"internalType": "address",
							"name": "",
							"type": "address"
						}
					],
					"stateMutability": "view",
					"type": "function"
				},
				{
					"inputs": [
						{
							"internalType": "address",
							"name": "_user",
							"type": "address"
						},
						{
							"internalType": "uint256",
							"name": "_amount",
							"type": "uint256"
						}
					],
					"name": "redeemPoints",
					"outputs": [],
					"stateMutability": "nonpayable",
					"type": "function"
				},
				{
					"inputs": [],
					"name": "renounceOwnership",
					"outputs": [],
					"stateMutability": "nonpayable",
					"type": "function"
				},
				{
					"inputs": [
						{
							"internalType": "address",
							"name": "newOwner",
							"type": "address"
						}
					],
					"name": "transferOwnership",
					"outputs": [],
					"stateMutability": "nonpayable",
					"type": "function"
				},
				{
					"inputs": [
						{
							"internalType": "address",
							"name": "",
							"type": "address"
						}
					],
					"name": "userPoints",
					"outputs": [
						{
							"internalType": "uint256",
							"name": "earned",
							"type": "uint256"
						},
						{
							"internalType": "uint256",
							"name": "redeemed",
							"type": "uint256"
						}
					],
					"stateMutability": "view",
					"type": "function"
				}
			],
			"devdoc": {
				"kind": "dev",
				"methods": {
					"earnPoints(address,uint256)": {
						"details": "Add points to a user's earned points balance.",
						"params": {
							"_amount": "The number of points to add.",
							"_user": "The wallet address of the user."
						}
					},
					"getPointsBalance(address)": {
						"details": "Get the current points balance of a user.",
						"params": {
							"_user": "The wallet address of the user."
						},
						"returns": {
							"_0": "The user's points balance."
						}
					},
					"owner()": {
						"details": "Returns the address of the current owner."
					},
					"redeemPoints(address,uint256)": {
						"details": "Redeem points from a user's earned points balance.",
						"params": {
							"_amount": "The number of points to redeem.",
							"_user": "The wallet address of the user."
						}
					},
					"renounceOwnership()": {
						"details": "Leaves the contract without owner. It will not be possible to call `onlyOwner` functions anymore. Can only be called by the current owner. NOTE: Renouncing ownership will leave the contract without an owner, thereby removing any functionality that is only available to the owner."
					},
					"transferOwnership(address)": {
						"details": "Transfers ownership of the contract to a new account (`newOwner`). Can only be called by the current owner."
					}
				},
				"version": 1
			},
			"evm": {
				"assembly": "    /* \"Users/chris/Documents/GitHub/AirlineRewards/contracts/points/PointsManagement.sol\":79:2049  contract PointsManagement is Ownable {... */\n  mstore(0x40, 0x80)\n  callvalue\n  dup1\n  iszero\n  tag_1\n  jumpi\n  0x00\n  dup1\n  revert\ntag_1:\n  pop\n    /* \"@openzeppelin/contracts/access/Ownable.sol\":936:968  _transferOwnership(_msgSender()) */\n  tag_4\n    /* \"@openzeppelin/contracts/access/Ownable.sol\":955:967  _msgSender() */\n  tag_5\n    /* \"@openzeppelin/contracts/access/Ownable.sol\":955:965  _msgSender */\n  shl(0x20, tag_6)\n    /* \"@openzeppelin/contracts/access/Ownable.sol\":955:967  _msgSender() */\n  0x20\n  shr\n  jump\t// in\ntag_5:\n    /* \"@openzeppelin/contracts/access/Ownable.sol\":936:954  _transferOwnership */\n  shl(0x20, tag_7)\n    /* \"@openzeppelin/contracts/access/Ownable.sol\":936:968  _transferOwnership(_msgSender()) */\n  0x20\n  shr\n  jump\t// in\ntag_4:\n    /* \"Users/chris/Documents/GitHub/AirlineRewards/contracts/points/PointsManagement.sol\":79:2049  contract PointsManagement is Ownable {... */\n  jump(tag_8)\n    /* \"@openzeppelin/contracts/utils/Context.sol\":640:736  function _msgSender() internal view virtual returns (address) {... */\ntag_6:\n    /* \"@openzeppelin/contracts/utils/Context.sol\":693:700  address */\n  0x00\n    /* \"@openzeppelin/contracts/utils/Context.sol\":719:729  msg.sender */\n  caller\n    /* \"@openzeppelin/contracts/utils/Context.sol\":712:729  return msg.sender */\n  swap1\n  pop\n    /* \"@openzeppelin/contracts/utils/Context.sol\":640:736  function _msgSender() internal view virtual returns (address) {... */\n  swap1\n  jump\t// out\n    /* \"@openzeppelin/contracts/access/Ownable.sol\":2433:2620  function _transferOwnership(address newOwner) internal virtual {... */\ntag_7:\n    /* \"@openzeppelin/contracts/access/Ownable.sol\":2506:2522  address oldOwner */\n  0x00\n    /* \"@openzeppelin/contracts/access/Ownable.sol\":2525:2531  _owner */\n  dup1\n  0x00\n  swap1\n  sload\n  swap1\n  0x0100\n  exp\n  swap1\n  div\n  0xffffffffffffffffffffffffffffffffffffffff\n  and\n    /* \"@openzeppelin/contracts/access/Ownable.sol\":2506:2531  address oldOwner = _owner */\n  swap1\n  pop\n    /* \"@openzeppelin/contracts/access/Ownable.sol\":2550:2558  newOwner */\n  dup2\n    /* \"@openzeppelin/contracts/access/Ownable.sol\":2541:2547  _owner */\n  0x00\n  dup1\n    /* \"@openzeppelin/contracts/access/Ownable.sol\":2541:2558  _owner = newOwner */\n  0x0100\n  exp\n  dup2\n  sload\n  dup2\n  0xffffffffffffffffffffffffffffffffffffffff\n  mul\n  not\n  and\n  swap1\n  dup4\n  0xffffffffffffffffffffffffffffffffffffffff\n  and\n  mul\n  or\n  swap1\n  sstore\n  pop\n    /* \"@openzeppelin/contracts/access/Ownable.sol\":2604:2612  newOwner */\n  dup2\n    /* \"@openzeppelin/contracts/access/Ownable.sol\":2573:2613  OwnershipTransferred(oldOwner, newOwner) */\n  0xffffffffffffffffffffffffffffffffffffffff\n  and\n    /* \"@openzeppelin/contracts/access/Ownable.sol\":2594:2602  oldOwner */\n  dup2\n    /* \"@openzeppelin/contracts/access/Ownable.sol\":2573:2613  OwnershipTransferred(oldOwner, newOwner) */\n  0xffffffffffffffffffffffffffffffffffffffff\n  and\n  0x8be0079c531659141344cd1fd0a4f28419497f9722a3daafe3b4186f6b6457e0\n  mload(0x40)\n  mload(0x40)\n  dup1\n  swap2\n  sub\n  swap1\n  log3\n    /* \"@openzeppelin/contracts/access/Ownable.sol\":2496:2620  {... */\n  pop\n    /* \"@openzeppelin/contracts/access/Ownable.sol\":2433:2620  function _transferOwnership(address newOwner) internal virtual {... */\n  pop\n  jump\t// out\n    /* \"Users/chris/Documents/GitHub/AirlineRewards/contracts/points/PointsManagement.sol\":79:2049  contract PointsManagement is Ownable {... */\ntag_8:\n  dataSize(sub_0)\n  dup1\n  dataOffset(sub_0)\n  0x00\n  codecopy\n  0x00\n  return\nstop\n\nsub_0: assembly {\n        /* \"Users/chris/Documents/GitHub/AirlineRewards/contracts/points/PointsManagement.sol\":79:2049  contract PointsManagement is Ownable {... */\n      mstore(0x40, 0x80)\n      callvalue\n      dup1\n      iszero\n      tag_1\n      jumpi\n      0x00\n      dup1\n      revert\n    tag_1:\n      pop\n      jumpi(tag_2, lt(calldatasize, 0x04))\n      shr(0xe0, calldataload(0x00))\n      dup1\n      0xd909d5e3\n      gt\n      tag_10\n      jumpi\n      dup1\n      0xd909d5e3\n      eq\n      tag_6\n      jumpi\n      dup1\n      0xe707f36f\n      eq\n      tag_7\n      jumpi\n      dup1\n      0xf2fde38b\n      eq\n      tag_8\n      jumpi\n      dup1\n      0xf50ddbc7\n      eq\n      tag_9\n      jumpi\n      jump(tag_2)\n    tag_10:\n      dup1\n      0x715018a6\n      eq\n      tag_3\n      jumpi\n      dup1\n      0x8da5cb5b\n      eq\n      tag_4\n      jumpi\n      dup1\n      0xb85da8d2\n      eq\n      tag_5\n      jumpi\n    tag_2:\n      0x00\n      dup1\n      revert\n        /* \"@openzeppelin/contracts/access/Ownable.sol\":1831:1932  function renounceOwnership() public virtual onlyOwner {... */\n    tag_3:\n      tag_11\n      tag_12\n      jump\t// in\n    tag_11:\n      stop\n        /* \"@openzeppelin/contracts/access/Ownable.sol\":1201:1286  function owner() public view virtual returns (address) {... */\n    tag_4:\n      tag_13\n      tag_14\n      jump\t// in\n    tag_13:\n      mload(0x40)\n      tag_15\n      swap2\n      swap1\n      tag_16\n      jump\t// in\n    tag_15:\n      mload(0x40)\n      dup1\n      swap2\n      sub\n      swap1\n      return\n        /* \"Users/chris/Documents/GitHub/AirlineRewards/contracts/points/PointsManagement.sol\":1260:1693  function redeemPoints(address _user, uint256 _amount) external onlyOwner {... */\n    tag_5:\n      tag_17\n      0x04\n      dup1\n      calldatasize\n      sub\n      dup2\n      add\n      swap1\n      tag_18\n      swap2\n      swap1\n      tag_19\n      jump\t// in\n    tag_18:\n      tag_20\n      jump\t// in\n    tag_17:\n      stop\n        /* \"Users/chris/Documents/GitHub/AirlineRewards/contracts/points/PointsManagement.sol\":771:1069  function earnPoints(address _user, uint256 _amount) external onlyOwner {... */\n    tag_6:\n      tag_21\n      0x04\n      dup1\n      calldatasize\n      sub\n      dup2\n      add\n      swap1\n      tag_22\n      swap2\n      swap1\n      tag_19\n      jump\t// in\n    tag_22:\n      tag_23\n      jump\t// in\n    tag_21:\n      stop\n        /* \"Users/chris/Documents/GitHub/AirlineRewards/contracts/points/PointsManagement.sol\":1863:2047  function getPointsBalance(address _user) external view returns (uint256) {... */\n    tag_7:\n      tag_24\n      0x04\n      dup1\n      calldatasize\n      sub\n      dup2\n      add\n      swap1\n      tag_25\n      swap2\n      swap1\n      tag_26\n      jump\t// in\n    tag_25:\n      tag_27\n      jump\t// in\n    tag_24:\n      mload(0x40)\n      tag_28\n      swap2\n      swap1\n      tag_29\n      jump\t// in\n    tag_28:\n      mload(0x40)\n      dup1\n      swap2\n      sub\n      swap1\n      return\n        /* \"@openzeppelin/contracts/access/Ownable.sol\":2081:2279  function transferOwnership(address newOwner) public virtual onlyOwner {... */\n    tag_8:\n      tag_30\n      0x04\n      dup1\n      calldatasize\n      sub\n      dup2\n      add\n      swap1\n      tag_31\n      swap2\n      swap1\n      tag_26\n      jump\t// in\n    tag_31:\n      tag_32\n      jump\t// in\n    tag_30:\n      stop\n        /* \"Users/chris/Documents/GitHub/AirlineRewards/contracts/points/PointsManagement.sol\":325:369  mapping(address => Points) public userPoints */\n    tag_9:\n      tag_33\n      0x04\n      dup1\n      calldatasize\n      sub\n      dup2\n      add\n      swap1\n      tag_34\n      swap2\n      swap1\n      tag_26\n      jump\t// in\n    tag_34:\n      tag_35\n      jump\t// in\n    tag_33:\n      mload(0x40)\n      tag_36\n      swap3\n      swap2\n      swap1\n      tag_37\n      jump\t// in\n    tag_36:\n      mload(0x40)\n      dup1\n      swap2\n      sub\n      swap1\n      return\n        /* \"@openzeppelin/contracts/access/Ownable.sol\":1831:1932  function renounceOwnership() public virtual onlyOwner {... */\n    tag_12:\n        /* \"@openzeppelin/contracts/access/Ownable.sol\":1094:1107  _checkOwner() */\n      tag_39\n        /* \"@openzeppelin/contracts/access/Ownable.sol\":1094:1105  _checkOwner */\n      tag_40\n        /* \"@openzeppelin/contracts/access/Ownable.sol\":1094:1107  _checkOwner() */\n      jump\t// in\n    tag_39:\n        /* \"@openzeppelin/contracts/access/Ownable.sol\":1895:1925  _transferOwnership(address(0)) */\n      tag_42\n        /* \"@openzeppelin/contracts/access/Ownable.sol\":1922:1923  0 */\n      0x00\n        /* \"@openzeppelin/contracts/access/Ownable.sol\":1895:1913  _transferOwnership */\n      tag_43\n        /* \"@openzeppelin/contracts/access/Ownable.sol\":1895:1925  _transferOwnership(address(0)) */\n      jump\t// in\n    tag_42:\n        /* \"@openzeppelin/contracts/access/Ownable.sol\":1831:1932  function renounceOwnership() public virtual onlyOwner {... */\n      jump\t// out\n        /* \"@openzeppelin/contracts/access/Ownable.sol\":1201:1286  function owner() public view virtual returns (address) {... */\n    tag_14:\n        /* \"@openzeppelin/contracts/access/Ownable.sol\":1247:1254  address */\n      0x00\n        /* \"@openzeppelin/contracts/access/Ownable.sol\":1273:1279  _owner */\n      dup1\n      0x00\n      swap1\n      sload\n      swap1\n      0x0100\n      exp\n      swap1\n      div\n      0xffffffffffffffffffffffffffffffffffffffff\n      and\n        /* \"@openzeppelin/contracts/access/Ownable.sol\":1266:1279  return _owner */\n      swap1\n      pop\n        /* \"@openzeppelin/contracts/access/Ownable.sol\":1201:1286  function owner() public view virtual returns (address) {... */\n      swap1\n      jump\t// out\n        /* \"Users/chris/Documents/GitHub/AirlineRewards/contracts/points/PointsManagement.sol\":1260:1693  function redeemPoints(address _user, uint256 _amount) external onlyOwner {... */\n    tag_20:\n        /* \"@openzeppelin/contracts/access/Ownable.sol\":1094:1107  _checkOwner() */\n      tag_46\n        /* \"@openzeppelin/contracts/access/Ownable.sol\":1094:1105  _checkOwner */\n      tag_40\n        /* \"@openzeppelin/contracts/access/Ownable.sol\":1094:1107  _checkOwner() */\n      jump\t// in\n    tag_46:\n        /* \"Users/chris/Documents/GitHub/AirlineRewards/contracts/points/PointsManagement.sol\":1368:1369  0 */\n      0x00\n        /* \"Users/chris/Documents/GitHub/AirlineRewards/contracts/points/PointsManagement.sol\":1351:1370  _user != address(0) */\n      0xffffffffffffffffffffffffffffffffffffffff\n      and\n        /* \"Users/chris/Documents/GitHub/AirlineRewards/contracts/points/PointsManagement.sol\":1351:1356  _user */\n      dup3\n        /* \"Users/chris/Documents/GitHub/AirlineRewards/contracts/points/PointsManagement.sol\":1351:1370  _user != address(0) */\n      0xffffffffffffffffffffffffffffffffffffffff\n      and\n      sub\n        /* \"Users/chris/Documents/GitHub/AirlineRewards/contracts/points/PointsManagement.sol\":1343:1395  require(_user != address(0), \"Invalid user address\") */\n      tag_48\n      jumpi\n      mload(0x40)\n      0x08c379a000000000000000000000000000000000000000000000000000000000\n      dup2\n      mstore\n      0x04\n      add\n      tag_49\n      swap1\n      tag_50\n      jump\t// in\n    tag_49:\n      mload(0x40)\n      dup1\n      swap2\n      sub\n      swap1\n      revert\n    tag_48:\n        /* \"Users/chris/Documents/GitHub/AirlineRewards/contracts/points/PointsManagement.sol\":1423:1424  0 */\n      0x00\n        /* \"Users/chris/Documents/GitHub/AirlineRewards/contracts/points/PointsManagement.sol\":1413:1420  _amount */\n      dup2\n        /* \"Users/chris/Documents/GitHub/AirlineRewards/contracts/points/PointsManagement.sol\":1413:1424  _amount > 0 */\n      gt\n        /* \"Users/chris/Documents/GitHub/AirlineRewards/contracts/points/PointsManagement.sol\":1405:1463  require(_amount > 0, \"Amount should be greater than zero\") */\n      tag_51\n      jumpi\n      mload(0x40)\n      0x08c379a000000000000000000000000000000000000000000000000000000000\n      dup2\n      mstore\n      0x04\n      add\n      tag_52\n      swap1\n      tag_53\n      jump\t// in\n    tag_52:\n      mload(0x40)\n      dup1\n      swap2\n      sub\n      swap1\n      revert\n    tag_51:\n        /* \"Users/chris/Documents/GitHub/AirlineRewards/contracts/points/PointsManagement.sol\":1509:1516  _amount */\n      dup1\n        /* \"Users/chris/Documents/GitHub/AirlineRewards/contracts/points/PointsManagement.sol\":1481:1491  userPoints */\n      0x01\n        /* \"Users/chris/Documents/GitHub/AirlineRewards/contracts/points/PointsManagement.sol\":1481:1498  userPoints[_user] */\n      0x00\n        /* \"Users/chris/Documents/GitHub/AirlineRewards/contracts/points/PointsManagement.sol\":1492:1497  _user */\n      dup5\n        /* \"Users/chris/Documents/GitHub/AirlineRewards/contracts/points/PointsManagement.sol\":1481:1498  userPoints[_user] */\n      0xffffffffffffffffffffffffffffffffffffffff\n      and\n      0xffffffffffffffffffffffffffffffffffffffff\n      and\n      dup2\n      mstore\n      0x20\n      add\n      swap1\n      dup2\n      mstore\n      0x20\n      add\n      0x00\n      keccak256\n        /* \"Users/chris/Documents/GitHub/AirlineRewards/contracts/points/PointsManagement.sol\":1481:1505  userPoints[_user].earned */\n      0x00\n      add\n      sload\n        /* \"Users/chris/Documents/GitHub/AirlineRewards/contracts/points/PointsManagement.sol\":1481:1516  userPoints[_user].earned >= _amount */\n      lt\n      iszero\n        /* \"Users/chris/Documents/GitHub/AirlineRewards/contracts/points/PointsManagement.sol\":1473:1547  require(userPoints[_user].earned >= _amount, \"Insufficient earned points\") */\n      tag_54\n      jumpi\n      mload(0x40)\n      0x08c379a000000000000000000000000000000000000000000000000000000000\n      dup2\n      mstore\n      0x04\n      add\n      tag_55\n      swap1\n      tag_56\n      jump\t// in\n    tag_55:\n      mload(0x40)\n      dup1\n      swap2\n      sub\n      swap1\n      revert\n    tag_54:\n        /* \"Users/chris/Documents/GitHub/AirlineRewards/contracts/points/PointsManagement.sol\":1586:1593  _amount */\n      dup1\n        /* \"Users/chris/Documents/GitHub/AirlineRewards/contracts/points/PointsManagement.sol\":1558:1568  userPoints */\n      0x01\n        /* \"Users/chris/Documents/GitHub/AirlineRewards/contracts/points/PointsManagement.sol\":1558:1575  userPoints[_user] */\n      0x00\n        /* \"Users/chris/Documents/GitHub/AirlineRewards/contracts/points/PointsManagement.sol\":1569:1574  _user */\n      dup5\n        /* \"Users/chris/Documents/GitHub/AirlineRewards/contracts/points/PointsManagement.sol\":1558:1575  userPoints[_user] */\n      0xffffffffffffffffffffffffffffffffffffffff\n      and\n      0xffffffffffffffffffffffffffffffffffffffff\n      and\n      dup2\n      mstore\n      0x20\n      add\n      swap1\n      dup2\n      mstore\n      0x20\n      add\n      0x00\n      keccak256\n        /* \"Users/chris/Documents/GitHub/AirlineRewards/contracts/points/PointsManagement.sol\":1558:1582  userPoints[_user].earned */\n      0x00\n      add\n      0x00\n        /* \"Users/chris/Documents/GitHub/AirlineRewards/contracts/points/PointsManagement.sol\":1558:1593  userPoints[_user].earned -= _amount */\n      dup3\n      dup3\n      sload\n      tag_57\n      swap2\n      swap1\n      tag_58\n      jump\t// in\n    tag_57:\n      swap3\n      pop\n      pop\n      dup2\n      swap1\n      sstore\n      pop\n        /* \"Users/chris/Documents/GitHub/AirlineRewards/contracts/points/PointsManagement.sol\":1633:1640  _amount */\n      dup1\n        /* \"Users/chris/Documents/GitHub/AirlineRewards/contracts/points/PointsManagement.sol\":1603:1613  userPoints */\n      0x01\n        /* \"Users/chris/Documents/GitHub/AirlineRewards/contracts/points/PointsManagement.sol\":1603:1620  userPoints[_user] */\n      0x00\n        /* \"Users/chris/Documents/GitHub/AirlineRewards/contracts/points/PointsManagement.sol\":1614:1619  _user */\n      dup5\n        /* \"Users/chris/Documents/GitHub/AirlineRewards/contracts/points/PointsManagement.sol\":1603:1620  userPoints[_user] */\n      0xffffffffffffffffffffffffffffffffffffffff\n      and\n      0xffffffffffffffffffffffffffffffffffffffff\n      and\n      dup2\n      mstore\n      0x20\n      add\n      swap1\n      dup2\n      mstore\n      0x20\n      add\n      0x00\n      keccak256\n        /* \"Users/chris/Documents/GitHub/AirlineRewards/contracts/points/PointsManagement.sol\":1603:1629  userPoints[_user].redeemed */\n      0x01\n      add\n      0x00\n        /* \"Users/chris/Documents/GitHub/AirlineRewards/contracts/points/PointsManagement.sol\":1603:1640  userPoints[_user].redeemed += _amount */\n      dup3\n      dup3\n      sload\n      tag_59\n      swap2\n      swap1\n      tag_60\n      jump\t// in\n    tag_59:\n      swap3\n      pop\n      pop\n      dup2\n      swap1\n      sstore\n      pop\n        /* \"Users/chris/Documents/GitHub/AirlineRewards/contracts/points/PointsManagement.sol\":1671:1676  _user */\n      dup2\n        /* \"Users/chris/Documents/GitHub/AirlineRewards/contracts/points/PointsManagement.sol\":1656:1686  PointsRedeemed(_user, _amount) */\n      0xffffffffffffffffffffffffffffffffffffffff\n      and\n      0xc37df5d14f305277c1289e9a188a097cda6684189c95f785feb056cb77a8c910\n        /* \"Users/chris/Documents/GitHub/AirlineRewards/contracts/points/PointsManagement.sol\":1678:1685  _amount */\n      dup3\n        /* \"Users/chris/Documents/GitHub/AirlineRewards/contracts/points/PointsManagement.sol\":1656:1686  PointsRedeemed(_user, _amount) */\n      mload(0x40)\n      tag_61\n      swap2\n      swap1\n      tag_29\n      jump\t// in\n    tag_61:\n      mload(0x40)\n      dup1\n      swap2\n      sub\n      swap1\n      log2\n        /* \"Users/chris/Documents/GitHub/AirlineRewards/contracts/points/PointsManagement.sol\":1260:1693  function redeemPoints(address _user, uint256 _amount) external onlyOwner {... */\n      pop\n      pop\n      jump\t// out\n        /* \"Users/chris/Documents/GitHub/AirlineRewards/contracts/points/PointsManagement.sol\":771:1069  function earnPoints(address _user, uint256 _amount) external onlyOwner {... */\n    tag_23:\n        /* \"@openzeppelin/contracts/access/Ownable.sol\":1094:1107  _checkOwner() */\n      tag_63\n        /* \"@openzeppelin/contracts/access/Ownable.sol\":1094:1105  _checkOwner */\n      tag_40\n        /* \"@openzeppelin/contracts/access/Ownable.sol\":1094:1107  _checkOwner() */\n      jump\t// in\n    tag_63:\n        /* \"Users/chris/Documents/GitHub/AirlineRewards/contracts/points/PointsManagement.sol\":877:878  0 */\n      0x00\n        /* \"Users/chris/Documents/GitHub/AirlineRewards/contracts/points/PointsManagement.sol\":860:879  _user != address(0) */\n      0xffffffffffffffffffffffffffffffffffffffff\n      and\n        /* \"Users/chris/Documents/GitHub/AirlineRewards/contracts/points/PointsManagement.sol\":860:865  _user */\n      dup3\n        /* \"Users/chris/Documents/GitHub/AirlineRewards/contracts/points/PointsManagement.sol\":860:879  _user != address(0) */\n      0xffffffffffffffffffffffffffffffffffffffff\n      and\n      sub\n        /* \"Users/chris/Documents/GitHub/AirlineRewards/contracts/points/PointsManagement.sol\":852:904  require(_user != address(0), \"Invalid user address\") */\n      tag_65\n      jumpi\n      mload(0x40)\n      0x08c379a000000000000000000000000000000000000000000000000000000000\n      dup2\n      mstore\n      0x04\n      add\n      tag_66\n      swap1\n      tag_50\n      jump\t// in\n    tag_66:\n      mload(0x40)\n      dup1\n      swap2\n      sub\n      swap1\n      revert\n    tag_65:\n        /* \"Users/chris/Documents/GitHub/AirlineRewards/contracts/points/PointsManagement.sol\":932:933  0 */\n      0x00\n        /* \"Users/chris/Documents/GitHub/AirlineRewards/contracts/points/PointsManagement.sol\":922:929  _amount */\n      dup2\n        /* \"Users/chris/Documents/GitHub/AirlineRewards/contracts/points/PointsManagement.sol\":922:933  _amount > 0 */\n      gt\n        /* \"Users/chris/Documents/GitHub/AirlineRewards/contracts/points/PointsManagement.sol\":914:972  require(_amount > 0, \"Amount should be greater than zero\") */\n      tag_67\n      jumpi\n      mload(0x40)\n      0x08c379a000000000000000000000000000000000000000000000000000000000\n      dup2\n      mstore\n      0x04\n      add\n      tag_68\n      swap1\n      tag_53\n      jump\t// in\n    tag_68:\n      mload(0x40)\n      dup1\n      swap2\n      sub\n      swap1\n      revert\n    tag_67:\n        /* \"Users/chris/Documents/GitHub/AirlineRewards/contracts/points/PointsManagement.sol\":1011:1018  _amount */\n      dup1\n        /* \"Users/chris/Documents/GitHub/AirlineRewards/contracts/points/PointsManagement.sol\":983:993  userPoints */\n      0x01\n        /* \"Users/chris/Documents/GitHub/AirlineRewards/contracts/points/PointsManagement.sol\":983:1000  userPoints[_user] */\n      0x00\n        /* \"Users/chris/Documents/GitHub/AirlineRewards/contracts/points/PointsManagement.sol\":994:999  _user */\n      dup5\n        /* \"Users/chris/Documents/GitHub/AirlineRewards/contracts/points/PointsManagement.sol\":983:1000  userPoints[_user] */\n      0xffffffffffffffffffffffffffffffffffffffff\n      and\n      0xffffffffffffffffffffffffffffffffffffffff\n      and\n      dup2\n      mstore\n      0x20\n      add\n      swap1\n      dup2\n      mstore\n      0x20\n      add\n      0x00\n      keccak256\n        /* \"Users/chris/Documents/GitHub/AirlineRewards/contracts/points/PointsManagement.sol\":983:1007  userPoints[_user].earned */\n      0x00\n      add\n      0x00\n        /* \"Users/chris/Documents/GitHub/AirlineRewards/contracts/points/PointsManagement.sol\":983:1018  userPoints[_user].earned += _amount */\n      dup3\n      dup3\n      sload\n      tag_69\n      swap2\n      swap1\n      tag_60\n      jump\t// in\n    tag_69:\n      swap3\n      pop\n      pop\n      dup2\n      swap1\n      sstore\n      pop\n        /* \"Users/chris/Documents/GitHub/AirlineRewards/contracts/points/PointsManagement.sol\":1047:1052  _user */\n      dup2\n        /* \"Users/chris/Documents/GitHub/AirlineRewards/contracts/points/PointsManagement.sol\":1034:1062  PointsEarned(_user, _amount) */\n      0xffffffffffffffffffffffffffffffffffffffff\n      and\n      0x2c4c0dc427a50c4a69d2fc184c47a311acf950d8d2f289fbaee64e83e9b28967\n        /* \"Users/chris/Documents/GitHub/AirlineRewards/contracts/points/PointsManagement.sol\":1054:1061  _amount */\n      dup3\n        /* \"Users/chris/Documents/GitHub/AirlineRewards/contracts/points/PointsManagement.sol\":1034:1062  PointsEarned(_user, _amount) */\n      mload(0x40)\n      tag_70\n      swap2\n      swap1\n      tag_29\n      jump\t// in\n    tag_70:\n      mload(0x40)\n      dup1\n      swap2\n      sub\n      swap1\n      log2\n        /* \"Users/chris/Documents/GitHub/AirlineRewards/contracts/points/PointsManagement.sol\":771:1069  function earnPoints(address _user, uint256 _amount) external onlyOwner {... */\n      pop\n      pop\n      jump\t// out\n        /* \"Users/chris/Documents/GitHub/AirlineRewards/contracts/points/PointsManagement.sol\":1863:2047  function getPointsBalance(address _user) external view returns (uint256) {... */\n    tag_27:\n        /* \"Users/chris/Documents/GitHub/AirlineRewards/contracts/points/PointsManagement.sol\":1927:1934  uint256 */\n      0x00\n        /* \"Users/chris/Documents/GitHub/AirlineRewards/contracts/points/PointsManagement.sol\":1971:1972  0 */\n      dup1\n        /* \"Users/chris/Documents/GitHub/AirlineRewards/contracts/points/PointsManagement.sol\":1954:1973  _user != address(0) */\n      0xffffffffffffffffffffffffffffffffffffffff\n      and\n        /* \"Users/chris/Documents/GitHub/AirlineRewards/contracts/points/PointsManagement.sol\":1954:1959  _user */\n      dup3\n        /* \"Users/chris/Documents/GitHub/AirlineRewards/contracts/points/PointsManagement.sol\":1954:1973  _user != address(0) */\n      0xffffffffffffffffffffffffffffffffffffffff\n      and\n      sub\n        /* \"Users/chris/Documents/GitHub/AirlineRewards/contracts/points/PointsManagement.sol\":1946:1998  require(_user != address(0), \"Invalid user address\") */\n      tag_72\n      jumpi\n      mload(0x40)\n      0x08c379a000000000000000000000000000000000000000000000000000000000\n      dup2\n      mstore\n      0x04\n      add\n      tag_73\n      swap1\n      tag_50\n      jump\t// in\n    tag_73:\n      mload(0x40)\n      dup1\n      swap2\n      sub\n      swap1\n      revert\n    tag_72:\n        /* \"Users/chris/Documents/GitHub/AirlineRewards/contracts/points/PointsManagement.sol\":2016:2026  userPoints */\n      0x01\n        /* \"Users/chris/Documents/GitHub/AirlineRewards/contracts/points/PointsManagement.sol\":2016:2033  userPoints[_user] */\n      0x00\n        /* \"Users/chris/Documents/GitHub/AirlineRewards/contracts/points/PointsManagement.sol\":2027:2032  _user */\n      dup4\n        /* \"Users/chris/Documents/GitHub/AirlineRewards/contracts/points/PointsManagement.sol\":2016:2033  userPoints[_user] */\n      0xffffffffffffffffffffffffffffffffffffffff\n      and\n      0xffffffffffffffffffffffffffffffffffffffff\n      and\n      dup2\n      mstore\n      0x20\n      add\n      swap1\n      dup2\n      mstore\n      0x20\n      add\n      0x00\n      keccak256\n        /* \"Users/chris/Documents/GitHub/AirlineRewards/contracts/points/PointsManagement.sol\":2016:2040  userPoints[_user].earned */\n      0x00\n      add\n      sload\n        /* \"Users/chris/Documents/GitHub/AirlineRewards/contracts/points/PointsManagement.sol\":2009:2040  return userPoints[_user].earned */\n      swap1\n      pop\n        /* \"Users/chris/Documents/GitHub/AirlineRewards/contracts/points/PointsManagement.sol\":1863:2047  function getPointsBalance(address _user) external view returns (uint256) {... */\n      swap2\n      swap1\n      pop\n      jump\t// out\n        /* \"@openzeppelin/contracts/access/Ownable.sol\":2081:2279  function transferOwnership(address newOwner) public virtual onlyOwner {... */\n    tag_32:\n        /* \"@openzeppelin/contracts/access/Ownable.sol\":1094:1107  _checkOwner() */\n      tag_75\n        /* \"@openzeppelin/contracts/access/Ownable.sol\":1094:1105  _checkOwner */\n      tag_40\n        /* \"@openzeppelin/contracts/access/Ownable.sol\":1094:1107  _checkOwner() */\n      jump\t// in\n    tag_75:\n        /* \"@openzeppelin/contracts/access/Ownable.sol\":2189:2190  0 */\n      0x00\n        /* \"@openzeppelin/contracts/access/Ownable.sol\":2169:2191  newOwner != address(0) */\n      0xffffffffffffffffffffffffffffffffffffffff\n      and\n        /* \"@openzeppelin/contracts/access/Ownable.sol\":2169:2177  newOwner */\n      dup2\n        /* \"@openzeppelin/contracts/access/Ownable.sol\":2169:2191  newOwner != address(0) */\n      0xffffffffffffffffffffffffffffffffffffffff\n      and\n      sub\n        /* \"@openzeppelin/contracts/access/Ownable.sol\":2161:2234  require(newOwner != address(0), \"Ownable: new owner is the zero address\") */\n      tag_77\n      jumpi\n      mload(0x40)\n      0x08c379a000000000000000000000000000000000000000000000000000000000\n      dup2\n      mstore\n      0x04\n      add\n      tag_78\n      swap1\n      tag_79\n      jump\t// in\n    tag_78:\n      mload(0x40)\n      dup1\n      swap2\n      sub\n      swap1\n      revert\n    tag_77:\n        /* \"@openzeppelin/contracts/access/Ownable.sol\":2244:2272  _transferOwnership(newOwner) */\n      tag_80\n        /* \"@openzeppelin/contracts/access/Ownable.sol\":2263:2271  newOwner */\n      dup2\n        /* \"@openzeppelin/contracts/access/Ownable.sol\":2244:2262  _transferOwnership */\n      tag_43\n        /* \"@openzeppelin/contracts/access/Ownable.sol\":2244:2272  _transferOwnership(newOwner) */\n      jump\t// in\n    tag_80:\n        /* \"@openzeppelin/contracts/access/Ownable.sol\":2081:2279  function transferOwnership(address newOwner) public virtual onlyOwner {... */\n      pop\n      jump\t// out\n        /* \"Users/chris/Documents/GitHub/AirlineRewards/contracts/points/PointsManagement.sol\":325:369  mapping(address => Points) public userPoints */\n    tag_35:\n      mstore(0x20, 0x01)\n      dup1\n      0x00\n      mstore\n      keccak256(0x00, 0x40)\n      0x00\n      swap2\n      pop\n      swap1\n      pop\n      dup1\n      0x00\n      add\n      sload\n      swap1\n      dup1\n      0x01\n      add\n      sload\n      swap1\n      pop\n      dup3\n      jump\t// out\n        /* \"@openzeppelin/contracts/access/Ownable.sol\":1359:1489  function _checkOwner() internal view virtual {... */\n    tag_40:\n        /* \"@openzeppelin/contracts/access/Ownable.sol\":1433:1445  _msgSender() */\n      tag_82\n        /* \"@openzeppelin/contracts/access/Ownable.sol\":1433:1443  _msgSender */\n      tag_83\n        /* \"@openzeppelin/contracts/access/Ownable.sol\":1433:1445  _msgSender() */\n      jump\t// in\n    tag_82:\n        /* \"@openzeppelin/contracts/access/Ownable.sol\":1422:1445  owner() == _msgSender() */\n      0xffffffffffffffffffffffffffffffffffffffff\n      and\n        /* \"@openzeppelin/contracts/access/Ownable.sol\":1422:1429  owner() */\n      tag_84\n        /* \"@openzeppelin/contracts/access/Ownable.sol\":1422:1427  owner */\n      tag_14\n        /* \"@openzeppelin/contracts/access/Ownable.sol\":1422:1429  owner() */\n      jump\t// in\n    tag_84:\n        /* \"@openzeppelin/contracts/access/Ownable.sol\":1422:1445  owner() == _msgSender() */\n      0xffffffffffffffffffffffffffffffffffffffff\n      and\n      eq\n        /* \"@openzeppelin/contracts/access/Ownable.sol\":1414:1482  require(owner() == _msgSender(), \"Ownable: caller is not the owner\") */\n      tag_85\n      jumpi\n      mload(0x40)\n      0x08c379a000000000000000000000000000000000000000000000000000000000\n      dup2\n      mstore\n      0x04\n      add\n      tag_86\n      swap1\n      tag_87\n      jump\t// in\n    tag_86:\n      mload(0x40)\n      dup1\n      swap2\n      sub\n      swap1\n      revert\n    tag_85:\n        /* \"@openzeppelin/contracts/access/Ownable.sol\":1359:1489  function _checkOwner() internal view virtual {... */\n      jump\t// out\n        /* \"@openzeppelin/contracts/access/Ownable.sol\":2433:2620  function _transferOwnership(address newOwner) internal virtual {... */\n    tag_43:\n        /* \"@openzeppelin/contracts/access/Ownable.sol\":2506:2522  address oldOwner */\n      0x00\n        /* \"@openzeppelin/contracts/access/Ownable.sol\":2525:2531  _owner */\n      dup1\n      0x00\n      swap1\n      sload\n      swap1\n      0x0100\n      exp\n      swap1\n      div\n      0xffffffffffffffffffffffffffffffffffffffff\n      and\n        /* \"@openzeppelin/contracts/access/Ownable.sol\":2506:2531  address oldOwner = _owner */\n      swap1\n      pop\n        /* \"@openzeppelin/contracts/access/Ownable.sol\":2550:2558  newOwner */\n      dup2\n        /* \"@openzeppelin/contracts/access/Ownable.sol\":2541:2547  _owner */\n      0x00\n      dup1\n        /* \"@openzeppelin/contracts/access/Ownable.sol\":2541:2558  _owner = newOwner */\n      0x0100\n      exp\n      dup2\n      sload\n      dup2\n      0xffffffffffffffffffffffffffffffffffffffff\n      mul\n      not\n      and\n      swap1\n      dup4\n      0xffffffffffffffffffffffffffffffffffffffff\n      and\n      mul\n      or\n      swap1\n      sstore\n      pop\n        /* \"@openzeppelin/contracts/access/Ownable.sol\":2604:2612  newOwner */\n      dup2\n        /* \"@openzeppelin/contracts/access/Ownable.sol\":2573:2613  OwnershipTransferred(oldOwner, newOwner) */\n      0xffffffffffffffffffffffffffffffffffffffff\n      and\n        /* \"@openzeppelin/contracts/access/Ownable.sol\":2594:2602  oldOwner */\n      dup2\n        /* \"@openzeppelin/contracts/access/Ownable.sol\":2573:2613  OwnershipTransferred(oldOwner, newOwner) */\n      0xffffffffffffffffffffffffffffffffffffffff\n      and\n      0x8be0079c531659141344cd1fd0a4f28419497f9722a3daafe3b4186f6b6457e0\n      mload(0x40)\n      mload(0x40)\n      dup1\n      swap2\n      sub\n      swap1\n      log3\n        /* \"@openzeppelin/contracts/access/Ownable.sol\":2496:2620  {... */\n      pop\n        /* \"@openzeppelin/contracts/access/Ownable.sol\":2433:2620  function _transferOwnership(address newOwner) internal virtual {... */\n      pop\n      jump\t// out\n        /* \"@openzeppelin/contracts/utils/Context.sol\":640:736  function _msgSender() internal view virtual returns (address) {... */\n    tag_83:\n        /* \"@openzeppelin/contracts/utils/Context.sol\":693:700  address */\n      0x00\n        /* \"@openzeppelin/contracts/utils/Context.sol\":719:729  msg.sender */\n      caller\n        /* \"@openzeppelin/contracts/utils/Context.sol\":712:729  return msg.sender */\n      swap1\n      pop\n        /* \"@openzeppelin/contracts/utils/Context.sol\":640:736  function _msgSender() internal view virtual returns (address) {... */\n      swap1\n      jump\t// out\n        /* \"#utility.yul\":7:133   */\n    tag_90:\n        /* \"#utility.yul\":44:51   */\n      0x00\n        /* \"#utility.yul\":84:126   */\n      0xffffffffffffffffffffffffffffffffffffffff\n        /* \"#utility.yul\":77:82   */\n      dup3\n        /* \"#utility.yul\":73:127   */\n      and\n        /* \"#utility.yul\":62:127   */\n      swap1\n      pop\n        /* \"#utility.yul\":7:133   */\n      swap2\n      swap1\n      pop\n      jump\t// out\n        /* \"#utility.yul\":139:235   */\n    tag_91:\n        /* \"#utility.yul\":176:183   */\n      0x00\n        /* \"#utility.yul\":205:229   */\n      tag_117\n        /* \"#utility.yul\":223:228   */\n      dup3\n        /* \"#utility.yul\":205:229   */\n      tag_90\n      jump\t// in\n    tag_117:\n        /* \"#utility.yul\":194:229   */\n      swap1\n      pop\n        /* \"#utility.yul\":139:235   */\n      swap2\n      swap1\n      pop\n      jump\t// out\n        /* \"#utility.yul\":241:359   */\n    tag_92:\n        /* \"#utility.yul\":328:352   */\n      tag_119\n        /* \"#utility.yul\":346:351   */\n      dup2\n        /* \"#utility.yul\":328:352   */\n      tag_91\n      jump\t// in\n    tag_119:\n        /* \"#utility.yul\":323:326   */\n      dup3\n        /* \"#utility.yul\":316:353   */\n      mstore\n        /* \"#utility.yul\":241:359   */\n      pop\n      pop\n      jump\t// out\n        /* \"#utility.yul\":365:587   */\n    tag_16:\n        /* \"#utility.yul\":458:462   */\n      0x00\n        /* \"#utility.yul\":496:498   */\n      0x20\n        /* \"#utility.yul\":485:494   */\n      dup3\n        /* \"#utility.yul\":481:499   */\n      add\n        /* \"#utility.yul\":473:499   */\n      swap1\n      pop\n        /* \"#utility.yul\":509:580   */\n      tag_121\n        /* \"#utility.yul\":577:578   */\n      0x00\n        /* \"#utility.yul\":566:575   */\n      dup4\n        /* \"#utility.yul\":562:579   */\n      add\n        /* \"#utility.yul\":553:559   */\n      dup5\n        /* \"#utility.yul\":509:580   */\n      tag_92\n      jump\t// in\n    tag_121:\n        /* \"#utility.yul\":365:587   */\n      swap3\n      swap2\n      pop\n      pop\n      jump\t// out\n        /* \"#utility.yul\":674:791   */\n    tag_94:\n        /* \"#utility.yul\":783:784   */\n      0x00\n        /* \"#utility.yul\":780:781   */\n      dup1\n        /* \"#utility.yul\":773:785   */\n      revert\n        /* \"#utility.yul\":920:1042   */\n    tag_96:\n        /* \"#utility.yul\":993:1017   */\n      tag_126\n        /* \"#utility.yul\":1011:1016   */\n      dup2\n        /* \"#utility.yul\":993:1017   */\n      tag_91\n      jump\t// in\n    tag_126:\n        /* \"#utility.yul\":986:991   */\n      dup2\n        /* \"#utility.yul\":983:1018   */\n      eq\n        /* \"#utility.yul\":973:1036   */\n      tag_127\n      jumpi\n        /* \"#utility.yul\":1032:1033   */\n      0x00\n        /* \"#utility.yul\":1029:1030   */\n      dup1\n        /* \"#utility.yul\":1022:1034   */\n      revert\n        /* \"#utility.yul\":973:1036   */\n    tag_127:\n        /* \"#utility.yul\":920:1042   */\n      pop\n      jump\t// out\n        /* \"#utility.yul\":1048:1187   */\n    tag_97:\n        /* \"#utility.yul\":1094:1099   */\n      0x00\n        /* \"#utility.yul\":1132:1138   */\n      dup2\n        /* \"#utility.yul\":1119:1139   */\n      calldataload\n        /* \"#utility.yul\":1110:1139   */\n      swap1\n      pop\n        /* \"#utility.yul\":1148:1181   */\n      tag_129\n        /* \"#utility.yul\":1175:1180   */\n      dup2\n        /* \"#utility.yul\":1148:1181   */\n      tag_96\n      jump\t// in\n    tag_129:\n        /* \"#utility.yul\":1048:1187   */\n      swap3\n      swap2\n      pop\n      pop\n      jump\t// out\n        /* \"#utility.yul\":1193:1270   */\n    tag_98:\n        /* \"#utility.yul\":1230:1237   */\n      0x00\n        /* \"#utility.yul\":1259:1264   */\n      dup2\n        /* \"#utility.yul\":1248:1264   */\n      swap1\n      pop\n        /* \"#utility.yul\":1193:1270   */\n      swap2\n      swap1\n      pop\n      jump\t// out\n        /* \"#utility.yul\":1276:1398   */\n    tag_99:\n        /* \"#utility.yul\":1349:1373   */\n      tag_132\n        /* \"#utility.yul\":1367:1372   */\n      dup2\n        /* \"#utility.yul\":1349:1373   */\n      tag_98\n      jump\t// in\n    tag_132:\n        /* \"#utility.yul\":1342:1347   */\n      dup2\n        /* \"#utility.yul\":1339:1374   */\n      eq\n        /* \"#utility.yul\":1329:1392   */\n      tag_133\n      jumpi\n        /* \"#utility.yul\":1388:1389   */\n      0x00\n        /* \"#utility.yul\":1385:1386   */\n      dup1\n        /* \"#utility.yul\":1378:1390   */\n      revert\n        /* \"#utility.yul\":1329:1392   */\n    tag_133:\n        /* \"#utility.yul\":1276:1398   */\n      pop\n      jump\t// out\n        /* \"#utility.yul\":1404:1543   */\n    tag_100:\n        /* \"#utility.yul\":1450:1455   */\n      0x00\n        /* \"#utility.yul\":1488:1494   */\n      dup2\n        /* \"#utility.yul\":1475:1495   */\n      calldataload\n        /* \"#utility.yul\":1466:1495   */\n      swap1\n      pop\n        /* \"#utility.yul\":1504:1537   */\n      tag_135\n        /* \"#utility.yul\":1531:1536   */\n      dup2\n        /* \"#utility.yul\":1504:1537   */\n      tag_99\n      jump\t// in\n    tag_135:\n        /* \"#utility.yul\":1404:1543   */\n      swap3\n      swap2\n      pop\n      pop\n      jump\t// out\n        /* \"#utility.yul\":1549:2023   */\n    tag_19:\n        /* \"#utility.yul\":1617:1623   */\n      0x00\n        /* \"#utility.yul\":1625:1631   */\n      dup1\n        /* \"#utility.yul\":1674:1676   */\n      0x40\n        /* \"#utility.yul\":1662:1671   */\n      dup4\n        /* \"#utility.yul\":1653:1660   */\n      dup6\n        /* \"#utility.yul\":1649:1672   */\n      sub\n        /* \"#utility.yul\":1645:1677   */\n      slt\n        /* \"#utility.yul\":1642:1761   */\n      iszero\n      tag_137\n      jumpi\n        /* \"#utility.yul\":1680:1759   */\n      tag_138\n      tag_94\n      jump\t// in\n    tag_138:\n        /* \"#utility.yul\":1642:1761   */\n    tag_137:\n        /* \"#utility.yul\":1800:1801   */\n      0x00\n        /* \"#utility.yul\":1825:1878   */\n      tag_139\n        /* \"#utility.yul\":1870:1877   */\n      dup6\n        /* \"#utility.yul\":1861:1867   */\n      dup3\n        /* \"#utility.yul\":1850:1859   */\n      dup7\n        /* \"#utility.yul\":1846:1868   */\n      add\n        /* \"#utility.yul\":1825:1878   */\n      tag_97\n      jump\t// in\n    tag_139:\n        /* \"#utility.yul\":1815:1878   */\n      swap3\n      pop\n        /* \"#utility.yul\":1771:1888   */\n      pop\n        /* \"#utility.yul\":1927:1929   */\n      0x20\n        /* \"#utility.yul\":1953:2006   */\n      tag_140\n        /* \"#utility.yul\":1998:2005   */\n      dup6\n        /* \"#utility.yul\":1989:1995   */\n      dup3\n        /* \"#utility.yul\":1978:1987   */\n      dup7\n        /* \"#utility.yul\":1974:1996   */\n      add\n        /* \"#utility.yul\":1953:2006   */\n      tag_100\n      jump\t// in\n    tag_140:\n        /* \"#utility.yul\":1943:2006   */\n      swap2\n      pop\n        /* \"#utility.yul\":1898:2016   */\n      pop\n        /* \"#utility.yul\":1549:2023   */\n      swap3\n      pop\n      swap3\n      swap1\n      pop\n      jump\t// out\n        /* \"#utility.yul\":2029:2358   */\n    tag_26:\n        /* \"#utility.yul\":2088:2094   */\n      0x00\n        /* \"#utility.yul\":2137:2139   */\n      0x20\n        /* \"#utility.yul\":2125:2134   */\n      dup3\n        /* \"#utility.yul\":2116:2123   */\n      dup5\n        /* \"#utility.yul\":2112:2135   */\n      sub\n        /* \"#utility.yul\":2108:2140   */\n      slt\n        /* \"#utility.yul\":2105:2224   */\n      iszero\n      tag_142\n      jumpi\n        /* \"#utility.yul\":2143:2222   */\n      tag_143\n      tag_94\n      jump\t// in\n    tag_143:\n        /* \"#utility.yul\":2105:2224   */\n    tag_142:\n        /* \"#utility.yul\":2263:2264   */\n      0x00\n        /* \"#utility.yul\":2288:2341   */\n      tag_144\n        /* \"#utility.yul\":2333:2340   */\n      dup5\n        /* \"#utility.yul\":2324:2330   */\n      dup3\n        /* \"#utility.yul\":2313:2322   */\n      dup6\n        /* \"#utility.yul\":2309:2331   */\n      add\n        /* \"#utility.yul\":2288:2341   */\n      tag_97\n      jump\t// in\n    tag_144:\n        /* \"#utility.yul\":2278:2341   */\n      swap2\n      pop\n        /* \"#utility.yul\":2234:2351   */\n      pop\n        /* \"#utility.yul\":2029:2358   */\n      swap3\n      swap2\n      pop\n      pop\n      jump\t// out\n        /* \"#utility.yul\":2364:2482   */\n    tag_101:\n        /* \"#utility.yul\":2451:2475   */\n      tag_146\n        /* \"#utility.yul\":2469:2474   */\n      dup2\n        /* \"#utility.yul\":2451:2475   */\n      tag_98\n      jump\t// in\n    tag_146:\n        /* \"#utility.yul\":2446:2449   */\n      dup3\n        /* \"#utility.yul\":2439:2476   */\n      mstore\n        /* \"#utility.yul\":2364:2482   */\n      pop\n      pop\n      jump\t// out\n        /* \"#utility.yul\":2488:2710   */\n    tag_29:\n        /* \"#utility.yul\":2581:2585   */\n      0x00\n        /* \"#utility.yul\":2619:2621   */\n      0x20\n        /* \"#utility.yul\":2608:2617   */\n      dup3\n        /* \"#utility.yul\":2604:2622   */\n      add\n        /* \"#utility.yul\":2596:2622   */\n      swap1\n      pop\n        /* \"#utility.yul\":2632:2703   */\n      tag_148\n        /* \"#utility.yul\":2700:2701   */\n      0x00\n        /* \"#utility.yul\":2689:2698   */\n      dup4\n        /* \"#utility.yul\":2685:2702   */\n      add\n        /* \"#utility.yul\":2676:2682   */\n      dup5\n        /* \"#utility.yul\":2632:2703   */\n      tag_101\n      jump\t// in\n    tag_148:\n        /* \"#utility.yul\":2488:2710   */\n      swap3\n      swap2\n      pop\n      pop\n      jump\t// out\n        /* \"#utility.yul\":2716:3048   */\n    tag_37:\n        /* \"#utility.yul\":2837:2841   */\n      0x00\n        /* \"#utility.yul\":2875:2877   */\n      0x40\n        /* \"#utility.yul\":2864:2873   */\n      dup3\n        /* \"#utility.yul\":2860:2878   */\n      add\n        /* \"#utility.yul\":2852:2878   */\n      swap1\n      pop\n        /* \"#utility.yul\":2888:2959   */\n      tag_150\n        /* \"#utility.yul\":2956:2957   */\n      0x00\n        /* \"#utility.yul\":2945:2954   */\n      dup4\n        /* \"#utility.yul\":2941:2958   */\n      add\n        /* \"#utility.yul\":2932:2938   */\n      dup6\n        /* \"#utility.yul\":2888:2959   */\n      tag_101\n      jump\t// in\n    tag_150:\n        /* \"#utility.yul\":2969:3041   */\n      tag_151\n        /* \"#utility.yul\":3037:3039   */\n      0x20\n        /* \"#utility.yul\":3026:3035   */\n      dup4\n        /* \"#utility.yul\":3022:3040   */\n      add\n        /* \"#utility.yul\":3013:3019   */\n      dup5\n        /* \"#utility.yul\":2969:3041   */\n      tag_101\n      jump\t// in\n    tag_151:\n        /* \"#utility.yul\":2716:3048   */\n      swap4\n      swap3\n      pop\n      pop\n      pop\n      jump\t// out\n        /* \"#utility.yul\":3054:3223   */\n    tag_102:\n        /* \"#utility.yul\":3138:3149   */\n      0x00\n        /* \"#utility.yul\":3172:3178   */\n      dup3\n        /* \"#utility.yul\":3167:3170   */\n      dup3\n        /* \"#utility.yul\":3160:3179   */\n      mstore\n        /* \"#utility.yul\":3212:3216   */\n      0x20\n        /* \"#utility.yul\":3207:3210   */\n      dup3\n        /* \"#utility.yul\":3203:3217   */\n      add\n        /* \"#utility.yul\":3188:3217   */\n      swap1\n      pop\n        /* \"#utility.yul\":3054:3223   */\n      swap3\n      swap2\n      pop\n      pop\n      jump\t// out\n        /* \"#utility.yul\":3229:3399   */\n    tag_103:\n        /* \"#utility.yul\":3369:3391   */\n      0x496e76616c696420757365722061646472657373000000000000000000000000\n        /* \"#utility.yul\":3365:3366   */\n      0x00\n        /* \"#utility.yul\":3357:3363   */\n      dup3\n        /* \"#utility.yul\":3353:3367   */\n      add\n        /* \"#utility.yul\":3346:3392   */\n      mstore\n        /* \"#utility.yul\":3229:3399   */\n      pop\n      jump\t// out\n        /* \"#utility.yul\":3405:3771   */\n    tag_104:\n        /* \"#utility.yul\":3547:3550   */\n      0x00\n        /* \"#utility.yul\":3568:3635   */\n      tag_155\n        /* \"#utility.yul\":3632:3634   */\n      0x14\n        /* \"#utility.yul\":3627:3630   */\n      dup4\n        /* \"#utility.yul\":3568:3635   */\n      tag_102\n      jump\t// in\n    tag_155:\n        /* \"#utility.yul\":3561:3635   */\n      swap2\n      pop\n        /* \"#utility.yul\":3644:3737   */\n      tag_156\n        /* \"#utility.yul\":3733:3736   */\n      dup3\n        /* \"#utility.yul\":3644:3737   */\n      tag_103\n      jump\t// in\n    tag_156:\n        /* \"#utility.yul\":3762:3764   */\n      0x20\n        /* \"#utility.yul\":3757:3760   */\n      dup3\n        /* \"#utility.yul\":3753:3765   */\n      add\n        /* \"#utility.yul\":3746:3765   */\n      swap1\n      pop\n        /* \"#utility.yul\":3405:3771   */\n      swap2\n      swap1\n      pop\n      jump\t// out\n        /* \"#utility.yul\":3777:4196   */\n    tag_50:\n        /* \"#utility.yul\":3943:3947   */\n      0x00\n        /* \"#utility.yul\":3981:3983   */\n      0x20\n        /* \"#utility.yul\":3970:3979   */\n      dup3\n        /* \"#utility.yul\":3966:3984   */\n      add\n        /* \"#utility.yul\":3958:3984   */\n      swap1\n      pop\n        /* \"#utility.yul\":4030:4039   */\n      dup2\n        /* \"#utility.yul\":4024:4028   */\n      dup2\n        /* \"#utility.yul\":4020:4040   */\n      sub\n        /* \"#utility.yul\":4016:4017   */\n      0x00\n        /* \"#utility.yul\":4005:4014   */\n      dup4\n        /* \"#utility.yul\":4001:4018   */\n      add\n        /* \"#utility.yul\":3994:4041   */\n      mstore\n        /* \"#utility.yul\":4058:4189   */\n      tag_158\n        /* \"#utility.yul\":4184:4188   */\n      dup2\n        /* \"#utility.yul\":4058:4189   */\n      tag_104\n      jump\t// in\n    tag_158:\n        /* \"#utility.yul\":4050:4189   */\n      swap1\n      pop\n        /* \"#utility.yul\":3777:4196   */\n      swap2\n      swap1\n      pop\n      jump\t// out\n        /* \"#utility.yul\":4202:4423   */\n    tag_105:\n        /* \"#utility.yul\":4342:4376   */\n      0x416d6f756e742073686f756c642062652067726561746572207468616e207a65\n        /* \"#utility.yul\":4338:4339   */\n      0x00\n        /* \"#utility.yul\":4330:4336   */\n      dup3\n        /* \"#utility.yul\":4326:4340   */\n      add\n        /* \"#utility.yul\":4319:4377   */\n      mstore\n        /* \"#utility.yul\":4411:4415   */\n      0x726f000000000000000000000000000000000000000000000000000000000000\n        /* \"#utility.yul\":4406:4408   */\n      0x20\n        /* \"#utility.yul\":4398:4404   */\n      dup3\n        /* \"#utility.yul\":4394:4409   */\n      add\n        /* \"#utility.yul\":4387:4416   */\n      mstore\n        /* \"#utility.yul\":4202:4423   */\n      pop\n      jump\t// out\n        /* \"#utility.yul\":4429:4795   */\n    tag_106:\n        /* \"#utility.yul\":4571:4574   */\n      0x00\n        /* \"#utility.yul\":4592:4659   */\n      tag_161\n        /* \"#utility.yul\":4656:4658   */\n      0x22\n        /* \"#utility.yul\":4651:4654   */\n      dup4\n        /* \"#utility.yul\":4592:4659   */\n      tag_102\n      jump\t// in\n    tag_161:\n        /* \"#utility.yul\":4585:4659   */\n      swap2\n      pop\n        /* \"#utility.yul\":4668:4761   */\n      tag_162\n        /* \"#utility.yul\":4757:4760   */\n      dup3\n        /* \"#utility.yul\":4668:4761   */\n      tag_105\n      jump\t// in\n    tag_162:\n        /* \"#utility.yul\":4786:4788   */\n      0x40\n        /* \"#utility.yul\":4781:4784   */\n      dup3\n        /* \"#utility.yul\":4777:4789   */\n      add\n        /* \"#utility.yul\":4770:4789   */\n      swap1\n      pop\n        /* \"#utility.yul\":4429:4795   */\n      swap2\n      swap1\n      pop\n      jump\t// out\n        /* \"#utility.yul\":4801:5220   */\n    tag_53:\n        /* \"#utility.yul\":4967:4971   */\n      0x00\n        /* \"#utility.yul\":5005:5007   */\n      0x20\n        /* \"#utility.yul\":4994:5003   */\n      dup3\n        /* \"#utility.yul\":4990:5008   */\n      add\n        /* \"#utility.yul\":4982:5008   */\n      swap1\n      pop\n        /* \"#utility.yul\":5054:5063   */\n      dup2\n        /* \"#utility.yul\":5048:5052   */\n      dup2\n        /* \"#utility.yul\":5044:5064   */\n      sub\n        /* \"#utility.yul\":5040:5041   */\n      0x00\n        /* \"#utility.yul\":5029:5038   */\n      dup4\n        /* \"#utility.yul\":5025:5042   */\n      add\n        /* \"#utility.yul\":5018:5065   */\n      mstore\n        /* \"#utility.yul\":5082:5213   */\n      tag_164\n        /* \"#utility.yul\":5208:5212   */\n      dup2\n        /* \"#utility.yul\":5082:5213   */\n      tag_106\n      jump\t// in\n    tag_164:\n        /* \"#utility.yul\":5074:5213   */\n      swap1\n      pop\n        /* \"#utility.yul\":4801:5220   */\n      swap2\n      swap1\n      pop\n      jump\t// out\n        /* \"#utility.yul\":5226:5402   */\n    tag_107:\n        /* \"#utility.yul\":5366:5394   */\n      0x496e73756666696369656e74206561726e656420706f696e7473000000000000\n        /* \"#utility.yul\":5362:5363   */\n      0x00\n        /* \"#utility.yul\":5354:5360   */\n      dup3\n        /* \"#utility.yul\":5350:5364   */\n      add\n        /* \"#utility.yul\":5343:5395   */\n      mstore\n        /* \"#utility.yul\":5226:5402   */\n      pop\n      jump\t// out\n        /* \"#utility.yul\":5408:5774   */\n    tag_108:\n        /* \"#utility.yul\":5550:5553   */\n      0x00\n        /* \"#utility.yul\":5571:5638   */\n      tag_167\n        /* \"#utility.yul\":5635:5637   */\n      0x1a\n        /* \"#utility.yul\":5630:5633   */\n      dup4\n        /* \"#utility.yul\":5571:5638   */\n      tag_102\n      jump\t// in\n    tag_167:\n        /* \"#utility.yul\":5564:5638   */\n      swap2\n      pop\n        /* \"#utility.yul\":5647:5740   */\n      tag_168\n        /* \"#utility.yul\":5736:5739   */\n      dup3\n        /* \"#utility.yul\":5647:5740   */\n      tag_107\n      jump\t// in\n    tag_168:\n        /* \"#utility.yul\":5765:5767   */\n      0x20\n        /* \"#utility.yul\":5760:5763   */\n      dup3\n        /* \"#utility.yul\":5756:5768   */\n      add\n        /* \"#utility.yul\":5749:5768   */\n      swap1\n      pop\n        /* \"#utility.yul\":5408:5774   */\n      swap2\n      swap1\n      pop\n      jump\t// out\n        /* \"#utility.yul\":5780:6199   */\n    tag_56:\n        /* \"#utility.yul\":5946:5950   */\n      0x00\n        /* \"#utility.yul\":5984:5986   */\n      0x20\n        /* \"#utility.yul\":5973:5982   */\n      dup3\n        /* \"#utility.yul\":5969:5987   */\n      add\n        /* \"#utility.yul\":5961:5987   */\n      swap1\n      pop\n        /* \"#utility.yul\":6033:6042   */\n      dup2\n        /* \"#utility.yul\":6027:6031   */\n      dup2\n        /* \"#utility.yul\":6023:6043   */\n      sub\n        /* \"#utility.yul\":6019:6020   */\n      0x00\n        /* \"#utility.yul\":6008:6017   */\n      dup4\n        /* \"#utility.yul\":6004:6021   */\n      add\n        /* \"#utility.yul\":5997:6044   */\n      mstore\n        /* \"#utility.yul\":6061:6192   */\n      tag_170\n        /* \"#utility.yul\":6187:6191   */\n      dup2\n        /* \"#utility.yul\":6061:6192   */\n      tag_108\n      jump\t// in\n    tag_170:\n        /* \"#utility.yul\":6053:6192   */\n      swap1\n      pop\n        /* \"#utility.yul\":5780:6199   */\n      swap2\n      swap1\n      pop\n      jump\t// out\n        /* \"#utility.yul\":6205:6385   */\n    tag_109:\n        /* \"#utility.yul\":6253:6330   */\n      0x4e487b7100000000000000000000000000000000000000000000000000000000\n        /* \"#utility.yul\":6250:6251   */\n      0x00\n        /* \"#utility.yul\":6243:6331   */\n      mstore\n        /* \"#utility.yul\":6350:6354   */\n      0x11\n        /* \"#utility.yul\":6347:6348   */\n      0x04\n        /* \"#utility.yul\":6340:6355   */\n      mstore\n        /* \"#utility.yul\":6374:6378   */\n      0x24\n        /* \"#utility.yul\":6371:6372   */\n      0x00\n        /* \"#utility.yul\":6364:6379   */\n      revert\n        /* \"#utility.yul\":6391:6585   */\n    tag_58:\n        /* \"#utility.yul\":6431:6435   */\n      0x00\n        /* \"#utility.yul\":6451:6471   */\n      tag_173\n        /* \"#utility.yul\":6469:6470   */\n      dup3\n        /* \"#utility.yul\":6451:6471   */\n      tag_98\n      jump\t// in\n    tag_173:\n        /* \"#utility.yul\":6446:6471   */\n      swap2\n      pop\n        /* \"#utility.yul\":6485:6505   */\n      tag_174\n        /* \"#utility.yul\":6503:6504   */\n      dup4\n        /* \"#utility.yul\":6485:6505   */\n      tag_98\n      jump\t// in\n    tag_174:\n        /* \"#utility.yul\":6480:6505   */\n      swap3\n      pop\n        /* \"#utility.yul\":6529:6530   */\n      dup3\n        /* \"#utility.yul\":6526:6527   */\n      dup3\n        /* \"#utility.yul\":6522:6531   */\n      sub\n        /* \"#utility.yul\":6514:6531   */\n      swap1\n      pop\n        /* \"#utility.yul\":6553:6554   */\n      dup2\n        /* \"#utility.yul\":6547:6551   */\n      dup2\n        /* \"#utility.yul\":6544:6555   */\n      gt\n        /* \"#utility.yul\":6541:6578   */\n      iszero\n      tag_175\n      jumpi\n        /* \"#utility.yul\":6558:6576   */\n      tag_176\n      tag_109\n      jump\t// in\n    tag_176:\n        /* \"#utility.yul\":6541:6578   */\n    tag_175:\n        /* \"#utility.yul\":6391:6585   */\n      swap3\n      swap2\n      pop\n      pop\n      jump\t// out\n        /* \"#utility.yul\":6591:6782   */\n    tag_60:\n        /* \"#utility.yul\":6631:6634   */\n      0x00\n        /* \"#utility.yul\":6650:6670   */\n      tag_178\n        /* \"#utility.yul\":6668:6669   */\n      dup3\n        /* \"#utility.yul\":6650:6670   */\n      tag_98\n      jump\t// in\n    tag_178:\n        /* \"#utility.yul\":6645:6670   */\n      swap2\n      pop\n        /* \"#utility.yul\":6684:6704   */\n      tag_179\n        /* \"#utility.yul\":6702:6703   */\n      dup4\n        /* \"#utility.yul\":6684:6704   */\n      tag_98\n      jump\t// in\n    tag_179:\n        /* \"#utility.yul\":6679:6704   */\n      swap3\n      pop\n        /* \"#utility.yul\":6727:6728   */\n      dup3\n        /* \"#utility.yul\":6724:6725   */\n      dup3\n        /* \"#utility.yul\":6720:6729   */\n      add\n        /* \"#utility.yul\":6713:6729   */\n      swap1\n      pop\n        /* \"#utility.yul\":6748:6751   */\n      dup1\n        /* \"#utility.yul\":6745:6746   */\n      dup3\n        /* \"#utility.yul\":6742:6752   */\n      gt\n        /* \"#utility.yul\":6739:6775   */\n      iszero\n      tag_180\n      jumpi\n        /* \"#utility.yul\":6755:6773   */\n      tag_181\n      tag_109\n      jump\t// in\n    tag_181:\n        /* \"#utility.yul\":6739:6775   */\n    tag_180:\n        /* \"#utility.yul\":6591:6782   */\n      swap3\n      swap2\n      pop\n      pop\n      jump\t// out\n        /* \"#utility.yul\":6788:7013   */\n    tag_110:\n        /* \"#utility.yul\":6928:6962   */\n      0x4f776e61626c653a206e6577206f776e657220697320746865207a65726f2061\n        /* \"#utility.yul\":6924:6925   */\n      0x00\n        /* \"#utility.yul\":6916:6922   */\n      dup3\n        /* \"#utility.yul\":6912:6926   */\n      add\n        /* \"#utility.yul\":6905:6963   */\n      mstore\n        /* \"#utility.yul\":6997:7005   */\n      0x6464726573730000000000000000000000000000000000000000000000000000\n        /* \"#utility.yul\":6992:6994   */\n      0x20\n        /* \"#utility.yul\":6984:6990   */\n      dup3\n        /* \"#utility.yul\":6980:6995   */\n      add\n        /* \"#utility.yul\":6973:7006   */\n      mstore\n        /* \"#utility.yul\":6788:7013   */\n      pop\n      jump\t// out\n        /* \"#utility.yul\":7019:7385   */\n    tag_111:\n        /* \"#utility.yul\":7161:7164   */\n      0x00\n        /* \"#utility.yul\":7182:7249   */\n      tag_184\n        /* \"#utility.yul\":7246:7248   */\n      0x26\n        /* \"#utility.yul\":7241:7244   */\n      dup4\n        /* \"#utility.yul\":7182:7249   */\n      tag_102\n      jump\t// in\n    tag_184:\n        /* \"#utility.yul\":7175:7249   */\n      swap2\n      pop\n        /* \"#utility.yul\":7258:7351   */\n      tag_185\n        /* \"#utility.yul\":7347:7350   */\n      dup3\n        /* \"#utility.yul\":7258:7351   */\n      tag_110\n      jump\t// in\n    tag_185:\n        /* \"#utility.yul\":7376:7378   */\n      0x40\n        /* \"#utility.yul\":7371:7374   */\n      dup3\n        /* \"#utility.yul\":7367:7379   */\n      add\n        /* \"#utility.yul\":7360:7379   */\n      swap1\n      pop\n        /* \"#utility.yul\":7019:7385   */\n      swap2\n      swap1\n      pop\n      jump\t// out\n        /* \"#utility.yul\":7391:7810   */\n    tag_79:\n        /* \"#utility.yul\":7557:7561   */\n      0x00\n        /* \"#utility.yul\":7595:7597   */\n      0x20\n        /* \"#utility.yul\":7584:7593   */\n      dup3\n        /* \"#utility.yul\":7580:7598   */\n      add\n        /* \"#utility.yul\":7572:7598   */\n      swap1\n      pop\n        /* \"#utility.yul\":7644:7653   */\n      dup2\n        /* \"#utility.yul\":7638:7642   */\n      dup2\n        /* \"#utility.yul\":7634:7654   */\n      sub\n        /* \"#utility.yul\":7630:7631   */\n      0x00\n        /* \"#utility.yul\":7619:7628   */\n      dup4\n        /* \"#utility.yul\":7615:7632   */\n      add\n        /* \"#utility.yul\":7608:7655   */\n      mstore\n        /* \"#utility.yul\":7672:7803   */\n      tag_187\n        /* \"#utility.yul\":7798:7802   */\n      dup2\n        /* \"#utility.yul\":7672:7803   */\n      tag_111\n      jump\t// in\n    tag_187:\n        /* \"#utility.yul\":7664:7803   */\n      swap1\n      pop\n        /* \"#utility.yul\":7391:7810   */\n      swap2\n      swap1\n      pop\n      jump\t// out\n        /* \"#utility.yul\":7816:7998   */\n    tag_112:\n        /* \"#utility.yul\":7956:7990   */\n      0x4f776e61626c653a2063616c6c6572206973206e6f7420746865206f776e6572\n        /* \"#utility.yul\":7952:7953   */\n      0x00\n        /* \"#utility.yul\":7944:7950   */\n      dup3\n        /* \"#utility.yul\":7940:7954   */\n      add\n        /* \"#utility.yul\":7933:7991   */\n      mstore\n        /* \"#utility.yul\":7816:7998   */\n      pop\n      jump\t// out\n        /* \"#utility.yul\":8004:8370   */\n    tag_113:\n        /* \"#utility.yul\":8146:8149   */\n      0x00\n        /* \"#utility.yul\":8167:8234   */\n      tag_190\n        /* \"#utility.yul\":8231:8233   */\n      0x20\n        /* \"#utility.yul\":8226:8229   */\n      dup4\n        /* \"#utility.yul\":8167:8234   */\n      tag_102\n      jump\t// in\n    tag_190:\n        /* \"#utility.yul\":8160:8234   */\n      swap2\n      pop\n        /* \"#utility.yul\":8243:8336   */\n      tag_191\n        /* \"#utility.yul\":8332:8335   */\n      dup3\n        /* \"#utility.yul\":8243:8336   */\n      tag_112\n      jump\t// in\n    tag_191:\n        /* \"#utility.yul\":8361:8363   */\n      0x20\n        /* \"#utility.yul\":8356:8359   */\n      dup3\n        /* \"#utility.yul\":8352:8364   */\n      add\n        /* \"#utility.yul\":8345:8364   */\n      swap1\n      pop\n        /* \"#utility.yul\":8004:8370   */\n      swap2\n      swap1\n      pop\n      jump\t// out\n        /* \"#utility.yul\":8376:8795   */\n    tag_87:\n        /* \"#utility.yul\":8542:8546   */\n      0x00\n        /* \"#utility.yul\":8580:8582   */\n      0x20\n        /* \"#utility.yul\":8569:8578   */\n      dup3\n        /* \"#utility.yul\":8565:8583   */\n      add\n        /* \"#utility.yul\":8557:8583   */\n      swap1\n      pop\n        /* \"#utility.yul\":8629:8638   */\n      dup2\n        /* \"#utility.yul\":8623:8627   */\n      dup2\n        /* \"#utility.yul\":8619:8639   */\n      sub\n        /* \"#utility.yul\":8615:8616   */\n      0x00\n        /* \"#utility.yul\":8604:8613   */\n      dup4\n        /* \"#utility.yul\":8600:8617   */\n      add\n        /* \"#utility.yul\":8593:8640   */\n      mstore\n        /* \"#utility.yul\":8657:8788   */\n      tag_193\n        /* \"#utility.yul\":8783:8787   */\n      dup2\n        /* \"#utility.yul\":8657:8788   */\n      tag_113\n      jump\t// in\n    tag_193:\n        /* \"#utility.yul\":8649:8788   */\n      swap1\n      pop\n        /* \"#utility.yul\":8376:8795   */\n      swap2\n      swap1\n      pop\n      jump\t// out\n\n    auxdata: 0xa26469706673582212208464ff341cc74e817219e962754e441abad095c13f33c890c2357efdaacea80d64736f6c63430008120033\n}\n",
				"bytecode": {
					"linkReferences": {},
					"object": "608060405234801561001057600080fd5b5061002d61002261003260201b60201c565b61003a60201b60201c565b6100fe565b600033905090565b60008060009054906101000a900473ffffffffffffffffffffffffffffffffffffffff169050816000806101000a81548173ffffffffffffffffffffffffffffffffffffffff021916908373ffffffffffffffffffffffffffffffffffffffff1602179055508173ffffffffffffffffffffffffffffffffffffffff168173ffffffffffffffffffffffffffffffffffffffff167f8be0079c531659141344cd1fd0a4f28419497f9722a3daafe3b4186f6b6457e060405160405180910390a35050565b610cb88061010d6000396000f3fe608060405234801561001057600080fd5b506004361061007d5760003560e01c8063d909d5e31161005b578063d909d5e3146100c6578063e707f36f146100e2578063f2fde38b14610112578063f50ddbc71461012e5761007d565b8063715018a6146100825780638da5cb5b1461008c578063b85da8d2146100aa575b600080fd5b61008a61015f565b005b610094610173565b6040516100a19190610830565b60405180910390f35b6100c460048036038101906100bf91906108b2565b61019c565b005b6100e060048036038101906100db91906108b2565b6103df565b005b6100fc60048036038101906100f791906108f2565b610544565b604051610109919061092e565b60405180910390f35b61012c600480360381019061012791906108f2565b6105fe565b005b610148600480360381019061014391906108f2565b610681565b604051610156929190610949565b60405180910390f35b6101676106a5565b6101716000610723565b565b60008060009054906101000a900473ffffffffffffffffffffffffffffffffffffffff16905090565b6101a46106a5565b600073ffffffffffffffffffffffffffffffffffffffff168273ffffffffffffffffffffffffffffffffffffffff1603610213576040517f08c379a000000000000000000000000000000000000000000000000000000000815260040161020a906109cf565b60405180910390fd5b60008111610256576040517f08c379a000000000000000000000000000000000000000000000000000000000815260040161024d90610a61565b60405180910390fd5b80600160008473ffffffffffffffffffffffffffffffffffffffff1673ffffffffffffffffffffffffffffffffffffffff1681526020019081526020016000206000015410156102db576040517f08c379a00000000000000000000000000000000000000000000000000000000081526004016102d290610acd565b60405180910390fd5b80600160008473ffffffffffffffffffffffffffffffffffffffff1673ffffffffffffffffffffffffffffffffffffffff168152602001908152602001600020600001600082825461032d9190610b1c565b9250508190555080600160008473ffffffffffffffffffffffffffffffffffffffff1673ffffffffffffffffffffffffffffffffffffffff16815260200190815260200160002060010160008282546103869190610b50565b925050819055508173ffffffffffffffffffffffffffffffffffffffff167fc37df5d14f305277c1289e9a188a097cda6684189c95f785feb056cb77a8c910826040516103d3919061092e565b60405180910390a25050565b6103e76106a5565b600073ffffffffffffffffffffffffffffffffffffffff168273ffffffffffffffffffffffffffffffffffffffff1603610456576040517f08c379a000000000000000000000000000000000000000000000000000000000815260040161044d906109cf565b60405180910390fd5b60008111610499576040517f08c379a000000000000000000000000000000000000000000000000000000000815260040161049090610a61565b60405180910390fd5b80600160008473ffffffffffffffffffffffffffffffffffffffff1673ffffffffffffffffffffffffffffffffffffffff16815260200190815260200160002060000160008282546104eb9190610b50565b925050819055508173ffffffffffffffffffffffffffffffffffffffff167f2c4c0dc427a50c4a69d2fc184c47a311acf950d8d2f289fbaee64e83e9b2896782604051610538919061092e565b60405180910390a25050565b60008073ffffffffffffffffffffffffffffffffffffffff168273ffffffffffffffffffffffffffffffffffffffff16036105b4576040517f08c379a00000000000000000000000000000000000000000000000000000000081526004016105ab906109cf565b60405180910390fd5b600160008373ffffffffffffffffffffffffffffffffffffffff1673ffffffffffffffffffffffffffffffffffffffff168152602001908152602001600020600001549050919050565b6106066106a5565b600073ffffffffffffffffffffffffffffffffffffffff168173ffffffffffffffffffffffffffffffffffffffff1603610675576040517f08c379a000000000000000000000000000000000000000000000000000000000815260040161066c90610bf6565b60405180910390fd5b61067e81610723565b50565b60016020528060005260406000206000915090508060000154908060010154905082565b6106ad6107e7565b73ffffffffffffffffffffffffffffffffffffffff166106cb610173565b73ffffffffffffffffffffffffffffffffffffffff1614610721576040517f08c379a000000000000000000000000000000000000000000000000000000000815260040161071890610c62565b60405180910390fd5b565b60008060009054906101000a900473ffffffffffffffffffffffffffffffffffffffff169050816000806101000a81548173ffffffffffffffffffffffffffffffffffffffff021916908373ffffffffffffffffffffffffffffffffffffffff1602179055508173ffffffffffffffffffffffffffffffffffffffff168173ffffffffffffffffffffffffffffffffffffffff167f8be0079c531659141344cd1fd0a4f28419497f9722a3daafe3b4186f6b6457e060405160405180910390a35050565b600033905090565b600073ffffffffffffffffffffffffffffffffffffffff82169050919050565b600061081a826107ef565b9050919050565b61082a8161080f565b82525050565b60006020820190506108456000830184610821565b92915050565b600080fd5b6108598161080f565b811461086457600080fd5b50565b60008135905061087681610850565b92915050565b6000819050919050565b61088f8161087c565b811461089a57600080fd5b50565b6000813590506108ac81610886565b92915050565b600080604083850312156108c9576108c861084b565b5b60006108d785828601610867565b92505060206108e88582860161089d565b9150509250929050565b6000602082840312156109085761090761084b565b5b600061091684828501610867565b91505092915050565b6109288161087c565b82525050565b6000602082019050610943600083018461091f565b92915050565b600060408201905061095e600083018561091f565b61096b602083018461091f565b9392505050565b600082825260208201905092915050565b7f496e76616c696420757365722061646472657373000000000000000000000000600082015250565b60006109b9601483610972565b91506109c482610983565b602082019050919050565b600060208201905081810360008301526109e8816109ac565b9050919050565b7f416d6f756e742073686f756c642062652067726561746572207468616e207a6560008201527f726f000000000000000000000000000000000000000000000000000000000000602082015250565b6000610a4b602283610972565b9150610a56826109ef565b604082019050919050565b60006020820190508181036000830152610a7a81610a3e565b9050919050565b7f496e73756666696369656e74206561726e656420706f696e7473000000000000600082015250565b6000610ab7601a83610972565b9150610ac282610a81565b602082019050919050565b60006020820190508181036000830152610ae681610aaa565b9050919050565b7f4e487b7100000000000000000000000000000000000000000000000000000000600052601160045260246000fd5b6000610b278261087c565b9150610b328361087c565b9250828203905081811115610b4a57610b49610aed565b5b92915050565b6000610b5b8261087c565b9150610b668361087c565b9250828201905080821115610b7e57610b7d610aed565b5b92915050565b7f4f776e61626c653a206e6577206f776e657220697320746865207a65726f206160008201527f6464726573730000000000000000000000000000000000000000000000000000602082015250565b6000610be0602683610972565b9150610beb82610b84565b604082019050919050565b60006020820190508181036000830152610c0f81610bd3565b9050919050565b7f4f776e61626c653a2063616c6c6572206973206e6f7420746865206f776e6572600082015250565b6000610c4c602083610972565b9150610c5782610c16565b602082019050919050565b60006020820190508181036000830152610c7b81610c3f565b905091905056fea26469706673582212208464ff341cc74e817219e962754e441abad095c13f33c890c2357efdaacea80d64736f6c63430008120033",
					"opcodes": "PUSH1 0x80 PUSH1 0x40 MSTORE CALLVALUE DUP1 ISZERO PUSH2 0x10 JUMPI PUSH1 0x0 DUP1 REVERT JUMPDEST POP PUSH2 0x2D PUSH2 0x22 PUSH2 0x32 PUSH1 0x20 SHL PUSH1 0x20 SHR JUMP JUMPDEST PUSH2 0x3A PUSH1 0x20 SHL PUSH1 0x20 SHR JUMP JUMPDEST PUSH2 0xFE JUMP JUMPDEST PUSH1 0x0 CALLER SWAP1 POP SWAP1 JUMP JUMPDEST PUSH1 0x0 DUP1 PUSH1 0x0 SWAP1 SLOAD SWAP1 PUSH2 0x100 EXP SWAP1 DIV PUSH20 0xFFFFFFFFFFFFFFFFFFFFFFFFFFFFFFFFFFFFFFFF AND SWAP1 POP DUP2 PUSH1 0x0 DUP1 PUSH2 0x100 EXP DUP2 SLOAD DUP2 PUSH20 0xFFFFFFFFFFFFFFFFFFFFFFFFFFFFFFFFFFFFFFFF MUL NOT AND SWAP1 DUP4 PUSH20 0xFFFFFFFFFFFFFFFFFFFFFFFFFFFFFFFFFFFFFFFF AND MUL OR SWAP1 SSTORE POP DUP2 PUSH20 0xFFFFFFFFFFFFFFFFFFFFFFFFFFFFFFFFFFFFFFFF AND DUP2 PUSH20 0xFFFFFFFFFFFFFFFFFFFFFFFFFFFFFFFFFFFFFFFF AND PUSH32 0x8BE0079C531659141344CD1FD0A4F28419497F9722A3DAAFE3B4186F6B6457E0 PUSH1 0x40 MLOAD PUSH1 0x40 MLOAD DUP1 SWAP2 SUB SWAP1 LOG3 POP POP JUMP JUMPDEST PUSH2 0xCB8 DUP1 PUSH2 0x10D PUSH1 0x0 CODECOPY PUSH1 0x0 RETURN INVALID PUSH1 0x80 PUSH1 0x40 MSTORE CALLVALUE DUP1 ISZERO PUSH2 0x10 JUMPI PUSH1 0x0 DUP1 REVERT JUMPDEST POP PUSH1 0x4 CALLDATASIZE LT PUSH2 0x7D JUMPI PUSH1 0x0 CALLDATALOAD PUSH1 0xE0 SHR DUP1 PUSH4 0xD909D5E3 GT PUSH2 0x5B JUMPI DUP1 PUSH4 0xD909D5E3 EQ PUSH2 0xC6 JUMPI DUP1 PUSH4 0xE707F36F EQ PUSH2 0xE2 JUMPI DUP1 PUSH4 0xF2FDE38B EQ PUSH2 0x112 JUMPI DUP1 PUSH4 0xF50DDBC7 EQ PUSH2 0x12E JUMPI PUSH2 0x7D JUMP JUMPDEST DUP1 PUSH4 0x715018A6 EQ PUSH2 0x82 JUMPI DUP1 PUSH4 0x8DA5CB5B EQ PUSH2 0x8C JUMPI DUP1 PUSH4 0xB85DA8D2 EQ PUSH2 0xAA JUMPI JUMPDEST PUSH1 0x0 DUP1 REVERT JUMPDEST PUSH2 0x8A PUSH2 0x15F JUMP JUMPDEST STOP JUMPDEST PUSH2 0x94 PUSH2 0x173 JUMP JUMPDEST PUSH1 0x40 MLOAD PUSH2 0xA1 SWAP2 SWAP1 PUSH2 0x830 JUMP JUMPDEST PUSH1 0x40 MLOAD DUP1 SWAP2 SUB SWAP1 RETURN JUMPDEST PUSH2 0xC4 PUSH1 0x4 DUP1 CALLDATASIZE SUB DUP2 ADD SWAP1 PUSH2 0xBF SWAP2 SWAP1 PUSH2 0x8B2 JUMP JUMPDEST PUSH2 0x19C JUMP JUMPDEST STOP JUMPDEST PUSH2 0xE0 PUSH1 0x4 DUP1 CALLDATASIZE SUB DUP2 ADD SWAP1 PUSH2 0xDB SWAP2 SWAP1 PUSH2 0x8B2 JUMP JUMPDEST PUSH2 0x3DF JUMP JUMPDEST STOP JUMPDEST PUSH2 0xFC PUSH1 0x4 DUP1 CALLDATASIZE SUB DUP2 ADD SWAP1 PUSH2 0xF7 SWAP2 SWAP1 PUSH2 0x8F2 JUMP JUMPDEST PUSH2 0x544 JUMP JUMPDEST PUSH1 0x40 MLOAD PUSH2 0x109 SWAP2 SWAP1 PUSH2 0x92E JUMP JUMPDEST PUSH1 0x40 MLOAD DUP1 SWAP2 SUB SWAP1 RETURN JUMPDEST PUSH2 0x12C PUSH1 0x4 DUP1 CALLDATASIZE SUB DUP2 ADD SWAP1 PUSH2 0x127 SWAP2 SWAP1 PUSH2 0x8F2 JUMP JUMPDEST PUSH2 0x5FE JUMP JUMPDEST STOP JUMPDEST PUSH2 0x148 PUSH1 0x4 DUP1 CALLDATASIZE SUB DUP2 ADD SWAP1 PUSH2 0x143 SWAP2 SWAP1 PUSH2 0x8F2 JUMP JUMPDEST PUSH2 0x681 JUMP JUMPDEST PUSH1 0x40 MLOAD PUSH2 0x156 SWAP3 SWAP2 SWAP1 PUSH2 0x949 JUMP JUMPDEST PUSH1 0x40 MLOAD DUP1 SWAP2 SUB SWAP1 RETURN JUMPDEST PUSH2 0x167 PUSH2 0x6A5 JUMP JUMPDEST PUSH2 0x171 PUSH1 0x0 PUSH2 0x723 JUMP JUMPDEST JUMP JUMPDEST PUSH1 0x0 DUP1 PUSH1 0x0 SWAP1 SLOAD SWAP1 PUSH2 0x100 EXP SWAP1 DIV PUSH20 0xFFFFFFFFFFFFFFFFFFFFFFFFFFFFFFFFFFFFFFFF AND SWAP1 POP SWAP1 JUMP JUMPDEST PUSH2 0x1A4 PUSH2 0x6A5 JUMP JUMPDEST PUSH1 0x0 PUSH20 0xFFFFFFFFFFFFFFFFFFFFFFFFFFFFFFFFFFFFFFFF AND DUP3 PUSH20 0xFFFFFFFFFFFFFFFFFFFFFFFFFFFFFFFFFFFFFFFF AND SUB PUSH2 0x213 JUMPI PUSH1 0x40 MLOAD PUSH32 0x8C379A000000000000000000000000000000000000000000000000000000000 DUP2 MSTORE PUSH1 0x4 ADD PUSH2 0x20A SWAP1 PUSH2 0x9CF JUMP JUMPDEST PUSH1 0x40 MLOAD DUP1 SWAP2 SUB SWAP1 REVERT JUMPDEST PUSH1 0x0 DUP2 GT PUSH2 0x256 JUMPI PUSH1 0x40 MLOAD PUSH32 0x8C379A000000000000000000000000000000000000000000000000000000000 DUP2 MSTORE PUSH1 0x4 ADD PUSH2 0x24D SWAP1 PUSH2 0xA61 JUMP JUMPDEST PUSH1 0x40 MLOAD DUP1 SWAP2 SUB SWAP1 REVERT JUMPDEST DUP1 PUSH1 0x1 PUSH1 0x0 DUP5 PUSH20 0xFFFFFFFFFFFFFFFFFFFFFFFFFFFFFFFFFFFFFFFF AND PUSH20 0xFFFFFFFFFFFFFFFFFFFFFFFFFFFFFFFFFFFFFFFF AND DUP2 MSTORE PUSH1 0x20 ADD SWAP1 DUP2 MSTORE PUSH1 0x20 ADD PUSH1 0x0 KECCAK256 PUSH1 0x0 ADD SLOAD LT ISZERO PUSH2 0x2DB JUMPI PUSH1 0x40 MLOAD PUSH32 0x8C379A000000000000000000000000000000000000000000000000000000000 DUP2 MSTORE PUSH1 0x4 ADD PUSH2 0x2D2 SWAP1 PUSH2 0xACD JUMP JUMPDEST PUSH1 0x40 MLOAD DUP1 SWAP2 SUB SWAP1 REVERT JUMPDEST DUP1 PUSH1 0x1 PUSH1 0x0 DUP5 PUSH20 0xFFFFFFFFFFFFFFFFFFFFFFFFFFFFFFFFFFFFFFFF AND PUSH20 0xFFFFFFFFFFFFFFFFFFFFFFFFFFFFFFFFFFFFFFFF AND DUP2 MSTORE PUSH1 0x20 ADD SWAP1 DUP2 MSTORE PUSH1 0x20 ADD PUSH1 0x0 KECCAK256 PUSH1 0x0 ADD PUSH1 0x0 DUP3 DUP3 SLOAD PUSH2 0x32D SWAP2 SWAP1 PUSH2 0xB1C JUMP JUMPDEST SWAP3 POP POP DUP2 SWAP1 SSTORE POP DUP1 PUSH1 0x1 PUSH1 0x0 DUP5 PUSH20 0xFFFFFFFFFFFFFFFFFFFFFFFFFFFFFFFFFFFFFFFF AND PUSH20 0xFFFFFFFFFFFFFFFFFFFFFFFFFFFFFFFFFFFFFFFF AND DUP2 MSTORE PUSH1 0x20 ADD SWAP1 DUP2 MSTORE PUSH1 0x20 ADD PUSH1 0x0 KECCAK256 PUSH1 0x1 ADD PUSH1 0x0 DUP3 DUP3 SLOAD PUSH2 0x386 SWAP2 SWAP1 PUSH2 0xB50 JUMP JUMPDEST SWAP3 POP POP DUP2 SWAP1 SSTORE POP DUP2 PUSH20 0xFFFFFFFFFFFFFFFFFFFFFFFFFFFFFFFFFFFFFFFF AND PUSH32 0xC37DF5D14F305277C1289E9A188A097CDA6684189C95F785FEB056CB77A8C910 DUP3 PUSH1 0x40 MLOAD PUSH2 0x3D3 SWAP2 SWAP1 PUSH2 0x92E JUMP JUMPDEST PUSH1 0x40 MLOAD DUP1 SWAP2 SUB SWAP1 LOG2 POP POP JUMP JUMPDEST PUSH2 0x3E7 PUSH2 0x6A5 JUMP JUMPDEST PUSH1 0x0 PUSH20 0xFFFFFFFFFFFFFFFFFFFFFFFFFFFFFFFFFFFFFFFF AND DUP3 PUSH20 0xFFFFFFFFFFFFFFFFFFFFFFFFFFFFFFFFFFFFFFFF AND SUB PUSH2 0x456 JUMPI PUSH1 0x40 MLOAD PUSH32 0x8C379A000000000000000000000000000000000000000000000000000000000 DUP2 MSTORE PUSH1 0x4 ADD PUSH2 0x44D SWAP1 PUSH2 0x9CF JUMP JUMPDEST PUSH1 0x40 MLOAD DUP1 SWAP2 SUB SWAP1 REVERT JUMPDEST PUSH1 0x0 DUP2 GT PUSH2 0x499 JUMPI PUSH1 0x40 MLOAD PUSH32 0x8C379A000000000000000000000000000000000000000000000000000000000 DUP2 MSTORE PUSH1 0x4 ADD PUSH2 0x490 SWAP1 PUSH2 0xA61 JUMP JUMPDEST PUSH1 0x40 MLOAD DUP1 SWAP2 SUB SWAP1 REVERT JUMPDEST DUP1 PUSH1 0x1 PUSH1 0x0 DUP5 PUSH20 0xFFFFFFFFFFFFFFFFFFFFFFFFFFFFFFFFFFFFFFFF AND PUSH20 0xFFFFFFFFFFFFFFFFFFFFFFFFFFFFFFFFFFFFFFFF AND DUP2 MSTORE PUSH1 0x20 ADD SWAP1 DUP2 MSTORE PUSH1 0x20 ADD PUSH1 0x0 KECCAK256 PUSH1 0x0 ADD PUSH1 0x0 DUP3 DUP3 SLOAD PUSH2 0x4EB SWAP2 SWAP1 PUSH2 0xB50 JUMP JUMPDEST SWAP3 POP POP DUP2 SWAP1 SSTORE POP DUP2 PUSH20 0xFFFFFFFFFFFFFFFFFFFFFFFFFFFFFFFFFFFFFFFF AND PUSH32 0x2C4C0DC427A50C4A69D2FC184C47A311ACF950D8D2F289FBAEE64E83E9B28967 DUP3 PUSH1 0x40 MLOAD PUSH2 0x538 SWAP2 SWAP1 PUSH2 0x92E JUMP JUMPDEST PUSH1 0x40 MLOAD DUP1 SWAP2 SUB SWAP1 LOG2 POP POP JUMP JUMPDEST PUSH1 0x0 DUP1 PUSH20 0xFFFFFFFFFFFFFFFFFFFFFFFFFFFFFFFFFFFFFFFF AND DUP3 PUSH20 0xFFFFFFFFFFFFFFFFFFFFFFFFFFFFFFFFFFFFFFFF AND SUB PUSH2 0x5B4 JUMPI PUSH1 0x40 MLOAD PUSH32 0x8C379A000000000000000000000000000000000000000000000000000000000 DUP2 MSTORE PUSH1 0x4 ADD PUSH2 0x5AB SWAP1 PUSH2 0x9CF JUMP JUMPDEST PUSH1 0x40 MLOAD DUP1 SWAP2 SUB SWAP1 REVERT JUMPDEST PUSH1 0x1 PUSH1 0x0 DUP4 PUSH20 0xFFFFFFFFFFFFFFFFFFFFFFFFFFFFFFFFFFFFFFFF AND PUSH20 0xFFFFFFFFFFFFFFFFFFFFFFFFFFFFFFFFFFFFFFFF AND DUP2 MSTORE PUSH1 0x20 ADD SWAP1 DUP2 MSTORE PUSH1 0x20 ADD PUSH1 0x0 KECCAK256 PUSH1 0x0 ADD SLOAD SWAP1 POP SWAP2 SWAP1 POP JUMP JUMPDEST PUSH2 0x606 PUSH2 0x6A5 JUMP JUMPDEST PUSH1 0x0 PUSH20 0xFFFFFFFFFFFFFFFFFFFFFFFFFFFFFFFFFFFFFFFF AND DUP2 PUSH20 0xFFFFFFFFFFFFFFFFFFFFFFFFFFFFFFFFFFFFFFFF AND SUB PUSH2 0x675 JUMPI PUSH1 0x40 MLOAD PUSH32 0x8C379A000000000000000000000000000000000000000000000000000000000 DUP2 MSTORE PUSH1 0x4 ADD PUSH2 0x66C SWAP1 PUSH2 0xBF6 JUMP JUMPDEST PUSH1 0x40 MLOAD DUP1 SWAP2 SUB SWAP1 REVERT JUMPDEST PUSH2 0x67E DUP2 PUSH2 0x723 JUMP JUMPDEST POP JUMP JUMPDEST PUSH1 0x1 PUSH1 0x20 MSTORE DUP1 PUSH1 0x0 MSTORE PUSH1 0x40 PUSH1 0x0 KECCAK256 PUSH1 0x0 SWAP2 POP SWAP1 POP DUP1 PUSH1 0x0 ADD SLOAD SWAP1 DUP1 PUSH1 0x1 ADD SLOAD SWAP1 POP DUP3 JUMP JUMPDEST PUSH2 0x6AD PUSH2 0x7E7 JUMP JUMPDEST PUSH20 0xFFFFFFFFFFFFFFFFFFFFFFFFFFFFFFFFFFFFFFFF AND PUSH2 0x6CB PUSH2 0x173 JUMP JUMPDEST PUSH20 0xFFFFFFFFFFFFFFFFFFFFFFFFFFFFFFFFFFFFFFFF AND EQ PUSH2 0x721 JUMPI PUSH1 0x40 MLOAD PUSH32 0x8C379A000000000000000000000000000000000000000000000000000000000 DUP2 MSTORE PUSH1 0x4 ADD PUSH2 0x718 SWAP1 PUSH2 0xC62 JUMP JUMPDEST PUSH1 0x40 MLOAD DUP1 SWAP2 SUB SWAP1 REVERT JUMPDEST JUMP JUMPDEST PUSH1 0x0 DUP1 PUSH1 0x0 SWAP1 SLOAD SWAP1 PUSH2 0x100 EXP SWAP1 DIV PUSH20 0xFFFFFFFFFFFFFFFFFFFFFFFFFFFFFFFFFFFFFFFF AND SWAP1 POP DUP2 PUSH1 0x0 DUP1 PUSH2 0x100 EXP DUP2 SLOAD DUP2 PUSH20 0xFFFFFFFFFFFFFFFFFFFFFFFFFFFFFFFFFFFFFFFF MUL NOT AND SWAP1 DUP4 PUSH20 0xFFFFFFFFFFFFFFFFFFFFFFFFFFFFFFFFFFFFFFFF AND MUL OR SWAP1 SSTORE POP DUP2 PUSH20 0xFFFFFFFFFFFFFFFFFFFFFFFFFFFFFFFFFFFFFFFF AND DUP2 PUSH20 0xFFFFFFFFFFFFFFFFFFFFFFFFFFFFFFFFFFFFFFFF AND PUSH32 0x8BE0079C531659141344CD1FD0A4F28419497F9722A3DAAFE3B4186F6B6457E0 PUSH1 0x40 MLOAD PUSH1 0x40 MLOAD DUP1 SWAP2 SUB SWAP1 LOG3 POP POP JUMP JUMPDEST PUSH1 0x0 CALLER SWAP1 POP SWAP1 JUMP JUMPDEST PUSH1 0x0 PUSH20 0xFFFFFFFFFFFFFFFFFFFFFFFFFFFFFFFFFFFFFFFF DUP3 AND SWAP1 POP SWAP2 SWAP1 POP JUMP JUMPDEST PUSH1 0x0 PUSH2 0x81A DUP3 PUSH2 0x7EF JUMP JUMPDEST SWAP1 POP SWAP2 SWAP1 POP JUMP JUMPDEST PUSH2 0x82A DUP2 PUSH2 0x80F JUMP JUMPDEST DUP3 MSTORE POP POP JUMP JUMPDEST PUSH1 0x0 PUSH1 0x20 DUP3 ADD SWAP1 POP PUSH2 0x845 PUSH1 0x0 DUP4 ADD DUP5 PUSH2 0x821 JUMP JUMPDEST SWAP3 SWAP2 POP POP JUMP JUMPDEST PUSH1 0x0 DUP1 REVERT JUMPDEST PUSH2 0x859 DUP2 PUSH2 0x80F JUMP JUMPDEST DUP2 EQ PUSH2 0x864 JUMPI PUSH1 0x0 DUP1 REVERT JUMPDEST POP JUMP JUMPDEST PUSH1 0x0 DUP2 CALLDATALOAD SWAP1 POP PUSH2 0x876 DUP2 PUSH2 0x850 JUMP JUMPDEST SWAP3 SWAP2 POP POP JUMP JUMPDEST PUSH1 0x0 DUP2 SWAP1 POP SWAP2 SWAP1 POP JUMP JUMPDEST PUSH2 0x88F DUP2 PUSH2 0x87C JUMP JUMPDEST DUP2 EQ PUSH2 0x89A JUMPI PUSH1 0x0 DUP1 REVERT JUMPDEST POP JUMP JUMPDEST PUSH1 0x0 DUP2 CALLDATALOAD SWAP1 POP PUSH2 0x8AC DUP2 PUSH2 0x886 JUMP JUMPDEST SWAP3 SWAP2 POP POP JUMP JUMPDEST PUSH1 0x0 DUP1 PUSH1 0x40 DUP4 DUP6 SUB SLT ISZERO PUSH2 0x8C9 JUMPI PUSH2 0x8C8 PUSH2 0x84B JUMP JUMPDEST JUMPDEST PUSH1 0x0 PUSH2 0x8D7 DUP6 DUP3 DUP7 ADD PUSH2 0x867 JUMP JUMPDEST SWAP3 POP POP PUSH1 0x20 PUSH2 0x8E8 DUP6 DUP3 DUP7 ADD PUSH2 0x89D JUMP JUMPDEST SWAP2 POP POP SWAP3 POP SWAP3 SWAP1 POP JUMP JUMPDEST PUSH1 0x0 PUSH1 0x20 DUP3 DUP5 SUB SLT ISZERO PUSH2 0x908 JUMPI PUSH2 0x907 PUSH2 0x84B JUMP JUMPDEST JUMPDEST PUSH1 0x0 PUSH2 0x916 DUP5 DUP3 DUP6 ADD PUSH2 0x867 JUMP JUMPDEST SWAP2 POP POP SWAP3 SWAP2 POP POP JUMP JUMPDEST PUSH2 0x928 DUP2 PUSH2 0x87C JUMP JUMPDEST DUP3 MSTORE POP POP JUMP JUMPDEST PUSH1 0x0 PUSH1 0x20 DUP3 ADD SWAP1 POP PUSH2 0x943 PUSH1 0x0 DUP4 ADD DUP5 PUSH2 0x91F JUMP JUMPDEST SWAP3 SWAP2 POP POP JUMP JUMPDEST PUSH1 0x0 PUSH1 0x40 DUP3 ADD SWAP1 POP PUSH2 0x95E PUSH1 0x0 DUP4 ADD DUP6 PUSH2 0x91F JUMP JUMPDEST PUSH2 0x96B PUSH1 0x20 DUP4 ADD DUP5 PUSH2 0x91F JUMP JUMPDEST SWAP4 SWAP3 POP POP POP JUMP JUMPDEST PUSH1 0x0 DUP3 DUP3 MSTORE PUSH1 0x20 DUP3 ADD SWAP1 POP SWAP3 SWAP2 POP POP JUMP JUMPDEST PUSH32 0x496E76616C696420757365722061646472657373000000000000000000000000 PUSH1 0x0 DUP3 ADD MSTORE POP JUMP JUMPDEST PUSH1 0x0 PUSH2 0x9B9 PUSH1 0x14 DUP4 PUSH2 0x972 JUMP JUMPDEST SWAP2 POP PUSH2 0x9C4 DUP3 PUSH2 0x983 JUMP JUMPDEST PUSH1 0x20 DUP3 ADD SWAP1 POP SWAP2 SWAP1 POP JUMP JUMPDEST PUSH1 0x0 PUSH1 0x20 DUP3 ADD SWAP1 POP DUP2 DUP2 SUB PUSH1 0x0 DUP4 ADD MSTORE PUSH2 0x9E8 DUP2 PUSH2 0x9AC JUMP JUMPDEST SWAP1 POP SWAP2 SWAP1 POP JUMP JUMPDEST PUSH32 0x416D6F756E742073686F756C642062652067726561746572207468616E207A65 PUSH1 0x0 DUP3 ADD MSTORE PUSH32 0x726F000000000000000000000000000000000000000000000000000000000000 PUSH1 0x20 DUP3 ADD MSTORE POP JUMP JUMPDEST PUSH1 0x0 PUSH2 0xA4B PUSH1 0x22 DUP4 PUSH2 0x972 JUMP JUMPDEST SWAP2 POP PUSH2 0xA56 DUP3 PUSH2 0x9EF JUMP JUMPDEST PUSH1 0x40 DUP3 ADD SWAP1 POP SWAP2 SWAP1 POP JUMP JUMPDEST PUSH1 0x0 PUSH1 0x20 DUP3 ADD SWAP1 POP DUP2 DUP2 SUB PUSH1 0x0 DUP4 ADD MSTORE PUSH2 0xA7A DUP2 PUSH2 0xA3E JUMP JUMPDEST SWAP1 POP SWAP2 SWAP1 POP JUMP JUMPDEST PUSH32 0x496E73756666696369656E74206561726E656420706F696E7473000000000000 PUSH1 0x0 DUP3 ADD MSTORE POP JUMP JUMPDEST PUSH1 0x0 PUSH2 0xAB7 PUSH1 0x1A DUP4 PUSH2 0x972 JUMP JUMPDEST SWAP2 POP PUSH2 0xAC2 DUP3 PUSH2 0xA81 JUMP JUMPDEST PUSH1 0x20 DUP3 ADD SWAP1 POP SWAP2 SWAP1 POP JUMP JUMPDEST PUSH1 0x0 PUSH1 0x20 DUP3 ADD SWAP1 POP DUP2 DUP2 SUB PUSH1 0x0 DUP4 ADD MSTORE PUSH2 0xAE6 DUP2 PUSH2 0xAAA JUMP JUMPDEST SWAP1 POP SWAP2 SWAP1 POP JUMP JUMPDEST PUSH32 0x4E487B7100000000000000000000000000000000000000000000000000000000 PUSH1 0x0 MSTORE PUSH1 0x11 PUSH1 0x4 MSTORE PUSH1 0x24 PUSH1 0x0 REVERT JUMPDEST PUSH1 0x0 PUSH2 0xB27 DUP3 PUSH2 0x87C JUMP JUMPDEST SWAP2 POP PUSH2 0xB32 DUP4 PUSH2 0x87C JUMP JUMPDEST SWAP3 POP DUP3 DUP3 SUB SWAP1 POP DUP2 DUP2 GT ISZERO PUSH2 0xB4A JUMPI PUSH2 0xB49 PUSH2 0xAED JUMP JUMPDEST JUMPDEST SWAP3 SWAP2 POP POP JUMP JUMPDEST PUSH1 0x0 PUSH2 0xB5B DUP3 PUSH2 0x87C JUMP JUMPDEST SWAP2 POP PUSH2 0xB66 DUP4 PUSH2 0x87C JUMP JUMPDEST SWAP3 POP DUP3 DUP3 ADD SWAP1 POP DUP1 DUP3 GT ISZERO PUSH2 0xB7E JUMPI PUSH2 0xB7D PUSH2 0xAED JUMP JUMPDEST JUMPDEST SWAP3 SWAP2 POP POP JUMP JUMPDEST PUSH32 0x4F776E61626C653A206E6577206F776E657220697320746865207A65726F2061 PUSH1 0x0 DUP3 ADD MSTORE PUSH32 0x6464726573730000000000000000000000000000000000000000000000000000 PUSH1 0x20 DUP3 ADD MSTORE POP JUMP JUMPDEST PUSH1 0x0 PUSH2 0xBE0 PUSH1 0x26 DUP4 PUSH2 0x972 JUMP JUMPDEST SWAP2 POP PUSH2 0xBEB DUP3 PUSH2 0xB84 JUMP JUMPDEST PUSH1 0x40 DUP3 ADD SWAP1 POP SWAP2 SWAP1 POP JUMP JUMPDEST PUSH1 0x0 PUSH1 0x20 DUP3 ADD SWAP1 POP DUP2 DUP2 SUB PUSH1 0x0 DUP4 ADD MSTORE PUSH2 0xC0F DUP2 PUSH2 0xBD3 JUMP JUMPDEST SWAP1 POP SWAP2 SWAP1 POP JUMP JUMPDEST PUSH32 0x4F776E61626C653A2063616C6C6572206973206E6F7420746865206F776E6572 PUSH1 0x0 DUP3 ADD MSTORE POP JUMP JUMPDEST PUSH1 0x0 PUSH2 0xC4C PUSH1 0x20 DUP4 PUSH2 0x972 JUMP JUMPDEST SWAP2 POP PUSH2 0xC57 DUP3 PUSH2 0xC16 JUMP JUMPDEST PUSH1 0x20 DUP3 ADD SWAP1 POP SWAP2 SWAP1 POP JUMP JUMPDEST PUSH1 0x0 PUSH1 0x20 DUP3 ADD SWAP1 POP DUP2 DUP2 SUB PUSH1 0x0 DUP4 ADD MSTORE PUSH2 0xC7B DUP2 PUSH2 0xC3F JUMP JUMPDEST SWAP1 POP SWAP2 SWAP1 POP JUMP INVALID LOG2 PUSH5 0x6970667358 0x22 SLT KECCAK256 DUP5 PUSH5 0xFF341CC74E DUP2 PUSH19 0x19E962754E441ABAD095C13F33C890C2357EFD 0xAA 0xCE 0xA8 0xD PUSH5 0x736F6C6343 STOP ADDMOD SLT STOP CALLER "
				},
				"gasEstimates": {
					"creation": {
						"codeDepositCost": "651200",
						"executionCost": "infinite",
						"totalCost": "infinite"
					},
					"external": {
						"earnPoints(address,uint256)": "infinite",
						"getPointsBalance(address)": "2904",
						"owner()": "2545",
						"redeemPoints(address,uint256)": "infinite",
						"renounceOwnership()": "30399",
						"transferOwnership(address)": "30788",
						"userPoints(address)": "infinite"
					}
				},
				"methodIdentifiers": {
					"earnPoints(address,uint256)": "d909d5e3",
					"getPointsBalance(address)": "e707f36f",
					"owner()": "8da5cb5b",
					"redeemPoints(address,uint256)": "b85da8d2",
					"renounceOwnership()": "715018a6",
					"transferOwnership(address)": "f2fde38b",
					"userPoints(address)": "f50ddbc7"
				}
			},
			"storageLayout": {
				"storage": [
					{
						"astId": 7,
						"contract": "Users/chris/Documents/GitHub/AirlineRewards/contracts/points/PointsManagement.sol:PointsManagement",
						"label": "_owner",
						"offset": 0,
						"slot": "0",
						"type": "t_address"
					},
					{
						"astId": 262,
						"contract": "Users/chris/Documents/GitHub/AirlineRewards/contracts/points/PointsManagement.sol:PointsManagement",
						"label": "userPoints",
						"offset": 0,
						"slot": "1",
						"type": "t_mapping(t_address,t_struct(Points)257_storage)"
					}
				],
				"types": {
					"t_address": {
						"encoding": "inplace",
						"label": "address",
						"numberOfBytes": "20"
					},
					"t_mapping(t_address,t_struct(Points)257_storage)": {
						"encoding": "mapping",
						"key": "t_address",
						"label": "mapping(address => struct PointsManagement.Points)",
						"numberOfBytes": "32",
						"value": "t_struct(Points)257_storage"
					},
					"t_struct(Points)257_storage": {
						"encoding": "inplace",
						"label": "struct PointsManagement.Points",
						"members": [
							{
								"astId": 254,
								"contract": "Users/chris/Documents/GitHub/AirlineRewards/contracts/points/PointsManagement.sol:PointsManagement",
								"label": "earned",
								"offset": 0,
								"slot": "0",
								"type": "t_uint256"
							},
							{
								"astId": 256,
								"contract": "Users/chris/Documents/GitHub/AirlineRewards/contracts/points/PointsManagement.sol:PointsManagement",
								"label": "redeemed",
								"offset": 0,
								"slot": "1",
								"type": "t_uint256"
							}
						],
						"numberOfBytes": "64"
					},
					"t_uint256": {
						"encoding": "inplace",
						"label": "uint256",
						"numberOfBytes": "32"
					}
				}
			},
			"userdoc": {
				"kind": "user",
				"methods": {},
				"version": 1
			}
		}
	}
}