{
	"Users/chris/Documents/GitHub/AirlineRewards/contracts/points/PointsRedemption.sol": {
		"PointsRedemption": {
			"abi": [
				{
					"inputs": [
						{
							"internalType": "address",
							"name": "_pointsManagementAddress",
							"type": "address"
						}
					],
					"stateMutability": "nonpayable",
					"type": "constructor"
				},
				{
					"anonymous": false,
					"inputs": [
						{
							"indexed": true,
							"internalType": "address",
							"name": "previousOwner",
							"type": "address"
						},
						{
							"indexed": true,
							"internalType": "address",
							"name": "newOwner",
							"type": "address"
						}
					],
					"name": "OwnershipTransferred",
					"type": "event"
				},
				{
					"anonymous": false,
					"inputs": [
						{
							"indexed": true,
							"internalType": "uint256",
							"name": "itemId",
							"type": "uint256"
						},
						{
							"indexed": false,
							"internalType": "string",
							"name": "name",
							"type": "string"
						},
						{
							"indexed": false,
							"internalType": "uint256",
							"name": "pointsRequired",
							"type": "uint256"
						}
					],
					"name": "RewardItemAdded",
					"type": "event"
				},
				{
					"anonymous": false,
					"inputs": [
						{
							"indexed": true,
							"internalType": "address",
							"name": "user",
							"type": "address"
						},
						{
							"indexed": true,
							"internalType": "uint256",
							"name": "itemId",
							"type": "uint256"
						}
					],
					"name": "RewardItemRedeemed",
					"type": "event"
				},
				{
					"inputs": [
						{
							"internalType": "string",
							"name": "_name",
							"type": "string"
						},
						{
							"internalType": "uint256",
							"name": "_pointsRequired",
							"type": "uint256"
						}
					],
					"name": "addRewardItem",
					"outputs": [],
					"stateMutability": "nonpayable",
					"type": "function"
				},
				{
					"inputs": [],
					"name": "owner",
					"outputs": [
						{
							"internalType": "address",
							"name": "",
							"type": "address"
						}
					],
					"stateMutability": "view",
					"type": "function"
				},
				{
					"inputs": [
						{
							"internalType": "uint256",
							"name": "_itemId",
							"type": "uint256"
						}
					],
					"name": "redeemRewardItem",
					"outputs": [],
					"stateMutability": "nonpayable",
					"type": "function"
				},
				{
					"inputs": [],
					"name": "renounceOwnership",
					"outputs": [],
					"stateMutability": "nonpayable",
					"type": "function"
				},
				{
					"inputs": [
						{
							"internalType": "uint256",
							"name": "",
							"type": "uint256"
						}
					],
					"name": "rewardItems",
					"outputs": [
						{
							"internalType": "uint256",
							"name": "id",
							"type": "uint256"
						},
						{
							"internalType": "string",
							"name": "name",
							"type": "string"
						},
						{
							"internalType": "uint256",
							"name": "pointsRequired",
							"type": "uint256"
						},
						{
							"internalType": "bool",
							"name": "active",
							"type": "bool"
						}
					],
					"stateMutability": "view",
					"type": "function"
				},
				{
					"inputs": [
						{
							"internalType": "address",
							"name": "newOwner",
							"type": "address"
						}
					],
					"name": "transferOwnership",
					"outputs": [],
					"stateMutability": "nonpayable",
					"type": "function"
				},
				{
					"inputs": [
						{
							"internalType": "uint256",
							"name": "_itemId",
							"type": "uint256"
						},
						{
							"internalType": "bool",
							"name": "_active",
							"type": "bool"
						}
					],
					"name": "updateRewardItemStatus",
					"outputs": [],
					"stateMutability": "nonpayable",
					"type": "function"
				}
			],
			"devdoc": {
				"kind": "dev",
				"methods": {
					"addRewardItem(string,uint256)": {
						"details": "Add a new reward item to the contract.",
						"params": {
							"_name": "The name of the reward item.",
							"_pointsRequired": "The number of points required to redeem the reward item."
						}
					},
					"owner()": {
						"details": "Returns the address of the current owner."
					},
					"redeemRewardItem(uint256)": {
						"details": "Redeem a reward item using points.",
						"params": {
							"_itemId": "The ID of the reward item to redeem."
						}
					},
					"renounceOwnership()": {
						"details": "Leaves the contract without owner. It will not be possible to call `onlyOwner` functions anymore. Can only be called by the current owner. NOTE: Renouncing ownership will leave the contract without an owner, thereby removing any functionality that is only available to the owner."
					},
					"transferOwnership(address)": {
						"details": "Transfers ownership of the contract to a new account (`newOwner`). Can only be called by the current owner."
					},
					"updateRewardItemStatus(uint256,bool)": {
						"details": "Update the status of a reward item.",
						"params": {
							"_active": "The new status of the reward item.",
							"_itemId": "The ID of the reward item."
						}
					}
				},
				"version": 1
			},
			"evm": {
				"assembly": "    /* \"Users/chris/Documents/GitHub/AirlineRewards/contracts/points/PointsRedemption.sol\":112:2652  contract PointsRedemption is Ownable {... */\n  mstore(0x40, 0x80)\n    /* \"Users/chris/Documents/GitHub/AirlineRewards/contracts/points/PointsRedemption.sol\":909:1033  constructor(address _pointsManagementAddress) {... */\n  callvalue\n  dup1\n  iszero\n  tag_1\n  jumpi\n  0x00\n  dup1\n  revert\ntag_1:\n  pop\n  mload(0x40)\n  sub(codesize, bytecodeSize)\n  dup1\n  bytecodeSize\n  dup4\n  codecopy\n  dup2\n  dup2\n  add\n  0x40\n  mstore\n  dup2\n  add\n  swap1\n  tag_2\n  swap2\n  swap1\n  tag_3\n  jump\t// in\ntag_2:\n    /* \"@openzeppelin/contracts/access/Ownable.sol\":936:968  _transferOwnership(_msgSender()) */\n  tag_7\n    /* \"@openzeppelin/contracts/access/Ownable.sol\":955:967  _msgSender() */\n  tag_8\n    /* \"@openzeppelin/contracts/access/Ownable.sol\":955:965  _msgSender */\n  shl(0x20, tag_9)\n    /* \"@openzeppelin/contracts/access/Ownable.sol\":955:967  _msgSender() */\n  0x20\n  shr\n  jump\t// in\ntag_8:\n    /* \"@openzeppelin/contracts/access/Ownable.sol\":936:954  _transferOwnership */\n  shl(0x20, tag_10)\n    /* \"@openzeppelin/contracts/access/Ownable.sol\":936:968  _transferOwnership(_msgSender()) */\n  0x20\n  shr\n  jump\t// in\ntag_7:\n    /* \"Users/chris/Documents/GitHub/AirlineRewards/contracts/points/PointsRedemption.sol\":1001:1025  _pointsManagementAddress */\n  dup1\n    /* \"Users/chris/Documents/GitHub/AirlineRewards/contracts/points/PointsRedemption.sol\":965:981  pointsManagement */\n  0x01\n  0x00\n    /* \"Users/chris/Documents/GitHub/AirlineRewards/contracts/points/PointsRedemption.sol\":965:1026  pointsManagement = PointsManagement(_pointsManagementAddress) */\n  0x0100\n  exp\n  dup2\n  sload\n  dup2\n  0xffffffffffffffffffffffffffffffffffffffff\n  mul\n  not\n  and\n  swap1\n  dup4\n  0xffffffffffffffffffffffffffffffffffffffff\n  and\n  mul\n  or\n  swap1\n  sstore\n  pop\n    /* \"Users/chris/Documents/GitHub/AirlineRewards/contracts/points/PointsRedemption.sol\":909:1033  constructor(address _pointsManagementAddress) {... */\n  pop\n    /* \"Users/chris/Documents/GitHub/AirlineRewards/contracts/points/PointsRedemption.sol\":112:2652  contract PointsRedemption is Ownable {... */\n  jump(tag_12)\n    /* \"@openzeppelin/contracts/utils/Context.sol\":640:736  function _msgSender() internal view virtual returns (address) {... */\ntag_9:\n    /* \"@openzeppelin/contracts/utils/Context.sol\":693:700  address */\n  0x00\n    /* \"@openzeppelin/contracts/utils/Context.sol\":719:729  msg.sender */\n  caller\n    /* \"@openzeppelin/contracts/utils/Context.sol\":712:729  return msg.sender */\n  swap1\n  pop\n    /* \"@openzeppelin/contracts/utils/Context.sol\":640:736  function _msgSender() internal view virtual returns (address) {... */\n  swap1\n  jump\t// out\n    /* \"@openzeppelin/contracts/access/Ownable.sol\":2433:2620  function _transferOwnership(address newOwner) internal virtual {... */\ntag_10:\n    /* \"@openzeppelin/contracts/access/Ownable.sol\":2506:2522  address oldOwner */\n  0x00\n    /* \"@openzeppelin/contracts/access/Ownable.sol\":2525:2531  _owner */\n  dup1\n  0x00\n  swap1\n  sload\n  swap1\n  0x0100\n  exp\n  swap1\n  div\n  0xffffffffffffffffffffffffffffffffffffffff\n  and\n    /* \"@openzeppelin/contracts/access/Ownable.sol\":2506:2531  address oldOwner = _owner */\n  swap1\n  pop\n    /* \"@openzeppelin/contracts/access/Ownable.sol\":2550:2558  newOwner */\n  dup2\n    /* \"@openzeppelin/contracts/access/Ownable.sol\":2541:2547  _owner */\n  0x00\n  dup1\n    /* \"@openzeppelin/contracts/access/Ownable.sol\":2541:2558  _owner = newOwner */\n  0x0100\n  exp\n  dup2\n  sload\n  dup2\n  0xffffffffffffffffffffffffffffffffffffffff\n  mul\n  not\n  and\n  swap1\n  dup4\n  0xffffffffffffffffffffffffffffffffffffffff\n  and\n  mul\n  or\n  swap1\n  sstore\n  pop\n    /* \"@openzeppelin/contracts/access/Ownable.sol\":2604:2612  newOwner */\n  dup2\n    /* \"@openzeppelin/contracts/access/Ownable.sol\":2573:2613  OwnershipTransferred(oldOwner, newOwner) */\n  0xffffffffffffffffffffffffffffffffffffffff\n  and\n    /* \"@openzeppelin/contracts/access/Ownable.sol\":2594:2602  oldOwner */\n  dup2\n    /* \"@openzeppelin/contracts/access/Ownable.sol\":2573:2613  OwnershipTransferred(oldOwner, newOwner) */\n  0xffffffffffffffffffffffffffffffffffffffff\n  and\n  0x8be0079c531659141344cd1fd0a4f28419497f9722a3daafe3b4186f6b6457e0\n  mload(0x40)\n  mload(0x40)\n  dup1\n  swap2\n  sub\n  swap1\n  log3\n    /* \"@openzeppelin/contracts/access/Ownable.sol\":2496:2620  {... */\n  pop\n    /* \"@openzeppelin/contracts/access/Ownable.sol\":2433:2620  function _transferOwnership(address newOwner) internal virtual {... */\n  pop\n  jump\t// out\n    /* \"#utility.yul\":88:205   */\ntag_16:\n    /* \"#utility.yul\":197:198   */\n  0x00\n    /* \"#utility.yul\":194:195   */\n  dup1\n    /* \"#utility.yul\":187:199   */\n  revert\n    /* \"#utility.yul\":334:460   */\ntag_18:\n    /* \"#utility.yul\":371:378   */\n  0x00\n    /* \"#utility.yul\":411:453   */\n  0xffffffffffffffffffffffffffffffffffffffff\n    /* \"#utility.yul\":404:409   */\n  dup3\n    /* \"#utility.yul\":400:454   */\n  and\n    /* \"#utility.yul\":389:454   */\n  swap1\n  pop\n    /* \"#utility.yul\":334:460   */\n  swap2\n  swap1\n  pop\n  jump\t// out\n    /* \"#utility.yul\":466:562   */\ntag_19:\n    /* \"#utility.yul\":503:510   */\n  0x00\n    /* \"#utility.yul\":532:556   */\n  tag_28\n    /* \"#utility.yul\":550:555   */\n  dup3\n    /* \"#utility.yul\":532:556   */\n  tag_18\n  jump\t// in\ntag_28:\n    /* \"#utility.yul\":521:556   */\n  swap1\n  pop\n    /* \"#utility.yul\":466:562   */\n  swap2\n  swap1\n  pop\n  jump\t// out\n    /* \"#utility.yul\":568:690   */\ntag_20:\n    /* \"#utility.yul\":641:665   */\n  tag_30\n    /* \"#utility.yul\":659:664   */\n  dup2\n    /* \"#utility.yul\":641:665   */\n  tag_19\n  jump\t// in\ntag_30:\n    /* \"#utility.yul\":634:639   */\n  dup2\n    /* \"#utility.yul\":631:666   */\n  eq\n    /* \"#utility.yul\":621:684   */\n  tag_31\n  jumpi\n    /* \"#utility.yul\":680:681   */\n  0x00\n    /* \"#utility.yul\":677:678   */\n  dup1\n    /* \"#utility.yul\":670:682   */\n  revert\n    /* \"#utility.yul\":621:684   */\ntag_31:\n    /* \"#utility.yul\":568:690   */\n  pop\n  jump\t// out\n    /* \"#utility.yul\":696:839   */\ntag_21:\n    /* \"#utility.yul\":753:758   */\n  0x00\n    /* \"#utility.yul\":784:790   */\n  dup2\n    /* \"#utility.yul\":778:791   */\n  mload\n    /* \"#utility.yul\":769:791   */\n  swap1\n  pop\n    /* \"#utility.yul\":800:833   */\n  tag_33\n    /* \"#utility.yul\":827:832   */\n  dup2\n    /* \"#utility.yul\":800:833   */\n  tag_20\n  jump\t// in\ntag_33:\n    /* \"#utility.yul\":696:839   */\n  swap3\n  swap2\n  pop\n  pop\n  jump\t// out\n    /* \"#utility.yul\":845:1196   */\ntag_3:\n    /* \"#utility.yul\":915:921   */\n  0x00\n    /* \"#utility.yul\":964:966   */\n  0x20\n    /* \"#utility.yul\":952:961   */\n  dup3\n    /* \"#utility.yul\":943:950   */\n  dup5\n    /* \"#utility.yul\":939:962   */\n  sub\n    /* \"#utility.yul\":935:967   */\n  slt\n    /* \"#utility.yul\":932:1051   */\n  iszero\n  tag_35\n  jumpi\n    /* \"#utility.yul\":970:1049   */\n  tag_36\n  tag_16\n  jump\t// in\ntag_36:\n    /* \"#utility.yul\":932:1051   */\ntag_35:\n    /* \"#utility.yul\":1090:1091   */\n  0x00\n    /* \"#utility.yul\":1115:1179   */\n  tag_37\n    /* \"#utility.yul\":1171:1178   */\n  dup5\n    /* \"#utility.yul\":1162:1168   */\n  dup3\n    /* \"#utility.yul\":1151:1160   */\n  dup6\n    /* \"#utility.yul\":1147:1169   */\n  add\n    /* \"#utility.yul\":1115:1179   */\n  tag_21\n  jump\t// in\ntag_37:\n    /* \"#utility.yul\":1105:1179   */\n  swap2\n  pop\n    /* \"#utility.yul\":1061:1189   */\n  pop\n    /* \"#utility.yul\":845:1196   */\n  swap3\n  swap2\n  pop\n  pop\n  jump\t// out\n    /* \"Users/chris/Documents/GitHub/AirlineRewards/contracts/points/PointsRedemption.sol\":112:2652  contract PointsRedemption is Ownable {... */\ntag_12:\n  dataSize(sub_0)\n  dup1\n  dataOffset(sub_0)\n  0x00\n  codecopy\n  0x00\n  return\nstop\n\nsub_0: assembly {\n        /* \"Users/chris/Documents/GitHub/AirlineRewards/contracts/points/PointsRedemption.sol\":112:2652  contract PointsRedemption is Ownable {... */\n      mstore(0x40, 0x80)\n      callvalue\n      dup1\n      iszero\n      tag_1\n      jumpi\n      0x00\n      dup1\n      revert\n    tag_1:\n      pop\n      jumpi(tag_2, lt(calldatasize, 0x04))\n      shr(0xe0, calldataload(0x00))\n      dup1\n      0x715018a6\n      gt\n      tag_10\n      jumpi\n      dup1\n      0x715018a6\n      eq\n      tag_6\n      jumpi\n      dup1\n      0x7a04f6cf\n      eq\n      tag_7\n      jumpi\n      dup1\n      0x8da5cb5b\n      eq\n      tag_8\n      jumpi\n      dup1\n      0xf2fde38b\n      eq\n      tag_9\n      jumpi\n      jump(tag_2)\n    tag_10:\n      dup1\n      0x23de66c9\n      eq\n      tag_3\n      jumpi\n      dup1\n      0x499a1385\n      eq\n      tag_4\n      jumpi\n      dup1\n      0x54f2e368\n      eq\n      tag_5\n      jumpi\n    tag_2:\n      0x00\n      dup1\n      revert\n        /* \"Users/chris/Documents/GitHub/AirlineRewards/contracts/points/PointsRedemption.sol\":310:359  mapping(uint256 => RewardItem) public rewardItems */\n    tag_3:\n      tag_11\n      0x04\n      dup1\n      calldatasize\n      sub\n      dup2\n      add\n      swap1\n      tag_12\n      swap2\n      swap1\n      tag_13\n      jump\t// in\n    tag_12:\n      tag_14\n      jump\t// in\n    tag_11:\n      mload(0x40)\n      tag_15\n      swap5\n      swap4\n      swap3\n      swap2\n      swap1\n      tag_16\n      jump\t// in\n    tag_15:\n      mload(0x40)\n      dup1\n      swap2\n      sub\n      swap1\n      return\n        /* \"Users/chris/Documents/GitHub/AirlineRewards/contracts/points/PointsRedemption.sol\":1242:1695  function addRewardItem(string memory _name, uint256 _pointsRequired) external onlyOwner {... */\n    tag_4:\n      tag_17\n      0x04\n      dup1\n      calldatasize\n      sub\n      dup2\n      add\n      swap1\n      tag_18\n      swap2\n      swap1\n      tag_19\n      jump\t// in\n    tag_18:\n      tag_20\n      jump\t// in\n    tag_17:\n      stop\n        /* \"Users/chris/Documents/GitHub/AirlineRewards/contracts/points/PointsRedemption.sol\":2436:2650  function updateRewardItemStatus(uint256 _itemId, bool _active) external onlyOwner {... */\n    tag_5:\n      tag_21\n      0x04\n      dup1\n      calldatasize\n      sub\n      dup2\n      add\n      swap1\n      tag_22\n      swap2\n      swap1\n      tag_23\n      jump\t// in\n    tag_22:\n      tag_24\n      jump\t// in\n    tag_21:\n      stop\n        /* \"@openzeppelin/contracts/access/Ownable.sol\":1831:1932  function renounceOwnership() public virtual onlyOwner {... */\n    tag_6:\n      tag_25\n      tag_26\n      jump\t// in\n    tag_25:\n      stop\n        /* \"Users/chris/Documents/GitHub/AirlineRewards/contracts/points/PointsRedemption.sol\":1823:2260  function redeemRewardItem(uint256 _itemId) external {... */\n    tag_7:\n      tag_27\n      0x04\n      dup1\n      calldatasize\n      sub\n      dup2\n      add\n      swap1\n      tag_28\n      swap2\n      swap1\n      tag_13\n      jump\t// in\n    tag_28:\n      tag_29\n      jump\t// in\n    tag_27:\n      stop\n        /* \"@openzeppelin/contracts/access/Ownable.sol\":1201:1286  function owner() public view virtual returns (address) {... */\n    tag_8:\n      tag_30\n      tag_31\n      jump\t// in\n    tag_30:\n      mload(0x40)\n      tag_32\n      swap2\n      swap1\n      tag_33\n      jump\t// in\n    tag_32:\n      mload(0x40)\n      dup1\n      swap2\n      sub\n      swap1\n      return\n        /* \"@openzeppelin/contracts/access/Ownable.sol\":2081:2279  function transferOwnership(address newOwner) public virtual onlyOwner {... */\n    tag_9:\n      tag_34\n      0x04\n      dup1\n      calldatasize\n      sub\n      dup2\n      add\n      swap1\n      tag_35\n      swap2\n      swap1\n      tag_36\n      jump\t// in\n    tag_35:\n      tag_37\n      jump\t// in\n    tag_34:\n      stop\n        /* \"Users/chris/Documents/GitHub/AirlineRewards/contracts/points/PointsRedemption.sol\":310:359  mapping(uint256 => RewardItem) public rewardItems */\n    tag_14:\n      mstore(0x20, 0x02)\n      dup1\n      0x00\n      mstore\n      keccak256(0x00, 0x40)\n      0x00\n      swap2\n      pop\n      swap1\n      pop\n      dup1\n      0x00\n      add\n      sload\n      swap1\n      dup1\n      0x01\n      add\n      dup1\n      sload\n      tag_38\n      swap1\n      tag_39\n      jump\t// in\n    tag_38:\n      dup1\n      0x1f\n      add\n      0x20\n      dup1\n      swap2\n      div\n      mul\n      0x20\n      add\n      mload(0x40)\n      swap1\n      dup2\n      add\n      0x40\n      mstore\n      dup1\n      swap3\n      swap2\n      swap1\n      dup2\n      dup2\n      mstore\n      0x20\n      add\n      dup3\n      dup1\n      sload\n      tag_40\n      swap1\n      tag_39\n      jump\t// in\n    tag_40:\n      dup1\n      iszero\n      tag_41\n      jumpi\n      dup1\n      0x1f\n      lt\n      tag_42\n      jumpi\n      0x0100\n      dup1\n      dup4\n      sload\n      div\n      mul\n      dup4\n      mstore\n      swap2\n      0x20\n      add\n      swap2\n      jump(tag_41)\n    tag_42:\n      dup3\n      add\n      swap2\n      swap1\n      0x00\n      mstore\n      keccak256(0x00, 0x20)\n      swap1\n    tag_43:\n      dup2\n      sload\n      dup2\n      mstore\n      swap1\n      0x01\n      add\n      swap1\n      0x20\n      add\n      dup1\n      dup4\n      gt\n      tag_43\n      jumpi\n      dup3\n      swap1\n      sub\n      0x1f\n      and\n      dup3\n      add\n      swap2\n    tag_41:\n      pop\n      pop\n      pop\n      pop\n      pop\n      swap1\n      dup1\n      0x02\n      add\n      sload\n      swap1\n      dup1\n      0x03\n      add\n      0x00\n      swap1\n      sload\n      swap1\n      0x0100\n      exp\n      swap1\n      div\n      0xff\n      and\n      swap1\n      pop\n      dup5\n      jump\t// out\n        /* \"Users/chris/Documents/GitHub/AirlineRewards/contracts/points/PointsRedemption.sol\":1242:1695  function addRewardItem(string memory _name, uint256 _pointsRequired) external onlyOwner {... */\n    tag_20:\n        /* \"@openzeppelin/contracts/access/Ownable.sol\":1094:1107  _checkOwner() */\n      tag_45\n        /* \"@openzeppelin/contracts/access/Ownable.sol\":1094:1105  _checkOwner */\n      tag_46\n        /* \"@openzeppelin/contracts/access/Ownable.sol\":1094:1107  _checkOwner() */\n      jump\t// in\n    tag_45:\n        /* \"Users/chris/Documents/GitHub/AirlineRewards/contracts/points/PointsRedemption.sol\":1366:1367  0 */\n      0x00\n        /* \"Users/chris/Documents/GitHub/AirlineRewards/contracts/points/PointsRedemption.sol\":1348:1363  _pointsRequired */\n      dup2\n        /* \"Users/chris/Documents/GitHub/AirlineRewards/contracts/points/PointsRedemption.sol\":1348:1367  _pointsRequired > 0 */\n      gt\n        /* \"Users/chris/Documents/GitHub/AirlineRewards/contracts/points/PointsRedemption.sol\":1340:1415  require(_pointsRequired > 0, \"Points required should be greater than zero\") */\n      tag_48\n      jumpi\n      mload(0x40)\n      0x08c379a000000000000000000000000000000000000000000000000000000000\n      dup2\n      mstore\n      0x04\n      add\n      tag_49\n      swap1\n      tag_50\n      jump\t// in\n    tag_49:\n      mload(0x40)\n      dup1\n      swap2\n      sub\n      swap1\n      revert\n    tag_48:\n        /* \"Users/chris/Documents/GitHub/AirlineRewards/contracts/points/PointsRedemption.sol\":1426:1445  rewardItemIdCounter */\n      0x03\n      0x00\n        /* \"Users/chris/Documents/GitHub/AirlineRewards/contracts/points/PointsRedemption.sol\":1426:1447  rewardItemIdCounter++ */\n      dup2\n      sload\n      dup1\n      swap3\n      swap2\n      swap1\n      tag_51\n      swap1\n      tag_52\n      jump\t// in\n    tag_51:\n      swap2\n      swap1\n      pop\n      sstore\n      pop\n        /* \"Users/chris/Documents/GitHub/AirlineRewards/contracts/points/PointsRedemption.sol\":1458:1489  RewardItem memory newRewardItem */\n      0x00\n        /* \"Users/chris/Documents/GitHub/AirlineRewards/contracts/points/PointsRedemption.sol\":1492:1553  RewardItem(rewardItemIdCounter, _name, _pointsRequired, true) */\n      mload(0x40)\n      dup1\n      0x80\n      add\n      0x40\n      mstore\n      dup1\n        /* \"Users/chris/Documents/GitHub/AirlineRewards/contracts/points/PointsRedemption.sol\":1503:1522  rewardItemIdCounter */\n      sload(0x03)\n        /* \"Users/chris/Documents/GitHub/AirlineRewards/contracts/points/PointsRedemption.sol\":1492:1553  RewardItem(rewardItemIdCounter, _name, _pointsRequired, true) */\n      dup2\n      mstore\n      0x20\n      add\n        /* \"Users/chris/Documents/GitHub/AirlineRewards/contracts/points/PointsRedemption.sol\":1524:1529  _name */\n      dup5\n        /* \"Users/chris/Documents/GitHub/AirlineRewards/contracts/points/PointsRedemption.sol\":1492:1553  RewardItem(rewardItemIdCounter, _name, _pointsRequired, true) */\n      dup2\n      mstore\n      0x20\n      add\n        /* \"Users/chris/Documents/GitHub/AirlineRewards/contracts/points/PointsRedemption.sol\":1531:1546  _pointsRequired */\n      dup4\n        /* \"Users/chris/Documents/GitHub/AirlineRewards/contracts/points/PointsRedemption.sol\":1492:1553  RewardItem(rewardItemIdCounter, _name, _pointsRequired, true) */\n      dup2\n      mstore\n      0x20\n      add\n        /* \"Users/chris/Documents/GitHub/AirlineRewards/contracts/points/PointsRedemption.sol\":1548:1552  true */\n      0x01\n        /* \"Users/chris/Documents/GitHub/AirlineRewards/contracts/points/PointsRedemption.sol\":1492:1553  RewardItem(rewardItemIdCounter, _name, _pointsRequired, true) */\n      iszero\n      iszero\n      dup2\n      mstore\n      pop\n        /* \"Users/chris/Documents/GitHub/AirlineRewards/contracts/points/PointsRedemption.sol\":1458:1553  RewardItem memory newRewardItem = RewardItem(rewardItemIdCounter, _name, _pointsRequired, true) */\n      swap1\n      pop\n        /* \"Users/chris/Documents/GitHub/AirlineRewards/contracts/points/PointsRedemption.sol\":1599:1612  newRewardItem */\n      dup1\n        /* \"Users/chris/Documents/GitHub/AirlineRewards/contracts/points/PointsRedemption.sol\":1564:1575  rewardItems */\n      0x02\n        /* \"Users/chris/Documents/GitHub/AirlineRewards/contracts/points/PointsRedemption.sol\":1564:1596  rewardItems[rewardItemIdCounter] */\n      0x00\n        /* \"Users/chris/Documents/GitHub/AirlineRewards/contracts/points/PointsRedemption.sol\":1576:1595  rewardItemIdCounter */\n      sload(0x03)\n        /* \"Users/chris/Documents/GitHub/AirlineRewards/contracts/points/PointsRedemption.sol\":1564:1596  rewardItems[rewardItemIdCounter] */\n      dup2\n      mstore\n      0x20\n      add\n      swap1\n      dup2\n      mstore\n      0x20\n      add\n      0x00\n      keccak256\n        /* \"Users/chris/Documents/GitHub/AirlineRewards/contracts/points/PointsRedemption.sol\":1564:1612  rewardItems[rewardItemIdCounter] = newRewardItem */\n      0x00\n      dup3\n      add\n      mload\n      dup2\n      0x00\n      add\n      sstore\n      0x20\n      dup3\n      add\n      mload\n      dup2\n      0x01\n      add\n      swap1\n      dup2\n      tag_53\n      swap2\n      swap1\n      tag_54\n      jump\t// in\n    tag_53:\n      pop\n      0x40\n      dup3\n      add\n      mload\n      dup2\n      0x02\n      add\n      sstore\n      0x60\n      dup3\n      add\n      mload\n      dup2\n      0x03\n      add\n      exp(0x0100, 0x00)\n      dup2\n      sload\n      dup2\n      0xff\n      mul\n      not\n      and\n      swap1\n      dup4\n      iszero\n      iszero\n      mul\n      or\n      swap1\n      sstore\n      pop\n      swap1\n      pop\n      pop\n        /* \"Users/chris/Documents/GitHub/AirlineRewards/contracts/points/PointsRedemption.sol\":1644:1663  rewardItemIdCounter */\n      sload(0x03)\n        /* \"Users/chris/Documents/GitHub/AirlineRewards/contracts/points/PointsRedemption.sol\":1628:1688  RewardItemAdded(rewardItemIdCounter, _name, _pointsRequired) */\n      0x94a77a130832117c89f88d88ee5935012a23789b0e10196a4d2527bbc549b31d\n        /* \"Users/chris/Documents/GitHub/AirlineRewards/contracts/points/PointsRedemption.sol\":1665:1670  _name */\n      dup5\n        /* \"Users/chris/Documents/GitHub/AirlineRewards/contracts/points/PointsRedemption.sol\":1672:1687  _pointsRequired */\n      dup5\n        /* \"Users/chris/Documents/GitHub/AirlineRewards/contracts/points/PointsRedemption.sol\":1628:1688  RewardItemAdded(rewardItemIdCounter, _name, _pointsRequired) */\n      mload(0x40)\n      tag_55\n      swap3\n      swap2\n      swap1\n      tag_56\n      jump\t// in\n    tag_55:\n      mload(0x40)\n      dup1\n      swap2\n      sub\n      swap1\n      log2\n        /* \"Users/chris/Documents/GitHub/AirlineRewards/contracts/points/PointsRedemption.sol\":1330:1695  {... */\n      pop\n        /* \"Users/chris/Documents/GitHub/AirlineRewards/contracts/points/PointsRedemption.sol\":1242:1695  function addRewardItem(string memory _name, uint256 _pointsRequired) external onlyOwner {... */\n      pop\n      pop\n      jump\t// out\n        /* \"Users/chris/Documents/GitHub/AirlineRewards/contracts/points/PointsRedemption.sol\":2436:2650  function updateRewardItemStatus(uint256 _itemId, bool _active) external onlyOwner {... */\n    tag_24:\n        /* \"@openzeppelin/contracts/access/Ownable.sol\":1094:1107  _checkOwner() */\n      tag_58\n        /* \"@openzeppelin/contracts/access/Ownable.sol\":1094:1105  _checkOwner */\n      tag_46\n        /* \"@openzeppelin/contracts/access/Ownable.sol\":1094:1107  _checkOwner() */\n      jump\t// in\n    tag_58:\n        /* \"Users/chris/Documents/GitHub/AirlineRewards/contracts/points/PointsRedemption.sol\":2563:2564  0 */\n      0x00\n        /* \"Users/chris/Documents/GitHub/AirlineRewards/contracts/points/PointsRedemption.sol\":2536:2547  rewardItems */\n      0x02\n        /* \"Users/chris/Documents/GitHub/AirlineRewards/contracts/points/PointsRedemption.sol\":2536:2556  rewardItems[_itemId] */\n      0x00\n        /* \"Users/chris/Documents/GitHub/AirlineRewards/contracts/points/PointsRedemption.sol\":2548:2555  _itemId */\n      dup5\n        /* \"Users/chris/Documents/GitHub/AirlineRewards/contracts/points/PointsRedemption.sol\":2536:2556  rewardItems[_itemId] */\n      dup2\n      mstore\n      0x20\n      add\n      swap1\n      dup2\n      mstore\n      0x20\n      add\n      0x00\n      keccak256\n        /* \"Users/chris/Documents/GitHub/AirlineRewards/contracts/points/PointsRedemption.sol\":2536:2559  rewardItems[_itemId].id */\n      0x00\n      add\n      sload\n        /* \"Users/chris/Documents/GitHub/AirlineRewards/contracts/points/PointsRedemption.sol\":2536:2564  rewardItems[_itemId].id != 0 */\n      sub\n        /* \"Users/chris/Documents/GitHub/AirlineRewards/contracts/points/PointsRedemption.sol\":2528:2595  require(rewardItems[_itemId].id != 0, \"Reward item does not exist\") */\n      tag_60\n      jumpi\n      mload(0x40)\n      0x08c379a000000000000000000000000000000000000000000000000000000000\n      dup2\n      mstore\n      0x04\n      add\n      tag_61\n      swap1\n      tag_62\n      jump\t// in\n    tag_61:\n      mload(0x40)\n      dup1\n      swap2\n      sub\n      swap1\n      revert\n    tag_60:\n        /* \"Users/chris/Documents/GitHub/AirlineRewards/contracts/points/PointsRedemption.sol\":2636:2643  _active */\n      dup1\n        /* \"Users/chris/Documents/GitHub/AirlineRewards/contracts/points/PointsRedemption.sol\":2606:2617  rewardItems */\n      0x02\n        /* \"Users/chris/Documents/GitHub/AirlineRewards/contracts/points/PointsRedemption.sol\":2606:2626  rewardItems[_itemId] */\n      0x00\n        /* \"Users/chris/Documents/GitHub/AirlineRewards/contracts/points/PointsRedemption.sol\":2618:2625  _itemId */\n      dup5\n        /* \"Users/chris/Documents/GitHub/AirlineRewards/contracts/points/PointsRedemption.sol\":2606:2626  rewardItems[_itemId] */\n      dup2\n      mstore\n      0x20\n      add\n      swap1\n      dup2\n      mstore\n      0x20\n      add\n      0x00\n      keccak256\n        /* \"Users/chris/Documents/GitHub/AirlineRewards/contracts/points/PointsRedemption.sol\":2606:2633  rewardItems[_itemId].active */\n      0x03\n      add\n      0x00\n        /* \"Users/chris/Documents/GitHub/AirlineRewards/contracts/points/PointsRedemption.sol\":2606:2643  rewardItems[_itemId].active = _active */\n      0x0100\n      exp\n      dup2\n      sload\n      dup2\n      0xff\n      mul\n      not\n      and\n      swap1\n      dup4\n      iszero\n      iszero\n      mul\n      or\n      swap1\n      sstore\n      pop\n        /* \"Users/chris/Documents/GitHub/AirlineRewards/contracts/points/PointsRedemption.sol\":2436:2650  function updateRewardItemStatus(uint256 _itemId, bool _active) external onlyOwner {... */\n      pop\n      pop\n      jump\t// out\n        /* \"@openzeppelin/contracts/access/Ownable.sol\":1831:1932  function renounceOwnership() public virtual onlyOwner {... */\n    tag_26:\n        /* \"@openzeppelin/contracts/access/Ownable.sol\":1094:1107  _checkOwner() */\n      tag_64\n        /* \"@openzeppelin/contracts/access/Ownable.sol\":1094:1105  _checkOwner */\n      tag_46\n        /* \"@openzeppelin/contracts/access/Ownable.sol\":1094:1107  _checkOwner() */\n      jump\t// in\n    tag_64:\n        /* \"@openzeppelin/contracts/access/Ownable.sol\":1895:1925  _transferOwnership(address(0)) */\n      tag_66\n        /* \"@openzeppelin/contracts/access/Ownable.sol\":1922:1923  0 */\n      0x00\n        /* \"@openzeppelin/contracts/access/Ownable.sol\":1895:1913  _transferOwnership */\n      tag_67\n        /* \"@openzeppelin/contracts/access/Ownable.sol\":1895:1925  _transferOwnership(address(0)) */\n      jump\t// in\n    tag_66:\n        /* \"@openzeppelin/contracts/access/Ownable.sol\":1831:1932  function renounceOwnership() public virtual onlyOwner {... */\n      jump\t// out\n        /* \"Users/chris/Documents/GitHub/AirlineRewards/contracts/points/PointsRedemption.sol\":1823:2260  function redeemRewardItem(uint256 _itemId) external {... */\n    tag_29:\n        /* \"Users/chris/Documents/GitHub/AirlineRewards/contracts/points/PointsRedemption.sol\":1885:1914  RewardItem storage rewardItem */\n      0x00\n        /* \"Users/chris/Documents/GitHub/AirlineRewards/contracts/points/PointsRedemption.sol\":1917:1928  rewardItems */\n      0x02\n        /* \"Users/chris/Documents/GitHub/AirlineRewards/contracts/points/PointsRedemption.sol\":1917:1937  rewardItems[_itemId] */\n      0x00\n        /* \"Users/chris/Documents/GitHub/AirlineRewards/contracts/points/PointsRedemption.sol\":1929:1936  _itemId */\n      dup4\n        /* \"Users/chris/Documents/GitHub/AirlineRewards/contracts/points/PointsRedemption.sol\":1917:1937  rewardItems[_itemId] */\n      dup2\n      mstore\n      0x20\n      add\n      swap1\n      dup2\n      mstore\n      0x20\n      add\n      0x00\n      keccak256\n        /* \"Users/chris/Documents/GitHub/AirlineRewards/contracts/points/PointsRedemption.sol\":1885:1937  RewardItem storage rewardItem = rewardItems[_itemId] */\n      swap1\n      pop\n        /* \"Users/chris/Documents/GitHub/AirlineRewards/contracts/points/PointsRedemption.sol\":1956:1966  rewardItem */\n      dup1\n        /* \"Users/chris/Documents/GitHub/AirlineRewards/contracts/points/PointsRedemption.sol\":1956:1973  rewardItem.active */\n      0x03\n      add\n      0x00\n      swap1\n      sload\n      swap1\n      0x0100\n      exp\n      swap1\n      div\n      0xff\n      and\n        /* \"Users/chris/Documents/GitHub/AirlineRewards/contracts/points/PointsRedemption.sol\":1948:2003  require(rewardItem.active, \"Reward item is not active\") */\n      tag_69\n      jumpi\n      mload(0x40)\n      0x08c379a000000000000000000000000000000000000000000000000000000000\n      dup2\n      mstore\n      0x04\n      add\n      tag_70\n      swap1\n      tag_71\n      jump\t// in\n    tag_70:\n      mload(0x40)\n      dup1\n      swap2\n      sub\n      swap1\n      revert\n    tag_69:\n        /* \"Users/chris/Documents/GitHub/AirlineRewards/contracts/points/PointsRedemption.sol\":2070:2080  rewardItem */\n      dup1\n        /* \"Users/chris/Documents/GitHub/AirlineRewards/contracts/points/PointsRedemption.sol\":2070:2095  rewardItem.pointsRequired */\n      0x02\n      add\n      sload\n        /* \"Users/chris/Documents/GitHub/AirlineRewards/contracts/points/PointsRedemption.sol\":2021:2037  pointsManagement */\n      0x01\n      0x00\n      swap1\n      sload\n      swap1\n      0x0100\n      exp\n      swap1\n      div\n      0xffffffffffffffffffffffffffffffffffffffff\n      and\n        /* \"Users/chris/Documents/GitHub/AirlineRewards/contracts/points/PointsRedemption.sol\":2021:2054  pointsManagement.getPointsBalance */\n      0xffffffffffffffffffffffffffffffffffffffff\n      and\n      0xe707f36f\n        /* \"Users/chris/Documents/GitHub/AirlineRewards/contracts/points/PointsRedemption.sol\":2055:2065  msg.sender */\n      caller\n        /* \"Users/chris/Documents/GitHub/AirlineRewards/contracts/points/PointsRedemption.sol\":2021:2066  pointsManagement.getPointsBalance(msg.sender) */\n      mload(0x40)\n      dup3\n      0xffffffff\n      and\n      0xe0\n      shl\n      dup2\n      mstore\n      0x04\n      add\n      tag_72\n      swap2\n      swap1\n      tag_33\n      jump\t// in\n    tag_72:\n      0x20\n      mload(0x40)\n      dup1\n      dup4\n      sub\n      dup2\n      dup7\n      gas\n      staticcall\n      iszero\n      dup1\n      iszero\n      tag_74\n      jumpi\n      returndatasize\n      0x00\n      dup1\n      returndatacopy\n      revert(0x00, returndatasize)\n    tag_74:\n      pop\n      pop\n      pop\n      pop\n      mload(0x40)\n      returndatasize\n      not(0x1f)\n      0x1f\n      dup3\n      add\n      and\n      dup3\n      add\n      dup1\n      0x40\n      mstore\n      pop\n      dup2\n      add\n      swap1\n      tag_75\n      swap2\n      swap1\n      tag_76\n      jump\t// in\n    tag_75:\n        /* \"Users/chris/Documents/GitHub/AirlineRewards/contracts/points/PointsRedemption.sol\":2021:2095  pointsManagement.getPointsBalance(msg.sender) >= rewardItem.pointsRequired */\n      lt\n      iszero\n        /* \"Users/chris/Documents/GitHub/AirlineRewards/contracts/points/PointsRedemption.sol\":2013:2119  require(pointsManagement.getPointsBalance(msg.sender) >= rewardItem.pointsRequired, \"Insufficient points\") */\n      tag_77\n      jumpi\n      mload(0x40)\n      0x08c379a000000000000000000000000000000000000000000000000000000000\n      dup2\n      mstore\n      0x04\n      add\n      tag_78\n      swap1\n      tag_79\n      jump\t// in\n    tag_78:\n      mload(0x40)\n      dup1\n      swap2\n      sub\n      swap1\n      revert\n    tag_77:\n        /* \"Users/chris/Documents/GitHub/AirlineRewards/contracts/points/PointsRedemption.sol\":2130:2146  pointsManagement */\n      0x01\n      0x00\n      swap1\n      sload\n      swap1\n      0x0100\n      exp\n      swap1\n      div\n      0xffffffffffffffffffffffffffffffffffffffff\n      and\n        /* \"Users/chris/Documents/GitHub/AirlineRewards/contracts/points/PointsRedemption.sol\":2130:2159  pointsManagement.redeemPoints */\n      0xffffffffffffffffffffffffffffffffffffffff\n      and\n      0xb85da8d2\n        /* \"Users/chris/Documents/GitHub/AirlineRewards/contracts/points/PointsRedemption.sol\":2160:2170  msg.sender */\n      caller\n        /* \"Users/chris/Documents/GitHub/AirlineRewards/contracts/points/PointsRedemption.sol\":2172:2182  rewardItem */\n      dup4\n        /* \"Users/chris/Documents/GitHub/AirlineRewards/contracts/points/PointsRedemption.sol\":2172:2197  rewardItem.pointsRequired */\n      0x02\n      add\n      sload\n        /* \"Users/chris/Documents/GitHub/AirlineRewards/contracts/points/PointsRedemption.sol\":2130:2198  pointsManagement.redeemPoints(msg.sender, rewardItem.pointsRequired) */\n      mload(0x40)\n      dup4\n      0xffffffff\n      and\n      0xe0\n      shl\n      dup2\n      mstore\n      0x04\n      add\n      tag_80\n      swap3\n      swap2\n      swap1\n      tag_81\n      jump\t// in\n    tag_80:\n      0x00\n      mload(0x40)\n      dup1\n      dup4\n      sub\n      dup2\n      0x00\n      dup8\n      dup1\n      extcodesize\n      iszero\n      dup1\n      iszero\n      tag_82\n      jumpi\n      0x00\n      dup1\n      revert\n    tag_82:\n      pop\n      gas\n      call\n      iszero\n      dup1\n      iszero\n      tag_84\n      jumpi\n      returndatasize\n      0x00\n      dup1\n      returndatacopy\n      revert(0x00, returndatasize)\n    tag_84:\n      pop\n      pop\n      pop\n      pop\n        /* \"Users/chris/Documents/GitHub/AirlineRewards/contracts/points/PointsRedemption.sol\":2245:2252  _itemId */\n      dup2\n        /* \"Users/chris/Documents/GitHub/AirlineRewards/contracts/points/PointsRedemption.sol\":2233:2243  msg.sender */\n      caller\n        /* \"Users/chris/Documents/GitHub/AirlineRewards/contracts/points/PointsRedemption.sol\":2214:2253  RewardItemRedeemed(msg.sender, _itemId) */\n      0xffffffffffffffffffffffffffffffffffffffff\n      and\n      0x5c29e918d001b016dab341065ad83901a299250c66ee500f21873e73737fe4c6\n      mload(0x40)\n      mload(0x40)\n      dup1\n      swap2\n      sub\n      swap1\n      log3\n        /* \"Users/chris/Documents/GitHub/AirlineRewards/contracts/points/PointsRedemption.sol\":1875:2260  {... */\n      pop\n        /* \"Users/chris/Documents/GitHub/AirlineRewards/contracts/points/PointsRedemption.sol\":1823:2260  function redeemRewardItem(uint256 _itemId) external {... */\n      pop\n      jump\t// out\n        /* \"@openzeppelin/contracts/access/Ownable.sol\":1201:1286  function owner() public view virtual returns (address) {... */\n    tag_31:\n        /* \"@openzeppelin/contracts/access/Ownable.sol\":1247:1254  address */\n      0x00\n        /* \"@openzeppelin/contracts/access/Ownable.sol\":1273:1279  _owner */\n      dup1\n      0x00\n      swap1\n      sload\n      swap1\n      0x0100\n      exp\n      swap1\n      div\n      0xffffffffffffffffffffffffffffffffffffffff\n      and\n        /* \"@openzeppelin/contracts/access/Ownable.sol\":1266:1279  return _owner */\n      swap1\n      pop\n        /* \"@openzeppelin/contracts/access/Ownable.sol\":1201:1286  function owner() public view virtual returns (address) {... */\n      swap1\n      jump\t// out\n        /* \"@openzeppelin/contracts/access/Ownable.sol\":2081:2279  function transferOwnership(address newOwner) public virtual onlyOwner {... */\n    tag_37:\n        /* \"@openzeppelin/contracts/access/Ownable.sol\":1094:1107  _checkOwner() */\n      tag_87\n        /* \"@openzeppelin/contracts/access/Ownable.sol\":1094:1105  _checkOwner */\n      tag_46\n        /* \"@openzeppelin/contracts/access/Ownable.sol\":1094:1107  _checkOwner() */\n      jump\t// in\n    tag_87:\n        /* \"@openzeppelin/contracts/access/Ownable.sol\":2189:2190  0 */\n      0x00\n        /* \"@openzeppelin/contracts/access/Ownable.sol\":2169:2191  newOwner != address(0) */\n      0xffffffffffffffffffffffffffffffffffffffff\n      and\n        /* \"@openzeppelin/contracts/access/Ownable.sol\":2169:2177  newOwner */\n      dup2\n        /* \"@openzeppelin/contracts/access/Ownable.sol\":2169:2191  newOwner != address(0) */\n      0xffffffffffffffffffffffffffffffffffffffff\n      and\n      sub\n        /* \"@openzeppelin/contracts/access/Ownable.sol\":2161:2234  require(newOwner != address(0), \"Ownable: new owner is the zero address\") */\n      tag_89\n      jumpi\n      mload(0x40)\n      0x08c379a000000000000000000000000000000000000000000000000000000000\n      dup2\n      mstore\n      0x04\n      add\n      tag_90\n      swap1\n      tag_91\n      jump\t// in\n    tag_90:\n      mload(0x40)\n      dup1\n      swap2\n      sub\n      swap1\n      revert\n    tag_89:\n        /* \"@openzeppelin/contracts/access/Ownable.sol\":2244:2272  _transferOwnership(newOwner) */\n      tag_92\n        /* \"@openzeppelin/contracts/access/Ownable.sol\":2263:2271  newOwner */\n      dup2\n        /* \"@openzeppelin/contracts/access/Ownable.sol\":2244:2262  _transferOwnership */\n      tag_67\n        /* \"@openzeppelin/contracts/access/Ownable.sol\":2244:2272  _transferOwnership(newOwner) */\n      jump\t// in\n    tag_92:\n        /* \"@openzeppelin/contracts/access/Ownable.sol\":2081:2279  function transferOwnership(address newOwner) public virtual onlyOwner {... */\n      pop\n      jump\t// out\n        /* \"@openzeppelin/contracts/access/Ownable.sol\":1359:1489  function _checkOwner() internal view virtual {... */\n    tag_46:\n        /* \"@openzeppelin/contracts/access/Ownable.sol\":1433:1445  _msgSender() */\n      tag_94\n        /* \"@openzeppelin/contracts/access/Ownable.sol\":1433:1443  _msgSender */\n      tag_95\n        /* \"@openzeppelin/contracts/access/Ownable.sol\":1433:1445  _msgSender() */\n      jump\t// in\n    tag_94:\n        /* \"@openzeppelin/contracts/access/Ownable.sol\":1422:1445  owner() == _msgSender() */\n      0xffffffffffffffffffffffffffffffffffffffff\n      and\n        /* \"@openzeppelin/contracts/access/Ownable.sol\":1422:1429  owner() */\n      tag_96\n        /* \"@openzeppelin/contracts/access/Ownable.sol\":1422:1427  owner */\n      tag_31\n        /* \"@openzeppelin/contracts/access/Ownable.sol\":1422:1429  owner() */\n      jump\t// in\n    tag_96:\n        /* \"@openzeppelin/contracts/access/Ownable.sol\":1422:1445  owner() == _msgSender() */\n      0xffffffffffffffffffffffffffffffffffffffff\n      and\n      eq\n        /* \"@openzeppelin/contracts/access/Ownable.sol\":1414:1482  require(owner() == _msgSender(), \"Ownable: caller is not the owner\") */\n      tag_97\n      jumpi\n      mload(0x40)\n      0x08c379a000000000000000000000000000000000000000000000000000000000\n      dup2\n      mstore\n      0x04\n      add\n      tag_98\n      swap1\n      tag_99\n      jump\t// in\n    tag_98:\n      mload(0x40)\n      dup1\n      swap2\n      sub\n      swap1\n      revert\n    tag_97:\n        /* \"@openzeppelin/contracts/access/Ownable.sol\":1359:1489  function _checkOwner() internal view virtual {... */\n      jump\t// out\n        /* \"@openzeppelin/contracts/access/Ownable.sol\":2433:2620  function _transferOwnership(address newOwner) internal virtual {... */\n    tag_67:\n        /* \"@openzeppelin/contracts/access/Ownable.sol\":2506:2522  address oldOwner */\n      0x00\n        /* \"@openzeppelin/contracts/access/Ownable.sol\":2525:2531  _owner */\n      dup1\n      0x00\n      swap1\n      sload\n      swap1\n      0x0100\n      exp\n      swap1\n      div\n      0xffffffffffffffffffffffffffffffffffffffff\n      and\n        /* \"@openzeppelin/contracts/access/Ownable.sol\":2506:2531  address oldOwner = _owner */\n      swap1\n      pop\n        /* \"@openzeppelin/contracts/access/Ownable.sol\":2550:2558  newOwner */\n      dup2\n        /* \"@openzeppelin/contracts/access/Ownable.sol\":2541:2547  _owner */\n      0x00\n      dup1\n        /* \"@openzeppelin/contracts/access/Ownable.sol\":2541:2558  _owner = newOwner */\n      0x0100\n      exp\n      dup2\n      sload\n      dup2\n      0xffffffffffffffffffffffffffffffffffffffff\n      mul\n      not\n      and\n      swap1\n      dup4\n      0xffffffffffffffffffffffffffffffffffffffff\n      and\n      mul\n      or\n      swap1\n      sstore\n      pop\n        /* \"@openzeppelin/contracts/access/Ownable.sol\":2604:2612  newOwner */\n      dup2\n        /* \"@openzeppelin/contracts/access/Ownable.sol\":2573:2613  OwnershipTransferred(oldOwner, newOwner) */\n      0xffffffffffffffffffffffffffffffffffffffff\n      and\n        /* \"@openzeppelin/contracts/access/Ownable.sol\":2594:2602  oldOwner */\n      dup2\n        /* \"@openzeppelin/contracts/access/Ownable.sol\":2573:2613  OwnershipTransferred(oldOwner, newOwner) */\n      0xffffffffffffffffffffffffffffffffffffffff\n      and\n      0x8be0079c531659141344cd1fd0a4f28419497f9722a3daafe3b4186f6b6457e0\n      mload(0x40)\n      mload(0x40)\n      dup1\n      swap2\n      sub\n      swap1\n      log3\n        /* \"@openzeppelin/contracts/access/Ownable.sol\":2496:2620  {... */\n      pop\n        /* \"@openzeppelin/contracts/access/Ownable.sol\":2433:2620  function _transferOwnership(address newOwner) internal virtual {... */\n      pop\n      jump\t// out\n        /* \"@openzeppelin/contracts/utils/Context.sol\":640:736  function _msgSender() internal view virtual returns (address) {... */\n    tag_95:\n        /* \"@openzeppelin/contracts/utils/Context.sol\":693:700  address */\n      0x00\n        /* \"@openzeppelin/contracts/utils/Context.sol\":719:729  msg.sender */\n      caller\n        /* \"@openzeppelin/contracts/utils/Context.sol\":712:729  return msg.sender */\n      swap1\n      pop\n        /* \"@openzeppelin/contracts/utils/Context.sol\":640:736  function _msgSender() internal view virtual returns (address) {... */\n      swap1\n      jump\t// out\n        /* \"#utility.yul\":7:82   */\n    tag_102:\n        /* \"#utility.yul\":40:46   */\n      0x00\n        /* \"#utility.yul\":73:75   */\n      0x40\n        /* \"#utility.yul\":67:76   */\n      mload\n        /* \"#utility.yul\":57:76   */\n      swap1\n      pop\n        /* \"#utility.yul\":7:82   */\n      swap1\n      jump\t// out\n        /* \"#utility.yul\":88:205   */\n    tag_103:\n        /* \"#utility.yul\":197:198   */\n      0x00\n        /* \"#utility.yul\":194:195   */\n      dup1\n        /* \"#utility.yul\":187:199   */\n      revert\n        /* \"#utility.yul\":211:328   */\n    tag_104:\n        /* \"#utility.yul\":320:321   */\n      0x00\n        /* \"#utility.yul\":317:318   */\n      dup1\n        /* \"#utility.yul\":310:322   */\n      revert\n        /* \"#utility.yul\":334:411   */\n    tag_105:\n        /* \"#utility.yul\":371:378   */\n      0x00\n        /* \"#utility.yul\":400:405   */\n      dup2\n        /* \"#utility.yul\":389:405   */\n      swap1\n      pop\n        /* \"#utility.yul\":334:411   */\n      swap2\n      swap1\n      pop\n      jump\t// out\n        /* \"#utility.yul\":417:539   */\n    tag_106:\n        /* \"#utility.yul\":490:514   */\n      tag_168\n        /* \"#utility.yul\":508:513   */\n      dup2\n        /* \"#utility.yul\":490:514   */\n      tag_105\n      jump\t// in\n    tag_168:\n        /* \"#utility.yul\":483:488   */\n      dup2\n        /* \"#utility.yul\":480:515   */\n      eq\n        /* \"#utility.yul\":470:533   */\n      tag_169\n      jumpi\n        /* \"#utility.yul\":529:530   */\n      0x00\n        /* \"#utility.yul\":526:527   */\n      dup1\n        /* \"#utility.yul\":519:531   */\n      revert\n        /* \"#utility.yul\":470:533   */\n    tag_169:\n        /* \"#utility.yul\":417:539   */\n      pop\n      jump\t// out\n        /* \"#utility.yul\":545:684   */\n    tag_107:\n        /* \"#utility.yul\":591:596   */\n      0x00\n        /* \"#utility.yul\":629:635   */\n      dup2\n        /* \"#utility.yul\":616:636   */\n      calldataload\n        /* \"#utility.yul\":607:636   */\n      swap1\n      pop\n        /* \"#utility.yul\":645:678   */\n      tag_171\n        /* \"#utility.yul\":672:677   */\n      dup2\n        /* \"#utility.yul\":645:678   */\n      tag_106\n      jump\t// in\n    tag_171:\n        /* \"#utility.yul\":545:684   */\n      swap3\n      swap2\n      pop\n      pop\n      jump\t// out\n        /* \"#utility.yul\":690:1019   */\n    tag_13:\n        /* \"#utility.yul\":749:755   */\n      0x00\n        /* \"#utility.yul\":798:800   */\n      0x20\n        /* \"#utility.yul\":786:795   */\n      dup3\n        /* \"#utility.yul\":777:784   */\n      dup5\n        /* \"#utility.yul\":773:796   */\n      sub\n        /* \"#utility.yul\":769:801   */\n      slt\n        /* \"#utility.yul\":766:885   */\n      iszero\n      tag_173\n      jumpi\n        /* \"#utility.yul\":804:883   */\n      tag_174\n      tag_103\n      jump\t// in\n    tag_174:\n        /* \"#utility.yul\":766:885   */\n    tag_173:\n        /* \"#utility.yul\":924:925   */\n      0x00\n        /* \"#utility.yul\":949:1002   */\n      tag_175\n        /* \"#utility.yul\":994:1001   */\n      dup5\n        /* \"#utility.yul\":985:991   */\n      dup3\n        /* \"#utility.yul\":974:983   */\n      dup6\n        /* \"#utility.yul\":970:992   */\n      add\n        /* \"#utility.yul\":949:1002   */\n      tag_107\n      jump\t// in\n    tag_175:\n        /* \"#utility.yul\":939:1002   */\n      swap2\n      pop\n        /* \"#utility.yul\":895:1012   */\n      pop\n        /* \"#utility.yul\":690:1019   */\n      swap3\n      swap2\n      pop\n      pop\n      jump\t// out\n        /* \"#utility.yul\":1025:1143   */\n    tag_108:\n        /* \"#utility.yul\":1112:1136   */\n      tag_177\n        /* \"#utility.yul\":1130:1135   */\n      dup2\n        /* \"#utility.yul\":1112:1136   */\n      tag_105\n      jump\t// in\n    tag_177:\n        /* \"#utility.yul\":1107:1110   */\n      dup3\n        /* \"#utility.yul\":1100:1137   */\n      mstore\n        /* \"#utility.yul\":1025:1143   */\n      pop\n      pop\n      jump\t// out\n        /* \"#utility.yul\":1149:1248   */\n    tag_109:\n        /* \"#utility.yul\":1201:1207   */\n      0x00\n        /* \"#utility.yul\":1235:1240   */\n      dup2\n        /* \"#utility.yul\":1229:1241   */\n      mload\n        /* \"#utility.yul\":1219:1241   */\n      swap1\n      pop\n        /* \"#utility.yul\":1149:1248   */\n      swap2\n      swap1\n      pop\n      jump\t// out\n        /* \"#utility.yul\":1254:1423   */\n    tag_110:\n        /* \"#utility.yul\":1338:1349   */\n      0x00\n        /* \"#utility.yul\":1372:1378   */\n      dup3\n        /* \"#utility.yul\":1367:1370   */\n      dup3\n        /* \"#utility.yul\":1360:1379   */\n      mstore\n        /* \"#utility.yul\":1412:1416   */\n      0x20\n        /* \"#utility.yul\":1407:1410   */\n      dup3\n        /* \"#utility.yul\":1403:1417   */\n      add\n        /* \"#utility.yul\":1388:1417   */\n      swap1\n      pop\n        /* \"#utility.yul\":1254:1423   */\n      swap3\n      swap2\n      pop\n      pop\n      jump\t// out\n        /* \"#utility.yul\":1429:1675   */\n    tag_111:\n        /* \"#utility.yul\":1510:1511   */\n      0x00\n        /* \"#utility.yul\":1520:1633   */\n    tag_181:\n        /* \"#utility.yul\":1534:1540   */\n      dup4\n        /* \"#utility.yul\":1531:1532   */\n      dup2\n        /* \"#utility.yul\":1528:1541   */\n      lt\n        /* \"#utility.yul\":1520:1633   */\n      iszero\n      tag_183\n      jumpi\n        /* \"#utility.yul\":1619:1620   */\n      dup1\n        /* \"#utility.yul\":1614:1617   */\n      dup3\n        /* \"#utility.yul\":1610:1621   */\n      add\n        /* \"#utility.yul\":1604:1622   */\n      mload\n        /* \"#utility.yul\":1600:1601   */\n      dup2\n        /* \"#utility.yul\":1595:1598   */\n      dup5\n        /* \"#utility.yul\":1591:1602   */\n      add\n        /* \"#utility.yul\":1584:1623   */\n      mstore\n        /* \"#utility.yul\":1556:1558   */\n      0x20\n        /* \"#utility.yul\":1553:1554   */\n      dup2\n        /* \"#utility.yul\":1549:1559   */\n      add\n        /* \"#utility.yul\":1544:1559   */\n      swap1\n      pop\n        /* \"#utility.yul\":1520:1633   */\n      jump(tag_181)\n    tag_183:\n        /* \"#utility.yul\":1667:1668   */\n      0x00\n        /* \"#utility.yul\":1658:1664   */\n      dup5\n        /* \"#utility.yul\":1653:1656   */\n      dup5\n        /* \"#utility.yul\":1649:1665   */\n      add\n        /* \"#utility.yul\":1642:1669   */\n      mstore\n        /* \"#utility.yul\":1491:1675   */\n      pop\n        /* \"#utility.yul\":1429:1675   */\n      pop\n      pop\n      pop\n      jump\t// out\n        /* \"#utility.yul\":1681:1783   */\n    tag_112:\n        /* \"#utility.yul\":1722:1728   */\n      0x00\n        /* \"#utility.yul\":1773:1775   */\n      0x1f\n        /* \"#utility.yul\":1769:1776   */\n      not\n        /* \"#utility.yul\":1764:1766   */\n      0x1f\n        /* \"#utility.yul\":1757:1762   */\n      dup4\n        /* \"#utility.yul\":1753:1767   */\n      add\n        /* \"#utility.yul\":1749:1777   */\n      and\n        /* \"#utility.yul\":1739:1777   */\n      swap1\n      pop\n        /* \"#utility.yul\":1681:1783   */\n      swap2\n      swap1\n      pop\n      jump\t// out\n        /* \"#utility.yul\":1789:2166   */\n    tag_113:\n        /* \"#utility.yul\":1877:1880   */\n      0x00\n        /* \"#utility.yul\":1905:1944   */\n      tag_186\n        /* \"#utility.yul\":1938:1943   */\n      dup3\n        /* \"#utility.yul\":1905:1944   */\n      tag_109\n      jump\t// in\n    tag_186:\n        /* \"#utility.yul\":1960:2031   */\n      tag_187\n        /* \"#utility.yul\":2024:2030   */\n      dup2\n        /* \"#utility.yul\":2019:2022   */\n      dup6\n        /* \"#utility.yul\":1960:2031   */\n      tag_110\n      jump\t// in\n    tag_187:\n        /* \"#utility.yul\":1953:2031   */\n      swap4\n      pop\n        /* \"#utility.yul\":2040:2105   */\n      tag_188\n        /* \"#utility.yul\":2098:2104   */\n      dup2\n        /* \"#utility.yul\":2093:2096   */\n      dup6\n        /* \"#utility.yul\":2086:2090   */\n      0x20\n        /* \"#utility.yul\":2079:2084   */\n      dup7\n        /* \"#utility.yul\":2075:2091   */\n      add\n        /* \"#utility.yul\":2040:2105   */\n      tag_111\n      jump\t// in\n    tag_188:\n        /* \"#utility.yul\":2130:2159   */\n      tag_189\n        /* \"#utility.yul\":2152:2158   */\n      dup2\n        /* \"#utility.yul\":2130:2159   */\n      tag_112\n      jump\t// in\n    tag_189:\n        /* \"#utility.yul\":2125:2128   */\n      dup5\n        /* \"#utility.yul\":2121:2160   */\n      add\n        /* \"#utility.yul\":2114:2160   */\n      swap2\n      pop\n        /* \"#utility.yul\":1881:2166   */\n      pop\n        /* \"#utility.yul\":1789:2166   */\n      swap3\n      swap2\n      pop\n      pop\n      jump\t// out\n        /* \"#utility.yul\":2172:2262   */\n    tag_114:\n        /* \"#utility.yul\":2206:2213   */\n      0x00\n        /* \"#utility.yul\":2249:2254   */\n      dup2\n        /* \"#utility.yul\":2242:2255   */\n      iszero\n        /* \"#utility.yul\":2235:2256   */\n      iszero\n        /* \"#utility.yul\":2224:2256   */\n      swap1\n      pop\n        /* \"#utility.yul\":2172:2262   */\n      swap2\n      swap1\n      pop\n      jump\t// out\n        /* \"#utility.yul\":2268:2377   */\n    tag_115:\n        /* \"#utility.yul\":2349:2370   */\n      tag_192\n        /* \"#utility.yul\":2364:2369   */\n      dup2\n        /* \"#utility.yul\":2349:2370   */\n      tag_114\n      jump\t// in\n    tag_192:\n        /* \"#utility.yul\":2344:2347   */\n      dup3\n        /* \"#utility.yul\":2337:2371   */\n      mstore\n        /* \"#utility.yul\":2268:2377   */\n      pop\n      pop\n      jump\t// out\n        /* \"#utility.yul\":2383:3015   */\n    tag_16:\n        /* \"#utility.yul\":2574:2578   */\n      0x00\n        /* \"#utility.yul\":2612:2615   */\n      0x80\n        /* \"#utility.yul\":2601:2610   */\n      dup3\n        /* \"#utility.yul\":2597:2616   */\n      add\n        /* \"#utility.yul\":2589:2616   */\n      swap1\n      pop\n        /* \"#utility.yul\":2626:2697   */\n      tag_194\n        /* \"#utility.yul\":2694:2695   */\n      0x00\n        /* \"#utility.yul\":2683:2692   */\n      dup4\n        /* \"#utility.yul\":2679:2696   */\n      add\n        /* \"#utility.yul\":2670:2676   */\n      dup8\n        /* \"#utility.yul\":2626:2697   */\n      tag_108\n      jump\t// in\n    tag_194:\n        /* \"#utility.yul\":2744:2753   */\n      dup2\n        /* \"#utility.yul\":2738:2742   */\n      dup2\n        /* \"#utility.yul\":2734:2754   */\n      sub\n        /* \"#utility.yul\":2729:2731   */\n      0x20\n        /* \"#utility.yul\":2718:2727   */\n      dup4\n        /* \"#utility.yul\":2714:2732   */\n      add\n        /* \"#utility.yul\":2707:2755   */\n      mstore\n        /* \"#utility.yul\":2772:2850   */\n      tag_195\n        /* \"#utility.yul\":2845:2849   */\n      dup2\n        /* \"#utility.yul\":2836:2842   */\n      dup7\n        /* \"#utility.yul\":2772:2850   */\n      tag_113\n      jump\t// in\n    tag_195:\n        /* \"#utility.yul\":2764:2850   */\n      swap1\n      pop\n        /* \"#utility.yul\":2860:2932   */\n      tag_196\n        /* \"#utility.yul\":2928:2930   */\n      0x40\n        /* \"#utility.yul\":2917:2926   */\n      dup4\n        /* \"#utility.yul\":2913:2931   */\n      add\n        /* \"#utility.yul\":2904:2910   */\n      dup6\n        /* \"#utility.yul\":2860:2932   */\n      tag_108\n      jump\t// in\n    tag_196:\n        /* \"#utility.yul\":2942:3008   */\n      tag_197\n        /* \"#utility.yul\":3004:3006   */\n      0x60\n        /* \"#utility.yul\":2993:3002   */\n      dup4\n        /* \"#utility.yul\":2989:3007   */\n      add\n        /* \"#utility.yul\":2980:2986   */\n      dup5\n        /* \"#utility.yul\":2942:3008   */\n      tag_115\n      jump\t// in\n    tag_197:\n        /* \"#utility.yul\":2383:3015   */\n      swap6\n      swap5\n      pop\n      pop\n      pop\n      pop\n      pop\n      jump\t// out\n        /* \"#utility.yul\":3021:3138   */\n    tag_116:\n        /* \"#utility.yul\":3130:3131   */\n      0x00\n        /* \"#utility.yul\":3127:3128   */\n      dup1\n        /* \"#utility.yul\":3120:3132   */\n      revert\n        /* \"#utility.yul\":3144:3261   */\n    tag_117:\n        /* \"#utility.yul\":3253:3254   */\n      0x00\n        /* \"#utility.yul\":3250:3251   */\n      dup1\n        /* \"#utility.yul\":3243:3255   */\n      revert\n        /* \"#utility.yul\":3267:3447   */\n    tag_118:\n        /* \"#utility.yul\":3315:3392   */\n      0x4e487b7100000000000000000000000000000000000000000000000000000000\n        /* \"#utility.yul\":3312:3313   */\n      0x00\n        /* \"#utility.yul\":3305:3393   */\n      mstore\n        /* \"#utility.yul\":3412:3416   */\n      0x41\n        /* \"#utility.yul\":3409:3410   */\n      0x04\n        /* \"#utility.yul\":3402:3417   */\n      mstore\n        /* \"#utility.yul\":3436:3440   */\n      0x24\n        /* \"#utility.yul\":3433:3434   */\n      0x00\n        /* \"#utility.yul\":3426:3441   */\n      revert\n        /* \"#utility.yul\":3453:3734   */\n    tag_119:\n        /* \"#utility.yul\":3536:3563   */\n      tag_202\n        /* \"#utility.yul\":3558:3562   */\n      dup3\n        /* \"#utility.yul\":3536:3563   */\n      tag_112\n      jump\t// in\n    tag_202:\n        /* \"#utility.yul\":3528:3534   */\n      dup2\n        /* \"#utility.yul\":3524:3564   */\n      add\n        /* \"#utility.yul\":3666:3672   */\n      dup2\n        /* \"#utility.yul\":3654:3664   */\n      dup2\n        /* \"#utility.yul\":3651:3673   */\n      lt\n        /* \"#utility.yul\":3630:3648   */\n      0xffffffffffffffff\n        /* \"#utility.yul\":3618:3628   */\n      dup3\n        /* \"#utility.yul\":3615:3649   */\n      gt\n        /* \"#utility.yul\":3612:3674   */\n      or\n        /* \"#utility.yul\":3609:3697   */\n      iszero\n      tag_203\n      jumpi\n        /* \"#utility.yul\":3677:3695   */\n      tag_204\n      tag_118\n      jump\t// in\n    tag_204:\n        /* \"#utility.yul\":3609:3697   */\n    tag_203:\n        /* \"#utility.yul\":3717:3727   */\n      dup1\n        /* \"#utility.yul\":3713:3715   */\n      0x40\n        /* \"#utility.yul\":3706:3728   */\n      mstore\n        /* \"#utility.yul\":3496:3734   */\n      pop\n        /* \"#utility.yul\":3453:3734   */\n      pop\n      pop\n      jump\t// out\n        /* \"#utility.yul\":3740:3869   */\n    tag_120:\n        /* \"#utility.yul\":3774:3780   */\n      0x00\n        /* \"#utility.yul\":3801:3821   */\n      tag_206\n      tag_102\n      jump\t// in\n    tag_206:\n        /* \"#utility.yul\":3791:3821   */\n      swap1\n      pop\n        /* \"#utility.yul\":3830:3863   */\n      tag_207\n        /* \"#utility.yul\":3858:3862   */\n      dup3\n        /* \"#utility.yul\":3850:3856   */\n      dup3\n        /* \"#utility.yul\":3830:3863   */\n      tag_119\n      jump\t// in\n    tag_207:\n        /* \"#utility.yul\":3740:3869   */\n      swap2\n      swap1\n      pop\n      jump\t// out\n        /* \"#utility.yul\":3875:4183   */\n    tag_121:\n        /* \"#utility.yul\":3937:3941   */\n      0x00\n        /* \"#utility.yul\":4027:4045   */\n      0xffffffffffffffff\n        /* \"#utility.yul\":4019:4025   */\n      dup3\n        /* \"#utility.yul\":4016:4046   */\n      gt\n        /* \"#utility.yul\":4013:4069   */\n      iszero\n      tag_209\n      jumpi\n        /* \"#utility.yul\":4049:4067   */\n      tag_210\n      tag_118\n      jump\t// in\n    tag_210:\n        /* \"#utility.yul\":4013:4069   */\n    tag_209:\n        /* \"#utility.yul\":4087:4116   */\n      tag_211\n        /* \"#utility.yul\":4109:4115   */\n      dup3\n        /* \"#utility.yul\":4087:4116   */\n      tag_112\n      jump\t// in\n    tag_211:\n        /* \"#utility.yul\":4079:4116   */\n      swap1\n      pop\n        /* \"#utility.yul\":4171:4175   */\n      0x20\n        /* \"#utility.yul\":4165:4169   */\n      dup2\n        /* \"#utility.yul\":4161:4176   */\n      add\n        /* \"#utility.yul\":4153:4176   */\n      swap1\n      pop\n        /* \"#utility.yul\":3875:4183   */\n      swap2\n      swap1\n      pop\n      jump\t// out\n        /* \"#utility.yul\":4189:4335   */\n    tag_122:\n        /* \"#utility.yul\":4286:4292   */\n      dup3\n        /* \"#utility.yul\":4281:4284   */\n      dup2\n        /* \"#utility.yul\":4276:4279   */\n      dup4\n        /* \"#utility.yul\":4263:4293   */\n      calldatacopy\n        /* \"#utility.yul\":4327:4328   */\n      0x00\n        /* \"#utility.yul\":4318:4324   */\n      dup4\n        /* \"#utility.yul\":4313:4316   */\n      dup4\n        /* \"#utility.yul\":4309:4325   */\n      add\n        /* \"#utility.yul\":4302:4329   */\n      mstore\n        /* \"#utility.yul\":4189:4335   */\n      pop\n      pop\n      pop\n      jump\t// out\n        /* \"#utility.yul\":4341:4766   */\n    tag_123:\n        /* \"#utility.yul\":4419:4424   */\n      0x00\n        /* \"#utility.yul\":4444:4510   */\n      tag_214\n        /* \"#utility.yul\":4460:4509   */\n      tag_215\n        /* \"#utility.yul\":4502:4508   */\n      dup5\n        /* \"#utility.yul\":4460:4509   */\n      tag_121\n      jump\t// in\n    tag_215:\n        /* \"#utility.yul\":4444:4510   */\n      tag_120\n      jump\t// in\n    tag_214:\n        /* \"#utility.yul\":4435:4510   */\n      swap1\n      pop\n        /* \"#utility.yul\":4533:4539   */\n      dup3\n        /* \"#utility.yul\":4526:4531   */\n      dup2\n        /* \"#utility.yul\":4519:4540   */\n      mstore\n        /* \"#utility.yul\":4571:4575   */\n      0x20\n        /* \"#utility.yul\":4564:4569   */\n      dup2\n        /* \"#utility.yul\":4560:4576   */\n      add\n        /* \"#utility.yul\":4609:4612   */\n      dup5\n        /* \"#utility.yul\":4600:4606   */\n      dup5\n        /* \"#utility.yul\":4595:4598   */\n      dup5\n        /* \"#utility.yul\":4591:4607   */\n      add\n        /* \"#utility.yul\":4588:4613   */\n      gt\n        /* \"#utility.yul\":4585:4697   */\n      iszero\n      tag_216\n      jumpi\n        /* \"#utility.yul\":4616:4695   */\n      tag_217\n      tag_117\n      jump\t// in\n    tag_217:\n        /* \"#utility.yul\":4585:4697   */\n    tag_216:\n        /* \"#utility.yul\":4706:4760   */\n      tag_218\n        /* \"#utility.yul\":4753:4759   */\n      dup5\n        /* \"#utility.yul\":4748:4751   */\n      dup3\n        /* \"#utility.yul\":4743:4746   */\n      dup6\n        /* \"#utility.yul\":4706:4760   */\n      tag_122\n      jump\t// in\n    tag_218:\n        /* \"#utility.yul\":4425:4766   */\n      pop\n        /* \"#utility.yul\":4341:4766   */\n      swap4\n      swap3\n      pop\n      pop\n      pop\n      jump\t// out\n        /* \"#utility.yul\":4786:5126   */\n    tag_124:\n        /* \"#utility.yul\":4842:4847   */\n      0x00\n        /* \"#utility.yul\":4891:4894   */\n      dup3\n        /* \"#utility.yul\":4884:4888   */\n      0x1f\n        /* \"#utility.yul\":4876:4882   */\n      dup4\n        /* \"#utility.yul\":4872:4889   */\n      add\n        /* \"#utility.yul\":4868:4895   */\n      slt\n        /* \"#utility.yul\":4858:4980   */\n      tag_220\n      jumpi\n        /* \"#utility.yul\":4899:4978   */\n      tag_221\n      tag_116\n      jump\t// in\n    tag_221:\n        /* \"#utility.yul\":4858:4980   */\n    tag_220:\n        /* \"#utility.yul\":5016:5022   */\n      dup2\n        /* \"#utility.yul\":5003:5023   */\n      calldataload\n        /* \"#utility.yul\":5041:5120   */\n      tag_222\n        /* \"#utility.yul\":5116:5119   */\n      dup5\n        /* \"#utility.yul\":5108:5114   */\n      dup3\n        /* \"#utility.yul\":5101:5105   */\n      0x20\n        /* \"#utility.yul\":5093:5099   */\n      dup7\n        /* \"#utility.yul\":5089:5106   */\n      add\n        /* \"#utility.yul\":5041:5120   */\n      tag_123\n      jump\t// in\n    tag_222:\n        /* \"#utility.yul\":5032:5120   */\n      swap2\n      pop\n        /* \"#utility.yul\":4848:5126   */\n      pop\n        /* \"#utility.yul\":4786:5126   */\n      swap3\n      swap2\n      pop\n      pop\n      jump\t// out\n        /* \"#utility.yul\":5132:5786   */\n    tag_19:\n        /* \"#utility.yul\":5210:5216   */\n      0x00\n        /* \"#utility.yul\":5218:5224   */\n      dup1\n        /* \"#utility.yul\":5267:5269   */\n      0x40\n        /* \"#utility.yul\":5255:5264   */\n      dup4\n        /* \"#utility.yul\":5246:5253   */\n      dup6\n        /* \"#utility.yul\":5242:5265   */\n      sub\n        /* \"#utility.yul\":5238:5270   */\n      slt\n        /* \"#utility.yul\":5235:5354   */\n      iszero\n      tag_224\n      jumpi\n        /* \"#utility.yul\":5273:5352   */\n      tag_225\n      tag_103\n      jump\t// in\n    tag_225:\n        /* \"#utility.yul\":5235:5354   */\n    tag_224:\n        /* \"#utility.yul\":5421:5422   */\n      0x00\n        /* \"#utility.yul\":5410:5419   */\n      dup4\n        /* \"#utility.yul\":5406:5423   */\n      add\n        /* \"#utility.yul\":5393:5424   */\n      calldataload\n        /* \"#utility.yul\":5451:5469   */\n      0xffffffffffffffff\n        /* \"#utility.yul\":5443:5449   */\n      dup2\n        /* \"#utility.yul\":5440:5470   */\n      gt\n        /* \"#utility.yul\":5437:5554   */\n      iszero\n      tag_226\n      jumpi\n        /* \"#utility.yul\":5473:5552   */\n      tag_227\n      tag_104\n      jump\t// in\n    tag_227:\n        /* \"#utility.yul\":5437:5554   */\n    tag_226:\n        /* \"#utility.yul\":5578:5641   */\n      tag_228\n        /* \"#utility.yul\":5633:5640   */\n      dup6\n        /* \"#utility.yul\":5624:5630   */\n      dup3\n        /* \"#utility.yul\":5613:5622   */\n      dup7\n        /* \"#utility.yul\":5609:5631   */\n      add\n        /* \"#utility.yul\":5578:5641   */\n      tag_124\n      jump\t// in\n    tag_228:\n        /* \"#utility.yul\":5568:5641   */\n      swap3\n      pop\n        /* \"#utility.yul\":5364:5651   */\n      pop\n        /* \"#utility.yul\":5690:5692   */\n      0x20\n        /* \"#utility.yul\":5716:5769   */\n      tag_229\n        /* \"#utility.yul\":5761:5768   */\n      dup6\n        /* \"#utility.yul\":5752:5758   */\n      dup3\n        /* \"#utility.yul\":5741:5750   */\n      dup7\n        /* \"#utility.yul\":5737:5759   */\n      add\n        /* \"#utility.yul\":5716:5769   */\n      tag_107\n      jump\t// in\n    tag_229:\n        /* \"#utility.yul\":5706:5769   */\n      swap2\n      pop\n        /* \"#utility.yul\":5661:5779   */\n      pop\n        /* \"#utility.yul\":5132:5786   */\n      swap3\n      pop\n      swap3\n      swap1\n      pop\n      jump\t// out\n        /* \"#utility.yul\":5792:5908   */\n    tag_125:\n        /* \"#utility.yul\":5862:5883   */\n      tag_231\n        /* \"#utility.yul\":5877:5882   */\n      dup2\n        /* \"#utility.yul\":5862:5883   */\n      tag_114\n      jump\t// in\n    tag_231:\n        /* \"#utility.yul\":5855:5860   */\n      dup2\n        /* \"#utility.yul\":5852:5884   */\n      eq\n        /* \"#utility.yul\":5842:5902   */\n      tag_232\n      jumpi\n        /* \"#utility.yul\":5898:5899   */\n      0x00\n        /* \"#utility.yul\":5895:5896   */\n      dup1\n        /* \"#utility.yul\":5888:5900   */\n      revert\n        /* \"#utility.yul\":5842:5902   */\n    tag_232:\n        /* \"#utility.yul\":5792:5908   */\n      pop\n      jump\t// out\n        /* \"#utility.yul\":5914:6047   */\n    tag_126:\n        /* \"#utility.yul\":5957:5962   */\n      0x00\n        /* \"#utility.yul\":5995:6001   */\n      dup2\n        /* \"#utility.yul\":5982:6002   */\n      calldataload\n        /* \"#utility.yul\":5973:6002   */\n      swap1\n      pop\n        /* \"#utility.yul\":6011:6041   */\n      tag_234\n        /* \"#utility.yul\":6035:6040   */\n      dup2\n        /* \"#utility.yul\":6011:6041   */\n      tag_125\n      jump\t// in\n    tag_234:\n        /* \"#utility.yul\":5914:6047   */\n      swap3\n      swap2\n      pop\n      pop\n      jump\t// out\n        /* \"#utility.yul\":6053:6521   */\n    tag_23:\n        /* \"#utility.yul\":6118:6124   */\n      0x00\n        /* \"#utility.yul\":6126:6132   */\n      dup1\n        /* \"#utility.yul\":6175:6177   */\n      0x40\n        /* \"#utility.yul\":6163:6172   */\n      dup4\n        /* \"#utility.yul\":6154:6161   */\n      dup6\n        /* \"#utility.yul\":6150:6173   */\n      sub\n        /* \"#utility.yul\":6146:6178   */\n      slt\n        /* \"#utility.yul\":6143:6262   */\n      iszero\n      tag_236\n      jumpi\n        /* \"#utility.yul\":6181:6260   */\n      tag_237\n      tag_103\n      jump\t// in\n    tag_237:\n        /* \"#utility.yul\":6143:6262   */\n    tag_236:\n        /* \"#utility.yul\":6301:6302   */\n      0x00\n        /* \"#utility.yul\":6326:6379   */\n      tag_238\n        /* \"#utility.yul\":6371:6378   */\n      dup6\n        /* \"#utility.yul\":6362:6368   */\n      dup3\n        /* \"#utility.yul\":6351:6360   */\n      dup7\n        /* \"#utility.yul\":6347:6369   */\n      add\n        /* \"#utility.yul\":6326:6379   */\n      tag_107\n      jump\t// in\n    tag_238:\n        /* \"#utility.yul\":6316:6379   */\n      swap3\n      pop\n        /* \"#utility.yul\":6272:6389   */\n      pop\n        /* \"#utility.yul\":6428:6430   */\n      0x20\n        /* \"#utility.yul\":6454:6504   */\n      tag_239\n        /* \"#utility.yul\":6496:6503   */\n      dup6\n        /* \"#utility.yul\":6487:6493   */\n      dup3\n        /* \"#utility.yul\":6476:6485   */\n      dup7\n        /* \"#utility.yul\":6472:6494   */\n      add\n        /* \"#utility.yul\":6454:6504   */\n      tag_126\n      jump\t// in\n    tag_239:\n        /* \"#utility.yul\":6444:6504   */\n      swap2\n      pop\n        /* \"#utility.yul\":6399:6514   */\n      pop\n        /* \"#utility.yul\":6053:6521   */\n      swap3\n      pop\n      swap3\n      swap1\n      pop\n      jump\t// out\n        /* \"#utility.yul\":6527:6653   */\n    tag_127:\n        /* \"#utility.yul\":6564:6571   */\n      0x00\n        /* \"#utility.yul\":6604:6646   */\n      0xffffffffffffffffffffffffffffffffffffffff\n        /* \"#utility.yul\":6597:6602   */\n      dup3\n        /* \"#utility.yul\":6593:6647   */\n      and\n        /* \"#utility.yul\":6582:6647   */\n      swap1\n      pop\n        /* \"#utility.yul\":6527:6653   */\n      swap2\n      swap1\n      pop\n      jump\t// out\n        /* \"#utility.yul\":6659:6755   */\n    tag_128:\n        /* \"#utility.yul\":6696:6703   */\n      0x00\n        /* \"#utility.yul\":6725:6749   */\n      tag_242\n        /* \"#utility.yul\":6743:6748   */\n      dup3\n        /* \"#utility.yul\":6725:6749   */\n      tag_127\n      jump\t// in\n    tag_242:\n        /* \"#utility.yul\":6714:6749   */\n      swap1\n      pop\n        /* \"#utility.yul\":6659:6755   */\n      swap2\n      swap1\n      pop\n      jump\t// out\n        /* \"#utility.yul\":6761:6879   */\n    tag_129:\n        /* \"#utility.yul\":6848:6872   */\n      tag_244\n        /* \"#utility.yul\":6866:6871   */\n      dup2\n        /* \"#utility.yul\":6848:6872   */\n      tag_128\n      jump\t// in\n    tag_244:\n        /* \"#utility.yul\":6843:6846   */\n      dup3\n        /* \"#utility.yul\":6836:6873   */\n      mstore\n        /* \"#utility.yul\":6761:6879   */\n      pop\n      pop\n      jump\t// out\n        /* \"#utility.yul\":6885:7107   */\n    tag_33:\n        /* \"#utility.yul\":6978:6982   */\n      0x00\n        /* \"#utility.yul\":7016:7018   */\n      0x20\n        /* \"#utility.yul\":7005:7014   */\n      dup3\n        /* \"#utility.yul\":7001:7019   */\n      add\n        /* \"#utility.yul\":6993:7019   */\n      swap1\n      pop\n        /* \"#utility.yul\":7029:7100   */\n      tag_246\n        /* \"#utility.yul\":7097:7098   */\n      0x00\n        /* \"#utility.yul\":7086:7095   */\n      dup4\n        /* \"#utility.yul\":7082:7099   */\n      add\n        /* \"#utility.yul\":7073:7079   */\n      dup5\n        /* \"#utility.yul\":7029:7100   */\n      tag_129\n      jump\t// in\n    tag_246:\n        /* \"#utility.yul\":6885:7107   */\n      swap3\n      swap2\n      pop\n      pop\n      jump\t// out\n        /* \"#utility.yul\":7113:7235   */\n    tag_130:\n        /* \"#utility.yul\":7186:7210   */\n      tag_248\n        /* \"#utility.yul\":7204:7209   */\n      dup2\n        /* \"#utility.yul\":7186:7210   */\n      tag_128\n      jump\t// in\n    tag_248:\n        /* \"#utility.yul\":7179:7184   */\n      dup2\n        /* \"#utility.yul\":7176:7211   */\n      eq\n        /* \"#utility.yul\":7166:7229   */\n      tag_249\n      jumpi\n        /* \"#utility.yul\":7225:7226   */\n      0x00\n        /* \"#utility.yul\":7222:7223   */\n      dup1\n        /* \"#utility.yul\":7215:7227   */\n      revert\n        /* \"#utility.yul\":7166:7229   */\n    tag_249:\n        /* \"#utility.yul\":7113:7235   */\n      pop\n      jump\t// out\n        /* \"#utility.yul\":7241:7380   */\n    tag_131:\n        /* \"#utility.yul\":7287:7292   */\n      0x00\n        /* \"#utility.yul\":7325:7331   */\n      dup2\n        /* \"#utility.yul\":7312:7332   */\n      calldataload\n        /* \"#utility.yul\":7303:7332   */\n      swap1\n      pop\n        /* \"#utility.yul\":7341:7374   */\n      tag_251\n        /* \"#utility.yul\":7368:7373   */\n      dup2\n        /* \"#utility.yul\":7341:7374   */\n      tag_130\n      jump\t// in\n    tag_251:\n        /* \"#utility.yul\":7241:7380   */\n      swap3\n      swap2\n      pop\n      pop\n      jump\t// out\n        /* \"#utility.yul\":7386:7715   */\n    tag_36:\n        /* \"#utility.yul\":7445:7451   */\n      0x00\n        /* \"#utility.yul\":7494:7496   */\n      0x20\n        /* \"#utility.yul\":7482:7491   */\n      dup3\n        /* \"#utility.yul\":7473:7480   */\n      dup5\n        /* \"#utility.yul\":7469:7492   */\n      sub\n        /* \"#utility.yul\":7465:7497   */\n      slt\n        /* \"#utility.yul\":7462:7581   */\n      iszero\n      tag_253\n      jumpi\n        /* \"#utility.yul\":7500:7579   */\n      tag_254\n      tag_103\n      jump\t// in\n    tag_254:\n        /* \"#utility.yul\":7462:7581   */\n    tag_253:\n        /* \"#utility.yul\":7620:7621   */\n      0x00\n        /* \"#utility.yul\":7645:7698   */\n      tag_255\n        /* \"#utility.yul\":7690:7697   */\n      dup5\n        /* \"#utility.yul\":7681:7687   */\n      dup3\n        /* \"#utility.yul\":7670:7679   */\n      dup6\n        /* \"#utility.yul\":7666:7688   */\n      add\n        /* \"#utility.yul\":7645:7698   */\n      tag_131\n      jump\t// in\n    tag_255:\n        /* \"#utility.yul\":7635:7698   */\n      swap2\n      pop\n        /* \"#utility.yul\":7591:7708   */\n      pop\n        /* \"#utility.yul\":7386:7715   */\n      swap3\n      swap2\n      pop\n      pop\n      jump\t// out\n        /* \"#utility.yul\":7721:7901   */\n    tag_132:\n        /* \"#utility.yul\":7769:7846   */\n      0x4e487b7100000000000000000000000000000000000000000000000000000000\n        /* \"#utility.yul\":7766:7767   */\n      0x00\n        /* \"#utility.yul\":7759:7847   */\n      mstore\n        /* \"#utility.yul\":7866:7870   */\n      0x22\n        /* \"#utility.yul\":7863:7864   */\n      0x04\n        /* \"#utility.yul\":7856:7871   */\n      mstore\n        /* \"#utility.yul\":7890:7894   */\n      0x24\n        /* \"#utility.yul\":7887:7888   */\n      0x00\n        /* \"#utility.yul\":7880:7895   */\n      revert\n        /* \"#utility.yul\":7907:8227   */\n    tag_39:\n        /* \"#utility.yul\":7951:7957   */\n      0x00\n        /* \"#utility.yul\":7988:7989   */\n      0x02\n        /* \"#utility.yul\":7982:7986   */\n      dup3\n        /* \"#utility.yul\":7978:7990   */\n      div\n        /* \"#utility.yul\":7968:7990   */\n      swap1\n      pop\n        /* \"#utility.yul\":8035:8036   */\n      0x01\n        /* \"#utility.yul\":8029:8033   */\n      dup3\n        /* \"#utility.yul\":8025:8037   */\n      and\n        /* \"#utility.yul\":8056:8074   */\n      dup1\n        /* \"#utility.yul\":8046:8127   */\n      tag_258\n      jumpi\n        /* \"#utility.yul\":8112:8116   */\n      0x7f\n        /* \"#utility.yul\":8104:8110   */\n      dup3\n        /* \"#utility.yul\":8100:8117   */\n      and\n        /* \"#utility.yul\":8090:8117   */\n      swap2\n      pop\n        /* \"#utility.yul\":8046:8127   */\n    tag_258:\n        /* \"#utility.yul\":8174:8176   */\n      0x20\n        /* \"#utility.yul\":8166:8172   */\n      dup3\n        /* \"#utility.yul\":8163:8177   */\n      lt\n        /* \"#utility.yul\":8143:8161   */\n      dup2\n        /* \"#utility.yul\":8140:8178   */\n      sub\n        /* \"#utility.yul\":8137:8221   */\n      tag_259\n      jumpi\n        /* \"#utility.yul\":8193:8211   */\n      tag_260\n      tag_132\n      jump\t// in\n    tag_260:\n        /* \"#utility.yul\":8137:8221   */\n    tag_259:\n        /* \"#utility.yul\":7958:8227   */\n      pop\n        /* \"#utility.yul\":7907:8227   */\n      swap2\n      swap1\n      pop\n      jump\t// out\n        /* \"#utility.yul\":8233:8463   */\n    tag_133:\n        /* \"#utility.yul\":8373:8407   */\n      0x506f696e74732072657175697265642073686f756c6420626520677265617465\n        /* \"#utility.yul\":8369:8370   */\n      0x00\n        /* \"#utility.yul\":8361:8367   */\n      dup3\n        /* \"#utility.yul\":8357:8371   */\n      add\n        /* \"#utility.yul\":8350:8408   */\n      mstore\n        /* \"#utility.yul\":8442:8455   */\n      0x72207468616e207a65726f000000000000000000000000000000000000000000\n        /* \"#utility.yul\":8437:8439   */\n      0x20\n        /* \"#utility.yul\":8429:8435   */\n      dup3\n        /* \"#utility.yul\":8425:8440   */\n      add\n        /* \"#utility.yul\":8418:8456   */\n      mstore\n        /* \"#utility.yul\":8233:8463   */\n      pop\n      jump\t// out\n        /* \"#utility.yul\":8469:8835   */\n    tag_134:\n        /* \"#utility.yul\":8611:8614   */\n      0x00\n        /* \"#utility.yul\":8632:8699   */\n      tag_263\n        /* \"#utility.yul\":8696:8698   */\n      0x2b\n        /* \"#utility.yul\":8691:8694   */\n      dup4\n        /* \"#utility.yul\":8632:8699   */\n      tag_110\n      jump\t// in\n    tag_263:\n        /* \"#utility.yul\":8625:8699   */\n      swap2\n      pop\n        /* \"#utility.yul\":8708:8801   */\n      tag_264\n        /* \"#utility.yul\":8797:8800   */\n      dup3\n        /* \"#utility.yul\":8708:8801   */\n      tag_133\n      jump\t// in\n    tag_264:\n        /* \"#utility.yul\":8826:8828   */\n      0x40\n        /* \"#utility.yul\":8821:8824   */\n      dup3\n        /* \"#utility.yul\":8817:8829   */\n      add\n        /* \"#utility.yul\":8810:8829   */\n      swap1\n      pop\n        /* \"#utility.yul\":8469:8835   */\n      swap2\n      swap1\n      pop\n      jump\t// out\n        /* \"#utility.yul\":8841:9260   */\n    tag_50:\n        /* \"#utility.yul\":9007:9011   */\n      0x00\n        /* \"#utility.yul\":9045:9047   */\n      0x20\n        /* \"#utility.yul\":9034:9043   */\n      dup3\n        /* \"#utility.yul\":9030:9048   */\n      add\n        /* \"#utility.yul\":9022:9048   */\n      swap1\n      pop\n        /* \"#utility.yul\":9094:9103   */\n      dup2\n        /* \"#utility.yul\":9088:9092   */\n      dup2\n        /* \"#utility.yul\":9084:9104   */\n      sub\n        /* \"#utility.yul\":9080:9081   */\n      0x00\n        /* \"#utility.yul\":9069:9078   */\n      dup4\n        /* \"#utility.yul\":9065:9082   */\n      add\n        /* \"#utility.yul\":9058:9105   */\n      mstore\n        /* \"#utility.yul\":9122:9253   */\n      tag_266\n        /* \"#utility.yul\":9248:9252   */\n      dup2\n        /* \"#utility.yul\":9122:9253   */\n      tag_134\n      jump\t// in\n    tag_266:\n        /* \"#utility.yul\":9114:9253   */\n      swap1\n      pop\n        /* \"#utility.yul\":8841:9260   */\n      swap2\n      swap1\n      pop\n      jump\t// out\n        /* \"#utility.yul\":9266:9446   */\n    tag_135:\n        /* \"#utility.yul\":9314:9391   */\n      0x4e487b7100000000000000000000000000000000000000000000000000000000\n        /* \"#utility.yul\":9311:9312   */\n      0x00\n        /* \"#utility.yul\":9304:9392   */\n      mstore\n        /* \"#utility.yul\":9411:9415   */\n      0x11\n        /* \"#utility.yul\":9408:9409   */\n      0x04\n        /* \"#utility.yul\":9401:9416   */\n      mstore\n        /* \"#utility.yul\":9435:9439   */\n      0x24\n        /* \"#utility.yul\":9432:9433   */\n      0x00\n        /* \"#utility.yul\":9425:9440   */\n      revert\n        /* \"#utility.yul\":9452:9685   */\n    tag_52:\n        /* \"#utility.yul\":9491:9494   */\n      0x00\n        /* \"#utility.yul\":9514:9538   */\n      tag_269\n        /* \"#utility.yul\":9532:9537   */\n      dup3\n        /* \"#utility.yul\":9514:9538   */\n      tag_105\n      jump\t// in\n    tag_269:\n        /* \"#utility.yul\":9505:9538   */\n      swap2\n      pop\n        /* \"#utility.yul\":9560:9626   */\n      0xffffffffffffffffffffffffffffffffffffffffffffffffffffffffffffffff\n        /* \"#utility.yul\":9553:9558   */\n      dup3\n        /* \"#utility.yul\":9550:9627   */\n      sub\n        /* \"#utility.yul\":9547:9650   */\n      tag_270\n      jumpi\n        /* \"#utility.yul\":9630:9648   */\n      tag_271\n      tag_135\n      jump\t// in\n    tag_271:\n        /* \"#utility.yul\":9547:9650   */\n    tag_270:\n        /* \"#utility.yul\":9677:9678   */\n      0x01\n        /* \"#utility.yul\":9670:9675   */\n      dup3\n        /* \"#utility.yul\":9666:9679   */\n      add\n        /* \"#utility.yul\":9659:9679   */\n      swap1\n      pop\n        /* \"#utility.yul\":9452:9685   */\n      swap2\n      swap1\n      pop\n      jump\t// out\n        /* \"#utility.yul\":9691:9832   */\n    tag_136:\n        /* \"#utility.yul\":9740:9744   */\n      0x00\n        /* \"#utility.yul\":9763:9766   */\n      dup2\n        /* \"#utility.yul\":9755:9766   */\n      swap1\n      pop\n        /* \"#utility.yul\":9786:9789   */\n      dup2\n        /* \"#utility.yul\":9783:9784   */\n      0x00\n        /* \"#utility.yul\":9776:9790   */\n      mstore\n        /* \"#utility.yul\":9820:9824   */\n      0x20\n        /* \"#utility.yul\":9817:9818   */\n      0x00\n        /* \"#utility.yul\":9807:9825   */\n      keccak256\n        /* \"#utility.yul\":9799:9825   */\n      swap1\n      pop\n        /* \"#utility.yul\":9691:9832   */\n      swap2\n      swap1\n      pop\n      jump\t// out\n        /* \"#utility.yul\":9838:9931   */\n    tag_137:\n        /* \"#utility.yul\":9875:9881   */\n      0x00\n        /* \"#utility.yul\":9922:9924   */\n      0x20\n        /* \"#utility.yul\":9917:9919   */\n      0x1f\n        /* \"#utility.yul\":9910:9915   */\n      dup4\n        /* \"#utility.yul\":9906:9920   */\n      add\n        /* \"#utility.yul\":9902:9925   */\n      div\n        /* \"#utility.yul\":9892:9925   */\n      swap1\n      pop\n        /* \"#utility.yul\":9838:9931   */\n      swap2\n      swap1\n      pop\n      jump\t// out\n        /* \"#utility.yul\":9937:10044   */\n    tag_138:\n        /* \"#utility.yul\":9981:9989   */\n      0x00\n        /* \"#utility.yul\":10031:10036   */\n      dup3\n        /* \"#utility.yul\":10025:10029   */\n      dup3\n        /* \"#utility.yul\":10021:10037   */\n      shl\n        /* \"#utility.yul\":10000:10037   */\n      swap1\n      pop\n        /* \"#utility.yul\":9937:10044   */\n      swap3\n      swap2\n      pop\n      pop\n      jump\t// out\n        /* \"#utility.yul\":10050:10443   */\n    tag_139:\n        /* \"#utility.yul\":10119:10125   */\n      0x00\n        /* \"#utility.yul\":10169:10170   */\n      0x08\n        /* \"#utility.yul\":10157:10167   */\n      dup4\n        /* \"#utility.yul\":10153:10171   */\n      mul\n        /* \"#utility.yul\":10192:10289   */\n      tag_276\n        /* \"#utility.yul\":10222:10288   */\n      0xffffffffffffffffffffffffffffffffffffffffffffffffffffffffffffffff\n        /* \"#utility.yul\":10211:10220   */\n      dup3\n        /* \"#utility.yul\":10192:10289   */\n      tag_138\n      jump\t// in\n    tag_276:\n        /* \"#utility.yul\":10310:10349   */\n      tag_277\n        /* \"#utility.yul\":10340:10348   */\n      dup7\n        /* \"#utility.yul\":10329:10338   */\n      dup4\n        /* \"#utility.yul\":10310:10349   */\n      tag_138\n      jump\t// in\n    tag_277:\n        /* \"#utility.yul\":10298:10349   */\n      swap6\n      pop\n        /* \"#utility.yul\":10382:10386   */\n      dup1\n        /* \"#utility.yul\":10378:10387   */\n      not\n        /* \"#utility.yul\":10371:10376   */\n      dup5\n        /* \"#utility.yul\":10367:10388   */\n      and\n        /* \"#utility.yul\":10358:10388   */\n      swap4\n      pop\n        /* \"#utility.yul\":10431:10435   */\n      dup1\n        /* \"#utility.yul\":10421:10429   */\n      dup7\n        /* \"#utility.yul\":10417:10436   */\n      and\n        /* \"#utility.yul\":10410:10415   */\n      dup5\n        /* \"#utility.yul\":10407:10437   */\n      or\n        /* \"#utility.yul\":10397:10437   */\n      swap3\n      pop\n        /* \"#utility.yul\":10126:10443   */\n      pop\n      pop\n        /* \"#utility.yul\":10050:10443   */\n      swap4\n      swap3\n      pop\n      pop\n      pop\n      jump\t// out\n        /* \"#utility.yul\":10449:10509   */\n    tag_140:\n        /* \"#utility.yul\":10477:10480   */\n      0x00\n        /* \"#utility.yul\":10498:10503   */\n      dup2\n        /* \"#utility.yul\":10491:10503   */\n      swap1\n      pop\n        /* \"#utility.yul\":10449:10509   */\n      swap2\n      swap1\n      pop\n      jump\t// out\n        /* \"#utility.yul\":10515:10657   */\n    tag_141:\n        /* \"#utility.yul\":10565:10574   */\n      0x00\n        /* \"#utility.yul\":10598:10651   */\n      tag_280\n        /* \"#utility.yul\":10616:10650   */\n      tag_281\n        /* \"#utility.yul\":10625:10649   */\n      tag_282\n        /* \"#utility.yul\":10643:10648   */\n      dup5\n        /* \"#utility.yul\":10625:10649   */\n      tag_105\n      jump\t// in\n    tag_282:\n        /* \"#utility.yul\":10616:10650   */\n      tag_140\n      jump\t// in\n    tag_281:\n        /* \"#utility.yul\":10598:10651   */\n      tag_105\n      jump\t// in\n    tag_280:\n        /* \"#utility.yul\":10585:10651   */\n      swap1\n      pop\n        /* \"#utility.yul\":10515:10657   */\n      swap2\n      swap1\n      pop\n      jump\t// out\n        /* \"#utility.yul\":10663:10738   */\n    tag_142:\n        /* \"#utility.yul\":10706:10709   */\n      0x00\n        /* \"#utility.yul\":10727:10732   */\n      dup2\n        /* \"#utility.yul\":10720:10732   */\n      swap1\n      pop\n        /* \"#utility.yul\":10663:10738   */\n      swap2\n      swap1\n      pop\n      jump\t// out\n        /* \"#utility.yul\":10744:11013   */\n    tag_143:\n        /* \"#utility.yul\":10854:10893   */\n      tag_285\n        /* \"#utility.yul\":10885:10892   */\n      dup4\n        /* \"#utility.yul\":10854:10893   */\n      tag_141\n      jump\t// in\n    tag_285:\n        /* \"#utility.yul\":10915:11006   */\n      tag_286\n        /* \"#utility.yul\":10964:11005   */\n      tag_287\n        /* \"#utility.yul\":10988:11004   */\n      dup3\n        /* \"#utility.yul\":10964:11005   */\n      tag_142\n      jump\t// in\n    tag_287:\n        /* \"#utility.yul\":10956:10962   */\n      dup5\n        /* \"#utility.yul\":10949:10953   */\n      dup5\n        /* \"#utility.yul\":10943:10954   */\n      sload\n        /* \"#utility.yul\":10915:11006   */\n      tag_139\n      jump\t// in\n    tag_286:\n        /* \"#utility.yul\":10909:10913   */\n      dup3\n        /* \"#utility.yul\":10902:11007   */\n      sstore\n        /* \"#utility.yul\":10820:11013   */\n      pop\n        /* \"#utility.yul\":10744:11013   */\n      pop\n      pop\n      pop\n      jump\t// out\n        /* \"#utility.yul\":11019:11092   */\n    tag_144:\n        /* \"#utility.yul\":11064:11067   */\n      0x00\n        /* \"#utility.yul\":11019:11092   */\n      swap1\n      jump\t// out\n        /* \"#utility.yul\":11098:11287   */\n    tag_145:\n        /* \"#utility.yul\":11175:11207   */\n      tag_290\n      tag_144\n      jump\t// in\n    tag_290:\n        /* \"#utility.yul\":11216:11281   */\n      tag_291\n        /* \"#utility.yul\":11274:11280   */\n      dup2\n        /* \"#utility.yul\":11266:11272   */\n      dup5\n        /* \"#utility.yul\":11260:11264   */\n      dup5\n        /* \"#utility.yul\":11216:11281   */\n      tag_143\n      jump\t// in\n    tag_291:\n        /* \"#utility.yul\":11151:11287   */\n      pop\n        /* \"#utility.yul\":11098:11287   */\n      pop\n      pop\n      jump\t// out\n        /* \"#utility.yul\":11293:11479   */\n    tag_146:\n        /* \"#utility.yul\":11353:11473   */\n    tag_293:\n        /* \"#utility.yul\":11370:11373   */\n      dup2\n        /* \"#utility.yul\":11363:11368   */\n      dup2\n        /* \"#utility.yul\":11360:11374   */\n      lt\n        /* \"#utility.yul\":11353:11473   */\n      iszero\n      tag_295\n      jumpi\n        /* \"#utility.yul\":11424:11463   */\n      tag_296\n        /* \"#utility.yul\":11461:11462   */\n      0x00\n        /* \"#utility.yul\":11454:11459   */\n      dup3\n        /* \"#utility.yul\":11424:11463   */\n      tag_145\n      jump\t// in\n    tag_296:\n        /* \"#utility.yul\":11397:11398   */\n      0x01\n        /* \"#utility.yul\":11390:11395   */\n      dup2\n        /* \"#utility.yul\":11386:11399   */\n      add\n        /* \"#utility.yul\":11377:11399   */\n      swap1\n      pop\n        /* \"#utility.yul\":11353:11473   */\n      jump(tag_293)\n    tag_295:\n        /* \"#utility.yul\":11293:11479   */\n      pop\n      pop\n      jump\t// out\n        /* \"#utility.yul\":11485:12028   */\n    tag_147:\n        /* \"#utility.yul\":11586:11588   */\n      0x1f\n        /* \"#utility.yul\":11581:11584   */\n      dup3\n        /* \"#utility.yul\":11578:11589   */\n      gt\n        /* \"#utility.yul\":11575:12021   */\n      iszero\n      tag_298\n      jumpi\n        /* \"#utility.yul\":11620:11658   */\n      tag_299\n        /* \"#utility.yul\":11652:11657   */\n      dup2\n        /* \"#utility.yul\":11620:11658   */\n      tag_136\n      jump\t// in\n    tag_299:\n        /* \"#utility.yul\":11704:11733   */\n      tag_300\n        /* \"#utility.yul\":11722:11732   */\n      dup5\n        /* \"#utility.yul\":11704:11733   */\n      tag_137\n      jump\t// in\n    tag_300:\n        /* \"#utility.yul\":11694:11702   */\n      dup2\n        /* \"#utility.yul\":11690:11734   */\n      add\n        /* \"#utility.yul\":11887:11889   */\n      0x20\n        /* \"#utility.yul\":11875:11885   */\n      dup6\n        /* \"#utility.yul\":11872:11890   */\n      lt\n        /* \"#utility.yul\":11869:11918   */\n      iszero\n      tag_301\n      jumpi\n        /* \"#utility.yul\":11908:11916   */\n      dup2\n        /* \"#utility.yul\":11893:11916   */\n      swap1\n      pop\n        /* \"#utility.yul\":11869:11918   */\n    tag_301:\n        /* \"#utility.yul\":11931:12011   */\n      tag_302\n        /* \"#utility.yul\":11987:12009   */\n      tag_303\n        /* \"#utility.yul\":12005:12008   */\n      dup6\n        /* \"#utility.yul\":11987:12009   */\n      tag_137\n      jump\t// in\n    tag_303:\n        /* \"#utility.yul\":11977:11985   */\n      dup4\n        /* \"#utility.yul\":11973:12010   */\n      add\n        /* \"#utility.yul\":11960:11971   */\n      dup3\n        /* \"#utility.yul\":11931:12011   */\n      tag_146\n      jump\t// in\n    tag_302:\n        /* \"#utility.yul\":11590:12021   */\n      pop\n      pop\n        /* \"#utility.yul\":11575:12021   */\n    tag_298:\n        /* \"#utility.yul\":11485:12028   */\n      pop\n      pop\n      pop\n      jump\t// out\n        /* \"#utility.yul\":12034:12151   */\n    tag_148:\n        /* \"#utility.yul\":12088:12096   */\n      0x00\n        /* \"#utility.yul\":12138:12143   */\n      dup3\n        /* \"#utility.yul\":12132:12136   */\n      dup3\n        /* \"#utility.yul\":12128:12144   */\n      shr\n        /* \"#utility.yul\":12107:12144   */\n      swap1\n      pop\n        /* \"#utility.yul\":12034:12151   */\n      swap3\n      swap2\n      pop\n      pop\n      jump\t// out\n        /* \"#utility.yul\":12157:12326   */\n    tag_149:\n        /* \"#utility.yul\":12201:12207   */\n      0x00\n        /* \"#utility.yul\":12234:12285   */\n      tag_306\n        /* \"#utility.yul\":12282:12283   */\n      0x00\n        /* \"#utility.yul\":12278:12284   */\n      not\n        /* \"#utility.yul\":12270:12275   */\n      dup5\n        /* \"#utility.yul\":12267:12268   */\n      0x08\n        /* \"#utility.yul\":12263:12276   */\n      mul\n        /* \"#utility.yul\":12234:12285   */\n      tag_148\n      jump\t// in\n    tag_306:\n        /* \"#utility.yul\":12230:12286   */\n      not\n        /* \"#utility.yul\":12315:12319   */\n      dup1\n        /* \"#utility.yul\":12309:12313   */\n      dup4\n        /* \"#utility.yul\":12305:12320   */\n      and\n        /* \"#utility.yul\":12295:12320   */\n      swap2\n      pop\n        /* \"#utility.yul\":12208:12326   */\n      pop\n        /* \"#utility.yul\":12157:12326   */\n      swap3\n      swap2\n      pop\n      pop\n      jump\t// out\n        /* \"#utility.yul\":12331:12626   */\n    tag_150:\n        /* \"#utility.yul\":12407:12411   */\n      0x00\n        /* \"#utility.yul\":12553:12582   */\n      tag_308\n        /* \"#utility.yul\":12578:12581   */\n      dup4\n        /* \"#utility.yul\":12572:12576   */\n      dup4\n        /* \"#utility.yul\":12553:12582   */\n      tag_149\n      jump\t// in\n    tag_308:\n        /* \"#utility.yul\":12545:12582   */\n      swap2\n      pop\n        /* \"#utility.yul\":12615:12618   */\n      dup3\n        /* \"#utility.yul\":12612:12613   */\n      0x02\n        /* \"#utility.yul\":12608:12619   */\n      mul\n        /* \"#utility.yul\":12602:12606   */\n      dup3\n        /* \"#utility.yul\":12599:12620   */\n      or\n        /* \"#utility.yul\":12591:12620   */\n      swap1\n      pop\n        /* \"#utility.yul\":12331:12626   */\n      swap3\n      swap2\n      pop\n      pop\n      jump\t// out\n        /* \"#utility.yul\":12631:14026   */\n    tag_54:\n        /* \"#utility.yul\":12748:12785   */\n      tag_310\n        /* \"#utility.yul\":12781:12784   */\n      dup3\n        /* \"#utility.yul\":12748:12785   */\n      tag_109\n      jump\t// in\n    tag_310:\n        /* \"#utility.yul\":12850:12868   */\n      0xffffffffffffffff\n        /* \"#utility.yul\":12842:12848   */\n      dup2\n        /* \"#utility.yul\":12839:12869   */\n      gt\n        /* \"#utility.yul\":12836:12892   */\n      iszero\n      tag_311\n      jumpi\n        /* \"#utility.yul\":12872:12890   */\n      tag_312\n      tag_118\n      jump\t// in\n    tag_312:\n        /* \"#utility.yul\":12836:12892   */\n    tag_311:\n        /* \"#utility.yul\":12916:12954   */\n      tag_313\n        /* \"#utility.yul\":12948:12952   */\n      dup3\n        /* \"#utility.yul\":12942:12953   */\n      sload\n        /* \"#utility.yul\":12916:12954   */\n      tag_39\n      jump\t// in\n    tag_313:\n        /* \"#utility.yul\":13001:13068   */\n      tag_314\n        /* \"#utility.yul\":13061:13067   */\n      dup3\n        /* \"#utility.yul\":13053:13059   */\n      dup3\n        /* \"#utility.yul\":13047:13051   */\n      dup6\n        /* \"#utility.yul\":13001:13068   */\n      tag_147\n      jump\t// in\n    tag_314:\n        /* \"#utility.yul\":13095:13096   */\n      0x00\n        /* \"#utility.yul\":13119:13123   */\n      0x20\n        /* \"#utility.yul\":13106:13123   */\n      swap1\n      pop\n        /* \"#utility.yul\":13151:13153   */\n      0x1f\n        /* \"#utility.yul\":13143:13149   */\n      dup4\n        /* \"#utility.yul\":13140:13154   */\n      gt\n        /* \"#utility.yul\":13168:13169   */\n      0x01\n        /* \"#utility.yul\":13163:13781   */\n      dup2\n      eq\n      tag_316\n      jumpi\n        /* \"#utility.yul\":13825:13826   */\n      0x00\n        /* \"#utility.yul\":13842:13848   */\n      dup5\n        /* \"#utility.yul\":13839:13916   */\n      iszero\n      tag_317\n      jumpi\n        /* \"#utility.yul\":13891:13900   */\n      dup3\n        /* \"#utility.yul\":13886:13889   */\n      dup8\n        /* \"#utility.yul\":13882:13901   */\n      add\n        /* \"#utility.yul\":13876:13902   */\n      mload\n        /* \"#utility.yul\":13867:13902   */\n      swap1\n      pop\n        /* \"#utility.yul\":13839:13916   */\n    tag_317:\n        /* \"#utility.yul\":13942:14009   */\n      tag_318\n        /* \"#utility.yul\":14002:14008   */\n      dup6\n        /* \"#utility.yul\":13995:14000   */\n      dup3\n        /* \"#utility.yul\":13942:14009   */\n      tag_150\n      jump\t// in\n    tag_318:\n        /* \"#utility.yul\":13936:13940   */\n      dup7\n        /* \"#utility.yul\":13929:14010   */\n      sstore\n        /* \"#utility.yul\":13798:14020   */\n      pop\n        /* \"#utility.yul\":13133:14020   */\n      jump(tag_315)\n        /* \"#utility.yul\":13163:13781   */\n    tag_316:\n        /* \"#utility.yul\":13215:13219   */\n      0x1f\n        /* \"#utility.yul\":13211:13220   */\n      not\n        /* \"#utility.yul\":13203:13209   */\n      dup5\n        /* \"#utility.yul\":13199:13221   */\n      and\n        /* \"#utility.yul\":13249:13286   */\n      tag_319\n        /* \"#utility.yul\":13281:13285   */\n      dup7\n        /* \"#utility.yul\":13249:13286   */\n      tag_136\n      jump\t// in\n    tag_319:\n        /* \"#utility.yul\":13308:13309   */\n      0x00\n        /* \"#utility.yul\":13322:13530   */\n    tag_320:\n        /* \"#utility.yul\":13336:13343   */\n      dup3\n        /* \"#utility.yul\":13333:13334   */\n      dup2\n        /* \"#utility.yul\":13330:13344   */\n      lt\n        /* \"#utility.yul\":13322:13530   */\n      iszero\n      tag_322\n      jumpi\n        /* \"#utility.yul\":13415:13424   */\n      dup5\n        /* \"#utility.yul\":13410:13413   */\n      dup10\n        /* \"#utility.yul\":13406:13425   */\n      add\n        /* \"#utility.yul\":13400:13426   */\n      mload\n        /* \"#utility.yul\":13392:13398   */\n      dup3\n        /* \"#utility.yul\":13385:13427   */\n      sstore\n        /* \"#utility.yul\":13466:13467   */\n      0x01\n        /* \"#utility.yul\":13458:13464   */\n      dup3\n        /* \"#utility.yul\":13454:13468   */\n      add\n        /* \"#utility.yul\":13444:13468   */\n      swap2\n      pop\n        /* \"#utility.yul\":13513:13515   */\n      0x20\n        /* \"#utility.yul\":13502:13511   */\n      dup6\n        /* \"#utility.yul\":13498:13516   */\n      add\n        /* \"#utility.yul\":13485:13516   */\n      swap5\n      pop\n        /* \"#utility.yul\":13359:13363   */\n      0x20\n        /* \"#utility.yul\":13356:13357   */\n      dup2\n        /* \"#utility.yul\":13352:13364   */\n      add\n        /* \"#utility.yul\":13347:13364   */\n      swap1\n      pop\n        /* \"#utility.yul\":13322:13530   */\n      jump(tag_320)\n    tag_322:\n        /* \"#utility.yul\":13558:13564   */\n      dup7\n        /* \"#utility.yul\":13549:13556   */\n      dup4\n        /* \"#utility.yul\":13546:13565   */\n      lt\n        /* \"#utility.yul\":13543:13722   */\n      iszero\n      tag_323\n      jumpi\n        /* \"#utility.yul\":13616:13625   */\n      dup5\n        /* \"#utility.yul\":13611:13614   */\n      dup10\n        /* \"#utility.yul\":13607:13626   */\n      add\n        /* \"#utility.yul\":13601:13627   */\n      mload\n        /* \"#utility.yul\":13659:13707   */\n      tag_324\n        /* \"#utility.yul\":13701:13705   */\n      0x1f\n        /* \"#utility.yul\":13693:13699   */\n      dup10\n        /* \"#utility.yul\":13689:13706   */\n      and\n        /* \"#utility.yul\":13678:13687   */\n      dup3\n        /* \"#utility.yul\":13659:13707   */\n      tag_149\n      jump\t// in\n    tag_324:\n        /* \"#utility.yul\":13651:13657   */\n      dup4\n        /* \"#utility.yul\":13644:13708   */\n      sstore\n        /* \"#utility.yul\":13566:13722   */\n      pop\n        /* \"#utility.yul\":13543:13722   */\n    tag_323:\n        /* \"#utility.yul\":13768:13769   */\n      0x01\n        /* \"#utility.yul\":13764:13765   */\n      0x02\n        /* \"#utility.yul\":13756:13762   */\n      dup9\n        /* \"#utility.yul\":13752:13766   */\n      mul\n        /* \"#utility.yul\":13748:13770   */\n      add\n        /* \"#utility.yul\":13742:13746   */\n      dup9\n        /* \"#utility.yul\":13735:13771   */\n      sstore\n        /* \"#utility.yul\":13170:13781   */\n      pop\n      pop\n      pop\n        /* \"#utility.yul\":13133:14020   */\n    tag_315:\n      pop\n        /* \"#utility.yul\":12723:14026   */\n      pop\n      pop\n      pop\n        /* \"#utility.yul\":12631:14026   */\n      pop\n      pop\n      jump\t// out\n        /* \"#utility.yul\":14032:14455   */\n    tag_56:\n        /* \"#utility.yul\":14173:14177   */\n      0x00\n        /* \"#utility.yul\":14211:14213   */\n      0x40\n        /* \"#utility.yul\":14200:14209   */\n      dup3\n        /* \"#utility.yul\":14196:14214   */\n      add\n        /* \"#utility.yul\":14188:14214   */\n      swap1\n      pop\n        /* \"#utility.yul\":14260:14269   */\n      dup2\n        /* \"#utility.yul\":14254:14258   */\n      dup2\n        /* \"#utility.yul\":14250:14270   */\n      sub\n        /* \"#utility.yul\":14246:14247   */\n      0x00\n        /* \"#utility.yul\":14235:14244   */\n      dup4\n        /* \"#utility.yul\":14231:14248   */\n      add\n        /* \"#utility.yul\":14224:14271   */\n      mstore\n        /* \"#utility.yul\":14288:14366   */\n      tag_326\n        /* \"#utility.yul\":14361:14365   */\n      dup2\n        /* \"#utility.yul\":14352:14358   */\n      dup6\n        /* \"#utility.yul\":14288:14366   */\n      tag_113\n      jump\t// in\n    tag_326:\n        /* \"#utility.yul\":14280:14366   */\n      swap1\n      pop\n        /* \"#utility.yul\":14376:14448   */\n      tag_327\n        /* \"#utility.yul\":14444:14446   */\n      0x20\n        /* \"#utility.yul\":14433:14442   */\n      dup4\n        /* \"#utility.yul\":14429:14447   */\n      add\n        /* \"#utility.yul\":14420:14426   */\n      dup5\n        /* \"#utility.yul\":14376:14448   */\n      tag_108\n      jump\t// in\n    tag_327:\n        /* \"#utility.yul\":14032:14455   */\n      swap4\n      swap3\n      pop\n      pop\n      pop\n      jump\t// out\n        /* \"#utility.yul\":14461:14637   */\n    tag_151:\n        /* \"#utility.yul\":14601:14629   */\n      0x526577617264206974656d20646f6573206e6f74206578697374000000000000\n        /* \"#utility.yul\":14597:14598   */\n      0x00\n        /* \"#utility.yul\":14589:14595   */\n      dup3\n        /* \"#utility.yul\":14585:14599   */\n      add\n        /* \"#utility.yul\":14578:14630   */\n      mstore\n        /* \"#utility.yul\":14461:14637   */\n      pop\n      jump\t// out\n        /* \"#utility.yul\":14643:15009   */\n    tag_152:\n        /* \"#utility.yul\":14785:14788   */\n      0x00\n        /* \"#utility.yul\":14806:14873   */\n      tag_330\n        /* \"#utility.yul\":14870:14872   */\n      0x1a\n        /* \"#utility.yul\":14865:14868   */\n      dup4\n        /* \"#utility.yul\":14806:14873   */\n      tag_110\n      jump\t// in\n    tag_330:\n        /* \"#utility.yul\":14799:14873   */\n      swap2\n      pop\n        /* \"#utility.yul\":14882:14975   */\n      tag_331\n        /* \"#utility.yul\":14971:14974   */\n      dup3\n        /* \"#utility.yul\":14882:14975   */\n      tag_151\n      jump\t// in\n    tag_331:\n        /* \"#utility.yul\":15000:15002   */\n      0x20\n        /* \"#utility.yul\":14995:14998   */\n      dup3\n        /* \"#utility.yul\":14991:15003   */\n      add\n        /* \"#utility.yul\":14984:15003   */\n      swap1\n      pop\n        /* \"#utility.yul\":14643:15009   */\n      swap2\n      swap1\n      pop\n      jump\t// out\n        /* \"#utility.yul\":15015:15434   */\n    tag_62:\n        /* \"#utility.yul\":15181:15185   */\n      0x00\n        /* \"#utility.yul\":15219:15221   */\n      0x20\n        /* \"#utility.yul\":15208:15217   */\n      dup3\n        /* \"#utility.yul\":15204:15222   */\n      add\n        /* \"#utility.yul\":15196:15222   */\n      swap1\n      pop\n        /* \"#utility.yul\":15268:15277   */\n      dup2\n        /* \"#utility.yul\":15262:15266   */\n      dup2\n        /* \"#utility.yul\":15258:15278   */\n      sub\n        /* \"#utility.yul\":15254:15255   */\n      0x00\n        /* \"#utility.yul\":15243:15252   */\n      dup4\n        /* \"#utility.yul\":15239:15256   */\n      add\n        /* \"#utility.yul\":15232:15279   */\n      mstore\n        /* \"#utility.yul\":15296:15427   */\n      tag_333\n        /* \"#utility.yul\":15422:15426   */\n      dup2\n        /* \"#utility.yul\":15296:15427   */\n      tag_152\n      jump\t// in\n    tag_333:\n        /* \"#utility.yul\":15288:15427   */\n      swap1\n      pop\n        /* \"#utility.yul\":15015:15434   */\n      swap2\n      swap1\n      pop\n      jump\t// out\n        /* \"#utility.yul\":15440:15615   */\n    tag_153:\n        /* \"#utility.yul\":15580:15607   */\n      0x526577617264206974656d206973206e6f742061637469766500000000000000\n        /* \"#utility.yul\":15576:15577   */\n      0x00\n        /* \"#utility.yul\":15568:15574   */\n      dup3\n        /* \"#utility.yul\":15564:15578   */\n      add\n        /* \"#utility.yul\":15557:15608   */\n      mstore\n        /* \"#utility.yul\":15440:15615   */\n      pop\n      jump\t// out\n        /* \"#utility.yul\":15621:15987   */\n    tag_154:\n        /* \"#utility.yul\":15763:15766   */\n      0x00\n        /* \"#utility.yul\":15784:15851   */\n      tag_336\n        /* \"#utility.yul\":15848:15850   */\n      0x19\n        /* \"#utility.yul\":15843:15846   */\n      dup4\n        /* \"#utility.yul\":15784:15851   */\n      tag_110\n      jump\t// in\n    tag_336:\n        /* \"#utility.yul\":15777:15851   */\n      swap2\n      pop\n        /* \"#utility.yul\":15860:15953   */\n      tag_337\n        /* \"#utility.yul\":15949:15952   */\n      dup3\n        /* \"#utility.yul\":15860:15953   */\n      tag_153\n      jump\t// in\n    tag_337:\n        /* \"#utility.yul\":15978:15980   */\n      0x20\n        /* \"#utility.yul\":15973:15976   */\n      dup3\n        /* \"#utility.yul\":15969:15981   */\n      add\n        /* \"#utility.yul\":15962:15981   */\n      swap1\n      pop\n        /* \"#utility.yul\":15621:15987   */\n      swap2\n      swap1\n      pop\n      jump\t// out\n        /* \"#utility.yul\":15993:16412   */\n    tag_71:\n        /* \"#utility.yul\":16159:16163   */\n      0x00\n        /* \"#utility.yul\":16197:16199   */\n      0x20\n        /* \"#utility.yul\":16186:16195   */\n      dup3\n        /* \"#utility.yul\":16182:16200   */\n      add\n        /* \"#utility.yul\":16174:16200   */\n      swap1\n      pop\n        /* \"#utility.yul\":16246:16255   */\n      dup2\n        /* \"#utility.yul\":16240:16244   */\n      dup2\n        /* \"#utility.yul\":16236:16256   */\n      sub\n        /* \"#utility.yul\":16232:16233   */\n      0x00\n        /* \"#utility.yul\":16221:16230   */\n      dup4\n        /* \"#utility.yul\":16217:16234   */\n      add\n        /* \"#utility.yul\":16210:16257   */\n      mstore\n        /* \"#utility.yul\":16274:16405   */\n      tag_339\n        /* \"#utility.yul\":16400:16404   */\n      dup2\n        /* \"#utility.yul\":16274:16405   */\n      tag_154\n      jump\t// in\n    tag_339:\n        /* \"#utility.yul\":16266:16405   */\n      swap1\n      pop\n        /* \"#utility.yul\":15993:16412   */\n      swap2\n      swap1\n      pop\n      jump\t// out\n        /* \"#utility.yul\":16418:16561   */\n    tag_155:\n        /* \"#utility.yul\":16475:16480   */\n      0x00\n        /* \"#utility.yul\":16506:16512   */\n      dup2\n        /* \"#utility.yul\":16500:16513   */\n      mload\n        /* \"#utility.yul\":16491:16513   */\n      swap1\n      pop\n        /* \"#utility.yul\":16522:16555   */\n      tag_341\n        /* \"#utility.yul\":16549:16554   */\n      dup2\n        /* \"#utility.yul\":16522:16555   */\n      tag_106\n      jump\t// in\n    tag_341:\n        /* \"#utility.yul\":16418:16561   */\n      swap3\n      swap2\n      pop\n      pop\n      jump\t// out\n        /* \"#utility.yul\":16567:16918   */\n    tag_76:\n        /* \"#utility.yul\":16637:16643   */\n      0x00\n        /* \"#utility.yul\":16686:16688   */\n      0x20\n        /* \"#utility.yul\":16674:16683   */\n      dup3\n        /* \"#utility.yul\":16665:16672   */\n      dup5\n        /* \"#utility.yul\":16661:16684   */\n      sub\n        /* \"#utility.yul\":16657:16689   */\n      slt\n        /* \"#utility.yul\":16654:16773   */\n      iszero\n      tag_343\n      jumpi\n        /* \"#utility.yul\":16692:16771   */\n      tag_344\n      tag_103\n      jump\t// in\n    tag_344:\n        /* \"#utility.yul\":16654:16773   */\n    tag_343:\n        /* \"#utility.yul\":16812:16813   */\n      0x00\n        /* \"#utility.yul\":16837:16901   */\n      tag_345\n        /* \"#utility.yul\":16893:16900   */\n      dup5\n        /* \"#utility.yul\":16884:16890   */\n      dup3\n        /* \"#utility.yul\":16873:16882   */\n      dup6\n        /* \"#utility.yul\":16869:16891   */\n      add\n        /* \"#utility.yul\":16837:16901   */\n      tag_155\n      jump\t// in\n    tag_345:\n        /* \"#utility.yul\":16827:16901   */\n      swap2\n      pop\n        /* \"#utility.yul\":16783:16911   */\n      pop\n        /* \"#utility.yul\":16567:16918   */\n      swap3\n      swap2\n      pop\n      pop\n      jump\t// out\n        /* \"#utility.yul\":16924:17093   */\n    tag_156:\n        /* \"#utility.yul\":17064:17085   */\n      0x496e73756666696369656e7420706f696e747300000000000000000000000000\n        /* \"#utility.yul\":17060:17061   */\n      0x00\n        /* \"#utility.yul\":17052:17058   */\n      dup3\n        /* \"#utility.yul\":17048:17062   */\n      add\n        /* \"#utility.yul\":17041:17086   */\n      mstore\n        /* \"#utility.yul\":16924:17093   */\n      pop\n      jump\t// out\n        /* \"#utility.yul\":17099:17465   */\n    tag_157:\n        /* \"#utility.yul\":17241:17244   */\n      0x00\n        /* \"#utility.yul\":17262:17329   */\n      tag_348\n        /* \"#utility.yul\":17326:17328   */\n      0x13\n        /* \"#utility.yul\":17321:17324   */\n      dup4\n        /* \"#utility.yul\":17262:17329   */\n      tag_110\n      jump\t// in\n    tag_348:\n        /* \"#utility.yul\":17255:17329   */\n      swap2\n      pop\n        /* \"#utility.yul\":17338:17431   */\n      tag_349\n        /* \"#utility.yul\":17427:17430   */\n      dup3\n        /* \"#utility.yul\":17338:17431   */\n      tag_156\n      jump\t// in\n    tag_349:\n        /* \"#utility.yul\":17456:17458   */\n      0x20\n        /* \"#utility.yul\":17451:17454   */\n      dup3\n        /* \"#utility.yul\":17447:17459   */\n      add\n        /* \"#utility.yul\":17440:17459   */\n      swap1\n      pop\n        /* \"#utility.yul\":17099:17465   */\n      swap2\n      swap1\n      pop\n      jump\t// out\n        /* \"#utility.yul\":17471:17890   */\n    tag_79:\n        /* \"#utility.yul\":17637:17641   */\n      0x00\n        /* \"#utility.yul\":17675:17677   */\n      0x20\n        /* \"#utility.yul\":17664:17673   */\n      dup3\n        /* \"#utility.yul\":17660:17678   */\n      add\n        /* \"#utility.yul\":17652:17678   */\n      swap1\n      pop\n        /* \"#utility.yul\":17724:17733   */\n      dup2\n        /* \"#utility.yul\":17718:17722   */\n      dup2\n        /* \"#utility.yul\":17714:17734   */\n      sub\n        /* \"#utility.yul\":17710:17711   */\n      0x00\n        /* \"#utility.yul\":17699:17708   */\n      dup4\n        /* \"#utility.yul\":17695:17712   */\n      add\n        /* \"#utility.yul\":17688:17735   */\n      mstore\n        /* \"#utility.yul\":17752:17883   */\n      tag_351\n        /* \"#utility.yul\":17878:17882   */\n      dup2\n        /* \"#utility.yul\":17752:17883   */\n      tag_157\n      jump\t// in\n    tag_351:\n        /* \"#utility.yul\":17744:17883   */\n      swap1\n      pop\n        /* \"#utility.yul\":17471:17890   */\n      swap2\n      swap1\n      pop\n      jump\t// out\n        /* \"#utility.yul\":17896:18228   */\n    tag_81:\n        /* \"#utility.yul\":18017:18021   */\n      0x00\n        /* \"#utility.yul\":18055:18057   */\n      0x40\n        /* \"#utility.yul\":18044:18053   */\n      dup3\n        /* \"#utility.yul\":18040:18058   */\n      add\n        /* \"#utility.yul\":18032:18058   */\n      swap1\n      pop\n        /* \"#utility.yul\":18068:18139   */\n      tag_353\n        /* \"#utility.yul\":18136:18137   */\n      0x00\n        /* \"#utility.yul\":18125:18134   */\n      dup4\n        /* \"#utility.yul\":18121:18138   */\n      add\n        /* \"#utility.yul\":18112:18118   */\n      dup6\n        /* \"#utility.yul\":18068:18139   */\n      tag_129\n      jump\t// in\n    tag_353:\n        /* \"#utility.yul\":18149:18221   */\n      tag_354\n        /* \"#utility.yul\":18217:18219   */\n      0x20\n        /* \"#utility.yul\":18206:18215   */\n      dup4\n        /* \"#utility.yul\":18202:18220   */\n      add\n        /* \"#utility.yul\":18193:18199   */\n      dup5\n        /* \"#utility.yul\":18149:18221   */\n      tag_108\n      jump\t// in\n    tag_354:\n        /* \"#utility.yul\":17896:18228   */\n      swap4\n      swap3\n      pop\n      pop\n      pop\n      jump\t// out\n        /* \"#utility.yul\":18234:18459   */\n    tag_158:\n        /* \"#utility.yul\":18374:18408   */\n      0x4f776e61626c653a206e6577206f776e657220697320746865207a65726f2061\n        /* \"#utility.yul\":18370:18371   */\n      0x00\n        /* \"#utility.yul\":18362:18368   */\n      dup3\n        /* \"#utility.yul\":18358:18372   */\n      add\n        /* \"#utility.yul\":18351:18409   */\n      mstore\n        /* \"#utility.yul\":18443:18451   */\n      0x6464726573730000000000000000000000000000000000000000000000000000\n        /* \"#utility.yul\":18438:18440   */\n      0x20\n        /* \"#utility.yul\":18430:18436   */\n      dup3\n        /* \"#utility.yul\":18426:18441   */\n      add\n        /* \"#utility.yul\":18419:18452   */\n      mstore\n        /* \"#utility.yul\":18234:18459   */\n      pop\n      jump\t// out\n        /* \"#utility.yul\":18465:18831   */\n    tag_159:\n        /* \"#utility.yul\":18607:18610   */\n      0x00\n        /* \"#utility.yul\":18628:18695   */\n      tag_357\n        /* \"#utility.yul\":18692:18694   */\n      0x26\n        /* \"#utility.yul\":18687:18690   */\n      dup4\n        /* \"#utility.yul\":18628:18695   */\n      tag_110\n      jump\t// in\n    tag_357:\n        /* \"#utility.yul\":18621:18695   */\n      swap2\n      pop\n        /* \"#utility.yul\":18704:18797   */\n      tag_358\n        /* \"#utility.yul\":18793:18796   */\n      dup3\n        /* \"#utility.yul\":18704:18797   */\n      tag_158\n      jump\t// in\n    tag_358:\n        /* \"#utility.yul\":18822:18824   */\n      0x40\n        /* \"#utility.yul\":18817:18820   */\n      dup3\n        /* \"#utility.yul\":18813:18825   */\n      add\n        /* \"#utility.yul\":18806:18825   */\n      swap1\n      pop\n        /* \"#utility.yul\":18465:18831   */\n      swap2\n      swap1\n      pop\n      jump\t// out\n        /* \"#utility.yul\":18837:19256   */\n    tag_91:\n        /* \"#utility.yul\":19003:19007   */\n      0x00\n        /* \"#utility.yul\":19041:19043   */\n      0x20\n        /* \"#utility.yul\":19030:19039   */\n      dup3\n        /* \"#utility.yul\":19026:19044   */\n      add\n        /* \"#utility.yul\":19018:19044   */\n      swap1\n      pop\n        /* \"#utility.yul\":19090:19099   */\n      dup2\n        /* \"#utility.yul\":19084:19088   */\n      dup2\n        /* \"#utility.yul\":19080:19100   */\n      sub\n        /* \"#utility.yul\":19076:19077   */\n      0x00\n        /* \"#utility.yul\":19065:19074   */\n      dup4\n        /* \"#utility.yul\":19061:19078   */\n      add\n        /* \"#utility.yul\":19054:19101   */\n      mstore\n        /* \"#utility.yul\":19118:19249   */\n      tag_360\n        /* \"#utility.yul\":19244:19248   */\n      dup2\n        /* \"#utility.yul\":19118:19249   */\n      tag_159\n      jump\t// in\n    tag_360:\n        /* \"#utility.yul\":19110:19249   */\n      swap1\n      pop\n        /* \"#utility.yul\":18837:19256   */\n      swap2\n      swap1\n      pop\n      jump\t// out\n        /* \"#utility.yul\":19262:19444   */\n    tag_160:\n        /* \"#utility.yul\":19402:19436   */\n      0x4f776e61626c653a2063616c6c6572206973206e6f7420746865206f776e6572\n        /* \"#utility.yul\":19398:19399   */\n      0x00\n        /* \"#utility.yul\":19390:19396   */\n      dup3\n        /* \"#utility.yul\":19386:19400   */\n      add\n        /* \"#utility.yul\":19379:19437   */\n      mstore\n        /* \"#utility.yul\":19262:19444   */\n      pop\n      jump\t// out\n        /* \"#utility.yul\":19450:19816   */\n    tag_161:\n        /* \"#utility.yul\":19592:19595   */\n      0x00\n        /* \"#utility.yul\":19613:19680   */\n      tag_363\n        /* \"#utility.yul\":19677:19679   */\n      0x20\n        /* \"#utility.yul\":19672:19675   */\n      dup4\n        /* \"#utility.yul\":19613:19680   */\n      tag_110\n      jump\t// in\n    tag_363:\n        /* \"#utility.yul\":19606:19680   */\n      swap2\n      pop\n        /* \"#utility.yul\":19689:19782   */\n      tag_364\n        /* \"#utility.yul\":19778:19781   */\n      dup3\n        /* \"#utility.yul\":19689:19782   */\n      tag_160\n      jump\t// in\n    tag_364:\n        /* \"#utility.yul\":19807:19809   */\n      0x20\n        /* \"#utility.yul\":19802:19805   */\n      dup3\n        /* \"#utility.yul\":19798:19810   */\n      add\n        /* \"#utility.yul\":19791:19810   */\n      swap1\n      pop\n        /* \"#utility.yul\":19450:19816   */\n      swap2\n      swap1\n      pop\n      jump\t// out\n        /* \"#utility.yul\":19822:20241   */\n    tag_99:\n        /* \"#utility.yul\":19988:19992   */\n      0x00\n        /* \"#utility.yul\":20026:20028   */\n      0x20\n        /* \"#utility.yul\":20015:20024   */\n      dup3\n        /* \"#utility.yul\":20011:20029   */\n      add\n        /* \"#utility.yul\":20003:20029   */\n      swap1\n      pop\n        /* \"#utility.yul\":20075:20084   */\n      dup2\n        /* \"#utility.yul\":20069:20073   */\n      dup2\n        /* \"#utility.yul\":20065:20085   */\n      sub\n        /* \"#utility.yul\":20061:20062   */\n      0x00\n        /* \"#utility.yul\":20050:20059   */\n      dup4\n        /* \"#utility.yul\":20046:20063   */\n      add\n        /* \"#utility.yul\":20039:20086   */\n      mstore\n        /* \"#utility.yul\":20103:20234   */\n      tag_366\n        /* \"#utility.yul\":20229:20233   */\n      dup2\n        /* \"#utility.yul\":20103:20234   */\n      tag_161\n      jump\t// in\n    tag_366:\n        /* \"#utility.yul\":20095:20234   */\n      swap1\n      pop\n        /* \"#utility.yul\":19822:20241   */\n      swap2\n      swap1\n      pop\n      jump\t// out\n\n    auxdata: 0xa264697066735822122001d2e344803d48feac1a8998b6c11515c3e9811652326836a595964fdd43185c64736f6c63430008120033\n}\n",
				"bytecode": {
					"linkReferences": {},
					"object": "60806040523480156200001157600080fd5b5060405162001545380380620015458339818101604052810190620000379190620001d5565b620000576200004b6200009f60201b60201c565b620000a760201b60201c565b80600160006101000a81548173ffffffffffffffffffffffffffffffffffffffff021916908373ffffffffffffffffffffffffffffffffffffffff1602179055505062000207565b600033905090565b60008060009054906101000a900473ffffffffffffffffffffffffffffffffffffffff169050816000806101000a81548173ffffffffffffffffffffffffffffffffffffffff021916908373ffffffffffffffffffffffffffffffffffffffff1602179055508173ffffffffffffffffffffffffffffffffffffffff168173ffffffffffffffffffffffffffffffffffffffff167f8be0079c531659141344cd1fd0a4f28419497f9722a3daafe3b4186f6b6457e060405160405180910390a35050565b600080fd5b600073ffffffffffffffffffffffffffffffffffffffff82169050919050565b60006200019d8262000170565b9050919050565b620001af8162000190565b8114620001bb57600080fd5b50565b600081519050620001cf81620001a4565b92915050565b600060208284031215620001ee57620001ed6200016b565b5b6000620001fe84828501620001be565b91505092915050565b61132e80620002176000396000f3fe608060405234801561001057600080fd5b506004361061007d5760003560e01c8063715018a61161005b578063715018a6146100ed5780637a04f6cf146100f75780638da5cb5b14610113578063f2fde38b146101315761007d565b806323de66c914610082578063499a1385146100b557806354f2e368146100d1575b600080fd5b61009c6004803603810190610097919061084f565b61014d565b6040516100ac9493929190610936565b60405180910390f35b6100cf60048036038101906100ca9190610ab7565b610212565b005b6100eb60048036038101906100e69190610b3f565b610343565b005b6100f56103d6565b005b610111600480360381019061010c919061084f565b6103ea565b005b61011b61060f565b6040516101289190610bc0565b60405180910390f35b61014b60048036038101906101469190610c07565b610638565b005b600260205280600052604060002060009150905080600001549080600101805461017690610c63565b80601f01602080910402602001604051908101604052809291908181526020018280546101a290610c63565b80156101ef5780601f106101c4576101008083540402835291602001916101ef565b820191906000526020600020905b8154815290600101906020018083116101d257829003601f168201915b5050505050908060020154908060030160009054906101000a900460ff16905084565b61021a6106bb565b6000811161025d576040517f08c379a000000000000000000000000000000000000000000000000000000000815260040161025490610d06565b60405180910390fd5b6003600081548092919061027090610d55565b9190505550600060405180608001604052806003548152602001848152602001838152602001600115158152509050806002600060035481526020019081526020016000206000820151816000015560208201518160010190816102d49190610f49565b506040820151816002015560608201518160030160006101000a81548160ff0219169083151502179055509050506003547f94a77a130832117c89f88d88ee5935012a23789b0e10196a4d2527bbc549b31d848460405161033692919061101b565b60405180910390a2505050565b61034b6106bb565b60006002600084815260200190815260200160002060000154036103a4576040517f08c379a000000000000000000000000000000000000000000000000000000000815260040161039b90611097565b60405180910390fd5b806002600084815260200190815260200160002060030160006101000a81548160ff0219169083151502179055505050565b6103de6106bb565b6103e86000610739565b565b60006002600083815260200190815260200160002090508060030160009054906101000a900460ff16610452576040517f08c379a000000000000000000000000000000000000000000000000000000000815260040161044990611103565b60405180910390fd5b8060020154600160009054906101000a900473ffffffffffffffffffffffffffffffffffffffff1673ffffffffffffffffffffffffffffffffffffffff1663e707f36f336040518263ffffffff1660e01b81526004016104b29190610bc0565b602060405180830381865afa1580156104cf573d6000803e3d6000fd5b505050506040513d601f19601f820116820180604052508101906104f39190611138565b1015610534576040517f08c379a000000000000000000000000000000000000000000000000000000000815260040161052b906111b1565b60405180910390fd5b600160009054906101000a900473ffffffffffffffffffffffffffffffffffffffff1673ffffffffffffffffffffffffffffffffffffffff1663b85da8d23383600201546040518363ffffffff1660e01b81526004016105959291906111d1565b600060405180830381600087803b1580156105af57600080fd5b505af11580156105c3573d6000803e3d6000fd5b50505050813373ffffffffffffffffffffffffffffffffffffffff167f5c29e918d001b016dab341065ad83901a299250c66ee500f21873e73737fe4c660405160405180910390a35050565b60008060009054906101000a900473ffffffffffffffffffffffffffffffffffffffff16905090565b6106406106bb565b600073ffffffffffffffffffffffffffffffffffffffff168173ffffffffffffffffffffffffffffffffffffffff16036106af576040517f08c379a00000000000000000000000000000000000000000000000000000000081526004016106a69061126c565b60405180910390fd5b6106b881610739565b50565b6106c36107fd565b73ffffffffffffffffffffffffffffffffffffffff166106e161060f565b73ffffffffffffffffffffffffffffffffffffffff1614610737576040517f08c379a000000000000000000000000000000000000000000000000000000000815260040161072e906112d8565b60405180910390fd5b565b60008060009054906101000a900473ffffffffffffffffffffffffffffffffffffffff169050816000806101000a81548173ffffffffffffffffffffffffffffffffffffffff021916908373ffffffffffffffffffffffffffffffffffffffff1602179055508173ffffffffffffffffffffffffffffffffffffffff168173ffffffffffffffffffffffffffffffffffffffff167f8be0079c531659141344cd1fd0a4f28419497f9722a3daafe3b4186f6b6457e060405160405180910390a35050565b600033905090565b6000604051905090565b600080fd5b600080fd5b6000819050919050565b61082c81610819565b811461083757600080fd5b50565b60008135905061084981610823565b92915050565b6000602082840312156108655761086461080f565b5b60006108738482850161083a565b91505092915050565b61088581610819565b82525050565b600081519050919050565b600082825260208201905092915050565b60005b838110156108c55780820151818401526020810190506108aa565b60008484015250505050565b6000601f19601f8301169050919050565b60006108ed8261088b565b6108f78185610896565b93506109078185602086016108a7565b610910816108d1565b840191505092915050565b60008115159050919050565b6109308161091b565b82525050565b600060808201905061094b600083018761087c565b818103602083015261095d81866108e2565b905061096c604083018561087c565b6109796060830184610927565b95945050505050565b600080fd5b600080fd5b7f4e487b7100000000000000000000000000000000000000000000000000000000600052604160045260246000fd5b6109c4826108d1565b810181811067ffffffffffffffff821117156109e3576109e261098c565b5b80604052505050565b60006109f6610805565b9050610a0282826109bb565b919050565b600067ffffffffffffffff821115610a2257610a2161098c565b5b610a2b826108d1565b9050602081019050919050565b82818337600083830152505050565b6000610a5a610a5584610a07565b6109ec565b905082815260208101848484011115610a7657610a75610987565b5b610a81848285610a38565b509392505050565b600082601f830112610a9e57610a9d610982565b5b8135610aae848260208601610a47565b91505092915050565b60008060408385031215610ace57610acd61080f565b5b600083013567ffffffffffffffff811115610aec57610aeb610814565b5b610af885828601610a89565b9250506020610b098582860161083a565b9150509250929050565b610b1c8161091b565b8114610b2757600080fd5b50565b600081359050610b3981610b13565b92915050565b60008060408385031215610b5657610b5561080f565b5b6000610b648582860161083a565b9250506020610b7585828601610b2a565b9150509250929050565b600073ffffffffffffffffffffffffffffffffffffffff82169050919050565b6000610baa82610b7f565b9050919050565b610bba81610b9f565b82525050565b6000602082019050610bd56000830184610bb1565b92915050565b610be481610b9f565b8114610bef57600080fd5b50565b600081359050610c0181610bdb565b92915050565b600060208284031215610c1d57610c1c61080f565b5b6000610c2b84828501610bf2565b91505092915050565b7f4e487b7100000000000000000000000000000000000000000000000000000000600052602260045260246000fd5b60006002820490506001821680610c7b57607f821691505b602082108103610c8e57610c8d610c34565b5b50919050565b7f506f696e74732072657175697265642073686f756c642062652067726561746560008201527f72207468616e207a65726f000000000000000000000000000000000000000000602082015250565b6000610cf0602b83610896565b9150610cfb82610c94565b604082019050919050565b60006020820190508181036000830152610d1f81610ce3565b9050919050565b7f4e487b7100000000000000000000000000000000000000000000000000000000600052601160045260246000fd5b6000610d6082610819565b91507fffffffffffffffffffffffffffffffffffffffffffffffffffffffffffffffff8203610d9257610d91610d26565b5b600182019050919050565b60008190508160005260206000209050919050565b60006020601f8301049050919050565b600082821b905092915050565b600060088302610dff7fffffffffffffffffffffffffffffffffffffffffffffffffffffffffffffffff82610dc2565b610e098683610dc2565b95508019841693508086168417925050509392505050565b6000819050919050565b6000610e46610e41610e3c84610819565b610e21565b610819565b9050919050565b6000819050919050565b610e6083610e2b565b610e74610e6c82610e4d565b848454610dcf565b825550505050565b600090565b610e89610e7c565b610e94818484610e57565b505050565b5b81811015610eb857610ead600082610e81565b600181019050610e9a565b5050565b601f821115610efd57610ece81610d9d565b610ed784610db2565b81016020851015610ee6578190505b610efa610ef285610db2565b830182610e99565b50505b505050565b600082821c905092915050565b6000610f2060001984600802610f02565b1980831691505092915050565b6000610f398383610f0f565b9150826002028217905092915050565b610f528261088b565b67ffffffffffffffff811115610f6b57610f6a61098c565b5b610f758254610c63565b610f80828285610ebc565b600060209050601f831160018114610fb35760008415610fa1578287015190505b610fab8582610f2d565b865550611013565b601f198416610fc186610d9d565b60005b82811015610fe957848901518255600182019150602085019450602081019050610fc4565b868310156110065784890151611002601f891682610f0f565b8355505b6001600288020188555050505b505050505050565b6000604082019050818103600083015261103581856108e2565b9050611044602083018461087c565b9392505050565b7f526577617264206974656d20646f6573206e6f74206578697374000000000000600082015250565b6000611081601a83610896565b915061108c8261104b565b602082019050919050565b600060208201905081810360008301526110b081611074565b9050919050565b7f526577617264206974656d206973206e6f742061637469766500000000000000600082015250565b60006110ed601983610896565b91506110f8826110b7565b602082019050919050565b6000602082019050818103600083015261111c816110e0565b9050919050565b60008151905061113281610823565b92915050565b60006020828403121561114e5761114d61080f565b5b600061115c84828501611123565b91505092915050565b7f496e73756666696369656e7420706f696e747300000000000000000000000000600082015250565b600061119b601383610896565b91506111a682611165565b602082019050919050565b600060208201905081810360008301526111ca8161118e565b9050919050565b60006040820190506111e66000830185610bb1565b6111f3602083018461087c565b9392505050565b7f4f776e61626c653a206e6577206f776e657220697320746865207a65726f206160008201527f6464726573730000000000000000000000000000000000000000000000000000602082015250565b6000611256602683610896565b9150611261826111fa565b604082019050919050565b6000602082019050818103600083015261128581611249565b9050919050565b7f4f776e61626c653a2063616c6c6572206973206e6f7420746865206f776e6572600082015250565b60006112c2602083610896565b91506112cd8261128c565b602082019050919050565b600060208201905081810360008301526112f1816112b5565b905091905056fea264697066735822122001d2e344803d48feac1a8998b6c11515c3e9811652326836a595964fdd43185c64736f6c63430008120033",
					"opcodes": "PUSH1 0x80 PUSH1 0x40 MSTORE CALLVALUE DUP1 ISZERO PUSH3 0x11 JUMPI PUSH1 0x0 DUP1 REVERT JUMPDEST POP PUSH1 0x40 MLOAD PUSH3 0x1545 CODESIZE SUB DUP1 PUSH3 0x1545 DUP4 CODECOPY DUP2 DUP2 ADD PUSH1 0x40 MSTORE DUP2 ADD SWAP1 PUSH3 0x37 SWAP2 SWAP1 PUSH3 0x1D5 JUMP JUMPDEST PUSH3 0x57 PUSH3 0x4B PUSH3 0x9F PUSH1 0x20 SHL PUSH1 0x20 SHR JUMP JUMPDEST PUSH3 0xA7 PUSH1 0x20 SHL PUSH1 0x20 SHR JUMP JUMPDEST DUP1 PUSH1 0x1 PUSH1 0x0 PUSH2 0x100 EXP DUP2 SLOAD DUP2 PUSH20 0xFFFFFFFFFFFFFFFFFFFFFFFFFFFFFFFFFFFFFFFF MUL NOT AND SWAP1 DUP4 PUSH20 0xFFFFFFFFFFFFFFFFFFFFFFFFFFFFFFFFFFFFFFFF AND MUL OR SWAP1 SSTORE POP POP PUSH3 0x207 JUMP JUMPDEST PUSH1 0x0 CALLER SWAP1 POP SWAP1 JUMP JUMPDEST PUSH1 0x0 DUP1 PUSH1 0x0 SWAP1 SLOAD SWAP1 PUSH2 0x100 EXP SWAP1 DIV PUSH20 0xFFFFFFFFFFFFFFFFFFFFFFFFFFFFFFFFFFFFFFFF AND SWAP1 POP DUP2 PUSH1 0x0 DUP1 PUSH2 0x100 EXP DUP2 SLOAD DUP2 PUSH20 0xFFFFFFFFFFFFFFFFFFFFFFFFFFFFFFFFFFFFFFFF MUL NOT AND SWAP1 DUP4 PUSH20 0xFFFFFFFFFFFFFFFFFFFFFFFFFFFFFFFFFFFFFFFF AND MUL OR SWAP1 SSTORE POP DUP2 PUSH20 0xFFFFFFFFFFFFFFFFFFFFFFFFFFFFFFFFFFFFFFFF AND DUP2 PUSH20 0xFFFFFFFFFFFFFFFFFFFFFFFFFFFFFFFFFFFFFFFF AND PUSH32 0x8BE0079C531659141344CD1FD0A4F28419497F9722A3DAAFE3B4186F6B6457E0 PUSH1 0x40 MLOAD PUSH1 0x40 MLOAD DUP1 SWAP2 SUB SWAP1 LOG3 POP POP JUMP JUMPDEST PUSH1 0x0 DUP1 REVERT JUMPDEST PUSH1 0x0 PUSH20 0xFFFFFFFFFFFFFFFFFFFFFFFFFFFFFFFFFFFFFFFF DUP3 AND SWAP1 POP SWAP2 SWAP1 POP JUMP JUMPDEST PUSH1 0x0 PUSH3 0x19D DUP3 PUSH3 0x170 JUMP JUMPDEST SWAP1 POP SWAP2 SWAP1 POP JUMP JUMPDEST PUSH3 0x1AF DUP2 PUSH3 0x190 JUMP JUMPDEST DUP2 EQ PUSH3 0x1BB JUMPI PUSH1 0x0 DUP1 REVERT JUMPDEST POP JUMP JUMPDEST PUSH1 0x0 DUP2 MLOAD SWAP1 POP PUSH3 0x1CF DUP2 PUSH3 0x1A4 JUMP JUMPDEST SWAP3 SWAP2 POP POP JUMP JUMPDEST PUSH1 0x0 PUSH1 0x20 DUP3 DUP5 SUB SLT ISZERO PUSH3 0x1EE JUMPI PUSH3 0x1ED PUSH3 0x16B JUMP JUMPDEST JUMPDEST PUSH1 0x0 PUSH3 0x1FE DUP5 DUP3 DUP6 ADD PUSH3 0x1BE JUMP JUMPDEST SWAP2 POP POP SWAP3 SWAP2 POP POP JUMP JUMPDEST PUSH2 0x132E DUP1 PUSH3 0x217 PUSH1 0x0 CODECOPY PUSH1 0x0 RETURN INVALID PUSH1 0x80 PUSH1 0x40 MSTORE CALLVALUE DUP1 ISZERO PUSH2 0x10 JUMPI PUSH1 0x0 DUP1 REVERT JUMPDEST POP PUSH1 0x4 CALLDATASIZE LT PUSH2 0x7D JUMPI PUSH1 0x0 CALLDATALOAD PUSH1 0xE0 SHR DUP1 PUSH4 0x715018A6 GT PUSH2 0x5B JUMPI DUP1 PUSH4 0x715018A6 EQ PUSH2 0xED JUMPI DUP1 PUSH4 0x7A04F6CF EQ PUSH2 0xF7 JUMPI DUP1 PUSH4 0x8DA5CB5B EQ PUSH2 0x113 JUMPI DUP1 PUSH4 0xF2FDE38B EQ PUSH2 0x131 JUMPI PUSH2 0x7D JUMP JUMPDEST DUP1 PUSH4 0x23DE66C9 EQ PUSH2 0x82 JUMPI DUP1 PUSH4 0x499A1385 EQ PUSH2 0xB5 JUMPI DUP1 PUSH4 0x54F2E368 EQ PUSH2 0xD1 JUMPI JUMPDEST PUSH1 0x0 DUP1 REVERT JUMPDEST PUSH2 0x9C PUSH1 0x4 DUP1 CALLDATASIZE SUB DUP2 ADD SWAP1 PUSH2 0x97 SWAP2 SWAP1 PUSH2 0x84F JUMP JUMPDEST PUSH2 0x14D JUMP JUMPDEST PUSH1 0x40 MLOAD PUSH2 0xAC SWAP5 SWAP4 SWAP3 SWAP2 SWAP1 PUSH2 0x936 JUMP JUMPDEST PUSH1 0x40 MLOAD DUP1 SWAP2 SUB SWAP1 RETURN JUMPDEST PUSH2 0xCF PUSH1 0x4 DUP1 CALLDATASIZE SUB DUP2 ADD SWAP1 PUSH2 0xCA SWAP2 SWAP1 PUSH2 0xAB7 JUMP JUMPDEST PUSH2 0x212 JUMP JUMPDEST STOP JUMPDEST PUSH2 0xEB PUSH1 0x4 DUP1 CALLDATASIZE SUB DUP2 ADD SWAP1 PUSH2 0xE6 SWAP2 SWAP1 PUSH2 0xB3F JUMP JUMPDEST PUSH2 0x343 JUMP JUMPDEST STOP JUMPDEST PUSH2 0xF5 PUSH2 0x3D6 JUMP JUMPDEST STOP JUMPDEST PUSH2 0x111 PUSH1 0x4 DUP1 CALLDATASIZE SUB DUP2 ADD SWAP1 PUSH2 0x10C SWAP2 SWAP1 PUSH2 0x84F JUMP JUMPDEST PUSH2 0x3EA JUMP JUMPDEST STOP JUMPDEST PUSH2 0x11B PUSH2 0x60F JUMP JUMPDEST PUSH1 0x40 MLOAD PUSH2 0x128 SWAP2 SWAP1 PUSH2 0xBC0 JUMP JUMPDEST PUSH1 0x40 MLOAD DUP1 SWAP2 SUB SWAP1 RETURN JUMPDEST PUSH2 0x14B PUSH1 0x4 DUP1 CALLDATASIZE SUB DUP2 ADD SWAP1 PUSH2 0x146 SWAP2 SWAP1 PUSH2 0xC07 JUMP JUMPDEST PUSH2 0x638 JUMP JUMPDEST STOP JUMPDEST PUSH1 0x2 PUSH1 0x20 MSTORE DUP1 PUSH1 0x0 MSTORE PUSH1 0x40 PUSH1 0x0 KECCAK256 PUSH1 0x0 SWAP2 POP SWAP1 POP DUP1 PUSH1 0x0 ADD SLOAD SWAP1 DUP1 PUSH1 0x1 ADD DUP1 SLOAD PUSH2 0x176 SWAP1 PUSH2 0xC63 JUMP JUMPDEST DUP1 PUSH1 0x1F ADD PUSH1 0x20 DUP1 SWAP2 DIV MUL PUSH1 0x20 ADD PUSH1 0x40 MLOAD SWAP1 DUP2 ADD PUSH1 0x40 MSTORE DUP1 SWAP3 SWAP2 SWAP1 DUP2 DUP2 MSTORE PUSH1 0x20 ADD DUP3 DUP1 SLOAD PUSH2 0x1A2 SWAP1 PUSH2 0xC63 JUMP JUMPDEST DUP1 ISZERO PUSH2 0x1EF JUMPI DUP1 PUSH1 0x1F LT PUSH2 0x1C4 JUMPI PUSH2 0x100 DUP1 DUP4 SLOAD DIV MUL DUP4 MSTORE SWAP2 PUSH1 0x20 ADD SWAP2 PUSH2 0x1EF JUMP JUMPDEST DUP3 ADD SWAP2 SWAP1 PUSH1 0x0 MSTORE PUSH1 0x20 PUSH1 0x0 KECCAK256 SWAP1 JUMPDEST DUP2 SLOAD DUP2 MSTORE SWAP1 PUSH1 0x1 ADD SWAP1 PUSH1 0x20 ADD DUP1 DUP4 GT PUSH2 0x1D2 JUMPI DUP3 SWAP1 SUB PUSH1 0x1F AND DUP3 ADD SWAP2 JUMPDEST POP POP POP POP POP SWAP1 DUP1 PUSH1 0x2 ADD SLOAD SWAP1 DUP1 PUSH1 0x3 ADD PUSH1 0x0 SWAP1 SLOAD SWAP1 PUSH2 0x100 EXP SWAP1 DIV PUSH1 0xFF AND SWAP1 POP DUP5 JUMP JUMPDEST PUSH2 0x21A PUSH2 0x6BB JUMP JUMPDEST PUSH1 0x0 DUP2 GT PUSH2 0x25D JUMPI PUSH1 0x40 MLOAD PUSH32 0x8C379A000000000000000000000000000000000000000000000000000000000 DUP2 MSTORE PUSH1 0x4 ADD PUSH2 0x254 SWAP1 PUSH2 0xD06 JUMP JUMPDEST PUSH1 0x40 MLOAD DUP1 SWAP2 SUB SWAP1 REVERT JUMPDEST PUSH1 0x3 PUSH1 0x0 DUP2 SLOAD DUP1 SWAP3 SWAP2 SWAP1 PUSH2 0x270 SWAP1 PUSH2 0xD55 JUMP JUMPDEST SWAP2 SWAP1 POP SSTORE POP PUSH1 0x0 PUSH1 0x40 MLOAD DUP1 PUSH1 0x80 ADD PUSH1 0x40 MSTORE DUP1 PUSH1 0x3 SLOAD DUP2 MSTORE PUSH1 0x20 ADD DUP5 DUP2 MSTORE PUSH1 0x20 ADD DUP4 DUP2 MSTORE PUSH1 0x20 ADD PUSH1 0x1 ISZERO ISZERO DUP2 MSTORE POP SWAP1 POP DUP1 PUSH1 0x2 PUSH1 0x0 PUSH1 0x3 SLOAD DUP2 MSTORE PUSH1 0x20 ADD SWAP1 DUP2 MSTORE PUSH1 0x20 ADD PUSH1 0x0 KECCAK256 PUSH1 0x0 DUP3 ADD MLOAD DUP2 PUSH1 0x0 ADD SSTORE PUSH1 0x20 DUP3 ADD MLOAD DUP2 PUSH1 0x1 ADD SWAP1 DUP2 PUSH2 0x2D4 SWAP2 SWAP1 PUSH2 0xF49 JUMP JUMPDEST POP PUSH1 0x40 DUP3 ADD MLOAD DUP2 PUSH1 0x2 ADD SSTORE PUSH1 0x60 DUP3 ADD MLOAD DUP2 PUSH1 0x3 ADD PUSH1 0x0 PUSH2 0x100 EXP DUP2 SLOAD DUP2 PUSH1 0xFF MUL NOT AND SWAP1 DUP4 ISZERO ISZERO MUL OR SWAP1 SSTORE POP SWAP1 POP POP PUSH1 0x3 SLOAD PUSH32 0x94A77A130832117C89F88D88EE5935012A23789B0E10196A4D2527BBC549B31D DUP5 DUP5 PUSH1 0x40 MLOAD PUSH2 0x336 SWAP3 SWAP2 SWAP1 PUSH2 0x101B JUMP JUMPDEST PUSH1 0x40 MLOAD DUP1 SWAP2 SUB SWAP1 LOG2 POP POP POP JUMP JUMPDEST PUSH2 0x34B PUSH2 0x6BB JUMP JUMPDEST PUSH1 0x0 PUSH1 0x2 PUSH1 0x0 DUP5 DUP2 MSTORE PUSH1 0x20 ADD SWAP1 DUP2 MSTORE PUSH1 0x20 ADD PUSH1 0x0 KECCAK256 PUSH1 0x0 ADD SLOAD SUB PUSH2 0x3A4 JUMPI PUSH1 0x40 MLOAD PUSH32 0x8C379A000000000000000000000000000000000000000000000000000000000 DUP2 MSTORE PUSH1 0x4 ADD PUSH2 0x39B SWAP1 PUSH2 0x1097 JUMP JUMPDEST PUSH1 0x40 MLOAD DUP1 SWAP2 SUB SWAP1 REVERT JUMPDEST DUP1 PUSH1 0x2 PUSH1 0x0 DUP5 DUP2 MSTORE PUSH1 0x20 ADD SWAP1 DUP2 MSTORE PUSH1 0x20 ADD PUSH1 0x0 KECCAK256 PUSH1 0x3 ADD PUSH1 0x0 PUSH2 0x100 EXP DUP2 SLOAD DUP2 PUSH1 0xFF MUL NOT AND SWAP1 DUP4 ISZERO ISZERO MUL OR SWAP1 SSTORE POP POP POP JUMP JUMPDEST PUSH2 0x3DE PUSH2 0x6BB JUMP JUMPDEST PUSH2 0x3E8 PUSH1 0x0 PUSH2 0x739 JUMP JUMPDEST JUMP JUMPDEST PUSH1 0x0 PUSH1 0x2 PUSH1 0x0 DUP4 DUP2 MSTORE PUSH1 0x20 ADD SWAP1 DUP2 MSTORE PUSH1 0x20 ADD PUSH1 0x0 KECCAK256 SWAP1 POP DUP1 PUSH1 0x3 ADD PUSH1 0x0 SWAP1 SLOAD SWAP1 PUSH2 0x100 EXP SWAP1 DIV PUSH1 0xFF AND PUSH2 0x452 JUMPI PUSH1 0x40 MLOAD PUSH32 0x8C379A000000000000000000000000000000000000000000000000000000000 DUP2 MSTORE PUSH1 0x4 ADD PUSH2 0x449 SWAP1 PUSH2 0x1103 JUMP JUMPDEST PUSH1 0x40 MLOAD DUP1 SWAP2 SUB SWAP1 REVERT JUMPDEST DUP1 PUSH1 0x2 ADD SLOAD PUSH1 0x1 PUSH1 0x0 SWAP1 SLOAD SWAP1 PUSH2 0x100 EXP SWAP1 DIV PUSH20 0xFFFFFFFFFFFFFFFFFFFFFFFFFFFFFFFFFFFFFFFF AND PUSH20 0xFFFFFFFFFFFFFFFFFFFFFFFFFFFFFFFFFFFFFFFF AND PUSH4 0xE707F36F CALLER PUSH1 0x40 MLOAD DUP3 PUSH4 0xFFFFFFFF AND PUSH1 0xE0 SHL DUP2 MSTORE PUSH1 0x4 ADD PUSH2 0x4B2 SWAP2 SWAP1 PUSH2 0xBC0 JUMP JUMPDEST PUSH1 0x20 PUSH1 0x40 MLOAD DUP1 DUP4 SUB DUP2 DUP7 GAS STATICCALL ISZERO DUP1 ISZERO PUSH2 0x4CF JUMPI RETURNDATASIZE PUSH1 0x0 DUP1 RETURNDATACOPY RETURNDATASIZE PUSH1 0x0 REVERT JUMPDEST POP POP POP POP PUSH1 0x40 MLOAD RETURNDATASIZE PUSH1 0x1F NOT PUSH1 0x1F DUP3 ADD AND DUP3 ADD DUP1 PUSH1 0x40 MSTORE POP DUP2 ADD SWAP1 PUSH2 0x4F3 SWAP2 SWAP1 PUSH2 0x1138 JUMP JUMPDEST LT ISZERO PUSH2 0x534 JUMPI PUSH1 0x40 MLOAD PUSH32 0x8C379A000000000000000000000000000000000000000000000000000000000 DUP2 MSTORE PUSH1 0x4 ADD PUSH2 0x52B SWAP1 PUSH2 0x11B1 JUMP JUMPDEST PUSH1 0x40 MLOAD DUP1 SWAP2 SUB SWAP1 REVERT JUMPDEST PUSH1 0x1 PUSH1 0x0 SWAP1 SLOAD SWAP1 PUSH2 0x100 EXP SWAP1 DIV PUSH20 0xFFFFFFFFFFFFFFFFFFFFFFFFFFFFFFFFFFFFFFFF AND PUSH20 0xFFFFFFFFFFFFFFFFFFFFFFFFFFFFFFFFFFFFFFFF AND PUSH4 0xB85DA8D2 CALLER DUP4 PUSH1 0x2 ADD SLOAD PUSH1 0x40 MLOAD DUP4 PUSH4 0xFFFFFFFF AND PUSH1 0xE0 SHL DUP2 MSTORE PUSH1 0x4 ADD PUSH2 0x595 SWAP3 SWAP2 SWAP1 PUSH2 0x11D1 JUMP JUMPDEST PUSH1 0x0 PUSH1 0x40 MLOAD DUP1 DUP4 SUB DUP2 PUSH1 0x0 DUP8 DUP1 EXTCODESIZE ISZERO DUP1 ISZERO PUSH2 0x5AF JUMPI PUSH1 0x0 DUP1 REVERT JUMPDEST POP GAS CALL ISZERO DUP1 ISZERO PUSH2 0x5C3 JUMPI RETURNDATASIZE PUSH1 0x0 DUP1 RETURNDATACOPY RETURNDATASIZE PUSH1 0x0 REVERT JUMPDEST POP POP POP POP DUP2 CALLER PUSH20 0xFFFFFFFFFFFFFFFFFFFFFFFFFFFFFFFFFFFFFFFF AND PUSH32 0x5C29E918D001B016DAB341065AD83901A299250C66EE500F21873E73737FE4C6 PUSH1 0x40 MLOAD PUSH1 0x40 MLOAD DUP1 SWAP2 SUB SWAP1 LOG3 POP POP JUMP JUMPDEST PUSH1 0x0 DUP1 PUSH1 0x0 SWAP1 SLOAD SWAP1 PUSH2 0x100 EXP SWAP1 DIV PUSH20 0xFFFFFFFFFFFFFFFFFFFFFFFFFFFFFFFFFFFFFFFF AND SWAP1 POP SWAP1 JUMP JUMPDEST PUSH2 0x640 PUSH2 0x6BB JUMP JUMPDEST PUSH1 0x0 PUSH20 0xFFFFFFFFFFFFFFFFFFFFFFFFFFFFFFFFFFFFFFFF AND DUP2 PUSH20 0xFFFFFFFFFFFFFFFFFFFFFFFFFFFFFFFFFFFFFFFF AND SUB PUSH2 0x6AF JUMPI PUSH1 0x40 MLOAD PUSH32 0x8C379A000000000000000000000000000000000000000000000000000000000 DUP2 MSTORE PUSH1 0x4 ADD PUSH2 0x6A6 SWAP1 PUSH2 0x126C JUMP JUMPDEST PUSH1 0x40 MLOAD DUP1 SWAP2 SUB SWAP1 REVERT JUMPDEST PUSH2 0x6B8 DUP2 PUSH2 0x739 JUMP JUMPDEST POP JUMP JUMPDEST PUSH2 0x6C3 PUSH2 0x7FD JUMP JUMPDEST PUSH20 0xFFFFFFFFFFFFFFFFFFFFFFFFFFFFFFFFFFFFFFFF AND PUSH2 0x6E1 PUSH2 0x60F JUMP JUMPDEST PUSH20 0xFFFFFFFFFFFFFFFFFFFFFFFFFFFFFFFFFFFFFFFF AND EQ PUSH2 0x737 JUMPI PUSH1 0x40 MLOAD PUSH32 0x8C379A000000000000000000000000000000000000000000000000000000000 DUP2 MSTORE PUSH1 0x4 ADD PUSH2 0x72E SWAP1 PUSH2 0x12D8 JUMP JUMPDEST PUSH1 0x40 MLOAD DUP1 SWAP2 SUB SWAP1 REVERT JUMPDEST JUMP JUMPDEST PUSH1 0x0 DUP1 PUSH1 0x0 SWAP1 SLOAD SWAP1 PUSH2 0x100 EXP SWAP1 DIV PUSH20 0xFFFFFFFFFFFFFFFFFFFFFFFFFFFFFFFFFFFFFFFF AND SWAP1 POP DUP2 PUSH1 0x0 DUP1 PUSH2 0x100 EXP DUP2 SLOAD DUP2 PUSH20 0xFFFFFFFFFFFFFFFFFFFFFFFFFFFFFFFFFFFFFFFF MUL NOT AND SWAP1 DUP4 PUSH20 0xFFFFFFFFFFFFFFFFFFFFFFFFFFFFFFFFFFFFFFFF AND MUL OR SWAP1 SSTORE POP DUP2 PUSH20 0xFFFFFFFFFFFFFFFFFFFFFFFFFFFFFFFFFFFFFFFF AND DUP2 PUSH20 0xFFFFFFFFFFFFFFFFFFFFFFFFFFFFFFFFFFFFFFFF AND PUSH32 0x8BE0079C531659141344CD1FD0A4F28419497F9722A3DAAFE3B4186F6B6457E0 PUSH1 0x40 MLOAD PUSH1 0x40 MLOAD DUP1 SWAP2 SUB SWAP1 LOG3 POP POP JUMP JUMPDEST PUSH1 0x0 CALLER SWAP1 POP SWAP1 JUMP JUMPDEST PUSH1 0x0 PUSH1 0x40 MLOAD SWAP1 POP SWAP1 JUMP JUMPDEST PUSH1 0x0 DUP1 REVERT JUMPDEST PUSH1 0x0 DUP1 REVERT JUMPDEST PUSH1 0x0 DUP2 SWAP1 POP SWAP2 SWAP1 POP JUMP JUMPDEST PUSH2 0x82C DUP2 PUSH2 0x819 JUMP JUMPDEST DUP2 EQ PUSH2 0x837 JUMPI PUSH1 0x0 DUP1 REVERT JUMPDEST POP JUMP JUMPDEST PUSH1 0x0 DUP2 CALLDATALOAD SWAP1 POP PUSH2 0x849 DUP2 PUSH2 0x823 JUMP JUMPDEST SWAP3 SWAP2 POP POP JUMP JUMPDEST PUSH1 0x0 PUSH1 0x20 DUP3 DUP5 SUB SLT ISZERO PUSH2 0x865 JUMPI PUSH2 0x864 PUSH2 0x80F JUMP JUMPDEST JUMPDEST PUSH1 0x0 PUSH2 0x873 DUP5 DUP3 DUP6 ADD PUSH2 0x83A JUMP JUMPDEST SWAP2 POP POP SWAP3 SWAP2 POP POP JUMP JUMPDEST PUSH2 0x885 DUP2 PUSH2 0x819 JUMP JUMPDEST DUP3 MSTORE POP POP JUMP JUMPDEST PUSH1 0x0 DUP2 MLOAD SWAP1 POP SWAP2 SWAP1 POP JUMP JUMPDEST PUSH1 0x0 DUP3 DUP3 MSTORE PUSH1 0x20 DUP3 ADD SWAP1 POP SWAP3 SWAP2 POP POP JUMP JUMPDEST PUSH1 0x0 JUMPDEST DUP4 DUP2 LT ISZERO PUSH2 0x8C5 JUMPI DUP1 DUP3 ADD MLOAD DUP2 DUP5 ADD MSTORE PUSH1 0x20 DUP2 ADD SWAP1 POP PUSH2 0x8AA JUMP JUMPDEST PUSH1 0x0 DUP5 DUP5 ADD MSTORE POP POP POP POP JUMP JUMPDEST PUSH1 0x0 PUSH1 0x1F NOT PUSH1 0x1F DUP4 ADD AND SWAP1 POP SWAP2 SWAP1 POP JUMP JUMPDEST PUSH1 0x0 PUSH2 0x8ED DUP3 PUSH2 0x88B JUMP JUMPDEST PUSH2 0x8F7 DUP2 DUP6 PUSH2 0x896 JUMP JUMPDEST SWAP4 POP PUSH2 0x907 DUP2 DUP6 PUSH1 0x20 DUP7 ADD PUSH2 0x8A7 JUMP JUMPDEST PUSH2 0x910 DUP2 PUSH2 0x8D1 JUMP JUMPDEST DUP5 ADD SWAP2 POP POP SWAP3 SWAP2 POP POP JUMP JUMPDEST PUSH1 0x0 DUP2 ISZERO ISZERO SWAP1 POP SWAP2 SWAP1 POP JUMP JUMPDEST PUSH2 0x930 DUP2 PUSH2 0x91B JUMP JUMPDEST DUP3 MSTORE POP POP JUMP JUMPDEST PUSH1 0x0 PUSH1 0x80 DUP3 ADD SWAP1 POP PUSH2 0x94B PUSH1 0x0 DUP4 ADD DUP8 PUSH2 0x87C JUMP JUMPDEST DUP2 DUP2 SUB PUSH1 0x20 DUP4 ADD MSTORE PUSH2 0x95D DUP2 DUP7 PUSH2 0x8E2 JUMP JUMPDEST SWAP1 POP PUSH2 0x96C PUSH1 0x40 DUP4 ADD DUP6 PUSH2 0x87C JUMP JUMPDEST PUSH2 0x979 PUSH1 0x60 DUP4 ADD DUP5 PUSH2 0x927 JUMP JUMPDEST SWAP6 SWAP5 POP POP POP POP POP JUMP JUMPDEST PUSH1 0x0 DUP1 REVERT JUMPDEST PUSH1 0x0 DUP1 REVERT JUMPDEST PUSH32 0x4E487B7100000000000000000000000000000000000000000000000000000000 PUSH1 0x0 MSTORE PUSH1 0x41 PUSH1 0x4 MSTORE PUSH1 0x24 PUSH1 0x0 REVERT JUMPDEST PUSH2 0x9C4 DUP3 PUSH2 0x8D1 JUMP JUMPDEST DUP2 ADD DUP2 DUP2 LT PUSH8 0xFFFFFFFFFFFFFFFF DUP3 GT OR ISZERO PUSH2 0x9E3 JUMPI PUSH2 0x9E2 PUSH2 0x98C JUMP JUMPDEST JUMPDEST DUP1 PUSH1 0x40 MSTORE POP POP POP JUMP JUMPDEST PUSH1 0x0 PUSH2 0x9F6 PUSH2 0x805 JUMP JUMPDEST SWAP1 POP PUSH2 0xA02 DUP3 DUP3 PUSH2 0x9BB JUMP JUMPDEST SWAP2 SWAP1 POP JUMP JUMPDEST PUSH1 0x0 PUSH8 0xFFFFFFFFFFFFFFFF DUP3 GT ISZERO PUSH2 0xA22 JUMPI PUSH2 0xA21 PUSH2 0x98C JUMP JUMPDEST JUMPDEST PUSH2 0xA2B DUP3 PUSH2 0x8D1 JUMP JUMPDEST SWAP1 POP PUSH1 0x20 DUP2 ADD SWAP1 POP SWAP2 SWAP1 POP JUMP JUMPDEST DUP3 DUP2 DUP4 CALLDATACOPY PUSH1 0x0 DUP4 DUP4 ADD MSTORE POP POP POP JUMP JUMPDEST PUSH1 0x0 PUSH2 0xA5A PUSH2 0xA55 DUP5 PUSH2 0xA07 JUMP JUMPDEST PUSH2 0x9EC JUMP JUMPDEST SWAP1 POP DUP3 DUP2 MSTORE PUSH1 0x20 DUP2 ADD DUP5 DUP5 DUP5 ADD GT ISZERO PUSH2 0xA76 JUMPI PUSH2 0xA75 PUSH2 0x987 JUMP JUMPDEST JUMPDEST PUSH2 0xA81 DUP5 DUP3 DUP6 PUSH2 0xA38 JUMP JUMPDEST POP SWAP4 SWAP3 POP POP POP JUMP JUMPDEST PUSH1 0x0 DUP3 PUSH1 0x1F DUP4 ADD SLT PUSH2 0xA9E JUMPI PUSH2 0xA9D PUSH2 0x982 JUMP JUMPDEST JUMPDEST DUP2 CALLDATALOAD PUSH2 0xAAE DUP5 DUP3 PUSH1 0x20 DUP7 ADD PUSH2 0xA47 JUMP JUMPDEST SWAP2 POP POP SWAP3 SWAP2 POP POP JUMP JUMPDEST PUSH1 0x0 DUP1 PUSH1 0x40 DUP4 DUP6 SUB SLT ISZERO PUSH2 0xACE JUMPI PUSH2 0xACD PUSH2 0x80F JUMP JUMPDEST JUMPDEST PUSH1 0x0 DUP4 ADD CALLDATALOAD PUSH8 0xFFFFFFFFFFFFFFFF DUP2 GT ISZERO PUSH2 0xAEC JUMPI PUSH2 0xAEB PUSH2 0x814 JUMP JUMPDEST JUMPDEST PUSH2 0xAF8 DUP6 DUP3 DUP7 ADD PUSH2 0xA89 JUMP JUMPDEST SWAP3 POP POP PUSH1 0x20 PUSH2 0xB09 DUP6 DUP3 DUP7 ADD PUSH2 0x83A JUMP JUMPDEST SWAP2 POP POP SWAP3 POP SWAP3 SWAP1 POP JUMP JUMPDEST PUSH2 0xB1C DUP2 PUSH2 0x91B JUMP JUMPDEST DUP2 EQ PUSH2 0xB27 JUMPI PUSH1 0x0 DUP1 REVERT JUMPDEST POP JUMP JUMPDEST PUSH1 0x0 DUP2 CALLDATALOAD SWAP1 POP PUSH2 0xB39 DUP2 PUSH2 0xB13 JUMP JUMPDEST SWAP3 SWAP2 POP POP JUMP JUMPDEST PUSH1 0x0 DUP1 PUSH1 0x40 DUP4 DUP6 SUB SLT ISZERO PUSH2 0xB56 JUMPI PUSH2 0xB55 PUSH2 0x80F JUMP JUMPDEST JUMPDEST PUSH1 0x0 PUSH2 0xB64 DUP6 DUP3 DUP7 ADD PUSH2 0x83A JUMP JUMPDEST SWAP3 POP POP PUSH1 0x20 PUSH2 0xB75 DUP6 DUP3 DUP7 ADD PUSH2 0xB2A JUMP JUMPDEST SWAP2 POP POP SWAP3 POP SWAP3 SWAP1 POP JUMP JUMPDEST PUSH1 0x0 PUSH20 0xFFFFFFFFFFFFFFFFFFFFFFFFFFFFFFFFFFFFFFFF DUP3 AND SWAP1 POP SWAP2 SWAP1 POP JUMP JUMPDEST PUSH1 0x0 PUSH2 0xBAA DUP3 PUSH2 0xB7F JUMP JUMPDEST SWAP1 POP SWAP2 SWAP1 POP JUMP JUMPDEST PUSH2 0xBBA DUP2 PUSH2 0xB9F JUMP JUMPDEST DUP3 MSTORE POP POP JUMP JUMPDEST PUSH1 0x0 PUSH1 0x20 DUP3 ADD SWAP1 POP PUSH2 0xBD5 PUSH1 0x0 DUP4 ADD DUP5 PUSH2 0xBB1 JUMP JUMPDEST SWAP3 SWAP2 POP POP JUMP JUMPDEST PUSH2 0xBE4 DUP2 PUSH2 0xB9F JUMP JUMPDEST DUP2 EQ PUSH2 0xBEF JUMPI PUSH1 0x0 DUP1 REVERT JUMPDEST POP JUMP JUMPDEST PUSH1 0x0 DUP2 CALLDATALOAD SWAP1 POP PUSH2 0xC01 DUP2 PUSH2 0xBDB JUMP JUMPDEST SWAP3 SWAP2 POP POP JUMP JUMPDEST PUSH1 0x0 PUSH1 0x20 DUP3 DUP5 SUB SLT ISZERO PUSH2 0xC1D JUMPI PUSH2 0xC1C PUSH2 0x80F JUMP JUMPDEST JUMPDEST PUSH1 0x0 PUSH2 0xC2B DUP5 DUP3 DUP6 ADD PUSH2 0xBF2 JUMP JUMPDEST SWAP2 POP POP SWAP3 SWAP2 POP POP JUMP JUMPDEST PUSH32 0x4E487B7100000000000000000000000000000000000000000000000000000000 PUSH1 0x0 MSTORE PUSH1 0x22 PUSH1 0x4 MSTORE PUSH1 0x24 PUSH1 0x0 REVERT JUMPDEST PUSH1 0x0 PUSH1 0x2 DUP3 DIV SWAP1 POP PUSH1 0x1 DUP3 AND DUP1 PUSH2 0xC7B JUMPI PUSH1 0x7F DUP3 AND SWAP2 POP JUMPDEST PUSH1 0x20 DUP3 LT DUP2 SUB PUSH2 0xC8E JUMPI PUSH2 0xC8D PUSH2 0xC34 JUMP JUMPDEST JUMPDEST POP SWAP2 SWAP1 POP JUMP JUMPDEST PUSH32 0x506F696E74732072657175697265642073686F756C6420626520677265617465 PUSH1 0x0 DUP3 ADD MSTORE PUSH32 0x72207468616E207A65726F000000000000000000000000000000000000000000 PUSH1 0x20 DUP3 ADD MSTORE POP JUMP JUMPDEST PUSH1 0x0 PUSH2 0xCF0 PUSH1 0x2B DUP4 PUSH2 0x896 JUMP JUMPDEST SWAP2 POP PUSH2 0xCFB DUP3 PUSH2 0xC94 JUMP JUMPDEST PUSH1 0x40 DUP3 ADD SWAP1 POP SWAP2 SWAP1 POP JUMP JUMPDEST PUSH1 0x0 PUSH1 0x20 DUP3 ADD SWAP1 POP DUP2 DUP2 SUB PUSH1 0x0 DUP4 ADD MSTORE PUSH2 0xD1F DUP2 PUSH2 0xCE3 JUMP JUMPDEST SWAP1 POP SWAP2 SWAP1 POP JUMP JUMPDEST PUSH32 0x4E487B7100000000000000000000000000000000000000000000000000000000 PUSH1 0x0 MSTORE PUSH1 0x11 PUSH1 0x4 MSTORE PUSH1 0x24 PUSH1 0x0 REVERT JUMPDEST PUSH1 0x0 PUSH2 0xD60 DUP3 PUSH2 0x819 JUMP JUMPDEST SWAP2 POP PUSH32 0xFFFFFFFFFFFFFFFFFFFFFFFFFFFFFFFFFFFFFFFFFFFFFFFFFFFFFFFFFFFFFFFF DUP3 SUB PUSH2 0xD92 JUMPI PUSH2 0xD91 PUSH2 0xD26 JUMP JUMPDEST JUMPDEST PUSH1 0x1 DUP3 ADD SWAP1 POP SWAP2 SWAP1 POP JUMP JUMPDEST PUSH1 0x0 DUP2 SWAP1 POP DUP2 PUSH1 0x0 MSTORE PUSH1 0x20 PUSH1 0x0 KECCAK256 SWAP1 POP SWAP2 SWAP1 POP JUMP JUMPDEST PUSH1 0x0 PUSH1 0x20 PUSH1 0x1F DUP4 ADD DIV SWAP1 POP SWAP2 SWAP1 POP JUMP JUMPDEST PUSH1 0x0 DUP3 DUP3 SHL SWAP1 POP SWAP3 SWAP2 POP POP JUMP JUMPDEST PUSH1 0x0 PUSH1 0x8 DUP4 MUL PUSH2 0xDFF PUSH32 0xFFFFFFFFFFFFFFFFFFFFFFFFFFFFFFFFFFFFFFFFFFFFFFFFFFFFFFFFFFFFFFFF DUP3 PUSH2 0xDC2 JUMP JUMPDEST PUSH2 0xE09 DUP7 DUP4 PUSH2 0xDC2 JUMP JUMPDEST SWAP6 POP DUP1 NOT DUP5 AND SWAP4 POP DUP1 DUP7 AND DUP5 OR SWAP3 POP POP POP SWAP4 SWAP3 POP POP POP JUMP JUMPDEST PUSH1 0x0 DUP2 SWAP1 POP SWAP2 SWAP1 POP JUMP JUMPDEST PUSH1 0x0 PUSH2 0xE46 PUSH2 0xE41 PUSH2 0xE3C DUP5 PUSH2 0x819 JUMP JUMPDEST PUSH2 0xE21 JUMP JUMPDEST PUSH2 0x819 JUMP JUMPDEST SWAP1 POP SWAP2 SWAP1 POP JUMP JUMPDEST PUSH1 0x0 DUP2 SWAP1 POP SWAP2 SWAP1 POP JUMP JUMPDEST PUSH2 0xE60 DUP4 PUSH2 0xE2B JUMP JUMPDEST PUSH2 0xE74 PUSH2 0xE6C DUP3 PUSH2 0xE4D JUMP JUMPDEST DUP5 DUP5 SLOAD PUSH2 0xDCF JUMP JUMPDEST DUP3 SSTORE POP POP POP POP JUMP JUMPDEST PUSH1 0x0 SWAP1 JUMP JUMPDEST PUSH2 0xE89 PUSH2 0xE7C JUMP JUMPDEST PUSH2 0xE94 DUP2 DUP5 DUP5 PUSH2 0xE57 JUMP JUMPDEST POP POP POP JUMP JUMPDEST JUMPDEST DUP2 DUP2 LT ISZERO PUSH2 0xEB8 JUMPI PUSH2 0xEAD PUSH1 0x0 DUP3 PUSH2 0xE81 JUMP JUMPDEST PUSH1 0x1 DUP2 ADD SWAP1 POP PUSH2 0xE9A JUMP JUMPDEST POP POP JUMP JUMPDEST PUSH1 0x1F DUP3 GT ISZERO PUSH2 0xEFD JUMPI PUSH2 0xECE DUP2 PUSH2 0xD9D JUMP JUMPDEST PUSH2 0xED7 DUP5 PUSH2 0xDB2 JUMP JUMPDEST DUP2 ADD PUSH1 0x20 DUP6 LT ISZERO PUSH2 0xEE6 JUMPI DUP2 SWAP1 POP JUMPDEST PUSH2 0xEFA PUSH2 0xEF2 DUP6 PUSH2 0xDB2 JUMP JUMPDEST DUP4 ADD DUP3 PUSH2 0xE99 JUMP JUMPDEST POP POP JUMPDEST POP POP POP JUMP JUMPDEST PUSH1 0x0 DUP3 DUP3 SHR SWAP1 POP SWAP3 SWAP2 POP POP JUMP JUMPDEST PUSH1 0x0 PUSH2 0xF20 PUSH1 0x0 NOT DUP5 PUSH1 0x8 MUL PUSH2 0xF02 JUMP JUMPDEST NOT DUP1 DUP4 AND SWAP2 POP POP SWAP3 SWAP2 POP POP JUMP JUMPDEST PUSH1 0x0 PUSH2 0xF39 DUP4 DUP4 PUSH2 0xF0F JUMP JUMPDEST SWAP2 POP DUP3 PUSH1 0x2 MUL DUP3 OR SWAP1 POP SWAP3 SWAP2 POP POP JUMP JUMPDEST PUSH2 0xF52 DUP3 PUSH2 0x88B JUMP JUMPDEST PUSH8 0xFFFFFFFFFFFFFFFF DUP2 GT ISZERO PUSH2 0xF6B JUMPI PUSH2 0xF6A PUSH2 0x98C JUMP JUMPDEST JUMPDEST PUSH2 0xF75 DUP3 SLOAD PUSH2 0xC63 JUMP JUMPDEST PUSH2 0xF80 DUP3 DUP3 DUP6 PUSH2 0xEBC JUMP JUMPDEST PUSH1 0x0 PUSH1 0x20 SWAP1 POP PUSH1 0x1F DUP4 GT PUSH1 0x1 DUP2 EQ PUSH2 0xFB3 JUMPI PUSH1 0x0 DUP5 ISZERO PUSH2 0xFA1 JUMPI DUP3 DUP8 ADD MLOAD SWAP1 POP JUMPDEST PUSH2 0xFAB DUP6 DUP3 PUSH2 0xF2D JUMP JUMPDEST DUP7 SSTORE POP PUSH2 0x1013 JUMP JUMPDEST PUSH1 0x1F NOT DUP5 AND PUSH2 0xFC1 DUP7 PUSH2 0xD9D JUMP JUMPDEST PUSH1 0x0 JUMPDEST DUP3 DUP2 LT ISZERO PUSH2 0xFE9 JUMPI DUP5 DUP10 ADD MLOAD DUP3 SSTORE PUSH1 0x1 DUP3 ADD SWAP2 POP PUSH1 0x20 DUP6 ADD SWAP5 POP PUSH1 0x20 DUP2 ADD SWAP1 POP PUSH2 0xFC4 JUMP JUMPDEST DUP7 DUP4 LT ISZERO PUSH2 0x1006 JUMPI DUP5 DUP10 ADD MLOAD PUSH2 0x1002 PUSH1 0x1F DUP10 AND DUP3 PUSH2 0xF0F JUMP JUMPDEST DUP4 SSTORE POP JUMPDEST PUSH1 0x1 PUSH1 0x2 DUP9 MUL ADD DUP9 SSTORE POP POP POP JUMPDEST POP POP POP POP POP POP JUMP JUMPDEST PUSH1 0x0 PUSH1 0x40 DUP3 ADD SWAP1 POP DUP2 DUP2 SUB PUSH1 0x0 DUP4 ADD MSTORE PUSH2 0x1035 DUP2 DUP6 PUSH2 0x8E2 JUMP JUMPDEST SWAP1 POP PUSH2 0x1044 PUSH1 0x20 DUP4 ADD DUP5 PUSH2 0x87C JUMP JUMPDEST SWAP4 SWAP3 POP POP POP JUMP JUMPDEST PUSH32 0x526577617264206974656D20646F6573206E6F74206578697374000000000000 PUSH1 0x0 DUP3 ADD MSTORE POP JUMP JUMPDEST PUSH1 0x0 PUSH2 0x1081 PUSH1 0x1A DUP4 PUSH2 0x896 JUMP JUMPDEST SWAP2 POP PUSH2 0x108C DUP3 PUSH2 0x104B JUMP JUMPDEST PUSH1 0x20 DUP3 ADD SWAP1 POP SWAP2 SWAP1 POP JUMP JUMPDEST PUSH1 0x0 PUSH1 0x20 DUP3 ADD SWAP1 POP DUP2 DUP2 SUB PUSH1 0x0 DUP4 ADD MSTORE PUSH2 0x10B0 DUP2 PUSH2 0x1074 JUMP JUMPDEST SWAP1 POP SWAP2 SWAP1 POP JUMP JUMPDEST PUSH32 0x526577617264206974656D206973206E6F742061637469766500000000000000 PUSH1 0x0 DUP3 ADD MSTORE POP JUMP JUMPDEST PUSH1 0x0 PUSH2 0x10ED PUSH1 0x19 DUP4 PUSH2 0x896 JUMP JUMPDEST SWAP2 POP PUSH2 0x10F8 DUP3 PUSH2 0x10B7 JUMP JUMPDEST PUSH1 0x20 DUP3 ADD SWAP1 POP SWAP2 SWAP1 POP JUMP JUMPDEST PUSH1 0x0 PUSH1 0x20 DUP3 ADD SWAP1 POP DUP2 DUP2 SUB PUSH1 0x0 DUP4 ADD MSTORE PUSH2 0x111C DUP2 PUSH2 0x10E0 JUMP JUMPDEST SWAP1 POP SWAP2 SWAP1 POP JUMP JUMPDEST PUSH1 0x0 DUP2 MLOAD SWAP1 POP PUSH2 0x1132 DUP2 PUSH2 0x823 JUMP JUMPDEST SWAP3 SWAP2 POP POP JUMP JUMPDEST PUSH1 0x0 PUSH1 0x20 DUP3 DUP5 SUB SLT ISZERO PUSH2 0x114E JUMPI PUSH2 0x114D PUSH2 0x80F JUMP JUMPDEST JUMPDEST PUSH1 0x0 PUSH2 0x115C DUP5 DUP3 DUP6 ADD PUSH2 0x1123 JUMP JUMPDEST SWAP2 POP POP SWAP3 SWAP2 POP POP JUMP JUMPDEST PUSH32 0x496E73756666696369656E7420706F696E747300000000000000000000000000 PUSH1 0x0 DUP3 ADD MSTORE POP JUMP JUMPDEST PUSH1 0x0 PUSH2 0x119B PUSH1 0x13 DUP4 PUSH2 0x896 JUMP JUMPDEST SWAP2 POP PUSH2 0x11A6 DUP3 PUSH2 0x1165 JUMP JUMPDEST PUSH1 0x20 DUP3 ADD SWAP1 POP SWAP2 SWAP1 POP JUMP JUMPDEST PUSH1 0x0 PUSH1 0x20 DUP3 ADD SWAP1 POP DUP2 DUP2 SUB PUSH1 0x0 DUP4 ADD MSTORE PUSH2 0x11CA DUP2 PUSH2 0x118E JUMP JUMPDEST SWAP1 POP SWAP2 SWAP1 POP JUMP JUMPDEST PUSH1 0x0 PUSH1 0x40 DUP3 ADD SWAP1 POP PUSH2 0x11E6 PUSH1 0x0 DUP4 ADD DUP6 PUSH2 0xBB1 JUMP JUMPDEST PUSH2 0x11F3 PUSH1 0x20 DUP4 ADD DUP5 PUSH2 0x87C JUMP JUMPDEST SWAP4 SWAP3 POP POP POP JUMP JUMPDEST PUSH32 0x4F776E61626C653A206E6577206F776E657220697320746865207A65726F2061 PUSH1 0x0 DUP3 ADD MSTORE PUSH32 0x6464726573730000000000000000000000000000000000000000000000000000 PUSH1 0x20 DUP3 ADD MSTORE POP JUMP JUMPDEST PUSH1 0x0 PUSH2 0x1256 PUSH1 0x26 DUP4 PUSH2 0x896 JUMP JUMPDEST SWAP2 POP PUSH2 0x1261 DUP3 PUSH2 0x11FA JUMP JUMPDEST PUSH1 0x40 DUP3 ADD SWAP1 POP SWAP2 SWAP1 POP JUMP JUMPDEST PUSH1 0x0 PUSH1 0x20 DUP3 ADD SWAP1 POP DUP2 DUP2 SUB PUSH1 0x0 DUP4 ADD MSTORE PUSH2 0x1285 DUP2 PUSH2 0x1249 JUMP JUMPDEST SWAP1 POP SWAP2 SWAP1 POP JUMP JUMPDEST PUSH32 0x4F776E61626C653A2063616C6C6572206973206E6F7420746865206F776E6572 PUSH1 0x0 DUP3 ADD MSTORE POP JUMP JUMPDEST PUSH1 0x0 PUSH2 0x12C2 PUSH1 0x20 DUP4 PUSH2 0x896 JUMP JUMPDEST SWAP2 POP PUSH2 0x12CD DUP3 PUSH2 0x128C JUMP JUMPDEST PUSH1 0x20 DUP3 ADD SWAP1 POP SWAP2 SWAP1 POP JUMP JUMPDEST PUSH1 0x0 PUSH1 0x20 DUP3 ADD SWAP1 POP DUP2 DUP2 SUB PUSH1 0x0 DUP4 ADD MSTORE PUSH2 0x12F1 DUP2 PUSH2 0x12B5 JUMP JUMPDEST SWAP1 POP SWAP2 SWAP1 POP JUMP INVALID LOG2 PUSH5 0x6970667358 0x22 SLT KECCAK256 ADD 0xD2 0xE3 PREVRANDAO DUP1 RETURNDATASIZE BASEFEE INVALID 0xAC BYTE DUP10 SWAP9 0xB6 0xC1 ISZERO ISZERO 0xC3 0xE9 DUP2 AND MSTORE ORIGIN PUSH9 0x36A595964FDD43185C PUSH5 0x736F6C6343 STOP ADDMOD SLT STOP CALLER "
				},
				"gasEstimates": {
					"creation": {
						"codeDepositCost": "982000",
						"executionCost": "infinite",
						"totalCost": "infinite"
					},
					"external": {
						"addRewardItem(string,uint256)": "infinite",
						"owner()": "2566",
						"redeemRewardItem(uint256)": "infinite",
						"renounceOwnership()": "30398",
						"rewardItems(uint256)": "infinite",
						"transferOwnership(address)": "30810",
						"updateRewardItemStatus(uint256,bool)": "29452"
					}
				},
				"methodIdentifiers": {
					"addRewardItem(string,uint256)": "499a1385",
					"owner()": "8da5cb5b",
					"redeemRewardItem(uint256)": "7a04f6cf",
					"renounceOwnership()": "715018a6",
					"rewardItems(uint256)": "23de66c9",
					"transferOwnership(address)": "f2fde38b",
					"updateRewardItemStatus(uint256,bool)": "54f2e368"
				}
			},
			"storageLayout": {
				"storage": [
					{
						"astId": 7,
						"contract": "Users/chris/Documents/GitHub/AirlineRewards/contracts/points/PointsRedemption.sol:PointsRedemption",
						"label": "_owner",
						"offset": 0,
						"slot": "0",
						"type": "t_address"
					},
					{
						"astId": 292,
						"contract": "Users/chris/Documents/GitHub/AirlineRewards/contracts/points/PointsRedemption.sol:PointsRedemption",
						"label": "pointsManagement",
						"offset": 0,
						"slot": "1",
						"type": "t_contract(PointsManagement)283"
					},
					{
						"astId": 297,
						"contract": "Users/chris/Documents/GitHub/AirlineRewards/contracts/points/PointsRedemption.sol:PointsRedemption",
						"label": "rewardItems",
						"offset": 0,
						"slot": "2",
						"type": "t_mapping(t_uint256,t_struct(RewardItem)306_storage)"
					},
					{
						"astId": 308,
						"contract": "Users/chris/Documents/GitHub/AirlineRewards/contracts/points/PointsRedemption.sol:PointsRedemption",
						"label": "rewardItemIdCounter",
						"offset": 0,
						"slot": "3",
						"type": "t_uint256"
					}
				],
				"types": {
					"t_address": {
						"encoding": "inplace",
						"label": "address",
						"numberOfBytes": "20"
					},
					"t_bool": {
						"encoding": "inplace",
						"label": "bool",
						"numberOfBytes": "1"
					},
					"t_contract(PointsManagement)283": {
						"encoding": "inplace",
						"label": "contract PointsManagement",
						"numberOfBytes": "20"
					},
					"t_mapping(t_uint256,t_struct(RewardItem)306_storage)": {
						"encoding": "mapping",
						"key": "t_uint256",
						"label": "mapping(uint256 => struct PointsRedemption.RewardItem)",
						"numberOfBytes": "32",
						"value": "t_struct(RewardItem)306_storage"
					},
					"t_string_storage": {
						"encoding": "bytes",
						"label": "string",
						"numberOfBytes": "32"
					},
					"t_struct(RewardItem)306_storage": {
						"encoding": "inplace",
						"label": "struct PointsRedemption.RewardItem",
						"members": [
							{
								"astId": 299,
								"contract": "Users/chris/Documents/GitHub/AirlineRewards/contracts/points/PointsRedemption.sol:PointsRedemption",
								"label": "id",
								"offset": 0,
								"slot": "0",
								"type": "t_uint256"
							},
							{
								"astId": 301,
								"contract": "Users/chris/Documents/GitHub/AirlineRewards/contracts/points/PointsRedemption.sol:PointsRedemption",
								"label": "name",
								"offset": 0,
								"slot": "1",
								"type": "t_string_storage"
							},
							{
								"astId": 303,
								"contract": "Users/chris/Documents/GitHub/AirlineRewards/contracts/points/PointsRedemption.sol:PointsRedemption",
								"label": "pointsRequired",
								"offset": 0,
								"slot": "2",
								"type": "t_uint256"
							},
							{
								"astId": 305,
								"contract": "Users/chris/Documents/GitHub/AirlineRewards/contracts/points/PointsRedemption.sol:PointsRedemption",
								"label": "active",
								"offset": 0,
								"slot": "3",
								"type": "t_bool"
							}
						],
						"numberOfBytes": "128"
					},
					"t_uint256": {
						"encoding": "inplace",
						"label": "uint256",
						"numberOfBytes": "32"
					}
				}
			},
			"userdoc": {
				"kind": "user",
				"methods": {},
				"version": 1
			}
		}
	}
}